:040800000CEF04F005
:10080800D9CF02F0DACF03F0F3CF04F09AED0BF072
:04081800C9EF0FF025
:100D0000000D0A43414E20726563656976655B207C
:100D100069643A200020666C6167733A20002064A1
:100D20006174613A200054005D000000700ED3121F
:100D30009B8CF29CF28ED59CD59AD58668EC11F0EE
:100D400065EC11F06BEC11F00001BC0E31EC0EF013
:100D50000001D26BD36B80EC0FF00DEC11F0030EA1
:100D60008BEC0EF00001740EE4EC0BF0086A0768DF
:100D7000000E09EC0FF0E8C007F0E9C008F0010E22
:100D800009EC0FF0EAC007F0EBC008F0020E09EC26
:100D90000FF0ECC007F0EDC008F0030E09EC0FF007
:100DA000EEC007F0EFC008F0040E09EC0FF0F0C041
:100DB00007F0F1C008F0050E09EC0FF0030E086E05
:100DC0000768000EE0EC0EF0030E086E0768010ED7
:100DD000E0EC0EF0BEEC10F0F28A0001650E0E6E33
:100DE000A00E0F6EAE0E106EAF0E65EC09F000098E
:100DF00001E1D7D156EC11F000019E6B9F6B0CD036
:100E00009E51650FD96EDA6A9E51DC0FE16EE26A7F
:100E1000DFCFE7FF9E4B9F2BA0514A6E4B6A9F513D
:100E2000800A4C6E4A509E5D4B50800A4C58E8E355
:100E3000AEC0E7F0AFC0E5F0B0C0E6F0A0C0E4F0AF
:100E4000AF29B011B111B21103E1DC0E45EC11F084
:100E5000DC0E45EC11F0000901E183D1AB6BAC6B0A
:100E6000050EAB5D000EAC5901E37BD1AB51020D19
:100E7000F350E80FD96EDA6A10EEE5F0E652DE5272
:100E8000DD50E518DFCFE8FFD8B4E7180AE1AB5131
:100E9000F20FD96EDA6ADF5004E0E5C0D2F0E6C0A6
:100EA000D3F0AB4BAC2BDCD7BC0E076EDC0E62EC88
:100EB0000CF0000901E1AED108680768FF0E09686F
:100EC000D3EC10F0FF00A6D1D2C007F0D3C008F0D9
:100ED000740E1BEC0DF09ED1D2C007F0D3C008F009
:100EE000740E096EA0EC0CF06D6F00016D5101E104
:100EF00091D1D2C007F0D3C008F0040E096EC00E25
:100F0000E8EC10F0BCC008F0C00E5BEC0FF0BDC008
:100F100008F00001C00E5BEC0FF0BEC008F000014D
:100F2000C00E5BEC0FF0BFC008F00001C00E5BEC20
:100F30000FF06DC008F00001C00E5BEC0FF0000177
:100F4000C00ECBEC0DF061EC11F0576A63D1BC0E12
:100F5000076EDC0E62EC0CF00009D8A468EC11F00E
:100F60000001E451030A01E055D1740E076EDEC0A2
:100F700008F0A10E02EC0EF04DD1BC0E076EDC0E97
:100F800062EC0CF0000901E145D1D2C007F0D3C0FA
:100F900008F0740E096EE2C00AF0E3C00BF0A5EC95
:100FA0000FF0D2C03EF0D3C03FF0E2C040F0B6EC4C
:100FB0000EF030D1D2C007F0D3C008F0740E096E25
:100FC000DEC00AF091EC0DF0000901E123D1D20559
:100FD000D31113E1D2C007F0D3C008F0740E096E2C
:100FE000DEC00AF024EC0CF007C06EF008C06FF011
:100FF0006FBF03D06E51DEEC0CF0D2C03EF0D3C018
:101000003FF0DEC040F0B6EC0EF004D1D205D311B3
:101010002DE1D2C007F0D3C008F0740E096EDEC017
:101020000AF024EC0CF007C070F008C071F07151A8
:10103000800AF36E800EF35C000ED8B4705D01E29E
:10104000E9D0D2C007F0D3C008F0660E096EB30E27
:10105000E8EC10F0705126EC10F0086EB30E5BEC6B
:101060000FF00001B30ECBEC0DF0D4D0D205D311AC
:101070001FE1D2C007F0D3C008F0740E096EDEC0C5
:101080000AF024EC0CF007C09CF008C09DF09D51C4
:10109000800AF36E800EF35C040ED8B49C5DD8A079
:1010A0009DBFB8D0DFC007F09C5132EC0FF0B2D03A
:1010B000D251640AD31116E1D2C007F0D3C008F0B0
:1010C000650E096EB30EE8EC10F0DE510AEC10F07C
:1010D000086E0001B30E5BEC0FF00001B30ECBEC19
:1010E0000DF098D0D251640AD31104E1A10E5DEC49
:1010F00010F090D0D251640AD31101E08BD0AA6BCA
:10110000726BA10E5FEC0EF00001740E076EAA0E5A
:10111000086E720E096EA10E56EC0DF0AA517AE01F
:10112000D2C007F0D3C008F0070E096EC90EE8EC74
:1011300010F0AAC008F0C90E5BEC0FF0650E086E47
:101140000001C90E5BEC0FF072C008F00001C90E7F
:101150005BEC0FF00001C90ECBEC0DF05DEC11F073
:1011600059D0DC0EFCEC10F0010A01E1F0D6030AC4
:1011700001E1AAD6010A01E100D7070A01E1ACD6D4
:10118000010A01E117D7030AADE0010AB3E00F0A33
:1011900001E18AD66D0A01E169D7030A01E136D778
:1011A00039D0A7EC10F0000935E1000E0AEC10F080
:1011B00000090AE0010E076E000E32EC0FF0010E7E
:1011C000076E32EC0FF008D0000E076A32EC0FF019
:1011D000076A010E32EC0FF0010E0AEC10F0000964
:1011E00006E0010E076E020E32EC0FF004D0076A23
:1011F000020E32EC0FF0020E0AEC10F0000906E0CD
:10120000010E076E030E32EC0FF004D0076A030ED6
:1012100032EC0FF0040E566420D058040DE1572A2A
:10122000050E576403D068EC11F006D00001C00E23
:10123000CBEC0DF061EC11F059040FE10001A22B91
:1012400020EEA2F0050EDF6403D065EC11F005D0AE
:10125000C90ECBEC0DF05DEC11F0590401E0BDD5E9
:101260000001AD6B736B740E076EAD0E086E730EDE
:10127000096EA10E56EC0DF0AD6703D065EC11F0D0
:10128000ACD5CB51AD1901E1A8D5086A640E076E43
:10129000070E096EC90EE8EC10F0ADC008F0C90EDB
:1012A0005BEC0FF0650E086E0001C90E5BEC0FF0F1
:1012B00073C008F00001C90E5BEC0FF00001C90E0D
:1012C000CBEC0DF05DEC11F088D5136E546A60AE76
:1012D00012D0A49074AE06D01050D96EDA6A000E07
:1012E000DB86749E60A002D0548001D054900F0E13
:1012F000166E600E1AD00F0150AF19D0A49274ACC4
:1013000006D01050D96EDA6A000EDB86749C5051FC
:10131000070B546E020E545C05E21050D96EDA6A67
:10132000000EDB8E0F0E166E500E156E02D0000EE4
:101330005BD016C012F015C011F01050D96EDA6AE9
:10134000DF6A20EE05F051D80F50D96EDA6A1750D7
:101350000F0BDF6E17AC05D01050D96EDA6A000E95
:10136000DB8C20EE02F041D817A608D01050D96EC1
:10137000DA6A000EDB8A010E176E01D0176A152893
:10138000076E000E1620086E13C009F017C00AF091
:10139000FCEC09F0060E1526000E16220F50D96E31
:1013A000DA6ADF50176E146A0DD015C0D9FF16C067
:1013B000DAFF0E50E16EE26ADFCFE7FF154A162A28
:1013C0000E2A142A1750145CF0E3A4AE06D0105075
:1013D000D96EDA6A000EDB88A49E11C0D9FF12C054
:1013E000DAFF7F0EDF16010E12001550D9261650B7
:1013F000DA22DF50176E120009C00DF00A6634D0F1
:101400000D50D96EDA6A07C0E1FF08C0E2FFE7506D
:101410000B6ED8900B36D8900B36D8900B34DF6E0D
:101420000D50D96EDA6AD92A68D8D8900B320C2EB2
:10143000FCD70B504FD8050E0C6ED8900B320C2EEB
:10144000FCD70D50D96EDA6A0B50DF120D50D96EF1
:10145000DA6A020ED926DF6A0D50D96EDA6A030EF7
:10146000D926000EDF6E2BD00D50D96EDA6A020E2F
:10147000D92643D8D8900B360C2EFCD70B50DF6EF4
:101480000D50D96EDA6A030ED92607C0E1FF08C0F5
:10149000E2FFE7503BD80B301DD8030E25D807C01C
:1014A000D9FF08C0DAFFDF5031D80B321C0E1CD830
:1014B00007D8E12ADFCFE7FF03D8DFCFE7FF12002D
:1014C000074A082A07C0D9FF08C0DAFF0D50E16EAD
:1014D000E26A1200DF6E074A082A07C0D9FF08C077
:1014E000DAFFDF500B6E12000B160D50D96EDA6A60
:1014F000020ED9260B50DF12120007C0E1FF08C010
:10150000E2FFE7500B6E050E0C6E050C0B6ED890CB
:101510000B32D8900B32D89012000F010F0E1A6EBA
:10152000400E196E0F0E1C6E300E1B6E0F0E1E6ECF
:10153000200E1D6E2F6A2F50020DF350190FD96E19
:10154000DA6ADECF30F0DDCF31F031C02DF030C0BF
:101550002CF030C0D9FF31C0DAFFDF50186E18B65A
:101560005DD030C0D9FF31C0DAFFFC0EDF1617C0E6
:1015700018F0030E181630C0D9FF31C0DAFF18502A
:10158000DF1217AC04D0165040092E6E02D016C0E0
:101590002EF020EE05F03050D9263150DA222EC040
:1015A000DFFF17AA03D0010E2E6E01D02E6A30285D
:1015B000076E000E3120086E11C009F012C00AF04B
:1015C00013C00BF014C00CF02EC00DF014EC0BF097
:1015D000060E3026000E31222B6A0DD01550D96E22
:1015E000DA6A30C0E1FF31C0E2FFDFCFE7FF152A42
:1015F000304A312A2B2A16502B5CF0E32CC0D9FF3D
:101600002DC0DAFFDF50186E18B406D02CC0D9FFF9
:101610002DC0DAFF000EDB86010E05D02F2A010E49
:101620002F6489D7000E1200090E106E0D6621D0AE
:101630001050D96EDA6ADF500E6ED8900E32D89004
:101640000E32D8900E3058D8D92A6FD8D8900E368E
:101650000F2EFCD707C0D9FF45D867D8D8900E36D3
:101660000F2EFCD70E5007C0D9FF08C0DAFFDF6E7F
:1016700038D010504AD8050E0F6ED8900E320F2E6B
:10168000FCD70E5039D8030E47D80E3607C0D9FF05
:1016900029D8020E41D80E34E00B07C0D9FF08C08C
:1016A000DAFFDF6E07C0D9FF08C0DAFF000EDB8665
:1016B00010502BD8030E0E1607C0D9FF13D8D92A05
:1016C00007C0E1FF08C0E2FFDFCFE7FF074A082AB3
:1016D0001050D96EDA6A07C0E1FF08C0E2FFDFCF21
:1016E000E7FF120008C0DAFF0E50DF12074A082A8F
:1016F0001050D96EDA6A120007C0D9FF08C0DAFFAD
:10170000DF6E1050D96EDA6A1200D96EDA6A020EF4
:10171000D926DF500E6E1200D926DF500E6ED890FB
:101720000E36D8900E36D8901200DF500E6E050E91
:101730000F6E050C0600F4CF05F0F2A43CD058045F
:1017400002E0590409E1524A532A52500C0A53103C
:1017500003E1526A536A562A066A0650020DF35094
:101760000001D50FD96EDA6ADF5020E00650020D75
:10177000F350D50FD96EDA6ADF2A0650020DF35006
:10178000D50FD96EDA6A640EDF6410D00650020DF0
:10179000F350D50FD96EDA6ADF6A0650020DF350A6
:1017A000D40FD96EDA6ADF508FEC10F0062A030EE0
:1017B0000664D3D7F29405C0F4FF04C0F3FF03C05E
:1017C000DAFF02C0D9FF11000B6E0C6A0D6A0C50D3
:1017D000020DF350E80F2FD8DECFE6FFDDCFE5FF97
:1017E0000C50F20F28D8020EE126DFCFE7FF096A7E
:1017F0000A6A0CD00C50080D0B50F3240924D96E42
:10180000DA6A030ED926DF6A094A0A2A0C50080D43
:101810000B504FEC0DF0076E086A0750095C08503A
:101820000A58E8E30C4A0D2A050E0C5C000E0D5810
:10183000D8B01200CCD7D96EDA6A0C50080D0B5014
:10184000F324E16EE26A12000F6A106A0F50080D6D
:101850000950F324D96EDA6ADE520850DD1807C049
:10186000E8FFD8B4DF1825E10D6A0E6A13D00F50D7
:10187000080D0950F3240D24D96EDA6A030ED92617
:101880000A50DF6205D00DC007F00EC008F019D075
:101890000D4A0E2A0F50080D09504FEC0DF00B6E3B
:1018A0000C6A0B500D5C0C500E58E1E30768086899
:1018B00008D00F4A102A050E0F5C000E1058F6E2F1
:1018C000C5D71200086E0850D96EDA6A080ED926FC
:1018D000050EDF6433D00850D96EDA6A020ED926BD
:1018E0000750E16EE26AE750DF6228D00850D96EF7
:1018F000DA6A030ED9260750E16EE26AE12AE75060
:10190000DF621CD00850D96EDA6A040ED92607505F
:10191000E16EE26A020EE126E750DF620FD0085066
:10192000D96EDA6A050ED9260750E16EE26A030E17
:10193000E126E750DF6202D0010E01D0000E120056
:101940000F6A106A0F50080D0950F324D96EDA6A35
:10195000DE520850DD1807C0E8FFD8B4DF1825E1D3
:101960000F50080D09504FEC0DF00C6E0D6A0E6A09
:101970000ED00F50080D0950F3240D24D96EDA6AE9
:10198000030ED926DF50D8A40C060D4A0E2A0F509C
:10199000080D09504FEC0DF00A6E0B6A0A500D5CF1
:1019A0000B500E58E6E30C5008D00F4A102A050ED3
:1019B0000F5C000E1058C6E3000E1200086E040EF5
:1019C000085C38E2096A0950020DF350D40FD96E51
:1019D000DA6AFF0EDF6209D00950020DF350D40F0E
:1019E000D96EDA6A08C0DFFF04D0092A030E096441
:1019F000EAD70A6A0A50020DF350D40FD96EDA6A98
:101A00000850DF6213D00A50020DF350D50FD96E83
:101A1000DA6ADF500FE10A50020DF350D50FD96E8C
:101A2000DA6ADF2A085077EC10F004D00A2A030E95
:101A30000A64E0D712000D6E0E6A0F6A0E50080D90
:101A40000D50F324D96EDA6ADE520850DD1807C053
:101A5000E8FFD8B4DF181BE10B6A0C6A0CD00E50FB
:101A6000080D0D50F3240B24D96EDA6A030ED92623
:101A7000DF6A0B4A0C2A0E50080D0D5010D8096E63
:101A80000A6A09500B5C0A500C5808E2E8D70E4A63
:101A90000F2A050E0E5C000E0F58D0E31200F3243F
:101AA000D96EDA6A020ED926DF5012000A6E0D6A6C
:101AB00031D8DF502AE10B6A0C6A0B50080D075031
:101AC000F324D96EDA6ADE50640ADD1017E10B5098
:101AD000080D0750F3240D24D96EDA6A030ED926B7
:101AE0000850E16EE26ADFCFE7FF14D8020ED92674
:101AF0000950E16EE26ADFCFE7FF0BD00B4A0C2AF8
:101B0000050E0B5C000E0C58D8E30D2A020E0D6476
:101B1000CFD712000D50030D0A50F324D96EDA6AA4
:101B200012000F6A106A0F50080D0950F324D96E85
:101B3000DA6ADE520850DD1807C0E8FFD8B4DF18B3
:101B400021E10D6A0E6A10D00F50080D0950F324E0
:101B50000D24D96EDA6A030ED9260A50DF6202D04C
:101B6000010E18D00D4A0E2A0F50080D09504FECE7
:101B70000DF00B6E0C6A0B500D5C0C500E58E4E32C
:101B8000000E08D00F4A102A050E0F5C000E1058E8
:101B9000F7E2C9D712003D6E3D50D96EDA6ADF50C8
:101BA000336E3D50D96EDA6AD92ADF50346E3B6A03
:101BB0003C6A3D503B24D96EDA6A020ED9263BC0FE
:101BC00032F032263250330FE16EE26ADFCFE7FFA8
:101BD0003B4A3C2A060E3B5C000E3C58EAE3552A81
:101BE000C80E116E126A136A146A330E156E3D50D8
:101BF000D96EDA6A080ED926DF50020F166E176A00
:101C00008DEF0AF0096E0A6A0B6A0A50080D075038
:101C1000F324D96EDA6ADE50640ADD1019E10C6A29
:101C20000A50080D0750F3240C24D96EDA6A030E0B
:101C3000D9260850DF6208D00C50030D0950F32458
:101C4000D96EDA6A010EDF6E0C2A020E0C64E8D738
:101C50000A4A0B2A050E0A5C000E0B58D8B0120077
:101C6000D4D70C6E000E086A076A1CEC11F00C50F9
:101C7000D96EDA6A000E086A076A1CEC11F0DF6E92
:101C80000C50D96EDA6AD92A086A010E076E1CEC6C
:101C900011F0DF6E0C50D96EDA6A020ED926086A8E
:101CA000076E1CEC11F0DF6E0C50D96EDA6A030E71
:101CB000D926086A076E1CEC11F0DF6E1200096E5F
:101CC0000A6A22D8DF501BE00A500AEC10F0086EB6
:101CD0001BD8020ED926DF5008180BE015D8020ECB
:101CE000D92608C0DFFF10D8DF6A0ED8D92A000E27
:101CF00005D00AD8D92ADF6A07D8010EDF6E0A2A72
:101D0000020E0A64DED7020C0A50030D0950F324B8
:101D1000D96EDA6A1200086E800E3AEC11F0096A88
:101D20000FD0096A1CD0010E09D0030E07D0070E90
:101D300005D00F0E03D01F0E01D03F0E096E0FD03D
:101D40000850010AEEE0030AEEE0010AEEE0070A9D
:101D5000EEE0010AEEE0030AEEE0010AEEE0C00E5A
:101D6000701609507012000E3AEF11F03EC007F0E5
:101D70003FC008F0010E096E410EE8EC10F040C0C3
:101D800008F0410E5BEC0FF055C008F0410E5BEC23
:101D90000FF074CF08F0410E5BEC0FF040CF08F06D
:101DA000410E5BEC0FF030CF08F0410E5BEC0FF012
:101DB00076CF08F0410E5BEC0FF0410ECBEF0DF04B
:101DC0000B6E0F0E0D6E180E0C6E0B50040DF350B3
:101DD0000C26F4500D2207C009F008C00AF0D89074
:101DE0000A320932D8900A320932D8900A320932BE
:101DF00009500CC0D9FF0DC0DAFFDF6E0738E84686
:101E0000E00B0C4A0D2A0CC0D9FF0DC0DAFFDF6EC3
:101E100012000B6E0F010F0E0D6E0C6A0B50040DAD
:101E2000F3500C26F4500D2207C009F008C00AF048
:101E3000D8900A320932D8900A320932D8900A3240
:101E4000093209500CC0D9FF0DC0DAFFDF6E073828
:101E5000E846E00B0C4A0D2A0CC0D9FF0DC0DAFF92
:101E6000DF6E1200086E040E085C24E2075009E1E0
:101E700019D089801FD089881DD0898A1BD08A8C6F
:101E800019D00850F6E0010AF6E0030AF6E0010A6C
:101E9000F6E010D089900ED089980CD0899A0AD09B
:101EA0008A9C08D00850F6E0010AF6E0030AF6E042
:101EB000010AF6E012000A6E1BD8060E095C17E252
:101EC00017D80A500924D96EDA6A020ED92608C03A
:101ED000DFFF0A50D96EDA6A080ED9260A50E16E81
:101EE000E26A080EE126E750096E0928DF6E12004B
:101EF0000A50D96EDA6A080ED926DF50096E120030
:101F0000800E3AEC11F0430E706EBF0E716E870EAC
:101F1000726E200E736E779E779C606E0F01506F0D
:101F2000006B016B046B056B086B096B0C6B0D6B25
:101F3000106B116B146B156B186B196B19971C6B6D
:101F40001D6B1D97000E3AEF11F00C6A0D6A0C50D4
:101F5000080D0950F324D96EDA6ADE520850DD18F4
:101F600007C0E8FFD8B4DF180CE10C50080D095089
:101F7000F3240B24D96EDA6A030ED9260AC0DFFFD8
:101F800007D00C4A0D2A050E0C5C000E0D58DFE33D
:101F9000120000EED4F0140EEE6AE806FDE100EE49
:101FA0004DF00D0EEE6AE806FDE19C0EF66E220E77
:101FB000F76E000EF86E00EEE8F010EE0FF009007C
:101FC000F5CFEEFFE550E150FAE1000EF86E0001AA
:101FD00096EF06F00B6A0C6A0D6A0E6A10D00F6A53
:101FE000106A0F4A102A1050800A7E0F6C0ED8B467
:101FF0000F5CF7E30B2A000E0C220D220E22075075
:102000000B5C08500C5809500D580A500E58D8B0A7
:102010001200E5D7076E030E075C0EE315D080A40F
:1020200013D008D080A610D005D081AE0DD002D03C
:1020300080AE0AD0010E09D00750F1E0010AF2E0AB
:10204000030AF3E0010AF4E0000E1200076E040E2A
:10205000075C0EE315D080A013D008D080A810D064
:1020600005D080AA0DD002D081AC0AD0010E09D0D3
:102070000750F1E0010AF2E0030AF3E0010AF4E09C
:10208000000E1200898013D8EAEC0FF0899089883D
:102090000ED8EAEC0FF08998898A09D8EAEC0FF09B
:1020A000899A8A8C04D8EAEC0FF08A9C1200C80E38
:1020B000076E086A096A0A6A000C086E096A10D875
:1020C000020ED92609500AEC10F0DF6E09D8D92A81
:1020D000DF6A06D8DF6A092A020E0964F0D7020C0B
:1020E0000950030D0850F324D96EDA6A1200076E06
:1020F000040E075C0BE312D0010E03D0100E01D0CA
:10210000200E891A0BD0400E8A1A08D00750F4E02E
:10211000010AF4E0030AF4E0010AF5E01200016E9E
:10212000040E015C0BE312D0010E03D0100E01D09F
:10213000200E891A0BD0400E8A1A08D00150F4E004
:10214000010AF4E0030AF4E0010AF5E012004E4A45
:102150004F2A650E4E5C000E4F5804E34E6A4F6ADC
:10216000504A512AE90E505C030E515805E34D6A5E
:10217000506A516A4E6A4F6A4D501200076A075002
:10218000020DF3500001D40FD96EDA6ADF680750F0
:10219000020DF350D50FD96EDA6ADF6A072A030EF3
:1021A0000764EDD7030C08C00AF00AC00BF00C6AF4
:1021B0000B50AA6E07C0A9FF09C0A8FF040EA66EA7
:1021C000550EA76EAA0EA76EA682A6A21200FDD774
:1021D0000A6E0A50D96EDA6AD92A09C0DFFF0A509E
:1021E000D96EDA6A07C0DFFF0A50D96EDA6A080EC4
:1021F000D926000EDF6E000C076E0750D96EDA6A22
:10220000080ED926010EDF6406D00750D96EDA6AAF
:10221000D92ADF5001D0000E12000F0EC112CE0ECF
:102220009216939C8C0E9212CE0E89168A9C801662
:10223000819C938E42EF10F0A6B2FED708C009F041
:1022400009C00AF00B6A0A50AA6E07C0A9FF010E66
:10225000A66EA8501200076E0750D96EDA6A080EF3
:10226000D926DF5005E00750D96EDA6ADF5001D079
:10227000000E1200076E1F0E6F1607506F126F5080
:10228000E00B0718D8B41200FAD7086E08502BECF0
:1022900011F0C80A010ED8A4000E1200010064005B
:1022A000000000000000040300000000010E4D6E5D
:1022B000506A516A4E6A4F6A1200010E596E566A90
:1022C0001200010E586E566A1200596A566A1200C0
:0A22D000586A566A1200556A12009F
:020000040030CA
:08000000FF061F1EFF8091FFA7
:00000001FF
