:040800000CEF04F005
:10080800D9CF34F0DACF35F0F3CF36F054ED0BF022
:10081800FBEF0EF0700ED3129B8CF29CF28E06EC5E
:1008280012F0000E0001606B616BADEC0FF0D70E9B
:10083800B2EC11F0DF0EB2EC11F0D70ED7EC10F0DD
:100848000FEC12F0010E0001636F640E626F63EC2F
:100858000EF00101716B726BD4EC0FF0030E2CECEF
:100868000FF0010E0001616F170E606FF5EC0AF0D2
:10087800616B6069000E83EC0FF0EFC060F0F0C0B0
:1008880061F0010E83EC0FF0F1C060F0F2C061F08E
:10089800020E83EC0FF0F3C060F0F4C061F0030EB9
:1008A80083EC0FF0F5C060F0F6C061F0040E83EC45
:1008B8000FF0F7C060F0F8C061F0050E83EC0FF0A0
:1008C800030E616F6069000E58EC0FF0030E616F44
:1008D8006069010E58EC0FF01CEC11F0F29A010E51
:1008E80000016A6F5D0E696F010E6C6F000E6B6F11
:1008F800010E6E6F4F0E6D6F010E706F530E6F6F9E
:10090800A7EC08F0000901E16ED20101156B166B26
:100918000FD00101000E1525D96EDA6A010EDA2210
:100928001551CB0FE16EE26ADFCFE7FF154B162BAF
:100938004FC1ACF00001AD6B01011651800A0001F6
:10094800AE6FAC510101155D0001AD51800AAE5981
:10095800E0E353C1D6F05DC1D4F05EC1D5F04FC11C
:10096800D3F0CB0EF5EC11F0000901E111D2010131
:10097800506B516B5051020DF350EF0FD96EDA6A7C
:1009880010EED4F0E652DE52DD50E518DFCFE8FF76
:10099800D8B4E7180BE101015051F90FD96EDA6AA2
:1009A800DF5004E0D4C071F1D5C072F10101504BA1
:1009B800512B050E505D000E515901E3E9D1DAD7EC
:1009C800FF0E61696069626956EC11F0FF000BD295
:1009D800010E0001616F170E606F71C162F072C184
:1009E80063F04DEC0DF0FFD171C160F072C161F0A0
:1009F800010E0001636F170E626FADEC0BF0010181
:100A0800106F105101E1EFD1010E0001616F680E06
:100A1800606F71C162F072C163F0040E646FF0EC34
:100A280010F0010E0001616F680E606F64C162F022
:100A380097EC0EF0010E0001616F680E606F65C1E2
:100A480062F097EC0EF0010E0001616F680E606FA6
:100A580066C162F097EC0EF0010E0001616F680E3E
:100A6800606F67C162F097EC0EF0010E0001616FD4
:100A7800680E606F10C162F097EC0EF0010E000175
:100A88008C6F680E8B6F9EEC0DF00BEC12F0C76B41
:100A9800AAD14BDA25EC0EF0000901E1A4D10FEC44
:100AA80012F0A1D142DA25EC0EF0000901E19BD148
:100AB80071C160F072C161F0010E0001636F170E21
:100AC800626FD1C064F0D2C065F0C9EC0EF071C19C
:100AD8009BF072C19CF0D1C09DF053EC10F083D113
:100AE80071C160F072C161F0010E0001636F170EF1
:100AF800626FCDC064F057EC0CF0000901E173D1CE
:100B080001017151030A721107E1EBD904EC0CF0F1
:100B1800916FD70EE2EC0DF071C19BF072C19CF0A1
:100B2800CDC09DF053EC10F05ED101017151030A64
:100B3800721101E058D1D5D904EC0CF00101116F04
:100B4800080E116150D1CEC00AF11151DF0FD96ED4
:100B5800DA6A0AC1DFFF47D101017151030A721134
:100B680001E041D1BED904EC0CF00101126F070E6F
:100B7800126501D038D1010E0001616F540E606F0B
:100B880071C162F072C163F0730E646FF0EC10F023
:100B980012C160F0D70ECCEC11F001010B6F010E01
:100BA8000001616F540E606F0BC162F097EC0EF09C
:100BB800010E00018C6F540E8B6F9EEC0DF013D15B
:100BC80001017151030A721101E00DD18AD904ECB7
:100BD8000CF00101136F080E136105D1CEC062F04D
:100BE80013C163F00001DF0E89EC10F0FCD00101A5
:100BF8007151030A721101E0F6D073D904EC0CF0BC
:100C08000101146F080E1461EED0CEC062F014C159
:100C180063F00001DF0EA4EC10F0E5D00101715182
:100C2800030A721101E0DFD05CD904EC0CF0010179
:100C3800626F626704D00001E70EB2EC11F062C186
:100C4800ACF062D9D8B4AC5D12E20101526B5251DA
:100C5800D208D96EDA6A01016251E70F5225E16EB6
:100C6800E26ADFCFE7FF522B040E5265F0D7080E79
:100C780001016261B8D062C1ACF046D9D8B4AC5DAC
:100C880001E2B1D001014E6B22D001014E5162C187
:100C9800ACF00001AD6BAC1FAD1FAC4BAD2BAC5F26
:100CA800000EAD5B0A0EAC250101086F000E0001B5
:100CB800AD210101096F0851CB0FD96EDA6A625173
:100CC800E70F4E25E16EE26ADFCFE7FF4E2B080EF5
:100CD8000001AC6FAD6B010162510001AC5F000E09
:100CE800AD5B4EC1AEF0AF6BAF51800AB06FAC5187
:100CF800AE5DAD51800AB059C8E3E70E606F626B14
:100D0800080E616FDF0E6EEC10F06DD001017151AD
:100D1800030A721168E1E5D804EC0CF001010C6FCC
:100D2800080E0C6160D0CEC00DF100010DC160F05D
:100D3800616B636B080E626FDF0E07EC11F053D026
:100D480001017151030A72114EE1CBD804EC0CF089
:100D580001010E6F080E0E6146D0CEC062F0000190
:100D6800DF0E36EC10F03FD001017151030A721109
:100D78003AE1B7D804EC0CF001010F6F080E0F61CF
:100D880032D0CEC062F00001DF0E19EC10F02BD08B
:100D98000001CB0E44EC11F0010A01E17AD6030AF6
:100DA80001E116D6010A01E17DD6070A01E11CD648
:100DB800010A01E195D6030A01E102D6740A01E1AC
:100DC800B4D6010A01E1C8D6070A01E1F9D6010A39
:100DD80001E10DD7030A01E121D7010AB1E00F0AA9
:100DE800C3E0010A93E0040E0001C6651AD0C805E5
:100DF80018E1C72B050EC76503D00FEC12F011D010
:100E0800640E606F000E616B626B636BF9EC0FF040
:100E1800010E00018C6F680E8B6F9EEC0DF00BECD1
:100E280012F0C95124E0C96B0101636B85D8AC6F1E
:100E380064D8DF50AC5D05E260D8DF06010ECA6FEA
:100E48000AD05BD8DF50AC6F010176D8AC5D03E205
:100E580054D8DF2AF3D70101632B070E6365E6D761
:100E68000001CA5104E0CA6BD70ED7EC10F0C34B8F
:100E7800C42BC451800A7F0FC20ED8B4C35D24E3CB
:100E8800C14BC22BC36BC46B010EC96F0101616BEF
:100E980045D8DF5014E0010141D8DF2A3FD8640E5D
:100EA800DF640DD06151020DF3500001B20FD96E0D
:100EB800DA6ADF6A61C191F0D70EEBEC11F001013B
:100EC800612B070E6165E4D70001C1510C0AC211FC
:100ED80001E005D5C16BC26BC80501E000D5C62B82
:100EE800FED471C160F072C161F0010E0001636F40
:100EF800170E626FCDC064F012000101635100014A
:100F0800D70FD96EDA6A12000001AD6B050EAC2757
:100F1800000EAD23AD51800A800F080C6151020DFF
:100F2800F350B20FD96EDA6A1200010E0001616F38
:100F3800640E606FCB0E120063510001DF0FD96E93
:100F4800DA6ADF50120000006400660069006B0076
:100F58006E0070007300750078007A007C007E00D7
:100F6800800082008400860088008A008C008E0041
:100F7800900092009400960098009A009C009E00B1
:100F8800A000A200A400A600A800AA00AC00AE0021
:100F9800B000B200B400B700BA00BD00C000C30082
:100FA800C600C900CC00CF00D200D500D800DB00B5
:100FB800DE00E100E400E700EA00ED00F000F300E5
:100FC800F600F900FC00FF000201050108010B0111
:100FD8000E01120116011A011E01220126012A0121
:100FE8002E01320136013A013E01420146014A0111
:100FF8004E01520156015A015E01630168016D01FB
:10100800720177017C01810186018B0190019501B4
:101018009A019F01A401A901AE01B301B801BD0164
:10102800C201C801CE01D401DA01E001E601EC01F8
:10103800F201F801FE0104020A02100216021C0263
:10104800220228022E0234023A0242024A025202C4
:101058005A0262026A0272027A0282028A029402C6
:101068009E02A802B202BC02C602D002DA02E40260
:10107800EE02FA02060312031E032A033603420392
:101088004E035A0366037403820390039E03AC0362
:10109800BA03C803D603E403F203020412042204C9
:1010A8003204420452046204720482049204A404C6
:1010B800B604C804DA04EC04FE041005220534055D
:1010C800460558056A057C058E05A005B205C405C8
:1010D800D605E805FA050C061E0630064206540633
:1010E800660678068A069C06AE06C006D206E406A0
:1010F800F60608071A072C073E0750076207740709
:1011080086079807AA07BC07CE07E007F207040876
:10111800160828083A084C085E08700882089408DF
:10112800A608B808CA08E308FC0815092E094709E3
:10113800600979099209AB09C409BE0AB80BB20C57
:10114800AC0DA60EFF0FC56B60AE14D0A49074AEA4
:1011580007D06FC0D9FF70C0DAFF000EDB86749E1F
:1011680060A002D0C58102D00001C5910F0E756F35
:10117800600E1ED00F0150AF000CA49274AC07D0C3
:101188006FC0D9FF70C0DAFF000EDB86749C505127
:10119800070B0001C56F020EC56106D06FC0D9FFED
:1011A80070C0DAFF000EDB8E0F0E0001756F500E57
:1011B800746F74C071F075C072F06FC0D9FF70C0E1
:1011C800DAFFDF6A20EE05F059D876510F0B6DC0B3
:1011D800D9FF6EC0DAFFDF6E76AD06D06FC0D9FFDB
:1011E80070C0DAFF000EDB8C20EE02F047D876A73D
:1011F80009D06FC0D9FF70C0DAFF000EDB8A010E7C
:10120800766F01D0766B7429606F000E7521616F5F
:1012180069C062F06AC063F076C064F049EC09F016
:10122800060E7427000E75236DC0D9FF6EC0DAFF55
:10123800DF50766F736B0FD074C0D9FF75C0DAFFBB
:101248006BC0E1FF6CC0E2FFDFCFE7FF744B752B8B
:101258006B4B6C2B732B7651735DEEE3A4AE07D00A
:101268006FC0D9FF70C0DAFF000EDB88A49E71C082
:10127800D9FF72C0DAFF7F0EDF16010C7451D92630
:101288007551DA22DF50766F120062C067F063C0D2
:1012980068F0646738D060C0D9FF61C0DAFFDF50FA
:1012A800656FD8906537D8906537D890653567C031
:1012B800D9FF68C0DAFFDF6E20EE01F064D8050EB2
:1012C800666FD8906533662FFCD7655167D8050ED1
:1012D800666FD8906533662FFCD767C0D9FF68C0A2
:1012E800DAFF6551DF1220EE02F06751D926685106
:1012F800DA22DF6A20EE03F06751D9266851DA2234
:10130800000EDF6E000C20EE02F03DD8050E666F71
:10131800D8906537662FFCD76551DF6E20EE03F055
:1013280032D8D8906533D8906533D890653136D89F
:10133800030E3ED860C0D9FF61C0DAFFDF50656F89
:10134800D8906533D8906533D89065331C0E30D863
:10135800604B612B60C0D9FF61C0DAFF10EE01F06D
:101368006751E1266851E222DFCFE7FF604B612B2E
:1013780060C0D9FF61C0DAFF67C0E1FF68C0E2FF63
:10138800DFCFE7FF12006751D9266851DA2260C023
:10139800E1FF61C0E2FFE750656F1200DF6E604B4E
:1013A800612B60C0D9FF61C0DAFFDF50656F1200A2
:1013B800651720EE02F06751D9266851DA22655187
:1013C800DF121200620E696F666722D06951D96E0A
:1013D800DA6ADF50676FD8906733D8906733D89050
:1013E800673162D8D92ADA6A72D8D8906737682FF5
:1013F800FCD760C0D9FF46D86AD8D8906737682F1D
:10140800FCD7675160C0D9FF61C0DAFFDF6E1200F8
:10141800695142D8050E686FD8906733682FFCD79A
:10142800675142D8030E49D8673760C0D9FF2AD818
:10143800020E43D86735E00B60C0D9FF61C0DAFF00
:10144800DF6E60C0D9FF61C0DAFF000EDB8669512C
:1014580023D8030E671760C0D9FF14D8D92ADA6ACF
:1014680060C0E1FF61C0E2FFDFCFE7FF604B612BA7
:101478006951D96EDA6A60C0E1FF61C0E2FFDFCF6F
:10148800E7FF120061C0DAFF6751DF12604B612B82
:101498006951D96EDA6A1200D96EDA6A020ED92653
:1014A800DA6ADF50676F120060C0D9FF61C0DAFFE7
:1014B800DF6E6951D96EDA6A1200D926DA6ADF500E
:1014C800676FD8906737D8906737D8901200DF5089
:1014D800676F050E686F050C0F0E0001736F400EE5
:1014E800726F0F0E756F300E746F0F0E776F200EC0
:1014F800766F886B8851020DF350720FD96EDA6AD5
:10150800DECF89F0DDCF8AF089C085F08AC086F009
:1015180089C0D9FF8AC0DAFFDF50716F71B75CD01C
:1015280089C0D9FF8AC0DAFFFC0EDF1670C071F0DF
:10153800030E711789C0D9FF8AC0DAFF7151DF1213
:1015480070AD04D06F514009876F02D06FC087F02B
:1015580020EE05F08951D9268A51DA2287C0DFFFAB
:1015680070AB03D0010E876F01D0876B8929606F3C
:10157800000E8A21616F6AC062F06BC063F06CC0B4
:1015880064F06DC065F087C066F0E6EC09F0060E01
:101598008927000E8A23846B0DD06E51D96EDA6AC2
:1015A80089C0E1FF8AC0E2FFDFCFE7FF6E2B894BDE
:1015B8008A2B842B6F51845DF0E385C0D9FF86C0E8
:1015C800DAFFDF50716F71B5010C85C0D9FF86C095
:1015D800DAFF000EDB86010C882B010E88658AD79E
:1015E800000C696B6A6B6951020DF350EF0FD96EED
:1015F800DA6A69510B0DF3506025E16E000E612126
:10160800E26EDECFE6FFDDCFE5FF6951F90FD96E57
:10161800DA6A695139D8E16E000E6321E26EDFCFD4
:10162800E7FF676B686B17D069510B0D67C062F0F5
:10163800030E622762516025636FE86A62BFE8683B
:101648006121646FF3506325D96E000E6421DA6E50
:10165800DF6A674B682B695117D8D96E000E632172
:10166800DA6EDF50646F64C065F0666B6551675D64
:1016780066516859D9E3694B6A2B050E695D000EFE
:101688006A59D8B01200AFD70B0DF3506025626FBE
:10169800E86AF3BEE8686121636F020E62251200F2
:1016A8000600F4CF37F0F2A401D001D049D03D6A4A
:1016B8003E6A010E0001C96FC805D8A401D001D047
:1016C8000CD0394A3A2A39500C0A3A10D8A401D019
:1016D80001D003D0396A3A6AC62B386A3850020DED
:1016E800F3500001B20FD96EDA6ADF50D8B401D0D6
:1016F80001D01FD03850020DF350B20FD96EDA6AFC
:10170800DF2A3850020DF350B20FD96EDA6A640E30
:10171800DF6401D001D00DD03850020DF350B20F64
:10172800D96EDA6A000EDF6E38C032F0D70ED7EC09
:1017380011F0382A070E386401D001D0CFD7F294BF
:1017480037C0F4FF36C0F3FF35C0DAFF34C0D9FF25
:1017580011006C6B6D6B6C510B0DF3506225D96EDB
:10176800000E6321DA6EDE526151DD1860C0E8FFB9
:10177800D8B4DF182CE16C5132D8696F6A6B6B6B87
:1017880019D06C510B0D6AC064F0030E64276451C4
:101798006225656FE86A64BFE8686321666FF35085
:1017A8006525D96E000E6621DA6EDF50D8A4690768
:1017B8006A4B6B2B6C5113D8666F66C067F0686B09
:1017C80067516A5D68516B59DCE3695112006C4BD3
:1017D8006D2B050E6C5D000E6D59BDE3000C0B0DF5
:1017E800F3506225646FE86AF3BEE8686321656FA9
:1017F800020E6425D96E000E6521DA6EDF501200E4
:101808006C6B6D6B6C510B0DF3506225D96E000E2D
:101818006321DA6EDE526151DD1860C0E8FFD8B48A
:10182800DF1839E16A6B6B6B1BD06C510B0D6AC00A
:1018380065F0030E652765516225666FE86A65BF26
:10184800E8686321676FF3506625D96E000E67213B
:10185800DA6E6451DF6202D06A5112006A4B6B2B58
:101868006C510B0DF3506225656FE86AF3BEE868AA
:101878006321666F020E6525D96E000E6621DA6E49
:10188800DF50676F67C068F0696B68516A5D6951BE
:101898006B59CBE3FF0C6C4B6D2B050E6C5D000E8A
:1018A8006D59F8E2AFD76C6B6D6B6C510B0DF35043
:1018B8006225D96E000E6321DA6EDE526151DD18A1
:1018C80060C0E8FFD8B4DF1838E16A6B6B6B1AD0D8
:1018D8006C510B0D6AC065F0030E652765516225D2
:1018E800666FE86A65BFE8686321676FF35066252D
:1018F800D96E000E6721DA6E6451DF6201D0010CE7
:101908006A4B6B2B6C510B0DF3506225656FE86ABF
:10191800F3BEE8686321666F020E6525D96E000E76
:101928006621DA6EDF50676F67C068F0696B6851CF
:101938006A5D69516B59CCE3000C6C4B6D2B050E3D
:101948006C5D000E6D59F8E2B0D7E8CF67F0686BB0
:10195800180E6B6F48D063516B25D96EDA6A69C06F
:10196800DFFF6B2B40D067516825D96EDA6ADF50EC
:10197800A3EC11F0601D696F611D6A6F682B6351DC
:101988006B25D96EDA6A69C064F06AC065F0040E26
:10199800666F653565336433662FFBD76451DF6E38
:1019A8006B2B63516B25D96EDA6A6939F00BDF6EE0
:1019B80067516825D96EDA6ADF50A3EC11F0601D13
:1019C800696F611D6A6F682B6AC064F0656B64BFDC
:1019D80065690F0E641763516B25D96EDA6A645115
:1019E800DF126B2BB8D7070E6865BDD7070CE8CF99
:1019F80008F0096A180E0C6E48D004500C24D96EF1
:101A0800DA6A0AC0DFFF0C2A40D008500924D96ED0
:101A1800DA6ADF5085EC11F0011C0A6E021C0B6EAD
:101A2800092A04500C24D96EDA6A0AC005F00BC0E2
:101A380006F0040E076E063406320532072EFBD771
:101A48000550DF6E0C2A04500C24D96EDA6A0A3865
:101A5800F00BDF6E08500924D96EDA6ADF5085EC86
:101A680011F0011C0A6E021C0B6E092A0BC005F04E
:101A7800066A05BE06680F0E051604500C24D96EBA
:101A8800DA6A0550DF120C2AB8D7070E0964BDD7E9
:101A9800070C6B6B6C6B6B510B0DF3506025D96E9B
:101AA800000E6121DA6EDE526351DD1862C0E8FF74
:101AB800D8B4DF1836E1696B6A6B17D06B510B0D20
:101AC80069C064F0030E642764516025656FE86A95
:101AD80064BFE8686121666FF3506525D96E000E12
:101AE8006621DA6EDF6A694B6A2B6B510B0DF35076
:101AF8006025646FE86AF3BEE8686121656F020ECD
:101B08006425D96E000E6521DA6EDF50666F66C0F7
:101B180067F0686B6751695D68516A59D8B01200FF
:101B2800CDD76B4B6C2B050E6B5D000E6C59D8B086
:101B38001200B1D78BC0D9FF8CC0DAFFDF50916F8C
:101B480020EE01F08B51D9268C51DA22DF50926FAA
:101B5800996B9A6B99C08DF0020E8D278D518B254C
:101B68008E6FE86A8DBFE8688C218F6F8EC0D9FFB1
:101B78008FC0DAFF99C090F0020E90279051910F14
:101B8800E16EE26ADFCFE7FF994B9A2B060E995D6B
:101B9800000E9A59DFE3C80E6A6F6B6B6C6B6D6B46
:101BA800910E6E6F20EE08F08B51D9268C51DA22F7
:101BB800DF50020F6F6F706B70EF0AF0E8CF92F092
:101BC800080E9161080C936B9351020DF350B10FFD
:101BD800D96EDA6AFF0EDF6209D09351020DF35015
:101BE800B10FD96EDA6A91C0DFFF04D0932B070ECC
:101BF8009365EAD7946B9451020DF350B10FD96EE7
:101C0800DA6A9151DF6218D09451020DF350B20F85
:101C1800D96EDA6ADF50D8A412009451020DF3503D
:101C2800B20FD96EDA6ADF2A92519125D96EDA6A33
:101C3800DF689251D7EF10F0942B070E9465DBD72D
:101C4800070CE8CF62F06251D96EDA6A080ED9261D
:101C5800DA6A050EDF64000C6251D96EDA6A020E88
:101C6800D926DA6A60C0E1FF61C0E2FF21D8030E1D
:101C7800D926DA6A10EE01F06051E1266151E222BC
:101C880017D8040ED926DA6A10EE02F06051E12660
:101C98006151E2220DD8050ED926DA6A10EE03F05A
:101CA8006051E1266151E222E750DF62000C010C2D
:101CB800E750DF62000C6251D96EDA6A1200000E3A
:101CC800616B606BE1EC11F0000E616B606BE1EC35
:101CD80011F062C0D9FF63C0DAFFDF6E20EE01F0B9
:101CE8006251D9266351DA22616B010E606FE1EC13
:101CF80011F0DF6E20EE02F06251D9266351DA222C
:101D0800616B020E606FE1EC11F0DF6E20EE03F004
:101D18006251D9266351DA22616B030E606FE1ECE0
:101D280011F0DF6E120020EE08F028D8060E635D71
:101D3800D8B0120020EE08F021D8020E63276351B4
:101D48006025646FE86A63BFE8686121656F64C0F5
:101D5800D9FF65C0DAFF62C0DFFF20EE08F06051EE
:101D6800D9266151DA2210EE08F06051E12661515E
:101D7800E222E750636F6329DF6E12006051D926B3
:101D88006151DA22DF50636F1200696B6A6B695127
:101D98000B0DF3506225D96E000E6321DA6EDE5208
:101DA8006151DD1860C0E8FFD8B4DF1817E1695148
:101DB8000B0D65C066F0030E662766516225676FD6
:101DC800E86A66BFE8686321686FF3506725D96ED3
:101DD800000E6821DA6E64C0DFFF1200694B6A2BBF
:101DE800050E695D000E6A59D8B01200D0D700EE12
:101DF800B1F03E0EEE6AE806FDE13E6A3D6A3C6AD5
:101E08003B6A3A6A396A4E0EF66E0F0EF76E000E8E
:101E1800F86E01EE73F012EE00F00900F5CFEEFF58
:101E2800E550E150FAE1E250F8E1FC0EF66E230EBF
:101E3800F76E000EF86E00EEEFF010EE0FF00900EE
:101E4800F5CFEEFFE550E150FAE100010EEF04F0A6
:101E5800E8CF61F0800EBFEC11F0626B0FD0626BBF
:101E68001CD0010E09D0030E07D0070E05D00F0EA7
:101E780003D01F0E01D03F0E626F0FD06151010ACF
:101E8800EEE0030AEEE0010AEEE0070AEEE0010ADE
:101E9800EEE0030AEEE0010AEEE0C00E70166251B1
:101EA8007012000EBFEF11F0E8CF64F00F0E0001C2
:101EB800666F180E656F6451040DF3506527000EA8
:101EC800662360C062F061C063F0D8906333623308
:101ED800D89063336233D89063336233625165C0FC
:101EE800D9FF66C0DAFFDF6E6039E846E00B654B64
:101EF800662B65C0D9FF66C0DAFFDF6E1200E8CF37
:101F080064F00F0E0001666F656B6451040DF350A9
:101F18006527000E662360C062F061C063F0D89048
:101F280063336233D89063336233D8906333623358
:101F3800625165C0D9FF66C0DAFFDF6E6039E846D6
:101F4800E00B654B662B65C0D9FF66C0DAFFDF6E14
:101F58001200E8CF62F03F0EC716C66A6251C61279
:101F68006151C71205D0C78C11D0C78CC6880ED056
:101F78006051F9E0020AF9E0010AF8E007D0948616
:101F8800928A0AD0948608D0949606D06251040AA0
:101F9800F6E0010AF7E0F8D79488949AC68A120006
:101FA800800EBFEC11F0430E706EBF0E716E870E7F
:101FB800726E200E736E779E779C606E0F01506F65
:101FC800006B016B046B056B086B096B0C6B0D6B7D
:101FD800106B116B146B156B186B196B19971C6BC5
:101FE8001D6B1D97000EBFEF11F0646B656B666B80
:101FF800676B10D0686B696B684B692B6951800AF5
:102008007E0F6C0ED8B4685DF7E3642B000E652371
:10201800662367236051645D615165596251665951
:1020280063516759D8B01200E5D7E8CF64F0656B03
:1020380065C060F06451CCEC11F0636F6251635D70
:1020480007E364516525D96EDA6A6251DF5E05D00F
:1020580064516525D96EDA6ADF6A652B070E6565F6
:10206800E7D7070CE8CF64F0656B621D636F65C046
:1020780060F06451CCEC11F0635D07E364516525B1
:10208800D96EDA6A6251DF2605D064516525D96EAA
:10209800DA6ADF68652B070E6565E7D7070C00016C
:1020A800000E616F9E0E606F9BC062F09CC063F073
:1020B800010E646FF0EC10F0000E616F9E0E606F01
:1020C8009DC062F097EC0EF0000E8C6F9E0E8B6F29
:1020D8009EEF0DF0E8CF63F060C065F063C064F078
:1020E8000AD06551D96EDA6A6451E16EE26ADFCFCF
:1020F800E7FF652B642B6107D8A0620700016129FF
:10210800D8B46229D8B41200ECD7E8CF66F063C01F
:1021180060F06651CCEC11F0656F621D646F65511B
:10212800645D08E366516325D96EDA6A65516225F4
:10213800DF6E120066516325D96EDA6ADF68FF0C1C
:10214800E8CF65F063C060F06551CCEC11F0646FC6
:102158006251645D08E365516325D96EDA6A62519C
:10216800645DDF6E120065516325D96EDA6A000E70
:10217800DF6E000CE8CF31F0026A0168046A240EB1
:10218800036E0D0E30EC11F00D0E046E3150FBECA9
:102198000CF0240E016E0D0E76EC11F08B808B8CFA
:1021A8008B9C8B901200E8CF90F0616B6069636B39
:1021B800240E626F6C0E07EC11F06C0E636F905179
:1021C800A9EC0CF0240E606F6C0E94EC11F08B806F
:1021D8008B8C8B9C8B90120020EE01F06051D926DD
:1021E8006151DA2264C0DFFF60C0D9FF61C0DAFF45
:1021F80062C0DFFF20EE08F06051D9266151DA2273
:10220800000EDF6E000CE8CF64F064C065F006D005
:102218006551D96EDA6A60C0DFFF652B6207D8A006
:10222800630700016229D8B46329D8B41200F0D733
:10223800606B6051020DF350B10FD96EDA6ADF6836
:102248006051020DF350B20FD96EDA6ADF6A602B63
:10225800070E6065EED7070CE8CF05F005C006F05D
:1022680006D00650D96EDA6A01C0DFFF062A0306D7
:10227800D8A004060328D8B40428D8B41200F1D78B
:10228800E8CF60F06051D96EDA6A080ED926DA6AAA
:10229800010EDF64000C6051D96EDA6AD92ADA6A55
:1022A800DF5012006151AA6E60C0A9FF62C0A8FF8A
:1022B800040EA66E550EA76EAA0EA76EA682A6A23B
:1022C8001200FDD7E8CF60F06051D96EDA6A080EC7
:1022D800D926DA6ADF5005E06051D96EDA6ADF5034
:1022E8001200000CE8CF02F009D00250D96EDA6A69
:1022F800DF50C96E022AC7A0FED701060166F5D7CE
:102308001200E8CF03F00350020D730EF324D96EC8
:10231800010EF420DA6EDECF01F0DDCF02F01200FC
:10232800E8CF61F009D06151D96EDA6ADF50C96E21
:10233800612BC7A0FED760076067F5D71200E8CF0A
:1023480062F06251020D730EF324D96E010EF4206F
:10235800DA6EDECF60F0DDCF61F01200E8CF60F01A
:10236800616B60516125D96EDA6ADF6A612B070EED
:102378006165F7D7070CE8CF60F01F0E6F160001F4
:1023880060516F126F50E00B6019D8B41200FAD781
:10239800E8CF61F0080E6061000C61516025D96ECC
:1023A800DA6ADF501200E8CF33F033503224D96EA6
:1023B800DA6ADF6A3350BEEF10F0A6B2FED7615179
:1023C800AA6E60C0A9FF010EA66EA8501200E8CF41
:1023D80092F092519125D96EDA6ADF6A9251D7EF5D
:1023E80010F0E8CF61F0615166EC11F0C80A01E124
:1023F800010C000C030000000000000000000800B1
:1024080000000000BE0E94168B808B9CBE0C010E43
:0E241800C86FC66B1200C86BC66B12001200B4
:020000040030CA
:0600010006001E00800055
:00000001FF
