:040000000CEF00F011
:10000800D9CF02F0DACF03F0F3CF04F0A8ED0BF06C
:040018002CEF10F0C9
:100D00000D0A43414E20726563656976655B206913
:100D1000643A200020666C6167733A2000206461A9
:100D200074613A200054005D0000700ED3129B8C59
:100D3000F29CF28ED59CD59AD586E3EC11F0E6ECC8
:100D400011F00001BB0E09EC0FF0D16BD26B07EC78
:100D500010F09FEC11F0030E38EC0FF00001750E4F
:100D60004DEC0CF0086A0768000E64EC0FF0EBC065
:100D700007F0ECC008F0010E64EC0FF0EDC007F0D6
:100D8000EEC008F0020E64EC0FF0EFC007F0F0C008
:100D900008F0030E64EC0FF0F1C007F0F2C008F0A9
:100DA000040E64EC0FF0F3C007F0F4C008F0050E79
:100DB00064EC0FF0030E086E0768000E8EEC0FF067
:100DC000030E086E0768010E8EEC0FF058EC11F060
:100DD000F28A0001680E0E6E9F0E0F6EAD0E106E41
:100DE000AE0E77EC09F0000901E1C7D1D4EC11F0A7
:100DF00000019D6B9E6B0CD09D51680FD96EDA6A15
:100E00009D51DF0FE16EE26ADFCFE7FF9D4B9E2B26
:100E10009FC065F0666B9E51800A676F65519D5D4E
:100E20006651800A6759E8E3ADC0EAF0AEC0E8F069
:100E3000AFC0E9F09FC0E7F0AE29AF11B011B1111A
:100E400003E1DF0EC3EC11F0DF0EC3EC11F000097B
:100E500001E173D1AA6BAB6BAA51020DF350EB0FFA
:100E6000D96EDA6A10EEE8F0E652DE52DD50E5188F
:100E7000DFCFE8FFD8B4E7180AE1AA51F50FD96E21
:100E8000DA6ADF5004E0E8C0D1F0E9C0D2F0AA4B42
:100E9000AB2B050EAA5D000EAB5901E34ED1DCD79A
:100EA000FF0E0868076809688FEC11F0FF00A7D1F2
:100EB000D1C007F0D2C008F0750E52EC0DF09FD1F2
:100EC000D1C007F0D2C008F0750E096E06EC0CF028
:100ED000716F0001715101E192D1000E086EBF0ED9
:100EE000076ED1C009F0D2C00AF0040E0B6E41ECBF
:100EF00011F0000E096EBF0E086EBBC00AF0A6EC22
:100F00000EF0000E096EBF0E086EBCC00AF0A6EC13
:100F10000EF0000E096EBF0E086EBDC00AF0A6EC02
:100F20000EF0000E096EBF0E086EBEC00AF0A6ECF1
:100F30000EF0000E096EBF0E086E71C00AF0A6EC2E
:100F40000EF0000E336EBF0E326E93EC0CF0DBEC45
:100F500011F0556A54D1BB0E076EDF0E05EC0EF092
:100F60000009D8A4E3EC11F0E751030A01E047D1EE
:100F7000750E076EE1C008F0A00ED8EC0EF03FD160
:100F8000BB0E076EDF0E05EC0EF0000901E137D154
:100F9000D1C007F0D2C008F0750E096EE5C00AF0A6
:100FA000E6C00BF0E1EC0FF0D1C042F0D2C043F04C
:100FB000E5C044F0B8EC0FF022D1D1C007F0D2C0A8
:100FC00008F0750E096EE1C00AF0CAEC0DF00009D8
:100FD00001E115D1D105D2110CE1D1C007F0D2C089
:100FE00008F0750E096EE1C00AF08EEC0DF0D7EC3A
:100FF0000CF0D1C042F0D2C043F0E1C044F0B8ECF4
:101000000FF0FDD0D105D21121E1D1C007F0D2C03F
:1010100008F0750E096EE1C00AF08EEC0DF0706FED
:1010200056D9660E0B6E41EC11F0000E096EB20E31
:10103000086E7051B1EC10F00A6EA6EC0EF0000EC6
:10104000336EB20E326E93EC0CF0D9D0D105D211C2
:1010500014E1D1C007F0D2C008F0750E096EE1C0EE
:101060000AF08EEC0DF0726F050E7261C8D0E2C00E
:1010700007F072513FEC0EF0C2D0D151640AD21188
:1010800016E125D9650E0B6E41EC11F0000E096ECC
:10109000B20E086EE1510FEC11F00A6EA6EC0EF0E4
:1010A000000E336EB20E326E93EC0CF0A8D0D1511C
:1010B000640AD21104E1A00EF1EC10F0A0D0D151DD
:1010C000640AD21101E09BD0A96B736BA00E73EC84
:1010D0000EF0750E076EA90E086E730E096EA00E47
:1010E00015EC0DF0A95101E18AD0000E086EC80E72
:1010F000076ED1C009F0D2C00AF0070E0B6E41ECAA
:1011000011F0000E096EC80E086EA9C00AF0A6EC18
:101110000EF0E6D8A6EC0EF0000E096EC80E086EB2
:1011200073C00AF0A6EC0EF0000E336EC80E326EDD
:1011300093EC0CF0DFEC11F062D0DF0E6DEC11F0EF
:10114000010A01E108D7030A01E1B2D6010A01E16F
:1011500017D7070A01E1B4D6010A01E12ED7030A25
:10116000A6E0010AACE00F0A01E19AD66D0A01E19E
:101170006DD7030A01E146D742D02AEC11F00009ED
:101180003EE1000E0FEC11F000090BE0010E076EBE
:10119000000E3FEC0EF0010E076E020E3FEC0EF05B
:1011A00008D0000E076A3FEC0EF0076A020E3FEC13
:1011B0000EF0010E0FEC11F000090AE0010E076EAF
:1011C0003FEC0EF0010E076E030E3FEC0EF008D060
:1011D000076A010E3FEC0EF0076A030E3FEC0EF0BB
:1011E000020E0FEC11F0000906E0010E076E040E6E
:1011F0003FEC0EF004D0076A040E3FEC0EF0040E34
:10120000546426D0560410E1552A050E556403D0C7
:10121000E3EC11F009D00001000E336EBF0E326E08
:1012200093EC0CF0DBEC11F0570412E10001A12B60
:1012300020EEA1F0050EDF6403D0E6EC11F008D03B
:10124000000E336EC80E326E93EC0CF0DFEC11F032
:10125000570401E0BED50001AC6B746B750E076ED0
:10126000AC0E086E740E096EA00E15EC0DF0AC6796
:1012700003D0E6EC11F0ADD5CA51AC1901E1A9D506
:10128000000E086EC80E076E0A6A640E096E070E1D
:101290000B6E41EC11F0000E096EC80E086EACC06A
:1012A0000AF0A6EC0EF01CD8A6EC0EF0000E096EAB
:1012B000C80E086E74C00AF0A6EC0EF0000E336E75
:1012C000C80E326E93EC0CF0DFEC11F082D5000EFC
:1012D000086EB20E076ED1C009F0D2C00AF012003B
:1012E000000E096EC80E086E650E0A6E650CE8CF1A
:1012F00013F0536A60AE12D0A49074AE06D01050B2
:10130000D96EDA6A000EDB86749E60A002D053802C
:1013100001D053900F0E166E600E1AD00F0150AF11
:10132000000CA49274AC06D01050D96EDA6A000E8C
:10133000DB86749C5051070B536E020E536005D030
:101340001050D96EDA6A000EDB8E0F0E166E500E3C
:10135000156E15C011F016C012F01050D96EDA6A71
:10136000DF6A20EE05F050D80F50D96EDA6A1750B8
:101370000F0BDF6E17AC05D01050D96EDA6A000E75
:10138000DB8C20EE02F040D817A608D01050D96EA2
:10139000DA6A000EDB8A010E176E01D0176A152873
:1013A000076E000E1620086E13C009F017C00AF071
:1013B0000BEC0AF0060E1526000E16220F50D96E01
:1013C000DA6ADF50176E146A0DD015C0D9FF16C047
:1013D000DAFF0E50E16EE26ADFCFE7FF154A162A08
:1013E0000E2A142A1750145CF0E3A4AE06D0105055
:1013F000D96EDA6A000EDB88A49E11C0D9FF12C034
:10140000DAFF7F0EDF16010C1550D9261650DA22AE
:10141000DF50176E120009C00DF00A662BD00D5078
:10142000D96E6CD80B36D8900B36D8900B34DF6E53
:101430000D50D96EDA6AD92ADA6A73D8D8900B328D
:101440000C2EFCD70B5063D8050E0C6ED8900B32C7
:101450000C2EFCD70D50D96EDA6A0B50DF123DD836
:10146000DF6A0D50D96EDA6A030ED926DA6A000EE9
:10147000DF6E000C32D855D8D8900B360C2EFCD726
:101480000B50DF6E0D50D96EDA6A030ED92636D8AE
:101490000B32D8900B32D8900B3039D8030E0B1684
:1014A0001CD80B50DF1207C0D9FF08C0DAFFDF508D
:1014B0000B6ED8900B32D8900B32D8900B321C0E9A
:1014C0000B160BD80B50DF120FD8E12AE26ADFCFE0
:1014D000E7FF0AD8DFCFE7FF12000D50D96EDA6AB6
:1014E000020ED926DA6A1200074A082A07C0D9FF75
:1014F00008C0DAFF0D50E16EE26A1200DA6A07C036
:10150000E1FF08C0E2FFE7500B6ED8901200DF6EDB
:10151000074A082A07C0D9FF08C0DAFFDF500B6E60
:10152000120007C0E1FF08C0E2FFE7500B6E050E96
:101530000C6E050C090E106E0D6622D01050D96E7F
:10154000DA6ADF500E6ED8900E32D8900E32D890F4
:101550000E3058D8D92ADA6A71D8D8900E360F2EA4
:10156000FCD707C0D9FF44D869D8D8900E360F2EC3
:10157000FCD70E5007C0D9FF08C0DAFFDF6E12009B
:1015800054D8050E0F6ED8900E320F2EFCD70E5089
:1015900039D8030E40D80E3607C0D9FF29D8020E1D
:1015A0003AD80E34E00B07C0D9FF08C0DAFFDF6E6F
:1015B00007C0D9FF08C0DAFF000EDB8636D8030E5D
:1015C0000E1607C0D9FF14D8D92ADA6A07C0E1FF7E
:1015D00008C0E2FFDFCFE7FF074A082A1050D96EA4
:1015E000DA6A07C0E1FF08C0E2FFDFCFE7FF1200C1
:1015F00008C0DAFF0E50DF12074A082A1050D96ED1
:10160000DA6A120007C0D9FF08C0DAFFDF6E105097
:10161000D96EDA6A1200D926DA6ADF500E6ED890D7
:101620000E36D8900E36D89012001050D96EDA6A65
:10163000020ED926DA6ADF500E6E1200DF500E6EEF
:10164000050E0F6E050C0F010F0E1A6E400E196E6F
:101650000F0E1C6E300E1B6E0F0E1E6E200E1D6EBA
:101660002F6A2F50020DF350190FD96EDA6ADECFB0
:1016700030F0DDCF31F030C02CF031C02DF030C073
:10168000D9FF31C0DAFFDF50186E18B65CD030C019
:10169000D9FF31C0DAFFFC0EDF1617C018F0030EB9
:1016A000181630C0D9FF31C0DAFF1850DF1217AC5E
:1016B00004D0165040092E6E02D016C02EF020EE37
:1016C00005F03050D9263150DA222EC0DFFF17AA9C
:1016D00003D0010E2E6E01D02E6A3028076E000E48
:1016E0003120086E11C009F012C00AF013C00BF0CF
:1016F00014C00CF02EC00DF09AEC0AF0060E302645
:10170000000E31222B6A0DD01550D96EDA6A30C026
:10171000E1FF31C0E2FFDFCFE7FF152A304A312A6F
:101720002B2A16502B5CF0E32CC0D9FF2DC0DAFF1A
:10173000DF50186E18B4010C2CC0D9FF2DC0DAFF91
:10174000000EDB86010C2F2A010E2F648AD7000CB5
:101750000600F4CF05F0F2A401D001D04ED056041B
:10176000D8B401D001D005D05704D8A401D001D0FD
:101770000DD00001DD4BDE2BDD510C0ADE11D8A4AB
:1017800001D001D003D0DD6BDE6B542A066A06500F
:10179000020DF3500001D40FD96EDA6ADF50D8B4CD
:1017A00001D001D023D00650020DF350D40FD96ED2
:1017B000DA6ADF2A0650020DF350D40FD96EDA6AC6
:1017C000640EDF6401D001D011D00650020DF35039
:1017D000D40FD96EDA6A000EDF6E0650020DF35098
:1017E000D30FD96EDA6ADF5070EC10F0062A040EBF
:1017F000066401D001D0CBD7F29405C0F4FF04C039
:10180000F3FF03C0DAFF02C0D9FF1100106A116AAA
:101810001050080D0950F324D96EDA6ADE520850D0
:10182000DD1807C0E8FFD8B4DF1828E11050080D14
:1018300009502CD8DF500D6E0E6A0F6A0FD0105071
:10184000080D0950F3240E24D96EDA6A030ED92646
:10185000DA6ADF50D8A40D060E4A0F2A1050080D80
:10186000095014D8DF500A6E0AC00BF00C6A0B50F6
:101870000E5C0C500F58E3E30D501200104A112A71
:10188000050E105C000E1158C3E3000CF324D96E52
:10189000DA6A020ED926DA6A1200E8CF0CF00D6A75
:1018A0000E6A0D50020DF350EB0F34D8DECFE6FF79
:1018B000DDCFE5FF0D50F50F2DD8020EE126E26ACF
:1018C000DFCFE7FF0A6A0B6A0DD00D50080D0C50F0
:1018D000F3240A24D96EDA6A030ED926DA6ADF6A9B
:1018E0000A4A0B2A0D50080D0C5046EC0CF0DF5044
:1018F000076E07C008F0096A08500A5C09500B58C7
:10190000E4E30D4A0E2A050E0D5C000E0E58D8B009
:101910001200C7D7D96EDA6A0D50080D0C50F324A7
:10192000E16EE26A120032C0D9FF33C0DAFFDF5045
:10193000386E20EE01F03250D9263350DA22DF50D3
:10194000396E406A416A40C034F0020E3426345089
:101950003224356EE86A34BEE8683320366E35C00E
:10196000D9FF36C0DAFF40C037F0020E37263750B5
:10197000380FE16EE26ADFCFE7FF404A412A060EE8
:10198000405C000E4158DFE3C80E116E126A136A04
:10199000146A380E156E20EE08F03250D9263350F6
:1019A000DA22DF50020F166E176A23EF0BF0E8CF32
:1019B00008F0050E0860050C096A0950020DF35085
:1019C000D30FD96EDA6AFF0EDF6209D00950020D1B
:1019D000F350D30FD96EDA6A08C0DFFF04D0092AAA
:1019E000040E0964EAD70A6A0A50020DF350D30FB5
:1019F000D96EDA6A0850DF6213D00A50020DF35034
:101A0000D40FD96EDA6ADF50D8A412000A50020D42
:101A1000F350D40FD96EDA6ADF2A08504FEF10F076
:101A20000A2A040E0A64E0D7040CE8CF0AF00D6A13
:101A30000D50030D0A50F324D96EDA6ADF502DE100
:101A40000B6A0C6A0B50080D0750F324D96EDA6A42
:101A5000DE50640ADD101AE10B50080D0750F32424
:101A60000D24D96EDA6A030ED926DA6A0850E16EBF
:101A7000E26ADFCFE7FF0D50030D0A5046EC0CF091
:101A80000950E16EE26ADFCFE7FF12000B4A0C2A31
:101A9000050E0B5C000E0C58D5E30D2A020E0D64EA
:101AA000C7D7020CE8CF0EF00F6A106A0F50080D6E
:101AB0000E50F324D96EDA6ADE520850DD1807C0E2
:101AC000E8FFD8B4DF1821E10C6A0D6A0DD00F5081
:101AD000080D0E50F3240C24D96EDA6A030ED926B1
:101AE000DA6ADF6A0C4A0D2A0F50080D0E5046ECD8
:101AF0000CF0DF50096E09C00AF00B6A0A500C5C4A
:101B00000B500D58D8B01200E2D70F4A102A050E1C
:101B10000F5C000E1058D8B01200C8D7106A116AB6
:101B20001050080D0950F324D96EDA6ADE520850BD
:101B3000DD1807C0E8FFD8B4DF1824E10E6A0F6A89
:101B400011D01050080D0950F3240E24D96EDA6A12
:101B5000030ED926DA6A0A50DF6202D00E50120054
:101B60000E4A0F2A1050080D095046EC0CF0DF50B9
:101B70000B6E0BC00CF00D6A0C500E5C0D500F5824
:101B8000E0E3FF0C104A112A050E105C000E1158FC
:101B9000F8E2C6D7106A116A1050080D0950F324F4
:101BA000D96EDA6ADE520850DD1807C0E8FFD8B4F3
:101BB000DF1823E10E6A0F6A10D01050080D09508B
:101BC000F3240E24D96EDA6A030ED926DA6A0A5093
:101BD000DF6201D0010C0E4A0F2A1050080D095087
:101BE00046EC0CF0DF500B6E0BC00CF00D6A0C5085
:101BF0000E5C0D500F58E1E3000C104A112A050E3F
:101C0000105C000E1158F8E2C7D7E8CF08F0085072
:101C1000D96EDA6A080ED926DA6A050EDF64000C7E
:101C20000850D96EDA6A020ED926DA6A0750E16ED8
:101C30001ED8030ED926DA6A0750E16EE26AE12A5D
:101C400016D8040ED926DA6A0750E16EE26A020E4F
:101C5000E1260DD8050ED926DA6A0750E16EE26A50
:101C6000030EE126E26AE750DF62000C010CE26A33
:101C7000E750DF62000C0850D96EDA6A1200E8CF34
:101C800008F0050E0860050C07500BE120D0898094
:101C900012008982120089881200898A12008A8CB7
:101CA00012000850F4E0010AF4E0030AF4E0010A2B
:101CB000F4E0070AD8A41200F2D7899012008992A2
:101CC000120089981200899A12008A9C120008500A
:101CD000F4E0010AF4E0030AF4E0010AF4E0070A80
:101CE000D8A41200F2D7E8CF09F00A6A28D8DF504A
:101CF00021E00A500FEC11F0086E0A50030D095054
:101D000046EC0CF0DF5008180EE00A50030D0950A5
:101D100046EC0CF008C0DFFF12D8DF6A10D8D92AD1
:101D2000DA6A000E06D00BD8D92ADA6ADF6A07D839
:101D3000010EDF6E0A2A020E0A64D8D7020C0A507E
:101D4000030D0950F324D96EDA6A120020EE08F070
:101D500028D8060E0B5CD8B0120020EE08F021D86F
:101D6000020E0B260B5008240C6EE86A0BBEE868C6
:101D700009200D6E0CC0D9FF0DC0DAFF0AC0DFFFCD
:101D800020EE08F00850D9260950DA2210EE08F0AB
:101D90000850E1260950E222E7500B6E0B28DF6E57
:101DA00012000850D9260950DA22DF500B6E1200BB
:101DB000E8CF09F00A6A0B6A0A50080D0750F324AD
:101DC000D96EDA6ADE50640ADD101AE10C6A0A5034
:101DD000080D0750F3240C24D96EDA6A030ED926B5
:101DE000DA6A0850DF6208D00C50030D0950F32462
:101DF000D96EDA6A010EDF6E0C2A020E0C64E7D788
:101E00000A4A0B2A050E0A5C000E0B58D8B01200C5
:101E1000D3D7E8CF09F00950D96EDA6A000E086A04
:101E2000076AB9EC11F0DF6E0950D96EDA6AD92A67
:101E3000DA6A086A010E076EB9EC11F0DF6E09501C
:101E4000D96EDA6A020ED926DA6A086A020E076EBD
:101E5000B9EC11F0DF6E0950D96EDA6A030ED9269B
:101E6000DA6A086A030E076EB9EC11F0DF6E120031
:101E7000E8CF08F0800EADEC11F0096A0FD0096AC6
:101E80001CD0010E09D0030E07D0070E05D00F0E8F
:101E900003D01F0E01D03F0E096E0FD00850010A6B
:101EA000EEE0030AEEE0010AEEE0070AEEE0010AC6
:101EB000EEE0030AEEE0010AEEE0C00E70160950F3
:101EC0007012000EADEF11F0E8CF0BF00F010F0E06
:101ED0000D6E0C6A0B50040DF3500C26000E0D22F3
:101EE00007C009F008C00AF0D8900A320932D89029
:101EF0000A320932D8900A32093209500CC0D9FF8F
:101F00000DC0DAFFDF6E0738E846E00B0C4A0D2AF9
:101F10000CC0D9FF0DC0DAFFDF6E1200E8CF0BF066
:101F20000F0E0D6E180E0C6E0B50040DF3500C2698
:101F3000000E0D2207C009F008C00AF0D8900A323E
:101F40000932D8900A320932D8900A32093209503F
:101F50000CC0D9FF0DC0DAFFDF6E0738E846E00B92
:101F60000C4A0D2A0CC0D9FF0DC0DAFFDF6E12003B
:101F7000450E076E000E086E0F0E086E5F0E0764AA
:101F8000086A42C009F043C00AF0010E0B6E41EC32
:101F900011F0450E086E000E096E0F0E096E5F0EF1
:101FA0000864096A44C00AF0A6EC0EF0450E326ED1
:101FB000000E336E0F0E336E5F0E3264336A93EF92
:101FC0000CF00C6A0D6A0C50080D0950F324D96E00
:101FD000DA6ADE520850DD1807C0E8FFD8B4DF180F
:101FE0000DE10C50080D0950F3240B24D96EDA6A68
:101FF000030ED926DA6A0AC0DFFF12000C4A0D2A46
:10200000050E0C5C000E0D58D8B01200DCD7800E07
:10201000ADEC11F0430E706EBF0E716E870E726ED6
:10202000200E736E779E779C606E0F01506F006B71
:10203000016B046B056B086B096B0C6B0D6B106B04
:10204000116B146B156B186B196B19971C6B1D6B4F
:102050001D97000EADEF11F000EED3F0180EEE6AF2
:10206000E806FDE100EE4EF00A0EEE6AE806FDE13C
:10207000980EF66E230EF76E000EF86E00EEEBF083
:1020800010EE0FF00900F5CFEEFFE550E150FAE158
:10209000000EF86E0D0EF76E000195EF06F0E8CF1A
:1020A00007F0050E0760050C0FD0010E891A010C10
:1020B000020E891A020C100E891A100C200E891AB1
:1020C000200C400E8A1A400C0750EFE0010AF0E0A5
:1020D000030AF1E0010AF2E0070AD8A41200F1D7DE
:1020E000E8CF01F0050E0160050C0FD0010E891A32
:1020F000010C020E891A020C100E891A100C200E07
:10210000891A200C400E8A1A400C0150EFE0010A97
:10211000F0E0030AF1E0010AF2E0070AD8A4120095
:10212000F1D70B6A0C6A0D6A0E6A10D00F6A106A3A
:102130000F4A102A1050800A7E0F6C0ED8B40F5C24
:10214000F7E30B2A000E0C220D220E2207500B5C27
:1021500008500C5809500D580A500E58D8B01200AB
:10216000E5D7E8CF07F0050E0760000C0FD080B070
:10217000010C000C80B2010C000C80B8010C000CAA
:1021800080BA010C000C81BC010C000C0750EFE080
:10219000010AF0E0030AF1E0010AF2E0070AF3E0C5
:1021A000000C898018D891EC10F08990898213D89E
:1021B00091EC10F0899289880ED891EC10F08998F2
:1021C000898A09D891EC10F0899A8A8C04D891EC0C
:1021D00010F08A9C1200C80E076E086A096A0A6A23
:1021E000000CE8CF08F0096A0950030D085046ECCE
:1021F0000CF009500FEC11F0DF6E0AD8D92ADA6A18
:10220000DF6A06D8DF6A092A020E0964EDD7020CDC
:102210000950030D0850F324D96EDA6A1200E8CF92
:1022200007F0030E0760000C0CD080B4010C000C0A
:1022300080B6010C000C81BE010C000C80BE010CAC
:10224000000C0750F2E0010AF3E0030AF4E0010A8F
:10225000F5E0000C4F4A502A650E4F5C000E5058B6
:1022600004E34F6A506A514A522AE90E515C030E48
:10227000525805E34E6A516A526A4F6A506A4E508C
:10228000120020EE01F00750D9260850DA220BC0C8
:10229000DFFF07C0D9FF08C0DAFF09C0DFFF20EE6B
:1022A00008F00750D9260850DA22000EDF6E000C25
:1022B000076A0750020DF3500001D30FD96EDA6A96
:1022C000DF680750020DF350D40FD96EDA6ADF6A67
:1022D000072A040E0764EDD7040CE8CF07F0075077
:1022E000D96EDA6A080ED926DA6A010EDF64000CAC
:1022F0000750D96EDA6AD92ADA6ADF501200E8CFBD
:1023000007F00750D96EDA6A080ED926DA6ADF506C
:1023100005E00750D96EDA6ADF501200000C085051
:10232000AA6E07C0A9FF09C0A8FF040EA66E550E2D
:10233000A76EAA0EA76EA682A6A21200FDD70F0E48
:10234000C112CC0E92168C0E9212CC0E89168016EB
:10235000939C938E8A9CD1EF10F0E8CF07F01F0E6C
:102360006F1607506F126F50E00B0718D8B41200A9
:10237000FAD7A6B2FED70850AA6E07C0A9FF010E71
:10238000A66EA8501200E8CF08F008507FEC11F0BC
:10239000C80A01E1010C000C01006400000000000B
:1023A0000000050300000000010E4E6E516A526AE3
:1023B0004F6A506A1200010E566E546A1200010EE6
:1023C000576E546A1200566A546A1200576A546A69
:0223D0001200F9
:020000040030CA
:0600010006001E008090C5
:00000001FF
