:040800000CEF04F005
:10080800D9CF34F0DACF35F0F3CF36F0E4ED0BF092
:10081800F7EF0EF0700ED3129B8CF29CF28EB7ECB1
:1008280012F0000E0001606B616B47EC10F0000ED7
:10083800616FD70E606F63EC12F0010E0001616FFB
:100848009B0E606F63EC12F0D70E2FEC11F0C0EC2A
:1008580012F0010E0001636F8C0E626F2EEC0FF028
:100868000101996B9A6B6EEC10F0030EC6EC0FF059
:10087800010E0001616F1E0E606F85EC0BF0616B5D
:100888006069000E1DEC10F0F1C060F0F2C061F07C
:10089800010E1DEC10F0F3C060F0F4C061F0020E20
:1008A8001DEC10F0F5C060F0F6C061F0030E1DEC11
:1008B80010F0F7C060F0F8C061F0040E1DEC10F005
:1008C800F9C060F0FAC061F0050E1DEC10F0030EDF
:1008D800616F6069000EF2EC0FF0030E616F6069E2
:1008E800010EF2EC0FF0E1EC11F0F29A010E0001AA
:1008F8006A6F840E696F010E6C6F000E6B6F010ECC
:100908006E6F750E6D6F010E706F7A0E6F6F37EC2C
:1009180009F0000901E1DBD20101736B746B0FD0A0
:100928000101000E7325D96EDA6A010EDA227351BD
:10093800E50FE16EE26ADFCFE7FF734B742B75C1F9
:10094800ACF00001AD6B01017451800A0001AE6F7B
:10095800AC510101735D0001AD51800AAE59E0E36D
:100968007AC1F0F084C1EEF085C1EFF075C1EDF009
:10097800E50EA6EC12F0000901E17DD20101776BCA
:10098800786B7751020DF350F10FD96EDA6A10EED9
:10099800EEF0E652DE52DD50E518DFCFE8FFD8B4BE
:1009A800E7180BE101017751FB0FD96EDA6ADF50C6
:1009B80004E0EEC099F1EFC09AF10101774B782B72
:1009C800050E775D000E785901E355D2DAD733DB8F
:1009D800B9EC0EF0000901E17AD2FF0E6169606995
:1009E800626907EC12F0FF0072D2010E0001616F1C
:1009F8001E0E606F99C162F09AC163F0E1EC0DF0D0
:100A080066D299C160F09AC161F0010E0001636F6E
:100A18001E0E626F3DEC0CF001010D6F0D5101E1EE
:100A280056D2010E0001616F900E606F99C162F09D
:100A38009AC163F0040E646FCAEC11F0010E000154
:100A4800616F900E606F8CC162F094EC0FF0010E34
:100A58000001616F900E606F8DC162F094EC0FF031
:100A6800010E0001616F900E606F8EC162F094EC10
:100A78000FF0010E0001616F900E606F8FC162F080
:100A880094EC0FF0010E0001616F900E606F0DC1C4
:100A980062F094EC0FF0010E00018C6F900E8B6FDA
:100AA80032EC0EF0BCEC12F0D36B11D2C4DAB9EC14
:100AB8000EF0000901E10BD2C0EC12F008D2BBDA4B
:100AC800B9EC0EF0000901E102D299C160F09AC1B7
:100AD80061F0010E0001636F1E0E626FEBC064F0DF
:100AE800ECC065F062EC0FF099C19BF09AC19CF0E4
:100AF800EBC09DF067EC11F0EAD199C160F09AC1A2
:100B080061F0010E0001636F1E0E626FE7C064F0B2
:100B18003DEC0DF0000901E1DAD101019951030A18
:100B28009A1110E152DA94EC0CF060C00EF161C039
:100B38000FF101010FBF06D00EC191F00001D70ED1
:100B480076EC0EF099C19BF09AC19CF0E7C09DF03D
:100B580067EC11F0BCD101019951030A9A1101E027
:100B6800B6D133DA94EC0CF060C016F161C017F11D
:100B780001011751800A800F0E0ED8B4165DD8A057
:100B880017BFA5D1E8C00AF19B0E1625D96EDA6AFF
:100B9800010EDA220AC1DFFF9AD101019951030A35
:100BA8009A1101E094D111DA94EC0CF060C018F1BC
:100BB80061C019F101011951800A800F0E0ED8B4D5
:100BC800185DD8A019BF83D1010E0001616F7B0E9B
:100BD800606F99C162F09AC163F0730E646FCAECDA
:100BE80011F0000E616FD70E606F18C162F07DECD6
:100BF80012F001010B6F010E0001616F7B0E606F37
:100C08000BC162F094EC0FF0010E00018C6F7B0EAB
:100C18008B6F32EC0EF05BD101019951030A9A11E6
:100C280001E055D1D2D994EC0CF060C01AF161C042
:100C38001BF101011B51800A800F0E0ED8B41A5DFA
:100C4800D8A01BBF44D1010E0001646F9B0E636FD7
:100C5800E8C065F01AC166F012EC11F038D1010154
:100C68009951030A9A1101E032D1AFD994EC0CF0F2
:100C780060C01CF161C01DF101011D51800A800F87
:100C88000E0ED8B41C5DD8A01DBF21D1010E0001E5
:100C9800646F9B0E636FE8C065F01CC166F04BEC97
:100CA80011F015D101019951030A9A1101E00FD1F0
:100CB8008CD994EC0CF060C08AF161C08BF1010111
:100CC8008B518A1107E1010E0001616FA90E606F57
:100CD80063EC12F001018BBFFAD0050E99D9D8B494
:100CE800AC5D0CE20101796B79510001EC08B3D9D4
:100CF800795177D9792B040E7965F6D701018B5193
:100D0800800A800F0E0ED8B48A5D01E3E0D0050E8C
:100D18007FD9D8B4AC5D01E2DAD00101766B1ED080
:100D2800010176518AC1ACF08BC1ADF00001AC1F56
:100D3800AD1FAC4BAD2BAC5F000EAD5B100EAC2500
:100D48000101086F000E0001AD210101096F085172
:100D58000001E50F80D9765144D9762B0E0E00019B
:100D6800AC6FAD6B01018A510001AC5F01018B5181
:100D78000001AD5B76C1AEF0AF6BAF51800AB06FCA
:100D8800AC51AE5DAD51800AB059CAE3010E616F36
:100D98009B0E606F010E636FA90E626F656B0E0E7E
:100DA800646F93EC10F093D001019951030A9A11E2
:100DB80001E08DD00AD994EC0CF060C010F161C04C
:100DC80011F101011151800A800F0E0ED8B4105D87
:100DD800D8A011BF7CD0E8C00CF1010E0001616FF2
:100DE8009B0E606F0CC162F0636B656B0E0E646FD7
:100DF800B3EC11F06CD001019951030A9A1167E123
:100E0800E4D894EC0CF060C012F161C013F1010158
:100E18001351800A800F0E0ED8B4125DD8A013BFEC
:100E280056D0010E0001646F9B0E636FE8C065F039
:100E3800D4EC10F04CD001019951030A9A1147E102
:100E4800C4D894EC0CF060C014F161C015F1010134
:100E58001551800A800F0E0ED8B4145DD8A015BFA6
:100E680036D0010E0001646F9B0E636FE8C065F019
:100E7800F3EC10F02CD00001E50EF5EC11F0010AAE
:100E880001E114D6030A01E1B0D5010A01E117D640
:100E9800070A01E1B6D5010A01E12FD60D0A01E1E1
:100EA80096D57A0A01E157D6010A01E176D6070AF2
:100EB80001E1B2D6010A01E1D2D6030A01E1F2D674
:100EC800010A99E00F0AB7E0010A01E16DD7040EA3
:100ED8000001D2651AD0D40518E1D32B050ED365CD
:100EE80003D0C0EC12F011D0640E606F000E616B7D
:100EF800626B636BB4EC10F0010E00018C6F900E06
:100F08008B6F32EC0EF0BCEC12F0D55124E0D56BAF
:100F18000101896B97D8AC6F74D8DF50AC5D05E2DE
:100F280070D8DF06010ED66F0AD06BD8DF50AC6FD1
:100F3800010188D8AC5D03E264D8DF2AF3D7010148
:100F4800892B0D0E8965E6D70001D65104E0D66BD2
:100F5800D70E2FEC11F0CF4BD02BD051800A7F0F3A
:100F6800C20ED8B4CF5D24E3CD4BCE2BCF6BD06B64
:100F7800010ED56F0101886B57D8DF5014E00101CD
:100F880053D8DF2A51D8640EDF640DD08851020D82
:100F9800F3500001B20FD96EDA6ADF6A88C191F0A6
:100FA800D70E92EC12F00101882B0D0E8865E4D75C
:100FB8000001CD510C0ACE1101E098D4CD6BCE6B57
:100FC800D40501E093D4D22B91D499C160F09AC191
:100FD80061F0010E0001636F1E0E626FE7C064F0DE
:100FE80012000001AC27000EAD2301018A51000157
:100FF800AC25E16E000EAD21E26EDFCFE7FF010107
:101008001200010189510001D70FD96EDA6A120066
:101018008A250001AC6F000E01018B210001AD6F24
:10102800AD51800A800F0E0C8851020DF350B20F9B
:10103800D96EDA6A1200010E0001616F8C0E606FC2
:10104800E50E12009B0E8925D96EDA6A010EDA22A6
:10105800DF5000011200D96EDA6AA90EAC6F010EDA
:10106800AD6F0101120000006400660069006B00AA
:101078006E0070007300750078007A007C007E00B6
:10108800800082008400860088008A008C008E0020
:10109800900092009400960098009A009C009E0090
:1010A800A000A200A400A600A800AA00AC00AE0000
:1010B800B000B200B400B700BA00BD00C000C30061
:1010C800C600C900CC00CF00D200D500D800DB0094
:1010D800DE00E100E400E700EA00ED00F000F300C4
:1010E800F600F900FC00FF000201050108010B01F0
:1010F8000E01120116011A011E01220126012A0100
:101108002E01320136013A013E01420146014A01EF
:101118004E01520156015A015E01630168016D01D9
:10112800720177017C01810186018B019001950193
:101138009A019F01A401A901AE01B301B801BD0143
:10114800C201C801CE01D401DA01E001E601EC01D7
:10115800F201F801FE0104020A02100216021C0242
:10116800220228022E0234023A0242024A025202A3
:101178005A0262026A0272027A0282028A029402A5
:101188009E02A802B202BC02C602D002DA02E4023F
:10119800EE02FA02060312031E032A033603420371
:1011A8004E035A0366037403820390039E03AC0341
:1011B800BA03C803D603E403F203020412042204A8
:1011C8003204420452046204720482049204A404A5
:1011D800B604C804DA04EC04FE041005220534053C
:1011E800460558056A057C058E05A005B205C405A7
:1011F800D605E805FA050C061E0630064206540612
:10120800660678068A069C06AE06C006D206E4067E
:10121800F60608071A072C073E07500762077407E7
:1012280086079807AA07BC07CE07E007F207040855
:10123800160828083A084C085E08700882089408BE
:10124800A608B808CA08E308FC0815092E094709C2
:10125800600979099209AB09C409BE0AB80BB20C36
:10126800AC0DA60EFF0FD16B60AE14D0A49074AE77
:1012780007D06FC0D9FF70C0DAFF000EDB86749EFE
:1012880060A002D0D18102D00001D1910F0E756FFC
:10129800600E1ED00F0150AF000CA49274AC07D0A2
:1012A8006FC0D9FF70C0DAFF000EDB86749C505106
:1012B800070B0001D16F020ED16106D06FC0D9FFB4
:1012C80070C0DAFF000EDB8E0F0E0001756F500E36
:1012D800746F74C071F075C072F06FC0D9FF70C0C0
:1012E800DAFFDF6A20EE05F059D876510F0B6DC092
:1012F800D9FF6EC0DAFFDF6E76AD06D06FC0D9FFBA
:1013080070C0DAFF000EDB8C20EE02F047D876A71B
:1013180009D06FC0D9FF70C0DAFF000EDB8A010E5A
:10132800766F01D0766B7429606F000E7521616F3E
:1013380069C062F06AC063F076C064F0D9EC09F065
:10134800060E7427000E75236DC0D9FF6EC0DAFF34
:10135800DF50766F736B0FD074C0D9FF75C0DAFF9A
:101368006BC0E1FF6CC0E2FFDFCFE7FF744B752B6A
:101378006B4B6C2B732B7651735DEEE3A4AE07D0E9
:101388006FC0D9FF70C0DAFF000EDB88A49E71C061
:10139800D9FF72C0DAFF7F0EDF16010C7451D9260F
:1013A8007551DA22DF50766F120062C067F063C0B1
:1013B80068F0646738D060C0D9FF61C0DAFFDF50D9
:1013C800656FD8906537D8906537D890653567C010
:1013D800D9FF68C0DAFFDF6E20EE01F064D8050E91
:1013E800666FD8906533662FFCD7655167D8050EB0
:1013F800666FD8906533662FFCD767C0D9FF68C081
:10140800DAFF6551DF1220EE02F06751D9266851E4
:10141800DA22DF6A20EE03F06751D9266851DA2212
:10142800000EDF6E000C20EE02F03DD8050E666F50
:10143800D8906537662FFCD76551DF6E20EE03F034
:1014480032D8D8906533D8906533D890653136D87E
:10145800030E3ED860C0D9FF61C0DAFFDF50656F68
:10146800D8906533D8906533D89065331C0E30D842
:10147800604B612B60C0D9FF61C0DAFF10EE01F04C
:101488006751E1266851E222DFCFE7FF604B612B0D
:1014980060C0D9FF61C0DAFF67C0E1FF68C0E2FF42
:1014A800DFCFE7FF12006751D9266851DA2260C002
:1014B800E1FF61C0E2FFE750656F1200DF6E604B2D
:1014C800612B60C0D9FF61C0DAFFDF50656F120081
:1014D800651720EE02F06751D9266851DA22655166
:1014E800DF121200620E696F666722D06951D96EE9
:1014F800DA6ADF50676FD8906733D8906733D8902F
:10150800673162D8D92ADA6A72D8D8906737682FD3
:10151800FCD760C0D9FF46D86AD8D8906737682FFB
:10152800FCD7675160C0D9FF61C0DAFFDF6E1200D7
:10153800695142D8050E686FD8906733682FFCD779
:10154800675142D8030E49D8673760C0D9FF2AD8F7
:10155800020E43D86735E00B60C0D9FF61C0DAFFDF
:10156800DF6E60C0D9FF61C0DAFF000EDB8669510B
:1015780023D8030E671760C0D9FF14D8D92ADA6AAE
:1015880060C0E1FF61C0E2FFDFCFE7FF604B612B86
:101598006951D96EDA6A60C0E1FF61C0E2FFDFCF4E
:1015A800E7FF120061C0DAFF6751DF12604B612B61
:1015B8006951D96EDA6A1200D96EDA6A020ED92632
:1015C800DA6ADF50676F120060C0D9FF61C0DAFFC6
:1015D800DF6E6951D96EDA6A1200D926DA6ADF50ED
:1015E800676FD8906737D8906737D8901200DF5068
:1015F800676F050E686F050C0F0E0001736F400EC4
:10160800726F0F0E756F300E746F0F0E776F200E9E
:10161800766F886B8851020DF350720FD96EDA6AB3
:10162800DECF89F0DDCF8AF089C085F08AC086F0E8
:1016380089C0D9FF8AC0DAFFDF50716F71B75CD0FB
:1016480089C0D9FF8AC0DAFFFC0EDF1670C071F0BE
:10165800030E711789C0D9FF8AC0DAFF7151DF12F2
:1016680070AD04D06F514009876F02D06FC087F00A
:1016780020EE05F08951D9268A51DA2287C0DFFF8A
:1016880070AB03D0010E876F01D0876B8929606F1B
:10169800000E8A21616F6AC062F06BC063F06CC093
:1016A80064F06DC065F087C066F076EC0AF0060E4F
:1016B8008927000E8A23846B0DD06E51D96EDA6AA1
:1016C80089C0E1FF8AC0E2FFDFCFE7FF6E2B894BBD
:1016D8008A2B842B6F51845DF0E385C0D9FF86C0C7
:1016E800DAFFDF50716F71B5010C85C0D9FF86C074
:1016F800DAFF000EDB86010C882B010E88658AD77D
:10170800000C696B6A6B6951020DF350F10FD96EC9
:10171800DA6A6951110DF3506025E16E000E6121FE
:10172800E26EDECFE6FFDDCFE5FF6951FB0FD96E34
:10173800DA6A695139D8E16E000E6321E26EDFCFB3
:10174800E7FF676B686B17D06951110D67C062F0CE
:10175800030E622762516025636FE86A62BFE8681A
:101768006121646FF3506325D96E000E6421DA6E2F
:10177800DF6A674B682B695117D8D96E000E632151
:10178800DA6EDF50646F64C065F0666B6551675D43
:1017980066516859D9E3694B6A2B050E695D000EDD
:1017A8006A59D8B01200AFD7110DF3506025626F97
:1017B800E86AF3BEE8686121636F020E62251200D1
:1017C8000600F4CF37F0F2A401D001D049D03D6A29
:1017D8003E6A010E0001D56FD405D8A401D001D00E
:1017E8000CD0394A3A2A39500C0A3A10D8A401D0F8
:1017F80001D003D0396A3A6AD22B386A3850020DC0
:10180800F3500001B20FD96EDA6ADF50D8B401D0B4
:1018180001D01FD03850020DF350B20FD96EDA6ADA
:10182800DF2A3850020DF350B20FD96EDA6A640E0F
:10183800DF6401D001D00DD03850020DF350B20F43
:10184800D96EDA6A000EDF6E38C032F0D70E88EC37
:1018580012F0382A0D0E386401D001D0CFD7F29497
:1018680037C0F4FF36C0F3FF35C0DAFF34C0D9FF04
:1018780011006C6B6D6B6C51110DF3506225D96EB4
:10188800000E6321DA6EDE526151DD1860C0E8FF98
:10189800D8B4DF182CE16C5132D8696F6A6B6B6B66
:1018A80019D06C51110D6AC064F0030E642764519D
:1018B8006225656FE86A64BFE8686321666FF35064
:1018C8006525D96E000E6621DA6EDF50D8A4690747
:1018D8006A4B6B2B6C5113D8666F66C067F0686BE8
:1018E80067516A5D68516B59DCE3695112006C4BB2
:1018F8006D2B050E6C5D000E6D59BDE3000C110DCE
:10190800F3506225646FE86AF3BEE8686321656F87
:10191800020E6425D96E000E6521DA6EDF501200C2
:101928006C6B6D6B6C51110DF3506225D96E000E06
:101938006321DA6EDE526151DD1860C0E8FFD8B469
:10194800DF183DE16A6B6B6B1DD06C51110D6AC0DD
:1019580065F0030E652765516225666FE86A65BF05
:10196800E8686321676FF3506625D96E000E67211A
:10197800DA6E6451DF6204D06AC060F0616B1200F5
:101988006A4B6B2B6C51110DF3506225656FE86A39
:10199800F3BEE8686321666F020E6525D96E000EF6
:1019A8006621DA6EDF50676F67C068F0696B68514F
:1019B8006A5D69516B59C9E36069616912006C4BD2
:1019C8006D2B050E6C5D000E6D59F6E2ABD7E8CFB6
:1019D80067F0686B0F0E6B6F48D063516B25D96E3B
:1019E800DA6A69C0DFFF6B2B40D067516825D96E72
:1019F800DA6ADF5036EC12F0601D696F611D6A6F9C
:101A0800682B63516B25D96EDA6A69C064F06AC0C5
:101A180065F0040E666F653565336433662FFBD752
:101A28006451DF6E6B2B63516B25D96EDA6A6939A5
:101A3800F00BDF6E67516825D96EDA6ADF5036EC35
:101A480012F0601D696F611D6A6F682B6AC064F0CF
:101A5800656B64BF65690F0E641763516B25D96E9A
:101A6800DA6A6451DF126B2BB8D70D0E6865BDD7E3
:101A78000D0C6C6B6D6B6C51110DF3506225D96EAA
:101A8800000E6321DA6EDE526151DD1860C0E8FF96
:101A9800D8B4DF1838E16A6B6B6B1AD06C51110D32
:101AA8006AC065F0030E652765516225666FE86AAE
:101AB80065BFE8686321676FF3506625D96E000E2D
:101AC8006721DA6E6451DF6201D0010C6A4B6B2B1F
:101AD8006C51110DF3506225656FE86AF3BEE86832
:101AE8006321666F020E6525D96E000E6621DA6ED7
:101AF800DF50676F67C068F0696B68516A5D69514C
:101B08006B59CCE3000C6C4B6D2B050E6C5D000E15
:101B18006D59F8E2B0D7E8CF08F0096A0F0E0C6EDD
:101B280048D004500C24D96EDA6A0AC0DFFF0C2AA8
:101B380040D008500924D96EDA6ADF5027EC12F039
:101B4800011C0A6E021C0B6E092A04500C24D96E63
:101B5800DA6A0AC005F00BC006F0040E076E0634F8
:101B680006320532072EFBD70550DF6E0C2A0450CB
:101B78000C24D96EDA6A0A38F00BDF6E0850092493
:101B8800D96EDA6ADF5027EC12F0011C0A6E021CCB
:101B98000B6E092A0BC005F0066A05BE06680F0E13
:101BA800051604500C24D96EDA6A0550DF120C2A87
:101BB800B8D70D0E0964BDD70D0C6B6B6C6B6B51F0
:101BC800110DF3506025D96E000E6121DA6EDE52D8
:101BD8006351DD1862C0E8FFD8B4DF1836E1696BDD
:101BE8006A6B17D06B51110D69C064F0030E64273E
:101BF80064516025656FE86A64BFE8686121666FB3
:101C0800F3506525D96E000E6621DA6EDF6A694BDE
:101C18006A2B6B51110DF3506025646FE86AF3BEAF
:101C2800E8686121656F020E6425D96E000E652192
:101C3800DA6EDF50666F66C067F0686B6751695D82
:101C480068516A59D8B01200CDD76B4B6C2B050E72
:101C58006B5D000E6C59D8B01200B1D78BC0D9FF9C
:101C68008CC0DAFFDF50916F20EE01F08B51D9263E
:101C78008C51DA22DF50926F996B9A6B99C08DF074
:101C8800020E8D278D518B258E6FE86A8DBFE8680F
:101C98008C218F6F8EC0D9FF8FC0DAFF99C090F06A
:101CA800020E90279051910FE16EE26ADFCFE7FFB5
:101CB800994B9A2B060E995D000E9A59DFE3C80ED0
:101CC8006A6F6B6B6C6B6D6B910E6E6F20EE08F02C
:101CD8008B51D9268C51DA22DF50020F6F6F706B4F
:101CE80000EF0BF0E8CF92F00E0E91610E0C936BA3
:101CF8009351020DF350B10FD96EDA6AFF0EDF620D
:101D080009D09351020DF350B10FD96EDA6A91C020
:101D1800DFFF04D0932B0D0E9365EAD7946B945193
:101D2800020DF350B10FD96EDA6A9151DF6218D003
:101D38009451020DF350B20FD96EDA6ADF50D8A46D
:101D480012009451020DF350B20FD96EDA6ADF2AED
:101D580092519125D96EDA6ADF6892512FEF11F00E
:101D6800942B0D0E9465DBD70D0CE8CF62F0625111
:101D7800D96EDA6A080ED926DA6A050EDF64000C15
:101D88006251D96EDA6A020ED926DA6A60C0E1FFBA
:101D980061C0E2FF21D8030ED926DA6A10EE01F0FD
:101DA8006051E1266151E22217D8040ED926DA6A79
:101DB80010EE02F06051E1266151E2220DD8050EC5
:101DC800D926DA6A10EE03F06051E1266151E22269
:101DD800E750DF62000C010CE750DF62000C625133
:101DE800D96EDA6A120001EE9BF01C0EEE6AE80664
:101DF800FDE100EEB1F0400EEE6AE806FDE13E6A54
:101E08003D6A3C6A3B6A3A6A396A6E0EF66E100E93
:101E1800F76E000EF86E01EEB7F012EE00F0090052
:101E2800F5CFEEFFE550E150FAE1E250F8E15E0E41
:101E3800F66E250EF76E000EF86E00EEF1F010EE5D
:101E48000FF00900F5CFEEFFE550E150FAE100018F
:101E58000EEF04F0000E616B606B9CEC12F0000E4C
:101E6800616B606B9CEC12F062C0D9FF63C0DAFF53
:101E7800DF6E20EE01F06251D9266351DA22616BE0
:101E8800010E606F9CEC12F0DF6E20EE02F06251E2
:101E9800D9266351DA22616B020E606F9CEC12F056
:101EA800DF6E20EE03F06251D9266351DA22616BAE
:101EB800030E606F9CEC12F0DF6E1200696B6A6BA8
:101EC8006951110DF3506225D96E000E6321DA6E47
:101ED800DE526151DD1860C0E8FFD8B4DF1817E1A1
:101EE8006951110D65C066F0030E662766516225BB
:101EF800676FE86A66BFE8686321686FF350672513
:101F0800D96E000E6821DA6E64C0DFFF1200694BDB
:101F18006A2B050E695D000E6A59D8B01200D0D739
:101F280020EE08F028D8060E635DD8B0120020EE27
:101F380008F021D8020E632763516025646FE86AB0
:101F480063BFE8686121656F64C0D9FF65C0DAFFC7
:101F580062C0DFFF20EE08F06051D9266151DA2215
:101F680010EE08F06051E1266151E222E750636FFC
:101F78006329DF6E12006051D9266151DA22DF50E1
:101F8800636F1200E8CF61F0800E70EC12F0626BA4
:101F98000FD0626B1CD0010E09D0030E07D0070EBC
:101FA80005D00F0E03D01F0E01D03F0E626F0FD069
:101FB8006151010AEEE0030AEEE0010AEEE0070AC9
:101FC800EEE0010AEEE0030AEEE0010AEEE0C00EE0
:101FD800701662517012000E70EF12F0E8CF64F0C4
:101FE8000F0E0001666F180E656F6451040DF350F3
:101FF8006527000E662360C062F061C063F0D89068
:1020080063336233D89063336233D8906333623377
:10201800625165C0D9FF66C0DAFFDF6E6039E846F5
:10202800E00B654B662B65C0D9FF66C0DAFFDF6E33
:102038001200E8CF64F00F0E0001666F656B645103
:10204800040DF3506527000E662360C062F061C07E
:1020580063F0D89063336233D89063336233D89097
:1020680063336233625165C0D9FF66C0DAFFDF6E41
:102078006039E846E00B654B662B65C0D9FF66C042
:10208800DAFFDF6E1200E8CF62F03F0EC716C66AAD
:102098006251C6126151C71205D0C78C11D0C78CC6
:1020A800C6880ED06051F9E0020AF9E0010AF8E0AA
:1020B80007D09486928A0AD0948608D0949606D03F
:1020C8006251040AF6E0010AF7E0F8D79488949A76
:1020D800C68A1200800E70EC12F0430E706EBF0EAE
:1020E800716E870E726E200E736E779E779C606E8F
:1020F8000F01506F006B016B046B056B086B096B6C
:102108000C6B0D6B106B116B146B156B186B196BDB
:1021180019971C6B1D6B1D97000E70EF12F062C0B3
:1021280068F063C069F060C066F061C067F00ED007
:1021380068C0D9FF69C0DAFF66C0E1FF67C0E2FF87
:10214800DFCFE7FF684B692B664B672B6407D8A086
:10215800650700016429D8B46529D8B41200E8D706
:10216800646B656B666B676B10D0686B696B684BEB
:10217800692B6951800A7E0F6C0ED8B4685DF7E34D
:10218800642B000E6523662367236051645D6151EB
:1021980065596251665963516759D8B01200E5D73D
:1021A800676B651D666F63C060F064C061F067C0EF
:1021B80062F07DEC12F0665D04E30AD86551DF2613
:1021C80002D006D8DF68672B0D0E6765EAD70D0CBD
:1021D80067516325D96E000E6421DA6E1200676BB1
:1021E80063C060F064C061F067C062F07DEC12F01B
:1021F800666F6551665D04E30AD86551DF5E02D0FB
:1022080006D8DF6A672B0D0E6765EAD70D0C675194
:102218006325D96E000E6421DA6E120063C060F087
:1022280064C061F066C062F07DEC12F0686F651DF5
:10223800676F6851675D05E307D868516525DF6EEC
:10224800120002D8DF68FF0C66516325D96E000EB4
:102258006421DA6E1200E8CF90F0000E616F6C0E08
:10226800606F636B6269656B240E646FB3EC11F089
:102278006C0E636F9051EBEC0CF0240E606F6C0EDB
:1022880045EC12F08B808B8C8B9C8B90120063C07A
:1022980060F064C061F066C062F07DEC12F0676FB8
:1022A8006551675D05E308D86551675DDF6E12000B
:1022B80003D8000EDF6E000C66516325D96E000E40
:1022C8006421DA6E12000001000E616F9E0E606FCD
:1022D8009BC062F09CC063F0010E646FCAEC11F001
:1022E800000E616F9E0E606F9DC062F094EC0FF05F
:1022F800000E8C6F9E0E8B6F32EF0EF0E8CF31F030
:10230800026A0168046A240E036E0D0E9BEC11F03C
:102318000D0E046E31508FEC0DF0240E016E0D0E73
:1023280054EC12F08B808B8C8B9C8B901200E8CF36
:1023380005F005C006F006C007F008D006C0D9FFB2
:1023480007C0DAFF01C0DFFF064A072A0306D8A044
:1023580004060328D8B40428D8B41200EFD760C004
:1023680066F061C067F008D066C0D9FF67C0DAFFC1
:1023780062C0DFFF664B672B6407D8A065070001C2
:102388006429D8B46529D8B41200EED720EE01F03C
:102398006051D9266151DA2264C0DFFF60C0D9FFDD
:1023A80061C0DAFF62C0DFFF20EE08F06051D92675
:1023B8006151DA22000EDF6E000C606B6051020D75
:1023C800F350B10FD96EDA6ADF686051020DF3502D
:1023D800B20FD96EDA6ADF6A602B0D0E6065EED730
:1023E8000D0CE8CF60F06051D96EDA6A080ED92674
:1023F800DA6A010EDF64000C6051D96EDA6AD92AF4
:10240800DA6ADF5012006151AA6E60C0A9FF62C08B
:10241800A8FF040EA66E550EA76EAA0EA76EA6827A
:10242800A6A21200FDD7E8CF60F06051D96EDA6A33
:10243800080ED926DA6ADF5005E06051D96EDA6AEB
:10244800DF501200000CE8CF03F00350020DB70E66
:10245800F324D96E010EF420DA6EDECF01F0DDCF61
:1024680002F01200E8CF62F06251020DB70EF324B9
:10247800D96E010EF420DA6EDECF60F0DDCF61F0A8
:102488001200E8CF61F009D06151D96EDA6ADF50E5
:10249800C96E612BC7A0FED760076067F5D7120029
:1024A800E8CF02F009D00250D96EDA6ADF50C96E5F
:1024B800022AC7A0FED701060166F5D71200626B93
:1024C80062516025D96E000E6121DA6EDF6A622BD7
:1024D8000D0E6265F5D70D0CE8CF60F01F0E6F1674
:1024E800000160516F126F50E00B6019D8B41200F0
:1024F800FAD70E0E6261000C62516025D96E000E8B
:102508006121DA6EDF501200E8CF33F03350322405
:10251800D96EDA6ADF6A335082EF11F0E8CF92F0B1
:1025280092519125D96EDA6ADF6A92512FEF11F034
:10253800A6B2FED76151AA6E60C0A9FF010EA66EB1
:10254800A8501200E8CF61F0615117EC12F0C80AE8
:1025580001E1010C000C0300000000000000000075
:102568000E0000000000BE0E94168B808B9CBE0CE3
:10257800010ED46FD26B1200D46BD26B1200120012
:020000040030CA
:0600010006001E008090C5
:00000001FF
