:040800000CEF04F005
:10080800D9CF02F0DACF03F0F3CF04F0B9ED0AF054
:0408180095EF0EF05A
:100D00000D0A43414E20726563656976655B206913
:100D1000643A200020666C6167733A2000206461A9
:100D200074613A200054005D0000700ED3129B8C59
:100D3000F29CF28ED59CD59AD586E2EC0FF0E5ECCC
:100D40000FF00001AF0E10EC0DF0BC6BBD6B70EC42
:100D50000EF0A0EC0FF0030E76EC0DF00001720E19
:100D600015EC0BF0086A0768000EF7EC0DF0CFC029
:100D700007F0D0C008F0010EF7EC0DF0D1C007F07D
:100D8000D2C008F0020EF7EC0DF0D3C007F0D4C0CB
:100D900008F0030EF7EC0DF0D5C007F0D6C008F050
:100DA000040EF7EC0DF0D7C007F0D8C008F0050E20
:100DB000F7EC0DF0030E086E0768000ECDEC0DF099
:100DC000030E086E0768010ECDEC0DF05AEC0FF023
:100DD000F28A0001650E0E6E9E0E0F6EA10E106E51
:100DE000AB0E88EC08F0000901E17BD1CEEC0FF0EE
:100DF0009C6B9D6B0CD09C51650FD96EDA6A9C512F
:100E0000C30FE16EE26ADFCFE7FF9C4B9D2B9EC0D4
:100E10004EF04F6A9D51800A506E4E509C5D4F506F
:100E2000800A5058E8E3A1C0CEF0ABC0CCF0ACC013
:100E3000CDF09EC0CBF0AB29AC11AD11AE1103E1EA
:100E4000C30EC5EC0FF0C30EC5EC0FF0000901E1B5
:100E50002DD19F6BA06B9F51020DF350CF0FD96E18
:100E6000DA6A10EECCF0E652DE52DD50E518DFCF44
:100E7000E8FFD8B4E7180AE19F51D90FD96EDA6AB2
:100E8000DF5004E0CCC0BCF0CDC0BDF09F4BA02B28
:100E9000050E9F5D000EA05901E308D1DCD7AF0E0F
:100EA000076EC30ED6EC0CF0000901E11AD1FF0E5B
:100EB00008680768096880EC0FF0FF0012D1BCC019
:100EC00007F0BDC008F0720E9BEC0CF00AD1BCC05C
:100ED00007F0BDC008F0720E096EDFEC0BF06D6F0D
:100EE00000016D5101E1FDD0000E086EB30E076EDA
:100EF000BCC009F0BDC00AF0040E0B6E43EC0FF04D
:100F0000000E096EB30E086EAFC00AF044EC0DF08F
:100F1000000E096EB30E086EB0C00AF044EC0DF07E
:100F2000000E096EB30E086EB1C00AF044EC0DF06D
:100F3000000E096EB30E086EB2C00AF044EC0DF05C
:100F4000000E096EB30E086E6DC00AF044EC0DF091
:100F5000000E336EB30E326E5AEC0BF0DEEC0FF077
:100F6000576ABFD0AF0E076EC30ED6EC0CF0000967
:100F700001E1B7D0E2EC0FF0B4D0AF0E076EC30EB4
:100F8000D6EC0CF0000901E1ACD0BCC007F0BDC04C
:100F900008F0720E096EC9C00AF0CAC00BF04AEC24
:100FA0000EF0BCC042F0BDC043F0C9C044F021EC1B
:100FB0000EF097D0BCC007F0BDC008F0720E096EED
:100FC000C5C00AF09EEC0BF0000901E18AD0BC0517
:100FD000BD1113E1BCC007F0BDC008F0720E096E70
:100FE000C5C00AF01FEC0CF007C06EF008C06FF02F
:100FF0006FBF03D06E515FEC0CF0BCC042F0BDC0BF
:1010000043F0C5C044F021EC0EF06BD0BC05BD111F
:101010002DE1BCC007F0BDC008F0720E096EC5C05E
:101020000AF01FEC0CF007C070F008C071F071BF3F
:1010300058D0000E086EA20E076EBCC009F0BDC0ED
:101040000AF0660E0B6E43EC0FF0000E096EA20E56
:10105000086E705129EC0FF00A6E44EC0DF0000E92
:10106000336EA20E326E5AEC0BF03BD0BC05BD11B4
:1010700038E1BCC007F0BDC008F0720E096EC5C0F3
:101080000AF01FEC0CF007C09AF008C09BF09B51CF
:10109000800A800F010ED8B49A5DD8A09BBF21D0E2
:1010A000C6C007F09A51A2EC0DF01BD0C30E6EEC37
:1010B0000FF0010A01E156D7030A01E100D7010A46
:1010C00001E15BD7070A01E102D7010A01E172D70A
:1010D0000D0A01E1E4D66D0AC9E0000AC7E0030A7F
:1010E00095E0040E566475D6580401E072D6572A6E
:1010F000050E576403D0E2EC0FF06BD60001000E32
:10110000336EB30E326E5AEC0BF0DEEC0FF061D69C
:10111000E8CF13F0556A60AE12D0A49074AE06D03A
:101120001050D96EDA6A000EDB86749E60A002D081
:10113000558001D055900F0E166E600E1AD00F011B
:1011400050AF000CA49274AC06D01050D96EDA6A7D
:10115000000EDB86749C5051070B556E020E5560D5
:1011600005D01050D96EDA6A000EDB8E0F0E166EA7
:10117000500E156E15C011F016C012F01050D96E39
:10118000DA6ADF6A20EE05F050D80F50D96EDA6ABD
:1011900017500F0BDF6E17AC05D01050D96EDA6AFE
:1011A000000EDB8C20EE02F040D817A608D01050BD
:1011B000D96EDA6A000EDB8A010E176E01D0176A4B
:1011C0001528076E000E1620086E13C009F017C010
:1011D0000AF01CEC09F0060E1526000E16220F5020
:1011E000D96EDA6ADF50176E146A0DD015C0D9FFB8
:1011F00016C0DAFF0E50E16EE26ADFCFE7FF154A54
:10120000162A0E2A142A1750145CF0E3A4AE06D056
:101210001050D96EDA6A000EDB88A49E11C0D9FF87
:1012200012C0DAFF7F0EDF16010C1550D9261650BA
:10123000DA22DF50176E120009C00DF00A662BD0BB
:101240000D50D96E6CD80B36D8900B36D8900B3425
:10125000DF6E0D50D96EDA6AD92ADA6A73D8D8905F
:101260000B320C2EFCD70B5063D8050E0C6ED890A9
:101270000B320C2EFCD70D50D96EDA6A0B50DF12F0
:101280003DD8DF6A0D50D96EDA6A030ED926DA6AC4
:10129000000EDF6E000C32D855D8D8900B360C2ECD
:1012A000FCD70B50DF6E0D50D96EDA6A030ED926CB
:1012B00036D80B32D8900B32D8900B3039D8030E79
:1012C0000B161CD80B50DF1207C0D9FF08C0DAFF7D
:1012D000DF500B6ED8900B32D8900B32D8900B3277
:1012E0001C0E0B160BD80B50DF120FD8E12AE26A46
:1012F000DFCFE7FF0AD8DFCFE7FF12000D50D96E2E
:10130000DA6A020ED926DA6A1200074A082A07C0EA
:10131000D9FF08C0DAFF0D50E16EE26A1200DA6A06
:1013200007C0E1FF08C0E2FFE7500B6ED890120043
:10133000DF6E074A082A07C0D9FF08C0DAFFDF506E
:101340000B6E120007C0E1FF08C0E2FFE7500B6E12
:10135000050E0C6E050C090E106E0D6622D0105095
:10136000D96EDA6ADF500E6ED8900E32D8900E32F7
:10137000D8900E3058D8D92ADA6A71D8D8900E365B
:101380000F2EFCD707C0D9FF44D869D8D8900E36A5
:101390000F2EFCD70E5007C0D9FF08C0DAFFDF6E52
:1013A000120054D8050E0F6ED8900E320F2EFCD7B7
:1013B0000E5039D8030E40D80E3607C0D9FF29D8B1
:1013C000020E3AD80E34E00B07C0D9FF08C0DAFF8E
:1013D000DF6E07C0D9FF08C0DAFF000EDB8636D803
:1013E000030E0E1607C0D9FF14D8D92ADA6A07C02F
:1013F000E1FF08C0E2FFDFCFE7FF074A082A1050ED
:10140000D96EDA6A07C0E1FF08C0E2FFDFCFE7FF6D
:10141000120008C0DAFF0E50DF12074A082A1050E7
:10142000D96EDA6A120007C0D9FF08C0DAFFDF6E92
:101430001050D96EDA6A1200D926DA6ADF500E6EC1
:10144000D8900E36D8900E36D89012001050D96E23
:10145000DA6A020ED926DA6ADF500E6E1200DF5009
:101460000E6E050E0F6E050C0F010F0E1A6E400E5C
:10147000196E0F0E1C6E300E1B6E0F0E1E6E200EA0
:101480001D6E2F6A2F50020DF350190FD96EDA6AB4
:10149000DECF30F0DDCF31F030C02CF031C02DF098
:1014A00030C0D9FF31C0DAFFDF50186E18B65CD0FB
:1014B00030C0D9FF31C0DAFFFC0EDF1617C018F0BC
:1014C000030E181630C0D9FF31C0DAFF1850DF12F2
:1014D00017AC04D0165040092E6E02D016C02EF064
:1014E00020EE05F03050D9263150DA222EC0DFFF31
:1014F00017AA03D0010E2E6E01D02E6A3028076E77
:10150000000E3120086E11C009F012C00AF013C09D
:101510000BF014C00CF02EC00DF0ABEC09F0060E71
:101520003026000E31222B6A0DD01550D96EDA6AA2
:1015300030C0E1FF31C0E2FFDFCFE7FF152A304ABC
:10154000312A2B2A16502B5CF0E32CC0D9FF2DC07A
:10155000DAFFDF50186E18B4010C2CC0D9FF2DC073
:10156000DAFF000EDB86010C2F2A010E2F648AD7CA
:10157000000C0600F4CF05F0F2A401D001D04CD04D
:101580005804D8B401D001D005D05904D8A401D052
:1015900001D00CD0514A522A51500C0A5210D8A4F2
:1015A00001D001D003D0516A526A562A066A065009
:1015B000020DF350540FD96EDA6ADF50D8B401D05F
:1015C00001D023D00650020DF350540FD96EDA6AC1
:1015D000DF2A0650020DF350540FD96EDA6A640EFA
:1015E000DF6401D001D011D00650020DF350540F2A
:1015F000D96EDA6A000EDF6E0650020DF350530FFB
:10160000D96EDA6ADF50F3EC0EF0062A0650D8B431
:1016100001D001D0CCD7F29405C0F4FF04C0F3FF91
:1016200003C0DAFF02C0D9FF1100E8CF0CF00D6A49
:101630000E6A0D50020DF350CF0F33D8DECFE6FF08
:10164000DDCFE5FF0D50D90F2CD8020EE126E26A5E
:10165000DFCFE7FF0A6A0B6A0DD00D50080D0C5062
:10166000F3240A24D96EDA6A030ED926DA6ADF6A0D
:101670000A4A0B2A0D50080D0C50D7EC0BF0076EE0
:1016800007C008F0096A08500A5C09500B58E5E3E6
:101690000D4A0E2A050E0D5C000E0E58D8B0120031
:1016A000C8D7D96EDA6A0D50080D0C50F324E16EDC
:1016B000E26A120032C0D9FF33C0DAFFDF50386E61
:1016C00020EE01F03250D9263350DA22DF50396E45
:1016D000406A416A40C034F0020E3426345032244D
:1016E000356EE86A34BEE8683320366E35C0D9FFFF
:1016F00036C0DAFF40C037F0020E37263750380FB9
:10170000E16EE26ADFCFE7FF404A412A060E405C05
:10171000000E4158DFE3C80E116E126A136A146A94
:10172000380E156E20EE08F03250D9263350DA22EA
:10173000DF50020F166E176A34EF0AF0106A116A52
:101740001050080D0950F324D96EDA6ADE520850A1
:10175000DD1807C0E8FFD8B4DF1821E10E6A0F6A70
:1017600010D01050080D0950F3240E24D96EDA6AF7
:10177000030ED926DA6A0A50DF6201D0010C0E4A44
:101780000F2A1050080D095012D80B6E0BC00CF028
:101790000D6A0C500E5C0D500F58E3E3000C104A1C
:1017A000112A050E105C000E1158F8E2C9D7F32477
:1017B000D96EDA6A020ED926DA6ADF501200106A90
:1017C000116A1050080D0950F324D96EDA6ADE52FE
:1017D0000850DD1807C0E8FFD8B4DF1828E1105022
:1017E000080D0950D7EC0BF00D6E0E6A0F6A0FD082
:1017F0001050080D0950F3240E24D96EDA6A030E36
:10180000D926DA6ADF50D8A40D060E4A0F2A1050E6
:10181000080D0950D7EC0BF00A6E0AC00BF00C6AE9
:101820000B500E5C0C500F58E3E30D501200104AA1
:10183000112A050E105C000E1158C3E3000C106A4B
:10184000116A1050080D0950F324D96EDA6ADE527D
:101850000850DD1807C0E8FFD8B4DF1828E10E6A89
:101860000F6A14D01050080D0950F3240E24D96EBD
:10187000DA6A030ED926DA6A0A50DF6205D00EC092
:1018800007F00FC008F012000E4A0F2A1050080D82
:101890000950D7EC0BF00B6E0BC00CF00D6A0C501E
:1018A0000E5C0D500F58DEE3076808681200104AFE
:1018B000112A050E105C000E1158F6E2C2D7E8CFCF
:1018C00008F008661200096A0950020DF350530F20
:1018D000D96EDA6AFF0EDF6209D00950020DF350AB
:1018E000530FD96EDA6A08C0DFFF03D0092A095006
:1018F000EBE00A6A0A50020DF350530FD96EDA6A10
:101900000850DF6213D00A50020DF350540FD96E05
:10191000DA6ADF50D8A412000A50020DF350540FB7
:10192000D96EDA6ADF2A08500EEF0FF00A2A0A5041
:10193000D8A41200DFD7E8CF0EF00F6A106A0F505C
:10194000080D0E50F324D96EDA6ADE520850DD1805
:1019500007C0E8FFD8B4DF1820E10C6A0D6A0DD08B
:101960000F50080D0E50F3240C24D96EDA6A030EC2
:10197000D926DA6ADF6A0C4A0D2A0F50080D0E507C
:10198000D7EC0BF0096E09C00AF00B6A0A500C5C28
:101990000B500D58D8B01200E3D70F4A102A050E8D
:1019A0000F5C000E1058D8B01200C9D7E8CF08F06D
:1019B0000850D96EDA6A080ED926DA6A050EDF6495
:1019C000000C0850D96EDA6A020ED926DA6A07507E
:1019D000E16E1ED8030ED926DA6A0750E16EE26A7C
:1019E000E12A16D8040ED926DA6A0750E16EE26AB7
:1019F000020EE1260DD8050ED926DA6A0750E16EEF
:101A0000E26A030EE126E26AE750DF62000C010C95
:101A1000E26AE750DF62000C0850D96EDA6A120001
:101A2000E8CF09F0000E086A076ABBEC0FF0095016
:101A3000D96EDA6A000E086A076ABBEC0FF0DF6E37
:101A40000950D96EDA6AD92ADA6A086A010E076E75
:101A5000BBEC0FF0DF6E0950D96EDA6A020ED926A0
:101A6000DA6A086A020E076EBBEC0FF0DF6E0950EF
:101A7000D96EDA6A030ED926DA6A086A030E076E8F
:101A8000BBEC0FF0DF6E120020EE08F028D8060E37
:101A90000B5CD8B0120020EE08F021D8020E0B2605
:101AA0000B5008240C6EE86A0BBEE86809200D6E26
:101AB0000CC0D9FF0DC0DAFF0AC0DFFF20EE08F02E
:101AC0000850D9260950DA2210EE08F00850E12615
:101AD0000950E222E7500B6E0B28DF6E120008500F
:101AE000D9260950DA22DF500B6E1200E8CF08F039
:101AF000800EAFEC0FF0096A0FD0096A1CD0010EFE
:101B000009D0030E07D0070E05D00F0E03D01F0E0D
:101B100001D03F0E096E0FD00850010AEEE0030A13
:101B2000EEE0010AEEE0070AEEE0010AEEE0030A49
:101B3000EEE0010AEEE0C00E701609507012000EC1
:101B4000AFEF0FF0E8CF08F008661200075009E188
:101B50001AD08980120089881200898A12008A8C22
:101B600012000850F6E0010AF6E0030AF6E0010A66
:101B7000D8A41200F4D78990120089981200899A8B
:101B800012008A9C12000850F6E0010AF6E0030AEF
:101B9000F6E0010AD8A41200F4D7E8CF0BF00F0E3C
:101BA0000D6E180E0C6E0B50040DF3500C26000E2B
:101BB0000D2207C009F008C00AF0D8900A32093295
:101BC000D8900A320932D8900A32093209500CC032
:101BD000D9FF0DC0DAFFDF6E0738E846E00B0C4A8C
:101BE0000D2A0CC0D9FF0DC0DAFFDF6E1200E8CF5E
:101BF0000BF00F010F0E0D6E0C6A0B50040DF3501D
:101C00000C26000E0D2207C009F008C00AF0D8907B
:101C10000A320932D8900A320932D8900A3209328F
:101C200009500CC0D9FF0DC0DAFFDF6E0738E84657
:101C3000E00B0C4A0D2A0CC0D9FF0DC0DAFFDF6E95
:101C40001200450E076E000E086E0F0E086E5F0E36
:101C50000764086A42C009F043C00AF0010E0B6E27
:101C600043EC0FF0450E086E000E096E0F0E096E64
:101C70005F0E0864096A44C00AF044EC0DF0450E9A
:101C8000326E000E336E0F0E336E5F0E3264336AA7
:101C90005AEF0BF00C6A0D6A0C50080D0950F32432
:101CA000D96EDA6ADE520850DD1807C0E8FFD8B4F2
:101CB000DF180DE10C50080D0950F3240B24D96EE8
:101CC000DA6A030ED926DA6A0AC0DFFF12000C4A6C
:101CD0000D2A050E0C5C000E0D58D8B01200DCD792
:101CE000800EAFEC0FF0430E706EBF0E716E870E5C
:101CF000726E200E736E779E779C606E0F01506F30
:101D0000006B016B046B056B086B096B0C6B0D6B47
:101D1000106B116B146B156B186B196B19971C6B8F
:101D20001D6B1D97000EAFEF0FF000EEBEF0110E11
:101D3000EE6AE806FDE100EE51F0090EEE6AE806F3
:101D4000FDE1AC0EF66E1F0EF76E000EF86E00EEA3
:101D5000CFF010EE0FF00900F5CFEEFFE550E150A7
:101D6000FAE1000EF86E0D0EF76E000195EF06F029
:101D70000B6A0C6A0D6A0E6A10D00F6A106A0F4A5D
:101D8000102A1050800A7E0F6C0ED8B40F5CF7E357
:101D90000B2A000E0C220D220E2207500B5C08505D
:101DA0000C5809500D580A500E58D8B01200E5D7FB
:101DB000898013D8B8EC0EF0899089880ED8B8ECD9
:101DC0000EF08998898A09D8B8EC0EF0899A8A8C25
:101DD00004D8B8EC0EF08A9C1200C80E076E086A90
:101DE000096A0A6A000CE8CF01F0016612000CD003
:101DF000010E891A010C100E891A100C200E891A76
:101E0000200C400E8A1A400C0150F2E0010AF3E067
:101E1000030AF4E0010AD8A41200F3D7E8CF07F0D0
:101E2000076612000CD0010E891A010C100E891AD7
:101E3000100C200E891A200C400E8A1A400C0750F4
:101E4000F2E0010AF3E0030AF4E0010AD8A4120068
:101E5000F3D7E8CF07F00766000C0CD080B0010C78
:101E6000000C80B8010C000C80BA010C000C81BC85
:101E7000010C000C0750F2E0010AF3E0030AF4E061
:101E8000010AF5E0000C20EE01F00750D9260850B9
:101E9000DA220BC0DFFF07C0D9FF08C0DAFF09C094
:101EA000DFFF20EE08F00750D9260850DA22000E96
:101EB000DF6E000C076A0750020DF350530FD96E06
:101EC000DA6ADF680750020DF350540FD96EDA6AF0
:101ED000DF6A072A0750D8A41200EDD7E8CF07F031
:101EE0000750D96EDA6A080ED926DA6A010EDF6465
:101EF000000C0750D96EDA6AD92ADA6ADF5012006C
:101F00000850AA6E07C0A9FF09C0A8FF040EA66E5C
:101F1000550EA76EAA0EA76EA682A6A21200FDD726
:101F2000E8CF07F00750D96EDA6A080ED926DA6AC8
:101F3000DF5005E00750D96EDA6ADF501200000C5E
:101F40000F0EC112CE0E9216939C8C0E9212CE0ED4
:101F500089168A9C8016819C938ED8EF0EF0E8CF6C
:101F600007F01F0E6F1607506F126F50E00B071827
:101F7000D8B41200FAD7A6B2FED70850AA6E07C08E
:101F8000A9FF010EA66EA8501200E8CF08F0085075
:101F900090EC0FF0C80A01E1010C000C010E0001E9
:101FA000BE6FC16BC26BBF6BC06B12000100000043
:101FB000000000000000010000000000010E586E4B
:101FC000566A1200586A566A1200596A566A120016
:020000040030CA
:0600010006001E008090C5
:00000001FF
