:040800000CEF04F005
:10080800D9CF02F0DACF03F0F3CF04F0BEED0BF04E
:0408180044EF10F0A9
:100D00000D0A43414E20726563656976655B206913
:100D1000643A200020666C6167733A2000206461A9
:100D200074613A200054005D0000700ED3129B8C59
:100D3000F29CF28ED59CD59AD586E8EC11F0EBECBE
:100D400011F00001BF0E5AEC0EF0D56BD66B1FEC04
:100D500010F0A3EC11F0030E50EC0FF00001770E31
:100D600063EC0CF0086A0768000EA6EC0FF0EDC00B
:100D700007F0EEC008F0010EA6EC0FF0EFC007F090
:100D8000F0C008F0020EA6EC0FF0F1C007F0F2C0C0
:100D900008F0030EA6EC0FF0F3C007F0F4C008F063
:100DA000040EA6EC0FF0F5C007F0F6C008F0050E33
:100DB000A6EC0FF0030E086E0768000E7CEC0FF037
:100DC000030E086E0768010E7CEC0FF05CEC11F06E
:100DD000F28A0001680E0E6EA30E0F6EB10E106E39
:100DE000B20E8DEC09F0000901E1EFD1D9EC11F060
:100DF0000001A16BA26B0CD0A151680FD96EDA6A09
:100E0000A151E10FE16EE26ADFCFE7FFA14BA22B18
:100E1000A3C065F0666BA251800A676F6551A15D42
:100E20006651800A6759E8E3B1C0ECF0B2C0EAF05D
:100E3000B3C0EBF0A3C0E9F0B229B311B411B511FE
:100E400003E1E10EC8EC11F0E10EC8EC11F000096D
:100E500001E198D1AE6BAF6BAE51020DF350ED0FC7
:100E6000D96EDA6A10EEEAF0E652DE52DD50E5188D
:100E7000DFCFE8FFD8B4E7180AE1AE51F70FD96E1B
:100E8000DA6ADF5004E0EAC0D5F0EBC0D6F0AE4B32
:100E9000AF2B050EAE5D000EAF5901E373D1DCD769
:100EA000BF0E076EE10E20EC0EF0000901E1C6D185
:100EB000FF0E08680768096893EC11F0FF00BED1C7
:100EC000D5C007F0D6C008F0770EA9EC0DF0B6D16A
:100ED000D5C007F0D6C008F0770E096E1CEC0CF0F8
:100EE000706F0001705101E1A9D1000E086EC30EB0
:100EF000076ED5C009F0D6C00AF0040E0B6E45ECA3
:100F000011F0000E096EC30E086EBFC00AF0C1ECEE
:100F10000EF0000E096EC30E086EC0C00AF0C1ECE0
:100F20000EF0000E096EC30E086EC1C00AF0C1ECCF
:100F30000EF0000E096EC30E086EC2C00AF0C1ECBE
:100F40000EF0000E096EC30E086E70C00AF0C1EC00
:100F50000EF0000E336EC30E326EA9EC0CF0E4EC12
:100F600011F0556A6BD1BF0E076EE10E20EC0EF04A
:100F70000009D8A4E8EC11F0E951030A01E05ED1C0
:100F8000770E076EE3C008F0A40EF3EC0EF056D116
:100F9000BF0E076EE10E20EC0EF0000901E14ED10C
:100FA000D5C007F0D6C008F0770E096EE7C00AF08A
:100FB000E8C00BF0F9EC0FF0D5C042F0D6C043F01A
:100FC000E7C044F0D0EC0FF039D1D5C007F0D6C05F
:100FD00008F0770E096EE3C00AF0E5EC0DF00009A9
:100FE00001E12CD1D505D61113E1D5C007F0D6C04B
:100FF00008F0770E096EE3C00AF0EDEC0CF007C0C4
:1010000071F008C072F072BF03D071512EEC0DF078
:10101000D5C042F0D6C043F0E3C044F0D0EC0FF0AE
:101020000DD1D505D6112DE1D5C007F0D6C008F0F9
:10103000770E096EE3C00AF0EDEC0CF007C073F018
:1010400008C074F074BFFAD0000E086EB60E076EBA
:10105000D5C009F0D6C00AF0660E0B6E45EC11F053
:10106000000E096EB60E086E7351F8EC10F00A6EA1
:10107000C1EC0EF0000E336EB60E326EA9EC0CF021
:10108000DDD0D505D6111DE1D5C007F0D6C008F0DA
:10109000770E096EE3C00AF0EDEC0CF007C09FF08C
:1010A00008C0A0F0A051800A800F040ED8B49F5D44
:1010B000D8A0A0BFC3D0E4C007F09F5124EC0FF02C
:1010C000BDD0D551640AD61117E1000E086EB60ED8
:1010D000076ED5C009F0D6C00AF0650E0B6E45EC60
:1010E00011F0000E096EB60E086EE35113EC11F00C
:1010F0000A6EC1EC0EF0BED7D551640AD61104E1D8
:10110000A40E87EC10F09AD0D551640AD61101E0F4
:1011100095D0AD6B756BA40E8EEC0EF0770E076E4E
:10112000AD0E086E750E096EA40E6CEC0DF0AD518F
:1011300001E184D0000E086ECC0E076ED5C009F018
:10114000D6C00AF0070E0B6E45EC11F0000E096ECA
:10115000CC0E086EADC00AF0C1EC0EF0D7D8C1ECD1
:101160000EF0000E096ECC0E086E75C00AF0C1ECD0
:101170000EF0000E336ECC0E326EA9EC0CF0E0ECEB
:1011800011F05CD0E10E71EC11F0010A01E1EBD637
:10119000030A01E195D6010A01E1FAD6070A01E145
:1011A00097D6010A01E111D7030AA6E0010AACE0D3
:1011B0000F0A01E175D66D0A01E163D7000A01E16A
:1011C00060D7030A01E12DD739D02EEC11F00009C8
:1011D00035E1000E13EC11F000090AE0010E076E74
:1011E000000E24EC0FF0010E076E24EC0FF008D077
:1011F000000E076A24EC0FF0076A010E24EC0FF0D2
:10120000010E13EC11F0000906E0010E076E020E4C
:1012100024EC0FF004D0076A020E24EC0FF0020E4B
:1012200013EC11F0000906E0010E076E030E24EC2A
:101230000FF004D0076A030E24EC0FF0040E546480
:1012400026D0560410E1552A050E556403D0E8EC6B
:1012500011F009D00001000E336EC30E326EA9ECFE
:101260000CF0E4EC11F0570412E10001A52B20EE84
:10127000A5F0050EDF6403D0EBEC11F008D0000EF2
:10128000336ECC0E326EA9EC0CF0E0EC11F057048A
:1012900001E09FD50001B06B766B770E076EB00E44
:1012A000086E760E096EA40E6CEC0DF0B06703D0DC
:1012B000EBEC11F08ED5CE51B01901E18AD5000EBC
:1012C000086ECC0E076E0A6A640E096E070E0B6E6E
:1012D00045EC11F0000E096ECC0E086EB0C00AF09D
:1012E000C1EC0EF013D8C1EC0EF0000E096ECC0E5E
:1012F000086E76C00AF0C1EC0EF0000E336ECC0E14
:10130000326EA9EC0CF0E0EC11F063D5000E096E22
:10131000CC0E086E650E0A6E650CE8CF13F0536AAA
:1013200060AE12D0A49074AE06D01050D96EDA6AB6
:10133000000EDB86749E60A002D0538001D05390D3
:101340000F0E166E600E1AD00F0150AF000CA49253
:1013500074AC06D01050D96EDA6A000EDB86749C2D
:101360005051070B536E020E536005D01050D96ECA
:10137000DA6A000EDB8E0F0E166E500E156E15C05B
:1013800011F016C012F01050D96EDA6ADF6A20EE42
:1013900005F050D80F50D96EDA6A17500F0BDF6E78
:1013A00017AC05D01050D96EDA6A000EDB8C20EE37
:1013B00002F040D817A608D01050D96EDA6A000E95
:1013C000DB8A010E176E01D0176A1528076E000E12
:1013D0001620086E13C009F017C00AF021EC0AF0BD
:1013E000060E1526000E16220F50D96EDA6ADF504F
:1013F000176E146A0DD015C0D9FF16C0DAFF0E5053
:10140000E16EE26ADFCFE7FF154A162A0E2A142A98
:101410001750145CF0E3A4AE06D01050D96EDA6A0F
:10142000000EDB88A49E11C0D9FF12C0DAFF7F0E28
:10143000DF16010C1550D9261650DA22DF50176E30
:10144000120009C00DF00A662BD00D50D96E62D87B
:101450000B36D8900B36D8900B34DF6E0D50D96E0A
:10146000DA6AD92ADA6A73D8D8900B320C2EFCD7F4
:101470000B5059D8050E0C6ED8900B320C2EFCD7A1
:101480000D50D96EDA6A0B50DF123DD8DF6A0D506D
:10149000D96EDA6A030ED926DA6A000EDF6E000C06
:1014A00032D855D8D8900B360C2EFCD70B50DF6EA7
:1014B0000D50D96EDA6A030ED9262CD80B32D8908B
:1014C0000B32D8900B302FD8030E0B161CD80B50B4
:1014D000DF1207C0D9FF08C0DAFFDF500B6ED890CB
:1014E0000B32D8900B32D8900B321C0E0B160BD847
:1014F0000B50DF1222D8E12AE26ADFCFE7FF1DD8C6
:10150000DFCFE7FF12000D50D96EDA6A020ED9263E
:10151000DA6A1200DA6A07C0E1FF08C0E2FFE750AA
:101520000B6ED8901200DF6E074A082A07C0D9FF59
:1015300008C0DAFFDF500B6E1200074A082A07C006
:10154000D9FF08C0DAFF0D50E16EE26A120007C051
:10155000E1FF08C0E2FFE7500B6E050E0C6E050CB4
:10156000090E106E0D6622D01050D96EDA6ADF5067
:101570000E6ED8900E32D8900E32D8900E3058D8C9
:10158000D92ADA6A71D8D8900E360F2EFCD707C048
:10159000D9FF44D869D8D8900E360F2EFCD70E50FC
:1015A00007C0D9FF08C0DAFFDF6E120054D8050E5D
:1015B0000F6ED8900E320F2EFCD70E5039D8030E76
:1015C00040D80E3607C0D9FF29D8020E3AD80E34BB
:1015D000E00B07C0D9FF08C0DAFFDF6E07C0D9FFF4
:1015E00008C0DAFF000EDB8636D8030E0E1607C0E1
:1015F000D9FF14D8D92ADA6A07C0E1FF08C0E2FF90
:10160000DFCFE7FF074A082A1050D96EDA6A07C011
:10161000E1FF08C0E2FFDFCFE7FF120008C0DAFFFA
:101620000E50DF12074A082A1050D96EDA6A1200EB
:1016300007C0D9FF08C0DAFFDF6E1050D96EDA6A32
:101640001200D926DA6ADF500E6ED8900E36D89086
:101650000E36D89012001050D96EDA6A020ED926D2
:10166000DA6ADF500E6E1200DF500E6E050E0F6E3E
:10167000050C0F010F0E1A6E400E196E0F0E1C6E28
:10168000300E1B6E0F0E1E6E200E1D6E2F6A2F5019
:10169000020DF350190FD96EDA6ADECF30F0DDCFCC
:1016A00031F030C02CF031C02DF030C0D9FF31C046
:1016B000DAFFDF50186E18B65CD030C0D9FF31C0E9
:1016C000DAFFFC0EDF1617C018F0030E181630C034
:1016D000D9FF31C0DAFF1850DF1217AC04D0165012
:1016E00040092E6E02D016C02EF020EE05F03050CC
:1016F000D9263150DA222EC0DFFF17AA03D0010EFF
:101700002E6E01D02E6A3028076E000E3120086E32
:1017100011C009F012C00AF013C00BF014C00CF095
:101720002EC00DF0B0EC0AF0060E3026000E31226D
:101730002B6A0DD01550D96EDA6A30C0E1FF31C086
:10174000E2FFDFCFE7FF152A304A312A2B2A165055
:101750002B5CF0E32CC0D9FF2DC0DAFFDF50186EF0
:1017600018B4010C2CC0D9FF2DC0DAFF000EDB86A7
:10177000010C2F2A010E2F648AD7000C0600F4CF2B
:1017800005F0F2A401D001D04ED05604D8B401D057
:1017900001D005D05704D8A401D001D00DD000014C
:1017A000DF4BE02BDF510C0AE011D8A401D001D0AF
:1017B00003D0DF6BE06B542A066A0650020DF3502B
:1017C0000001D80FD96EDA6ADF50D8B401D001D049
:1017D00023D00650020DF350D80FD96EDA6ADF2AF3
:1017E0000650020DF350D80FD96EDA6A640EDF642A
:1017F00001D001D011D00650020DF350D80FD96E90
:10180000DA6A000EDF6E0650020DF350D70FD96E64
:10181000DA6ADF50A5EC10F0062A030E066401D048
:1018200001D0CBD7F29405C0F4FF04C0F3FF03C08E
:10183000DAFF02C0D9FF1100106A116A1050080DBA
:101840000950F324D96EDA6ADE520850DD1807C059
:10185000E8FFD8B4DF1828E11050080D09502CD843
:10186000DF500D6E0E6A0F6A0FD01050080D095030
:10187000F3240E24D96EDA6A030ED926DA6ADF5011
:10188000D8A40D060E4A0F2A1050080D095014D87E
:10189000DF500A6E0AC00BF00C6A0B500E5C0C5045
:1018A0000F58E3E30D501200104A112A050E105C88
:1018B000000E1158C3E3000CF324D96EDA6A020E4D
:1018C000D926DA6A1200E8CF0CF00D6A0E6A0D50C4
:1018D000020DF350ED0F34D8DECFE6FFDDCFE5FF8C
:1018E0000D50F70F2DD8020EE126E26ADFCFE7FF99
:1018F0000A6A0B6A0DD00D50080D0C50F3240A240F
:10190000D96EDA6A030ED926DA6ADF6A0A4A0B2A26
:101910000D50080D0C505CEC0CF0DF50076E07C04A
:1019200008F0096A08500A5C09500B58E4E30D4AB4
:101930000E2A050E0D5C000E0E58D8B01200C7D747
:10194000D96EDA6A0D50080D0C50F324E16EE26A8C
:10195000120032C0D9FF33C0DAFFDF50386E20EEFC
:1019600001F03250D9263350DA22DF50396E406A06
:10197000416A40C034F0020E342634503224356EB1
:10198000E86A34BEE8683320366E35C0D9FF36C009
:10199000DAFF40C037F0020E37263750380FE16EBD
:1019A000E26ADFCFE7FF404A412A060E405C000EA4
:1019B0004158DFE3C80E116E126A136A146A380EBA
:1019C000156E20EE08F03250D9263350DA22DF505F
:1019D000020F166E176A39EF0BF0106A116A105079
:1019E000080D0950F324D96EDA6ADE520850DD186A
:1019F00007C0E8FFD8B4DF1829E10E6A0F6A14D0D7
:101A00001050080D0950F3240E24D96EDA6A030E23
:101A1000D926DA6A0A50DF6205D00EC007F00FC07F
:101A200008F012000E4A0F2A1050080D09505CEC05
:101A30000CF0DF500B6E0BC00CF00D6A0C500E5CFE
:101A40000D500F58DDE3076808681200104A112A8C
:101A5000050E105C000E1158F6E2C1D7E8CF08F071
:101A6000040E0860040C096A0950020DF350D70FE8
:101A7000D96EDA6AFF0EDF6209D00950020DF35009
:101A8000D70FD96EDA6A08C0DFFF04D0092A030E27
:101A90000964EAD70A6A0A50020DF350D70FD96ECB
:101AA000DA6A0850DF6213D00A50020DF350D80FE3
:101AB000D96EDA6ADF50D8A412000A50020DF35032
:101AC000D80FD96EDA6ADF2A0850C1EF10F00A2A5F
:101AD000030E0A64E0D7030CE8CF0AF00D6A0D503C
:101AE000030D0A50F324D96EDA6ADF502DE10B6A38
:101AF0000C6A0B50080D0750F324D96EDA6ADE50D9
:101B0000640ADD101AE10B50080D0750F3240D2470
:101B1000D96EDA6A030ED926DA6A0850E16EE26AF3
:101B2000DFCFE7FF0D50030D0A505CEC0CF00950BD
:101B3000E16EE26ADFCFE7FF12000B4A0C2A050EC6
:101B40000B5C000E0C58D5E30D2A020E0D64C7D7AE
:101B5000020CE8CF0EF00F6A106A0F50080D0E50FD
:101B6000F324D96EDA6ADE520850DD1807C0E8FFA8
:101B7000D8B4DF1821E10C6A0D6A0DD00F50080DA2
:101B80000E50F3240C24D96EDA6A030ED926DA6AD1
:101B9000DF6A0C4A0D2A0F50080D0E505CEC0CF059
:101BA000DF50096E09C00AF00B6A0A500C5C0B503A
:101BB0000D58D8B01200E2D70F4A102A050E0F5C5C
:101BC000000E1058D8B01200C8D7106A116A105011
:101BD000080D0950F324D96EDA6ADE520850DD1878
:101BE00007C0E8FFD8B4DF1823E10E6A0F6A10D0EF
:101BF0001050080D0950F3240E24D96EDA6A030E32
:101C0000D926DA6A0A50DF6201D0010C0E4A0F2A87
:101C10001050080D09505CEC0CF0DF500B6E0BC03F
:101C20000CF00D6A0C500E5C0D500F58E1E3000CE7
:101C3000104A112A050E105C000E1158F8E2C7D7A1
:101C4000E8CF08F00850D96EDA6A080ED926DA6AA9
:101C5000050EDF64000C0850D96EDA6A020ED92630
:101C6000DA6A0750E16E1ED8030ED926DA6A0750E9
:101C7000E16EE26AE12A16D8040ED926DA6A075024
:101C8000E16EE26A020EE1260DD8050ED926DA6A67
:101C90000750E16EE26A030EE126E26AE750DF6276
:101CA000000C010CE26AE750DF62000C0850D96EAC
:101CB000DA6A1200E8CF09F0000E086A076ABEEC83
:101CC00011F00950D96EDA6A000E086A076ABEEC94
:101CD00011F0DF6E0950D96EDA6AD92ADA6A086A19
:101CE000010E076EBEEC11F0DF6E0950D96EDA6A94
:101CF000020ED926DA6A086A020E076EBEEC11F0EF
:101D0000DF6E0950D96EDA6A030ED926DA6A086ADC
:101D1000030E076EBEEC11F0DF6E1200E8CF09F083
:101D20000A6A28D8DF5021E00A5013EC11F0086E3F
:101D30000A50030D09505CEC0CF0DF5008180EE05F
:101D40000A50030D09505CEC0CF008C0DFFF12D8FC
:101D5000DF6A10D8D92ADA6A000E06D00BD8D92A41
:101D6000DA6ADF6A07D8010EDF6E0A2A020E0A64F9
:101D7000D8D7020C0A50030D0950F324D96EDA6A41
:101D8000120020EE08F028D8060E0B5CD8B0120026
:101D900020EE08F021D8020E0B260B5008240C6E02
:101DA000E86A0BBEE86809200D6E0CC0D9FF0DC0B3
:101DB000DAFF0AC0DFFF20EE08F00850D9260950EC
:101DC000DA2210EE08F00850E1260950E222E7502E
:101DD0000B6E0B28DF6E12000850D9260950DA224C
:101DE000DF500B6E1200E8CF09F00A6A0B6A0A5046
:101DF000080D0750F324D96EDA6ADE50640ADD104C
:101E00001AE10C6A0A50080D0750F3240C24D96E0D
:101E1000DA6A030ED926DA6A0850DF6208D00C505D
:101E2000030D0950F324D96EDA6A010EDF6E0C2A15
:101E3000020E0C64E7D70A4A0B2A050E0A5C000E54
:101E40000B58D8B01200D3D7E8CF08F0040E0860C2
:101E5000040C075009E11AD0898012008988120009
:101E6000898A12008A8C12000850F6E0010AF6E016
:101E7000030AF6E0010AD8A41200F4D789901200F0
:101E800089981200899A12008A9C12000850F6E084
:101E9000010AF6E0030AF6E0010AD8A41200F4D71A
:101EA000E8CF08F0800EB2EC11F0096A0FD0096A91
:101EB0001CD0010E09D0030E07D0070E05D00F0E5F
:101EC00003D01F0E01D03F0E096E0FD00850010A3B
:101ED000EEE0030AEEE0010AEEE0070AEEE0010A96
:101EE000EEE0030AEEE0010AEEE0C00E70160950C3
:101EF0007012000EB2EF11F0E8CF0BF00F0E0D6E66
:101F0000180E0C6E0B50040DF3500C26000E0D2213
:101F100007C009F008C00AF0D8900A320932D890F8
:101F20000A320932D8900A32093209500CC0D9FF5E
:101F30000DC0DAFFDF6E0738E846E00B0C4A0D2AC9
:101F40000CC0D9FF0DC0DAFFDF6E1200E8CF0BF036
:101F50000F010F0E0D6E0C6A0B50040DF3500C2682
:101F6000000E0D2207C009F008C00AF0D8900A320E
:101F70000932D8900A320932D8900A32093209500F
:101F80000CC0D9FF0DC0DAFFDF6E0738E846E00B62
:101F90000C4A0D2A0CC0D9FF0DC0DAFFDF6E12000B
:101FA000450E076E000E086E0F0E086E5F0E07647A
:101FB000086A42C009F043C00AF0010E0B6E45ECFE
:101FC00011F0450E086E000E096E0F0E096E5F0EC1
:101FD0000864096A44C00AF0C1EC0EF0450E326E86
:101FE000000E336E0F0E336E5F0E3264336AA9EF4C
:101FF0000CF00C6A0D6A0C50080D0950F324D96ED0
:10200000DA6ADE520850DD1807C0E8FFD8B4DF18DE
:102010000DE10C50080D0950F3240B24D96EDA6A37
:10202000030ED926DA6A0AC0DFFF12000C4A0D2A15
:10203000050E0C5C000E0D58D8B01200DCD7800ED7
:10204000B2EC11F0430E706EBF0E716E870E726EA1
:10205000200E736E779E779C606E0F01506F006B41
:10206000016B046B056B086B096B0C6B0D6B106BD4
:10207000116B146B156B186B196B19971C6B1D6B1F
:102080001D97000EB2EF11F000EED7F0160EEE6ABB
:10209000E806FDE100EE4EF00A0EEE6AE806FDE10C
:1020A000A20EF66E230EF76E000EF86E00EEEDF047
:1020B00010EE0FF00900F5CFEEFFE550E150FAE128
:1020C000000EF86E0D0EF76E000195EF06F00B6A2C
:1020D0000C6A0D6A0E6A10D00F6A106A0F4A102A35
:1020E0001050800A7E0F6C0ED8B40F5CF7E30B2AF9
:1020F000000E0C220D220E2207500B5C08500C58CB
:1021000009500D580A500E58D8B01200E5D7E8CF44
:1021100008F0096A0950030D08505CEC0CF00950F6
:1021200013EC11F0DF6E0AD8D92ADA6ADF6A06D812
:10213000DF6A092A020E0964EDD7020C0950030D6B
:102140000850F324D96EDA6A1200E8CF01F0040EC9
:102150000160040C0CD0010E891A010C100E891AB2
:10216000100C200E891A200C400E8A1A400C0150C7
:10217000F2E0010AF3E0030AF4E0010AD8A4120035
:10218000F3D7E8CF07F0040E0760040C0CD0010E63
:10219000891A010C100E891A100C200E891A200CB5
:1021A000400E8A1A400C0750F2E0010AF3E0030ADD
:1021B000F4E0010AD8A41200F3D7898013D867ECA1
:1021C00010F0899089880ED867EC10F08998898A78
:1021D00009D867EC10F0899A8A8C04D867EC10F063
:1021E0008A9C1200C80E076E086A096A0A6A000C07
:1021F000E8CF07F0040E0760000C0CD080B0010C93
:10220000000C80B8010C000C80BA010C000C81BCE1
:10221000010C000C0750F2E0010AF3E0030AF4E0BD
:10222000010AF5E0000CE8CF07F0030E0760000C90
:102230000CD080B4010C000C80B6010C000C81BEE7
:10224000010C000C80BE010C000C0750F2E0010AEA
:10225000F3E0030AF4E0010AF5E0000C4F4A502ACB
:10226000650E4F5C000E505804E34F6A506A514AA5
:10227000522AE90E515C030E525805E34E6A516A28
:10228000526A4F6A506A4E50120020EE01F0075019
:10229000D9260850DA220BC0DFFF07C0D9FF08C0DB
:1022A000DAFF09C0DFFF20EE08F00750D9260850FA
:1022B000DA22000EDF6E000C076A0750020DF350A1
:1022C0000001D70FD96EDA6ADF680750020DF350AC
:1022D000D80FD96EDA6ADF6A072A030E0764EDD7D2
:1022E000030CE8CF07F00750D96EDA6A080ED9263A
:1022F000DA6A010EDF64000C0750D96EDA6AD92A57
:10230000DA6ADF501200E8CF07F00750D96EDA6AB8
:10231000080ED926DA6ADF5005E00750D96EDA6A6E
:10232000DF501200000C0850AA6E07C0A9FF09C0B8
:10233000A8FF040EA66E550EA76EAA0EA76EA68263
:10234000A6A21200FDD70F0EC112CE0E9216939CBC
:102350008C0E9212CE0E89168A9C8016819C938ECA
:10236000DDEF10F0E8CF07F01F0E6F1607506F1269
:102370006F50E00B0718D8B41200FAD7A6B2FED7F8
:102380000850AA6E07C0A9FF010EA66EA850120041
:10239000E8CF08F0085083EC11F0C80A01E1010C05
:1023A000000C0100640000000000000004030000B5
:1023B0000000010E4E6E516A526A4F6A506A120056
:1023C000010E576E546A1200010E566E546A1200C6
:0C23D000566A546A1200576A546A1200E0
:020000040030CA
:0600010006001E008090C5
:00000001FF
