:040800000CEF04F005
:10080800D9CF02F0DACF03F0F3CF04F099ED0AF074
:0408180073EF0EF07C
:100D00000D0A43414E20726563656976655B206913
:100D1000643A200020666C6167733A2000206461A9
:100D200074613A200054005D0000700ED3129B8C59
:100D3000F29CF28ED59CD59AD586D1EC0FF0D4ECEE
:100D40000FF00001970E50EC0DF0A46BA56B4EEC6C
:100D50000EF092EC0FF0030E7FEC0DF000016F0E21
:100D6000F5EC0AF0086A0768000ED5EC0DF0B7C084
:100D700007F0B8C008F0010ED5EC0DF0B9C007F0CF
:100D8000BAC008F0020ED5EC0DF0BBC007F0BCC035
:100D900008F0030ED5EC0DF0BDC007F0BEC008F0A2
:100DA000040ED5EC0DF0BFC007F0C0C008F0050E72
:100DB000D5EC0DF0030E086E0768000EABEC0DF0DD
:100DC000030E086E0768010EABEC0DF04CEC0FF053
:100DD000F28A0001650E0E6E860E0F6E890E106E81
:100DE000930E68EC08F0000901E15BD1BDEC0FF057
:100DF000846B856B0CD08451650FD96EDA6A84518F
:100E0000AB0FE16EE26ADFCFE7FF844B852B86C034
:100E10004EF04F6A8551800A506E4E50845D4F509F
:100E2000800A5058E8E389C0B6F093C0B4F094C08B
:100E3000B5F086C0B3F0932994119511961103E192
:100E4000AB0EACEC0FF0AB0EACEC0FF0000901E117
:100E50000ED1876B886B8751020DF350B70FD96E97
:100E6000DA6A10EEB4F0E652DE52DD50E518DFCF5C
:100E7000E8FFD8B4E7180AE18751C10FD96EDA6AE2
:100E8000DF5004E0B4C0A4F0B5C0A5F0874B882BB8
:100E9000050E875D000E885901E3E9D0DCD7FF0E0F
:100EA00008680768096872EC0FF0FF00FAD0A4C068
:100EB00007F0A5C008F06F0E3BEC0CF0F2D0A4C018
:100EC00007F0A5C008F06F0E096EBFEC0BF06E6F57
:100ED00000016E5101E1E5D0000E086E9B0E076E19
:100EE000A4C009F0A5C00AF0040E0B6E35EC0FF09B
:100EF000000E096E9B0E086E97C00AF01EEC0DF0F6
:100F0000000E096E9B0E086E98C00AF01EEC0DF0E4
:100F1000000E096E9B0E086E99C00AF01EEC0DF0D3
:100F2000000E096E9B0E086E9AC00AF01EEC0DF0C2
:100F3000000E096E9B0E086E6EC00AF01EEC0DF0DE
:100F4000000E336E9B0E326E3AEC0BF0CDEC0FF0D0
:100F5000576AA7D0970E076EAB0EB1EC0CF00009E4
:100F600001E19FD0D1EC0FF09CD0970E076EAB0E35
:100F7000B1EC0CF0000901E194D0A4C007F0A5C0C9
:100F800008F06F0E096EB1C00AF0B2C00BF028EC89
:100F90000EF0A4C042F0A5C043F0B1C044F0FFEC95
:100FA0000DF07FD0A4C007F0A5C008F06F0E096E49
:100FB000ADC00AF07EEC0BF0000973E0A405A511AA
:100FC0000CE1A4C007F0A5C008F06F0E096EADC01B
:100FD0000AF076EC0CF0FFEC0BF0A4C042F0A5C0D8
:100FE00043F0ADC044F0FFEC0DF05BD0A405A511BB
:100FF00028E1A4C007F0A5C008F06F0E096EADC0CF
:101000000AF076EC0CF06D6F000E086E8A0E076E1B
:10101000A4C009F0A5C00AF0660E0B6E35EC0FF007
:10102000000E096E8A0E086E6D5116EC0FF00A6EF6
:101030001EEC0DF0000E336E8A0E326E3AEC0BF0A1
:1010400030D0A405A5112DE1A4C007F0A5C008F07B
:101050006F0E096EADC00AF076EC0CF0836F8367FB
:1010600020D0AEC007F08351EBEC0CF01AD0AB0EE1
:1010700060EC0FF0010A01E16DD7030A01E117D717
:10108000010A01E172D7070A01E119D7010A8AE0D2
:101090000D0A01E104D76D0AD4E0000AD2E0030A88
:1010A000A5E0040E566495D6580401E092D6572A5E
:1010B000050E576403D0D1EC0FF08BD60001000E63
:1010C000336E9B0E326E3AEC0BF0CDEC0FF081D606
:1010D000E8CF13F0556A60AE12D0A49074AE06D07B
:1010E0001050D96EDA6A000EDB86749E60A002D0C2
:1010F000558001D055900F0E166E600E1AD00F015C
:1011000050AF000CA49274AC06D01050D96EDA6ABD
:10111000000EDB86749C5051070B556E020E556015
:1011200005D01050D96EDA6A000EDB8E0F0E166EE7
:10113000500E156E15C011F016C012F01050D96E79
:10114000DA6ADF6A20EE05F050D80F50D96EDA6AFD
:1011500017500F0BDF6E17AC05D01050D96EDA6A3E
:10116000000EDB8C20EE02F040D817A608D01050FD
:10117000D96EDA6A000EDB8A010E176E01D0176A8B
:101180001528076E000E1620086E13C009F017C050
:101190000AF0FCEC08F0060E1526000E16220F5081
:1011A000D96EDA6ADF50176E146A0DD015C0D9FFF8
:1011B00016C0DAFF0E50E16EE26ADFCFE7FF154A94
:1011C000162A0E2A142A1750145CF0E3A4AE06D097
:1011D0001050D96EDA6A000EDB88A49E11C0D9FFC8
:1011E00012C0DAFF7F0EDF16010C1550D9261650FB
:1011F000DA22DF50176E120009C00DF00A662BD0FC
:101200000D50D96E62D80B36D8900B36D8900B346F
:10121000DF6E0D50D96EDA6AD92ADA6A73D8D8909F
:101220000B320C2EFCD70B5059D8050E0C6ED890F3
:101230000B320C2EFCD70D50D96EDA6A0B50DF1230
:101240003DD8DF6A0D50D96EDA6A030ED926DA6A04
:10125000000EDF6E000C32D855D8D8900B360C2E0D
:10126000FCD70B50DF6E0D50D96EDA6A030ED9260B
:101270002CD80B32D8900B32D8900B302FD8030ECD
:101280000B161CD80B50DF1207C0D9FF08C0DAFFBD
:10129000DF500B6ED8900B32D8900B32D8900B32B7
:1012A0001C0E0B160BD80B50DF1222D8E12AE26A73
:1012B000DFCFE7FF1DD8DFCFE7FF12000D50D96E5B
:1012C000DA6A020ED926DA6A1200DA6A07C0E1FF8A
:1012D00008C0E2FFE7500B6ED8901200DF6E074A9D
:1012E000082A07C0D9FF08C0DAFFDF500B6E1200D2
:1012F000074A082A07C0D9FF08C0DAFF0D50E16E7F
:10130000E26A120007C0E1FF08C0E2FFE7500B6E7F
:10131000050E0C6E050C090E106E0D6622D01050D5
:10132000D96EDA6ADF500E6ED8900E32D8900E3237
:10133000D8900E3058D8D92ADA6A71D8D8900E369B
:101340000F2EFCD707C0D9FF44D869D8D8900E36E5
:101350000F2EFCD70E5007C0D9FF08C0DAFFDF6E92
:10136000120054D8050E0F6ED8900E320F2EFCD7F7
:101370000E5039D8030E40D80E3607C0D9FF29D8F1
:10138000020E3AD80E34E00B07C0D9FF08C0DAFFCE
:10139000DF6E07C0D9FF08C0DAFF000EDB8636D843
:1013A000030E0E1607C0D9FF14D8D92ADA6A07C06F
:1013B000E1FF08C0E2FFDFCFE7FF074A082A10502D
:1013C000D96EDA6A07C0E1FF08C0E2FFDFCFE7FFAE
:1013D000120008C0DAFF0E50DF12074A082A105028
:1013E000D96EDA6A120007C0D9FF08C0DAFFDF6ED3
:1013F0001050D96EDA6A1200D926DA6ADF500E6E02
:10140000D8900E36D8900E36D89012001050D96E63
:10141000DA6A020ED926DA6ADF500E6E1200DF5049
:101420000E6E050E0F6E050C0F010F0E1A6E400E9C
:10143000196E0F0E1C6E300E1B6E0F0E1E6E200EE0
:101440001D6E2F6A2F50020DF350190FD96EDA6AF4
:10145000DECF30F0DDCF31F030C02CF031C02DF0D8
:1014600030C0D9FF31C0DAFFDF50186E18B65CD03B
:1014700030C0D9FF31C0DAFFFC0EDF1617C018F0FC
:10148000030E181630C0D9FF31C0DAFF1850DF1232
:1014900017AC04D0165040092E6E02D016C02EF0A4
:1014A00020EE05F03050D9263150DA222EC0DFFF71
:1014B00017AA03D0010E2E6E01D02E6A3028076EB7
:1014C000000E3120086E11C009F012C00AF013C0DE
:1014D0000BF014C00CF02EC00DF08BEC09F0060ED2
:1014E0003026000E31222B6A0DD01550D96EDA6AE3
:1014F00030C0E1FF31C0E2FFDFCFE7FF152A304AFD
:10150000312A2B2A16502B5CF0E32CC0D9FF2DC0BA
:10151000DAFFDF50186E18B4010C2CC0D9FF2DC0B3
:10152000DAFF000EDB86010C2F2A010E2F648AD70A
:10153000000C0600F4CF05F0F2A401D001D04CD08D
:101540005804D8B401D001D005D05904D8A401D092
:1015500001D00CD0514A522A51500C0A5210D8A432
:1015600001D001D003D0516A526A562A066A065049
:10157000020DF350540FD96EDA6ADF50D8B401D09F
:1015800001D023D00650020DF350540FD96EDA6A01
:10159000DF2A0650020DF350540FD96EDA6A640E3A
:1015A000DF6401D001D011D00650020DF350540F6A
:1015B000D96EDA6A000EDF6E0650020DF350530F3B
:1015C000D96EDA6ADF50D6EC0EF0062A0650D8B48F
:1015D00001D001D0CCD7F29405C0F4FF04C0F3FFD2
:1015E00003C0DAFF02C0D9FF1100E8CF0CF00D6A8A
:1015F0000E6A0D50020DF350B70F33D8DECFE6FF61
:10160000DDCFE5FF0D50C10F2CD8020EE126E26AB6
:10161000DFCFE7FF0A6A0B6A0DD00D50040D0C50A6
:10162000F3240A24D96EDA6A030ED926DA6ADF6A4D
:101630000A4A0B2A0D50040D0C50B7EC0BF0076E44
:1016400007C008F0096A08500A5C09500B58E5E326
:101650000D4A0E2A050E0D5C000E0E58D8B0120071
:10166000C8D7D96EDA6A0D50040D0C50F324E16E20
:10167000E26A120032C0D9FF33C0DAFFDF50386EA1
:1016800020EE01F03250D9263350DA22DF50396E85
:10169000406A416A40C034F0020E3426345032248D
:1016A000356EE86A34BEE8683320366E35C0D9FF3F
:1016B00036C0DAFF40C037F0020E37263750380FF9
:1016C000E16EE26ADFCFE7FF404A412A060E405C46
:1016D000000E4158DFE3C80E116E126A136A146AD5
:1016E000380E156E20EE08F03250D9263350DA222B
:1016F000DF50020F166E176A14EF0AF0106A116AB3
:101700001050040D0950F324D96EDA6ADE520850E5
:10171000DD1807C0E8FFD8B4DF1821E10E6A0F6AB0
:1017200010D01050040D0950F3240E24D96EDA6A3B
:10173000030ED926DA6A0A50DF6201D0010C0E4A84
:101740000F2A1050040D095012D80B6E0BC00CF06C
:101750000D6A0C500E5C0D500F58E3E3000C104A5C
:10176000112A050E105C000E1158F8E2C9D7F324B7
:10177000D96EDA6A020ED926DA6ADF501200106AD0
:10178000116A1050040D0950F324D96EDA6ADE5242
:101790000850DD1807C0E8FFD8B4DF1828E1105062
:1017A000040D0950B7EC0BF00D6E0E6A0F6A0FD0E6
:1017B0001050040D0950F3240E24D96EDA6A030E7A
:1017C000D926DA6ADF50D8A40D060E4A0F2A105027
:1017D000040D0950B7EC0BF00A6E0AC00BF00C6A4E
:1017E0000B500E5C0C500F58E3E30D501200104AE2
:1017F000112A050E105C000E1158C3E3000CE8CF4F
:1018000008F008661200096A0950020DF350530FE0
:10181000D96EDA6AFF0EDF6209D00950020DF3506B
:10182000530FD96EDA6A08C0DFFF03D0092A0950C6
:10183000EBE00A6A0A50020DF350530FD96EDA6AD0
:101840000850DF6213D00A50020DF350540FD96EC6
:10185000DA6ADF50D8A412000A50020DF350540F78
:10186000D96EDA6ADF2A0850F6EF0EF00A2A0A501B
:10187000D8A41200DFD7E8CF0EF00F6A106A0F501D
:10188000040D0E50F324D96EDA6ADE520850DD18CA
:1018900007C0E8FFD8B4DF1820E10C6A0D6A0DD04C
:1018A0000F50040D0E50F3240C24D96EDA6A030E87
:1018B000D926DA6ADF6A0C4A0D2A0F50040D0E5041
:1018C000B7EC0BF0096E09C00AF00B6A0A500C5C09
:1018D0000B500D58D8B01200E3D70F4A102A050E4E
:1018E0000F5C000E1058D8B01200C9D7106A116AE8
:1018F0001050040D0950F324D96EDA6ADE520850F4
:10190000DD1807C0E8FFD8B4DF1823E10E6A0F6ABC
:1019100011D01050040D0950F3240E24D96EDA6A48
:10192000030ED926DA6A0A50DF6202D00E50120086
:101930000E4A0F2A1050040D0950B7EC0BF00B6E35
:101940000BC00CF00D6A0C500E5C0D500F58E1E30B
:10195000FF0C104A112A050E105C000E1158F8E217
:10196000C7D7E8CF08F00850D96EDA6A080ED92632
:10197000DA6A050EDF64000C0850D96EDA6A020ECE
:10198000D926DA6A0750E16E1ED8030ED926DA6A24
:101990000750E16EE26AE12A16D8040ED926DA6A07
:1019A0000750E16EE26A020EE1260DD8050ED92637
:1019B000DA6A0750E16EE26A030EE126E26AE75056
:1019C000DF62000C010CE26AE750DF62000C085095
:1019D000D96EDA6A1200E8CF08F0086612000750E4
:1019E0000BE120D0898012008982120089881200C0
:1019F000898A12008A8C12000850F4E0010AF4E08F
:101A0000030AF4E0010AF4E0070AD8A41200F2D7AE
:101A1000899012008992120089981200899A120006
:101A20008A9C12000850F4E0010AF4E0030AF4E092
:101A3000010AF4E0070AD8A41200F2D720EE08F059
:101A400028D8060E0B5CD8B0120020EE08F021D882
:101A5000020E0B260B5008240C6EE86A0BBEE868D9
:101A600009200D6E0CC0D9FF0DC0DAFF0AC0DFFFE0
:101A700020EE08F00850D9260950DA2210EE08F0BE
:101A80000850E1260950E222E7500B6E0B28DF6E6A
:101A900012000850D9260950DA22DF500B6E1200CE
:101AA000E8CF09F00950D96EDA6A000E086A076AB1
:101AB000B5EC0FF0DF6E0950D96EDA6AD92ADA6A0E
:101AC000086A010E076EB5EC0FF0DF6E0950D96E93
:101AD000DA6A020ED926DA6A086A020E076EB5ECD7
:101AE0000FF0DF6E0950D96EDA6A030ED926DA6A72
:101AF000086A030E076EB5EC0FF0DF6E1200E8CF38
:101B000008F0800EA0EC0FF0096A0FD0096A1CD013
:101B1000010E09D0030E07D0070E05D00F0E03D01B
:101B20001F0E01D03F0E096E0FD00850010AEEE0E3
:101B3000030AEEE0010AEEE0070AEEE0010AEEE039
:101B4000030AEEE0010AEEE0C00E701609507012B2
:101B5000000EA0EF0FF0E8CF0BF00F0E0D6E180E79
:101B60000C6E0B50040DF3500C26000E0D2207C016
:101B700009F008C00AF0D8900A320932D8900A3227
:101B80000932D8900A32093209500CC0D9FF0DC071
:101B9000DAFFDF6E0738E846E00B0C4A0D2A0CC06E
:101BA000D9FF0DC0DAFFDF6E1200E8CF0BF00F0196
:101BB0000F0E0D6E0C6A0B50040DF3500C26000E28
:101BC0000D2207C009F008C00AF0D8900A32093285
:101BD000D8900A320932D8900A32093209500CC022
:101BE000D9FF0DC0DAFFDF6E0738E846E00B0C4A7C
:101BF0000D2A0CC0D9FF0DC0DAFFDF6E1200450EB2
:101C0000076E000E086E0F0E086E5F0E0764086AFE
:101C100042C009F043C00AF0010E0B6E35EC0FF024
:101C2000450E086E000E096E0F0E096E5F0E0864F9
:101C3000096A44C00AF01EEC0DF0450E326E000E2B
:101C4000336E0F0E336E5F0E3264336A3AEF0BF071
:101C50000C6A0D6A0C50040D0950F324D96EDA6A2F
:101C6000DE520850DD1807C0E8FFD8B4DF180DE1D8
:101C70000C50040D0950F3240B24D96EDA6A030EBC
:101C8000D926DA6A0AC0DFFF12000C4A0D2A050EB7
:101C90000C5C000E0D58D8B01200DCD7800EA0EC02
:101CA0000FF0430E706EBF0E716E870E726E200EB7
:101CB000736E779E779C606E0F01506F006B016BA7
:101CC000046B056B086B096B0C6B0D6B106B116B68
:101CD000146B156B186B196B19971C6B1D6B1D978B
:101CE000000EA0EF0FF000EEA6F0110EEE6AE8066F
:101CF000FDE100EE51F0090EEE6AE806FDE18A0E04
:101D0000F66E1F0EF76E000EF86E00EEB7F010EED6
:101D10000FF00900F5CFEEFFE550E150FAE1000EBB
:101D2000F86E0D0EF76E000195EF06F0898018D859
:101D3000B6EC0EF08990898213D8B6EC0EF0899239
:101D400089880ED8B6EC0EF08998898A09D8B6EC45
:101D50000EF0899A8A8C04D8B6EC0EF08A9C120098
:101D6000C80E076E086A096A0A6A000C0B6A0C6AD8
:101D70000D6A0E6A10D00F6A106A0F4A102A1050AE
:101D8000800A7E0F6C0ED8B40F5CF7E30B2A000EAE
:101D90000C220D220E2207500B5C08500C580950E3
:101DA0000D580A500E58D8B01200E5D7E8CF01F010
:101DB000016612000FD0010E891A010C020E891A59
:101DC000020C100E891A100C200E891A200C400EDD
:101DD0008A1A400C0150EFE0010AF0E0030AF1E03A
:101DE000010AF2E0070AD8A41200F1D7E8CF07F001
:101DF000076612000FD0010E891A010C020E891A13
:101E0000020C100E891A100C200E891A200C400E9C
:101E10008A1A400C0750EFE0010AF0E0030AF1E0F3
:101E2000010AF2E0070AD8A41200F1D7E8CF07F0C0
:101E30000766000C0FD080B0010C000C80B2010CC2
:101E4000000C80B8010C000C80BA010C000C81BCA5
:101E5000010C000C0750EFE0010AF0E0030AF1E08A
:101E6000010AF2E0070AF3E0000C20EE01F007504F
:101E7000D9260850DA220BC0DFFF07C0D9FF08C0FF
:101E8000DAFF09C0DFFF20EE08F00750D92608501E
:101E9000DA22000EDF6E000C076A0750020DF350C5
:101EA000530FD96EDA6ADF680750020DF350540FF2
:101EB000D96EDA6ADF6A072A0750D8A41200EDD774
:101EC000E8CF07F00750D96EDA6A080ED926DA6A29
:101ED000010EDF64000C0750D96EDA6AD92ADA6A7B
:101EE000DF5012000850AA6E07C0A9FF09C0A8FF62
:101EF000040EA66E550EA76EAA0EA76EA682A6A207
:101F00001200FDD7E8CF07F00750D96EDA6A080E45
:101F1000D926DA6ADF5005E00750D96EDA6ADF5059
:101F20001200000C0F0EC112CC0E9216B00E9212BF
:101F3000CC0E89168016939C938E8A9C96EF0EF099
:101F4000E8CF07F01F0E6F1607506F126F50E00BAF
:101F50000718D8B41200FAD7E8CF08F0085082EC7E
:101F60000FF0C80A01E1010C000C0850AA6E07C06E
:101F7000A9FF010EA66EA8501200010E0001A66F67
:101F8000A96BAA6BA76BA86B1200010000000000F0
:101F900000000000010000000000010E586E566AAB
:0E1FA0001200586A566A1200596A566A1200F8
:020000040030CA
:0600010006001E008090C5
:00000001FF
