:040800000CEF04F005
:10080800D9CF02F0DACF03F0F3CF04F0C7ED0BF045
:0408180054EF10F099
:100D00000D0A43414E20726563656976655B206913
:100D1000643A200020666C6167733A2000206461A9
:100D200074613A200054005D0000700ED3129B8C59
:100D3000F29CF28ED59CD59AD5860BEC12F00EEC77
:100D400012F00001BF0E62EC0EF0D56BD66B2FECEB
:100D500010F0C7EC11F0030E60EC0FF00001770EFD
:100D60006CEC0CF0086A0768000E8CEC0FF0EFC01A
:100D700007F0F0C008F0010E8CEC0FF0F1C007F0A6
:100D8000F2C008F0020E8CEC0FF0F3C007F0F4C0D4
:100D900008F0030E8CEC0FF0F5C007F0F6C008F079
:100DA000040E8CEC0FF0F7C007F0F8C008F0050E49
:100DB0008CEC0FF0030E086E0768000EB6EC0FF017
:100DC000030E086E0768010EB6EC0FF080EC11F010
:100DD000F28A0001680E0E6EA30E0F6EB10E106E39
:100DE000B20E96EC09F0000901E1EFD1FCEC11F034
:100DF0000001A16BA26B0CD0A151680FD96EDA6A09
:100E0000A151E30FE16EE26ADFCFE7FFA14BA22B16
:100E1000A3C065F0666BA251800A676F6551A15D42
:100E20006651800A6759E8E3B1C0EEF0B2C0ECF059
:100E3000B3C0EDF0A3C0EBF0B229B311B411B511FA
:100E400003E1E30EEBEC11F0E30EEBEC11F0000923
:100E500001E198D1AE6BAF6BAE51020DF350EF0FC5
:100E6000D96EDA6A10EEECF0E652DE52DD50E5188B
:100E7000DFCFE8FFD8B4E7180AE1AE51F90FD96E19
:100E8000DA6ADF5004E0ECC0D5F0EDC0D6F0AE4B2E
:100E9000AF2B050EAE5D000EAF5901E373D1DCD769
:100EA000BF0E076EE30E28EC0EF0000901E1CFD172
:100EB000FF0E086807680968B7EC11F0FF00C7D19A
:100EC000D5C007F0D6C008F0770EB1EC0DF0BFD159
:100ED000D5C007F0D6C008F0770E096E25EC0CF0EF
:100EE000706F0001705101E1B2D1000E086EC30EA7
:100EF000076ED5C009F0D6C00AF0040E0B6E52EC96
:100F000011F0000E096EC30E086EBFC00AF0FDECB2
:100F10000EF0000E096EC30E086EC0C00AF0FDECA4
:100F20000EF0000E096EC30E086EC1C00AF0FDEC93
:100F30000EF0000E096EC30E086EC2C00AF0FDEC82
:100F40000EF0000E096EC30E086E70C00AF0FDECC4
:100F50000EF0000E336EC30E326EB2EC0CF007ECE6
:100F600012F0556A74D1BF0E076EE30E28EC0EF036
:100F70000009D8A40BEC12F0EB51030A01E067D191
:100F8000770E076EE5C008F0A40E2FEC0FF05FD1CE
:100F9000BF0E076EE30E28EC0EF0000901E157D1F9
:100FA000D5C007F0D6C008F0770E096EE9C00AF088
:100FB000EAC00BF009EC10F0D5C042F0D6C043F007
:100FC000E9C044F0E0EC0FF042D1D5C007F0D6C044
:100FD00008F0770E096EE5C00AF0EDEC0DF000099F
:100FE00001E135D1D505D61113E1D5C007F0D6C042
:100FF00008F0770E096EE5C00AF0F6EC0CF007C0B9
:1010000071F008C072F072BF03D0715136EC0DF070
:10101000D5C042F0D6C043F0E5C044F0E0EC0FF09C
:1010200016D1D505D6112DE1D5C007F0D6C008F0F0
:10103000770E096EE5C00AF0F6EC0CF007C073F00D
:1010400008C074F074BF03D1000E086EB60E076EB0
:10105000D5C009F0D6C00AF0660E0B6E52EC11F046
:10106000000E096EB60E086E7351B9EC10F00A6EE0
:10107000FDEC0EF0000E336EB60E326EB2EC0CF0DC
:10108000E6D0D505D6111DE1D5C007F0D6C008F0D1
:10109000770E096EE5C00AF0F6EC0CF007C09FF081
:1010A00008C0A0F0A051800A800F050ED8B49F5D43
:1010B000D8A0A0BFCCD0E6C007F09F5196EC0EF0B0
:1010C000C6D0D551640AD61117E1000E086EB60ECF
:1010D000076ED5C009F0D6C00AF0650E0B6E52EC53
:1010E00011F0000E096EB60E086EE55137EC11F0E6
:1010F0000A6EFDEC0EF0BED7D551640AD61104E19C
:10110000A40E19EC11F0A3D0D551640AD61101E058
:101110009ED0AD6B756BA40ECAEC0EF0770E076E09
:10112000AD0E086E750E096EA40E74EC0DF0AD5187
:1011300001E18DD0000E086ECC0E076ED5C009F00F
:10114000D6C00AF0070E0B6E52EC11F0000E096EBD
:10115000CC0E086EADC00AF0FDEC0EF0E0D8FDEC50
:101160000EF0000E096ECC0E086E75C00AF0FDEC94
:101170000EF0000E336ECC0E326EB2EC0CF003ECBF
:1011800012F065D0E30E95EC11F0010A01E1EBD607
:10119000030A01E195D6010A01E1FAD6070A01E145
:1011A00097D6010A01E111D7030AA6E0010AACE0D3
:1011B0000F0A01E175D66D0A01E163D7000A01E16A
:1011C00060D7030A01E12DD742D069EC11F0000984
:1011D0003EE1000E37EC11F000090BE0010E076E46
:1011E000000E96EC0EF0010E076E020E96EC0EF05D
:1011F00008D0000E076A96EC0EF0076A020E96EC15
:101200000EF0010E37EC11F000090AE0010E076E36
:1012100096EC0EF0010E076E030E96EC0EF008D061
:10122000076A010E96EC0EF0076A030E96EC0EF0BC
:10123000020E37EC11F0000906E0010E076E040EF5
:1012400096EC0EF004D0076A040E96EC0EF0040E35
:10125000546426D0560410E1552A050E556403D077
:101260000BEC12F009D00001000E336EC30E326E8B
:10127000B2EC0CF007EC12F0570412E10001A52BC0
:1012800020EEA5F0050EDF6403D00EEC12F008D0BE
:10129000000E336ECC0E326EB2EC0CF003EC12F09A
:1012A000570401E096D50001B06B766B770E076EA0
:1012B000B00E086E760E096EA40E74EC0DF0B067D9
:1012C00003D00EEC12F085D5CE51B01901E181D5D5
:1012D000000E086ECC0E076E0A6A640E096E070EC9
:1012E0000B6E52EC11F0000E096ECC0E086EB0C001
:1012F0000AF0FDEC0EF013D8FDEC0EF0000E096EB6
:10130000CC0E086E76C00AF0FDEC0EF0000E336EC7
:10131000CC0E326EB2EC0CF003EC12F05AD5000E8B
:10132000096ECC0E086E650E0A6E650CE8CF13F0E0
:10133000536A60AE12D0A49074AE06D01050D96E2D
:10134000DA6A000EDB86749E60A002D0538001D062
:1013500053900F0E166E600E1AD00F0150AF000C96
:10136000A49274AC06D01050D96EDA6A000EDB86F7
:10137000749C5051070B536E020E536005D01050F1
:10138000D96EDA6A000EDB8E0F0E166E500E156ED9
:1013900015C011F016C012F01050D96EDA6ADF6A6B
:1013A00020EE05F050D80F50D96EDA6A17500F0BA7
:1013B000DF6E17AC05D01050D96EDA6A000EDB8CE8
:1013C00020EE02F040D817A608D01050D96EDA6A85
:1013D000000EDB8A010E176E01D0176A1528076E02
:1013E000000E1620086E13C009F017C00AF02AEC90
:1013F0000AF0060E1526000E16220F50D96EDA6A74
:10140000DF50176E146A0DD015C0D9FF16C0DAFF71
:101410000E50E16EE26ADFCFE7FF154A162A0E2A68
:10142000142A1750145CF0E3A4AE06D01050D96E05
:10143000DA6A000EDB88A49E11C0D9FF12C0DAFF61
:101440007F0EDF16010C1550D9261650DA22DF5018
:10145000176E120009C00DF00A662BD00D50D96E20
:1014600062D80B36D8900B36D8900B34DF6E0D5007
:10147000D96EDA6AD92ADA6A73D8D8900B320C2E70
:10148000FCD70B5059D8050E0C6ED8900B320C2E91
:10149000FCD70D50D96EDA6A0B50DF123DD8DF6AE7
:1014A0000D50D96EDA6A030ED926DA6A000EDF6EA5
:1014B000000C32D855D8D8900B360C2EFCD70B50D8
:1014C000DF6E0D50D96EDA6A030ED9262CD80B3296
:1014D000D8900B32D8900B302FD8030E0B161CD897
:1014E0000B50DF1207C0D9FF08C0DAFFDF500B6EC8
:1014F000D8900B32D8900B32D8900B321C0E0B16B2
:101500000BD80B50DF1222D8E12AE26ADFCFE7FFC7
:101510001DD8DFCFE7FF12000D50D96EDA6A020E38
:10152000D926DA6A1200DA6A07C0E1FF08C0E2FFD2
:10153000E7500B6ED8901200DF6E074A082A07C0EA
:10154000D9FF08C0DAFFDF500B6E1200074A082AE5
:1015500007C0D9FF08C0DAFF0D50E16EE26A120041
:1015600007C0E1FF08C0E2FFE7500B6E050E0C6EEE
:10157000050C090E106E0D6622D01050D96EDA6A75
:10158000DF500E6ED8900E32D8900E32D8900E30BA
:1015900058D8D92ADA6A71D8D8900E360F2EFCD7CF
:1015A00007C0D9FF44D869D8D8900E360F2EFCD783
:1015B0000E5007C0D9FF08C0DAFFDF6E120054D802
:1015C000050E0F6ED8900E320F2EFCD70E5039D864
:1015D000030E40D80E3607C0D9FF29D8020E3AD8DC
:1015E0000E34E00B07C0D9FF08C0DAFFDF6E07C07A
:1015F000D9FF08C0DAFF000EDB8636D8030E0E16C0
:1016000007C0D9FF14D8D92ADA6A07C0E1FF08C099
:10161000E2FFDFCFE7FF074A082A1050D96EDA6AE7
:1016200007C0E1FF08C0E2FFDFCFE7FF120008C0FC
:10163000DAFF0E50DF12074A082A1050D96EDA6A14
:10164000120007C0D9FF08C0DAFFDF6E1050D96E54
:10165000DA6A1200D926DA6ADF500E6ED8900E369A
:10166000D8900E36D89012001050D96EDA6A020E59
:10167000D926DA6ADF500E6E1200DF500E6E050EAC
:101680000F6E050C0F010F0E1A6E400E196E0F0E25
:101690001C6E300E1B6E0F0E1E6E200E1D6E2F6AFE
:1016A0002F50020DF350190FD96EDA6ADECF30F0E9
:1016B000DDCF31F030C02CF031C02DF030C0D9FF7B
:1016C00031C0DAFFDF50186E18B65CD030C0D9FFD9
:1016D00031C0DAFFFC0EDF1617C018F0030E181623
:1016E00030C0D9FF31C0DAFF1850DF1217AC04D078
:1016F000165040092E6E02D016C02EF020EE05F0D6
:101700003050D9263150DA222EC0DFFF17AA03D07D
:10171000010E2E6E01D02E6A3028076E000E312089
:10172000086E11C009F012C00AF013C00BF014C00B
:101730000CF02EC00DF0B9EC0AF0060E3026000EAB
:1017400031222B6A0DD01550D96EDA6A30C0E1FF14
:1017500031C0E2FFDFCFE7FF152A304A312A2B2ABA
:1017600016502B5CF0E32CC0D9FF2DC0DAFFDF5000
:10177000186E18B4010C2CC0D9FF2DC0DAFF000E72
:10178000DB86010C2F2A010E2F648AD7000C06007D
:10179000F4CF05F0F2A401D001D04ED05604D8B455
:1017A00001D001D005D05704D8A401D001D00DD06C
:1017B0000001E14BE22BE1510C0AE211D8A401D067
:1017C00001D003D0E16BE26B542A066A0650020D89
:1017D000F3500001D80FD96EDA6ADF50D8B401D0C7
:1017E00001D023D00650020DF350D80FD96EDA6A1B
:1017F000DF2A0650020DF350D80FD96EDA6A640E54
:10180000DF6401D001D011D00650020DF350D80F83
:10181000D96EDA6A000EDF6E0650020DF350D70F54
:10182000D96EDA6ADF5098EC10F0062A040E0664CE
:1018300001D001D0CBD7F29405C0F4FF04C0F3FF70
:1018400003C0DAFF02C0D9FF1100106A116A1050FC
:10185000080D0950F324D96EDA6ADE520850DD18FB
:1018600007C0E8FFD8B4DF1828E11050080D095070
:101870002CD8DF500D6E0E6A0F6A0FD01050080D75
:101880000950F3240E24D96EDA6A030ED926DA6AD7
:10189000DF50D8A40D060E4A0F2A1050080D09502B
:1018A00014D8DF500A6E0AC00BF00C6A0B500E5CA5
:1018B0000C500F58E3E30D501200104A112A050E88
:1018C000105C000E1158C3E3000CF324D96EDA6AE1
:1018D000020ED926DA6A1200E8CF0CF00D6A0E6A01
:1018E0000D50020DF350EF0F34D8DECFE6FFDDCF01
:1018F000E5FF0D50F90F2DD8020EE126E26ADFCF89
:10190000E7FF0A6A0B6A0DD00D50080D0C50F32446
:101910000A24D96EDA6A030ED926DA6ADF6A0A4A1D
:101920000B2A0D50080D0C5065EC0CF0DF50076EC3
:1019300007C008F0096A08500A5C09500B58E4E334
:101940000D4A0E2A050E0D5C000E0E58D8B012007E
:10195000C7D7D96EDA6A0D50080D0C50F324E16E2A
:10196000E26A120032C0D9FF33C0DAFFDF50386EAE
:1019700020EE01F03250D9263350DA22DF50396E92
:10198000406A416A40C034F0020E3426345032249A
:10199000356EE86A34BEE8683320366E35C0D9FF4C
:1019A00036C0DAFF40C037F0020E37263750380F06
:1019B000E16EE26ADFCFE7FF404A412A060E405C53
:1019C000000E4158DFE3C80E116E126A136A146AE2
:1019D000380E156E20EE08F03250D9263350DA2238
:1019E000DF50020F166E176A42EF0BF0106A116A91
:1019F0001050080D0950F324D96EDA6ADE520850EF
:101A0000DD1807C0E8FFD8B4DF1828E10E6A0F6AB6
:101A100013D01050080D0950F3240E24D96EDA6A41
:101A2000030ED926DA6A0A50DF6204D00EC007F02E
:101A3000086A12000E4A0F2A1050080D095065EC72
:101A40000CF0DF500B6E0BC00CF00D6A0C500E5CEE
:101A50000D500F58DEE3076808681200104A112A7B
:101A6000050E105C000E1158F6E2C2D7E8CF08F060
:101A7000050E0860050C096A0950020DF350D70FD6
:101A8000D96EDA6AFF0EDF6209D00950020DF350F9
:101A9000D70FD96EDA6A08C0DFFF04D0092A040E16
:101AA0000964EAD70A6A0A50020DF350D70FD96EBB
:101AB000DA6A0850DF6213D00A50020DF350D80FD3
:101AC000D96EDA6ADF50D8A412000A50020DF35022
:101AD000D80FD96EDA6ADF2A085077EF10F00A2A99
:101AE000040E0A64E0D7040CE8CF0AF00D6A0D502A
:101AF000030D0A50F324D96EDA6ADF502DE10B6A28
:101B00000C6A0B50080D0750F324D96EDA6ADE50C8
:101B1000640ADD101AE10B50080D0750F3240D2460
:101B2000D96EDA6A030ED926DA6A0850E16EE26AE3
:101B3000DFCFE7FF0D50030D0A5065EC0CF00950A4
:101B4000E16EE26ADFCFE7FF12000B4A0C2A050EB6
:101B50000B5C000E0C58D5E30D2A020E0D64C7D79E
:101B6000020CE8CF0EF00F6A106A0F50080D0E50ED
:101B7000F324D96EDA6ADE520850DD1807C0E8FF98
:101B8000D8B4DF1821E10C6A0D6A0DD00F50080D92
:101B90000E50F3240C24D96EDA6A030ED926DA6AC1
:101BA000DF6A0C4A0D2A0F50080D0E5065EC0CF040
:101BB000DF50096E09C00AF00B6A0A500C5C0B502A
:101BC0000D58D8B01200E2D70F4A102A050E0F5C4C
:101BD000000E1058D8B01200C8D7106A116A105001
:101BE000080D0950F324D96EDA6ADE520850DD1868
:101BF00007C0E8FFD8B4DF1823E10E6A0F6A10D0DF
:101C00001050080D0950F3240E24D96EDA6A030E21
:101C1000D926DA6A0A50DF6201D0010C0E4A0F2A77
:101C20001050080D095065EC0CF0DF500B6E0BC026
:101C30000CF00D6A0C500E5C0D500F58E1E3000CD7
:101C4000104A112A050E105C000E1158F8E2C7D791
:101C5000E8CF08F00850D96EDA6A080ED926DA6A99
:101C6000050EDF64000C0850D96EDA6A020ED92620
:101C7000DA6A0750E16E1ED8030ED926DA6A0750D9
:101C8000E16EE26AE12A16D8040ED926DA6A075014
:101C9000E16EE26A020EE1260DD8050ED926DA6A57
:101CA0000750E16EE26A030EE126E26AE750DF6266
:101CB000000C010CE26AE750DF62000C0850D96E9C
:101CC000DA6A1200E8CF09F0000E086A076AE1EC50
:101CD00011F00950D96EDA6A000E086A076AE1EC61
:101CE00011F0DF6E0950D96EDA6AD92ADA6A086A09
:101CF000010E076EE1EC11F0DF6E0950D96EDA6A61
:101D0000020ED926DA6A086A020E076EE1EC11F0BB
:101D1000DF6E0950D96EDA6A030ED926DA6A086ACC
:101D2000030E076EE1EC11F0DF6E1200E8CF08F051
:101D3000050E0860050C07500BE120D089801200C9
:101D40008982120089881200898A12008A8C120006
:101D50000850F4E0010AF4E0030AF4E0010AF4E0B8
:101D6000070AD8A41200F2D78990120089921200B3
:101D700089981200899A12008A9C12000850F4E097
:101D8000010AF4E0030AF4E0010AF4E0070AD8A427
:101D90001200F2D7E8CF09F00A6A28D8DF5021E014
:101DA0000A5037EC11F0086E0A50030D095065EC2B
:101DB0000CF0DF5008180EE00A50030D095065ECD6
:101DC0000CF008C0DFFF12D8DF6A10D8D92ADA6A0F
:101DD000000E06D00BD8D92ADA6ADF6A07D8010EBE
:101DE000DF6E0A2A020E0A64D8D7020C0A50030DCD
:101DF0000950F324D96EDA6A120020EE08F028D8D0
:101E0000060E0B5CD8B0120020EE08F021D8020EAE
:101E10000B260B5008240C6EE86A0BBEE8680920FC
:101E20000D6E0CC0D9FF0DC0DAFF0AC0DFFF20EE37
:101E300008F00850D9260950DA2210EE08F00850B0
:101E4000E1260950E222E7500B6E0B28DF6E1200EC
:101E50000850D9260950DA22DF500B6E1200E8CF65
:101E600009F00A6A0B6A0A50080D0750F324D96E6C
:101E7000DA6ADE50640ADD101AE10C6A0A50080DB5
:101E80000750F3240C24D96EDA6A030ED926DA6AD5
:101E90000850DF6208D00C50030D0950F324D96EAE
:101EA000DA6A010EDF6E0C2A020E0C64E7D70A4ACA
:101EB0000B2A050E0A5C000E0B58D8B01200D3D7BF
:101EC000E8CF08F0800ED5EC11F0096A0FD0096A4E
:101ED0001CD0010E09D0030E07D0070E05D00F0E3F
:101EE00003D01F0E01D03F0E096E0FD00850010A1B
:101EF000EEE0030AEEE0010AEEE0070AEEE0010A76
:101F0000EEE0030AEEE0010AEEE0C00E70160950A2
:101F10007012000ED5EF11F0E8CF0BF00F010F0E8D
:101F20000D6E0C6A0B50040DF3500C26000E0D22A2
:101F300007C009F008C00AF0D8900A320932D890D8
:101F40000A320932D8900A32093209500CC0D9FF3E
:101F50000DC0DAFFDF6E0738E846E00B0C4A0D2AA9
:101F60000CC0D9FF0DC0DAFFDF6E1200E8CF0BF016
:101F70000F0E0D6E180E0C6E0B50040DF3500C2648
:101F8000000E0D2207C009F008C00AF0D8900A32EE
:101F90000932D8900A320932D8900A3209320950EF
:101FA0000CC0D9FF0DC0DAFFDF6E0738E846E00B42
:101FB0000C4A0D2A0CC0D9FF0DC0DAFFDF6E1200EB
:101FC000450E076E000E086E0F0E086E5F0E07645A
:101FD000086A42C009F043C00AF0010E0B6E52ECD1
:101FE00011F0450E086E000E096E0F0E096E5F0EA1
:101FF0000864096A44C00AF0FDEC0EF0450E326E2A
:10200000000E336E0F0E336E5F0E3264336AB2EF22
:102010000CF00C6A0D6A0C50080D0950F324D96EAF
:10202000DA6ADE520850DD1807C0E8FFD8B4DF18BE
:102030000DE10C50080D0950F3240B24D96EDA6A17
:10204000030ED926DA6A0AC0DFFF12000C4A0D2AF5
:10205000050E0C5C000E0D58D8B01200DCD7800EB7
:10206000D5EC11F0430E706EBF0E716E870E726E5E
:10207000200E736E779E779C606E0F01506F006B21
:10208000016B046B056B086B096B0C6B0D6B106BB4
:10209000116B146B156B186B196B19971C6B1D6BFF
:1020A0001D97000ED5EF11F000EED7F0180EEE6A76
:1020B000E806FDE100EE4EF00A0EEE6AE806FDE1EC
:1020C000E80EF66E230EF76E000EF86E00EEEFF0DF
:1020D00010EE0FF00900F5CFEEFFE550E150FAE108
:1020E000000EF86E0D0EF76E000195EF06F0E8CFCA
:1020F00007F0050E0760050C0FD0010E891A010CC0
:10210000020E891A020C100E891A100C200E891A60
:10211000200C400E8A1A400C0750EFE0010AF0E054
:10212000030AF1E0010AF2E0070AD8A41200F1D78D
:10213000E8CF01F0050E0160050C0FD0010E891AE1
:10214000010C020E891A020C100E891A100C200EB6
:10215000891A200C400E8A1A400C0150EFE0010A47
:10216000F0E0030AF1E0010AF2E0070AD8A4120045
:10217000F1D7E8CF07F0050E0760000C0FD080B054
:10218000010C000C80B2010C000C80B8010C000C9A
:1021900080BA010C000C81BC010C000C0750EFE070
:1021A000010AF0E0030AF1E0010AF2E0070AF3E0B5
:1021B000000C898018D8F9EC10F08990898213D826
:1021C000F9EC10F0899289880ED8F9EC10F0899812
:1021D000898A09D8F9EC10F0899A8A8C04D8F9EC2C
:1021E00010F08A9C1200C80E076E086A096A0A6A13
:1021F000000C0B6A0C6A0D6A0E6A10D00F6A106A26
:102200000F4A102A1050800A7E0F6C0ED8B40F5C53
:10221000F7E30B2A000E0C220D220E2207500B5C56
:1022200008500C5809500D580A500E58D8B01200DA
:10223000E5D7E8CF08F0096A0950030D085065ECAE
:102240000CF0095037EC11F0DF6E0AD8D92ADA6A9F
:10225000DF6A06D8DF6A092A020E0964EDD7020C8C
:102260000950030D0850F324D96EDA6A1200E8CF42
:1022700007F0030E0760000C0CD080B4010C000CBA
:1022800080B6010C000C81BE010C000C80BE010C5C
:10229000000C0750F2E0010AF3E0030AF4E0010A3F
:1022A000F5E0000C20EE01F00750D9260850DA22A4
:1022B0000BC0DFFF07C0D9FF08C0DAFF09C0DFFF8E
:1022C00020EE08F00750D9260850DA22000EDF6E03
:1022D000000C4F4A502A650E4F5C000E505804E324
:1022E0004F6A506A514A522AE90E515C030E525805
:1022F00005E34E6A516A526A4F6A506A4E501200A4
:10230000076A0750020DF3500001D70FD96EDA6A41
:10231000DF680750020DF350D80FD96EDA6ADF6A12
:10232000072A040E0764EDD7040CE8CF07F0075026
:10233000D96EDA6A080ED926DA6A010EDF64000C5B
:102340000750D96EDA6AD92ADA6ADF501200E8CF6C
:1023500007F00750D96EDA6A080ED926DA6ADF501C
:1023600005E00750D96EDA6ADF501200000C085001
:10237000AA6E07C0A9FF09C0A8FF040EA66E550EDD
:10238000A76EAA0EA76EA682A6A21200FDD70F0EF8
:10239000C112CC0E92168C0E9212CC0E891680169B
:1023A000939C938E8A9CD9EF10F0E8CF07F01F0E14
:1023B0006F1607506F126F50E00B0718D8B4120059
:1023C000FAD7A6B2FED70850AA6E07C0A9FF010E21
:1023D000A66EA8501200E8CF08F00850A7EC11F044
:1023E000C80A01E1010C000C0100640000000000BB
:1023F0000000050300000000010E4E6E516A526A93
:102400004F6A506A1200010E576E546A1200010E94
:10241000566E546A1200566A546A1200576A546A19
:022420001200A8
:020000040030CA
:0600010006001E008090C5
:00000001FF
