:040800000CEF04F005
:10080800FACF51F0FBCF52F0E9CF53F040ED20F092
:1008180074EF2CF0D388D38AD38C9B8CF29CF28E05
:1008280098EC2EF00001AF6F000E00010001606F20
:100838000001AF510001B06F000E00010001616FAF
:100848000001B0510001B16F000E00010001626F9C
:100858000001B15176EC2BF00001000E00010001FF
:10086800616F0001DC0E0001606FBDEC26F0000135
:10087800000E000100016E6F0001DC0E00016D6FBB
:1008880076EC16F0D59CD59AD58686EC2EF001012B
:10089800010E00010001636F0101680E0001626F23
:1008A80023EC2AF0000E010101017F6F000E010107
:1008B8007E6F0001AF6F000E01010101146F00018E
:1008C800AF5152EC26F00001AF6F030E000100019A
:1008D800616F0001AF5169EC25F00101010E0001C3
:1008E8000001616F01013E0E0001606FE9EC1DF02F
:1008F8000001AF6F000E00010001606F0001AF51F1
:10090800000E00010001626FFF0E0001616FFAEC3A
:100918002AF00001AF6F010E00010001606F0001B5
:10092800AF51F0C061F0F1C062F0FAEC2AF00001BA
:10093800AF6F020E00010001606F0001AF51F2C0FD
:1009480061F0F3C062F0FAEC2AF00001AF6F030E19
:1009580000010001606F0001AF51F4C061F0F5C003
:1009680062F0FAEC2AF00001AF6F040E00010001FA
:10097800606F0001AF51F6C061F0F7C062F0FAECA9
:100988002AF00001AF6F050E00010001606F000141
:10099800AF51F8C061F0F9C062F0FAEC2AF000013A
:1009A800AF6F000E00010001606F0001AF51030E30
:1009B80000010001626FFF0E0001616F38EC2BF03F
:1009C8000001AF6F010E00010001606F0001AF511F
:1009D800030E00010001626FFF0E0001616F38EC29
:1009E8002BF0BBEC2AF0F28A00D00101010E0001C5
:1009F80000016A6F0101640E0001696F0101010EB7
:100A0800000100016C6F0101000E00016B6F010114
:100A1800010E000100016E6F01013B0E00016D6FB8
:100A28000101010E00010001706F0101630E000158
:100A38006F6FF9EC17F00009D8B401D002D088EF35
:100A48000DF0000E010101013A6F000E0101396F2E
:100A58001BD00101000E010101013925D96EDA6AA6
:100A68000101010EDA220001D00E01010101392530
:100A7800E16EE26A0001000EE222DFCFE7FF01012A
:100A88000101394B3A2B00D0010101013B51000112
:100A9800AF6FB06B010101013A51800A0001B16FDB
:100AA800AF5101010101395D0001B051800A000117
:100AB800B159D8A001D001D0CCD763C1DBF064C153
:100AC800D9F065C1DAF03BC1D8F00001000E000191
:100AD8000001636F0001D00E0001626F77EC2EF009
:100AE8000009D8B401D002D03AEF0DF0000E010190
:100AF80001013D6F000E01013C6F050E010101016E
:100B08003C5D000E01013D59D8A001D001D004D0B0
:100B18003AEF0DF03AEF0DF00101D89001013C35A4
:100B28000001AF6F0001F00E0001AF25D96EDA6A3F
:100B38000001000EDA22000110EED9F0E652DE5272
:100B4800DD50E518DFCFE8FFD8B4E718D8A401D006
:100B580001D014D00101A40E010101013C25D96E78
:100B6800DA6A0101010EDA22DF50D8B401D001D0CF
:100B780005D0D9C07EF1DAC07FF100D001010101B2
:100B88003C4B3D2B050E010101013C5D000E0101AE
:100B98003D59D8A001D001D0BFD73AEF0DF03AEFB8
:100BA8000DF03AEF0DF00001000E00010001616F39
:100BB8000001D00E0001606F0101010E000100016B
:100BC800636F0101680E0001626FE6EC25F0000911
:100BD800D8B401D002D088EF0DF0FF0E000100015B
:100BE800616FFF0E0001606F0001AF6FFF0E000123
:100BF8000001626F0001AF5128EC2EF0FF0088EF72
:100C08000DF088EF0DF00101010E00010001616F88
:100C180001013E0E0001606F7EC162F07FC163F08A
:100C2800B6EC23F088EF0DF07EC160F07FC161F073
:100C38000101010E00010001636F01013E0E000178
:100C4800626FB2EC1EF001010101146F0101145131
:100C5800D8B401D002D088EF0DF00101010E0001D7
:100C68000001616F01016C0E0001606F7EC162F0CE
:100C78007FC163F00001AF6F040E00010001646FD3
:100C88000001AF518BEC2DF00101010E00010001B4
:100C9800626F01016C0E0001616F68C163F07CEC4A
:100CA80029F00101010E00010001626F01016C0EC3
:100CB8000001616F69C163F07CEC29F00101010E4C
:100CC80000010001626F01016C0E0001616F6AC1D1
:100CD80063F07CEC29F00101010E00010001626F54
:100CE80001016C0E0001616F6BC163F07CEC29F0AF
:100CF8000101010E00010001626F01016C0E00018B
:100D0800616F14C163F07CEC29F00101010E000150
:100D180000018E6F01016C0E00018D6F55EC24F0FF
:100D28008FEC2EF0000E00010001CE6F88EF0DF061
:100D380088EF0DF00001000E00010001616F000155
:100D4800D00E0001606F0101010E00010001636F08
:100D58000101680E0001626FE6EC25F00009D8B4C5
:100D680001D002D088EF0DF086EC2EF088EF0DF060
:100D780088EF0DF00001000E00010001616F000115
:100D8800D00E0001606F0101010E00010001636FC8
:100D98000101680E0001626FE6EC25F00009D8B485
:100DA80001D002D088EF0DF07EC160F07FC161F004
:100DB8000101010E00010001636F01013E0E0001F7
:100DC800626FD6C064F0D7C065F028EC27F07EC10A
:100DD8009DF07FC19EF0D6C09FF044EC2CF088EFC8
:100DE8000DF088EF0DF07EC160F07FC161F0010168
:100DF800010E00010001636F01013E0E0001626FE8
:100E0800D2C064F06AEC22F00009D8B401D002D054
:100E180088EF0DF0010101017E51020A7F11D8A46B
:100E280001D001D02BD07EC160F07FC161F00101FB
:100E3800010E00010001636F01013E0E0001626FA7
:100E4800D2C064F0B6EC21F0000160C015F10001D9
:100E580061C016F10101010116BF01D001D00ED009
:100E68000001000E000100019F6F0001DC0E00016F
:100E78009E6F15C1A0F012EC19F000D07EC19DF054
:100E88007FC19EF0D2C09FF044EC2CF088EF0DF0AB
:100E980088EF0DF0010101017E51020A7F11D8A4EB
:100EA80001D002D088EF0DF07EC160F07FC161F003
:100EB8000101010E00010001636F01013E0E0001F6
:100EC800626FD2C064F0B6EC21F0000160C023F17B
:100ED800000161C024F10101010124BF01D002D049
:100EE80088EF0DF0010101012451800A800F020EE4
:100EF800D8B4235DD8B001D002D088EF0DF0D3C0AC
:100F0800AFF00F0E0001AF170001AF510101010151
:100F1800086F0101096B0101010108510101096F05
:100F28000101086B00010001D451010101010827EA
:100F3800000E010109230001000E000100019F6F4E
:100F48000001DC0E00019E6F08C1A0F009C1A1F0EC
:100F580023C1A2F0C5EC2CF088EF0DF088EF0DF05E
:100F680088EF0DF0010101017E51020A7F11D8A41A
:100F780001D002D088EF0DF07EC160F07FC161F032
:100F88000101010E00010001636F01013E0E000125
:100F9800626FD2C064F0B6EC21F0000160C025F1A8
:100FA800000161C026F10101010126BF01D002D074
:100FB80088EF0DF0010101012651800A800F020E11
:100FC800D8B4255DD8B001D002D088EF0DF0D3C0D9
:100FD800AFF00F0E0001AF170001AF510101010181
:100FE8000A6F01010B6B010101010A5101010B6F2D
:100FF80001010A6B00010001D451010101010A2716
:10100800000E01010B230001000E000100019F6F7B
:101018000001DC0E00019E6F0AC1A0F00BC1A1F017
:1010280025C1A2F0E4EC2BF088EF0DF088EF0DF06D
:1010380088EF0DF0010101017E51020A7F11D8A449
:1010480001D002D088EF0DF07EC160F07FC161F061
:101058000101010E00010001636F01013E0E000154
:10106800626FD2C064F0B6EC21F0000160C027F1D5
:10107800000161C028F10101010128BF01D002D09F
:1010880088EF0DF0010101012851800A800F020E3E
:10109800D8B4275DD8B001D002D088EF0DF0D3C006
:1010A800AFF00F0E0001AF170001AF5101010101B0
:1010B8000C6F01010D6B010101010C5101010D6F54
:1010C80001010C6B00010001D451010101010C2741
:1010D800000E01010D230001000E000100019F6FA9
:1010E8000001DC0E00019E6F0CC1A0F00DC1A1F043
:1010F80027C1A2F014EC2CF088EF0DF088EF0DF06A
:1011080088EF0DF0010101017E51020A7F11D8A478
:1011180001D002D088EF0DF07EC160F07FC161F090
:101128000101010E00010001636F01013E0E000183
:10113800626FD2C064F0B6EC21F0000160C029F102
:10114800000161C02AF1010101012ABF01D002D0CA
:1011580088EF0DF0010101012A51800A800F020E6B
:10116800D8B4295DD8B001D002D088EF0DF0D3C033
:10117800AFF00F0E0001AF170001AF5101010101DF
:101188000E6F01010F6B010101010E5101010F6F7B
:1011980001010E6B00010001D451010101010E276C
:1011A800000E01010F2300010101D5C010F101015A
:1011B8000101116B01010101103B0101113BF00E0E
:1011C80001011117010110510F0B01011113F00E4C
:1011D80001011017D6C0AFF00001AF3B0F0EAF17DB
:1011E8000F0E0001AF170001AF51010101011013EB
:1011F800D6C0AFF00F0E0001AF170001AF510101CB
:101208000101126F0101136B01010101125101016A
:10121800136F0101126B00010001D7510101010197
:101228001227000E010113230001000E0001000126
:101238009F6F0001DC0E00019E6F0EC1A0F00FC170
:10124800A1F010C1A2F011C1A3F012C1A4F013C102
:10125800A5F029C1A6F0FCEC27F088EF0DF088EF87
:101268000DF088EF0DF0010101017E51020A7F1196
:10127800D8A401D002D088EF0DF07EC160F07FC104
:1012880061F00101010E00010001636F01013E0ED2
:101298000001626FD2C064F0B6EC21F0000160C0BA
:1012A8002BF1000161C02CF1010101012CBF01D01B
:1012B80002D088EF0DF0010101012C51800A800F46
:1012C800020ED8B42B5DD8B001D002D088EF0DF053
:1012D8000001000E000100019F6F0001DC0E0001FB
:1012E8009E6FD3C0A0F02BC1A1F0D9EC0DF088EF10
:1012F8000DF088EF0DF088EF0DF0010101017E512E
:10130800020A7F11D8A401D001D0FED37EC160F0BB
:101318007FC161F00101010E00010001636F01014D
:101328003E0E0001626FD2C064F0B6EC21F00001FD
:1013380060C02DF1000161C02EF1010101012EBF35
:1013480001D001D0E1D3010101012E51800A800FA3
:10135800020ED8B42D5DD8B001D001D0D5D3D3C0FA
:1013680060F02DC161F0AFEC2EF0CED3CDD3CCD34D
:10137800010101017E51020A7F11D8A401D001D0D8
:10138800C3D37EC160F07FC161F00101010E00018D
:101398000001636F01013E0E0001626FD2C064F06C
:1013A800B6EC21F0000160C02FF1000161C030F1FE
:1013B800010101013051800A800F020ED8B42F5D5F
:1013C800D8B001D001D0A0D30101010130AF01D0C4
:1013D80001D002D099D398D30101010E0001000178
:1013E800616F0101750E0001606F7EC162F07FC1FF
:1013F80063F00001AF6F6C0E00010001646F000123
:10140800AF518BEC2DF00001000E00010001616F5F
:101418000001DC0E0001606F2FC162F012EC2EF0AB
:10142800000160C017F1000161C018F10101010E4F
:1014380000010001626F0101750E0001616F010179
:10144800010118510F0B00010001636F7CEC29F0BA
:101458000101010E00010001626F0101750E00011A
:10146800616F17C163F07CEC29F00101010E0001E6
:1014780000018E6F0101750E00018D6F55EC24F08F
:1014880043D342D3010101017E51020A7F11D8A43E
:1014980001D001D039D37EC160F07FC161F0010174
:1014A800010E00010001636F01013E0E0001626F31
:1014B800D2C064F0B6EC21F0000160C031F1000147
:1014C80061C032F1010101013251800A800F020E20
:1014D800D8B4315DD8B001D001D016D301010101D3
:1014E80032AF01D001D002D00FD30ED30101010ECB
:1014F80000010001616F0101750E0001606F7EC17E
:1015080062F07FC163F00001AF6F6D0E0001000152
:10151800646F0001AF518BEC2DF00001000E00014B
:101528000001616F0001DC0E0001606F31C162F0E3
:101538000BEC2DF0000160C019F1000161C01AF137
:101548000101010E00010001626F0101750E000129
:10155800616F010101011A510F0B00010001636F56
:101568007CEC29F00101010E00010001626F01010C
:10157800750E0001616F19C163F07CEC29F001015F
:10158800010E000100018E6F0101750E00018D6FC3
:1015980055EC24F0B9D2B8D2010101017E51020AFA
:1015A8007F11D8A401D001D0AFD27EC160F07FC135
:1015B80061F00101010E00010001636F01013E0E9F
:1015C8000001626FD2C064F0B6EC21F0000160C087
:1015D80033F1000161C034F1010101013451800A85
:1015E800800F020ED8B4335DD8B001D001D08CD2B0
:1015F8000101010134AF01D001D002D085D284D2DB
:101608000101010E00010001616F0101750E000169
:10161800606F7EC162F07FC163F00001AF6F6E0E34
:1016280000010001646F0001AF518BEC2DF0000147
:10163800000E00010001616F0001DC0E0001606F07
:1016480033C162F0E9EC2CF0000160C01BF100012D
:1016580061C01CF10101010E00010001626F01016E
:10166800750E0001616F010101011C510F0B000192
:101678000001636F7CEC29F00101010E00010001FB
:10168800626F0101750E0001616F1BC163F07CEC94
:1016980029F00101010E000100018E6F0101750E94
:1016A80000018D6F55EC24F02FD22ED201010101DB
:1016B8007E51020A7F11D8A401D001D025D27EC163
:1016C80060F07FC161F00101010E00010001636F4C
:1016D80001013E0E0001626FD2C064F0B6EC21F049
:1016E800000160C061F1000161C062F10101010106
:1016F8006251800A800F020ED8B4615DD8B001D063
:1017080001D002D20101010162AF01D001D002D0A3
:10171800FBD1FAD10101010E00010001616F010145
:10172800750E0001606F7EC162F07FC163F0000139
:10173800AF6F6F0E00010001646F0001AF518BECB9
:101748002DF00001000E00010001616F0001DC0EA8
:101758000001606F61C162F012EC2EF0000160C000
:101768001DF1000161C01EF10001000E0001000121
:10177800616F0001DC0E0001606F61C162F00BEC6B
:101788002DF0000160C021F1000161C022F10001CB
:10179800000E00010001616F0001DC0E0001606FA6
:1017A80061C162F0E9EC2CF0000160C01FF100019A
:1017B80061C020F10101010E00010001626F010109
:1017C800750E0001616F010101011E510F0B00012F
:1017D8000001636F7CEC29F00101010E000100019A
:1017E800626F0101750E0001616F1DC163F07CEC31
:1017F80029F00101010E00010001626F0101750E5F
:101808000001616F010121C1AFF0010122C1B0F0F7
:10181800040E0001B16F0001B035B033AF330001E1
:10182800B12FF9D70001AF5100010001636F7CECC3
:1018380029F001010101213B0101223BF00E0101C8
:101848002217010121510F0B01012213F00E010192
:1018580021170101010E00010001626F0101750EDF
:101868000001616F010120C1AFF00001B06BAFBF93
:10187800B0690F0E0001AF17010101012151F00BF2
:101888000001AF1100010001636F7CEC29F0010138
:10189800010E00010001626F0101750E0001616F08
:1018A8001FC163F07CEC29F00101010E0001000169
:1018B8008E6F0101750E00018D6F55EC24F024D157
:1018C80023D1010101017E51020A7F11D8A401D060
:1018D80001D01AD17EC160F07FC161F00101010E13
:1018E80000010001636F01013E0E0001626FD2C06A
:1018F80064F0B6EC21F0000160C035F1000161C070
:1019080036F1010101013651800A800F020ED8B468
:10191800355DD8B001D001D0F7D00101010136AF53
:1019280001D001D002D0F0D0EFD00101010E0001AA
:101938000001616F0101750E0001606F7EC162F0E8
:101948007FC163F00001AF6F700E00010001646F8A
:101958000001AF518BEC2DF00101010E00010001D7
:10196800626F0101750E0001616F35C160F0AAEC6C
:101978002EF000010001636F7CEC29F00101010EDB
:10198800000100018E6F0101750E00018D6F55EC8D
:1019980024F0BAD0B9D0010101017E51020A7F11A9
:1019A800D8A401D001D0B0D07EC160F07FC161F071
:1019B8000101010E00010001636F01013E0E0001EB
:1019C800626FD2C064F0B6EC21F0000160C037F15C
:1019D800000161C038F1010101013851800A800F0E
:1019E800020ED8B4375DD8B001D001D08DD0010136
:1019F800010138AF01D001D002D086D085D00101D5
:101A0800010E00010001616F0101750E0001606F98
:101A18007EC162F07FC163F00001AF6F710E0001FB
:101A28000001646F0001AF518BEC2DF00101010E34
:101A380000010001626F0101750E0001616F37C17D
:101A480060F0A5EC2EF000010001636F7CEC29F03A
:101A58000101010E000100018E6F0101750E0001E8
:101A68008D6F55EC24F050D04FD04ED00001000EB1
:101A780000010001616F0001D00E0001606F4DECA4
:101A88002DF0010AD8B49EEF06F0030AD8B407EF88
:101A980006F0010AD8B4BEEF06F0070AD8B418EF6A
:101AA80006F0010AD8B4F7EF06F00D0AD8B4D7EF5C
:101AB80005F06E0AD8B44EEF07F0010AD8B4B6EFB5
:101AC80007F00F0AD8B41EEF08F0010AD8B486EF61
:101AD80008F0030AD8B437EF09F0010AD8B40DD4D6
:101AE800070AD8B445D4010AD8B4CCD4030AD8B468
:101AF80053D5010AD8B4DAD51F0AD8B4E2D6010AF8
:101B0800D8B449D701D000D00001000E000100016F
:101B1800A56F0001DC0E0001A46F9DEC2CF0040EF3
:101B280000010001CC6501D002D0F9EF04F00001FA
:101B38000001CF05D8A401D002D0F9EF04F00001CC
:101B48000001CE2B050E00010001CE6501D001D0A9
:101B580004D086EC2EF0F9EF04F0640E00010001C9
:101B6800606F000E0001616F000E0001626F000ED1
:101B78000001636FBFEC28F00101010E00010001B4
:101B88008E6F01016C0E00018D6F55EC24F08FEC07
:101B98002EF0F9EF04F0F9EF04F0F9EF04F0F9EFA3
:101BA80004F0F9EF04F00CEF04F0A0C0CDF0B2D2CD
:101BB8009EC060F09FC061F0BDEC26F00001A26FEE
:101BC800000E00010001A56F0001A251010E0001E5
:101BD8000001A56501D001D002D0AFD2AED200017C
:101BE8000001A551010D0001EE0EF324D96EDA6A49
:101BF8000001000EDA22000EDF6E00010001A5517F
:101C0800060DF350000100019E25D96E000E00015B
:101C180000019F21DA6EFF0EDE6E0F0EDD6E0001F1
:101C28000001A52B010E00010001A56501D001D01E
:101C3800D6D783D282D20001A26F000E0001000124
:101C4800A66F0001A251010E00010001A66501D096
:101C580001D002D072D271D200010001A651060D46
:101C6800F350000100019E25D96E000E000100010D
:101C78009F21DA6EFF0EDE6E0F0EDD6E0001000191
:101C8800A651060DF350000100019E250001A26F28
:101C9800E86AF3BEE868000100019F210001A36F14
:101CA800020E0001A225D96E000E0001A321DA6EF2
:101CB800FF0EDE6E0F0EDD6E00010001A651060D4F
:101CC800F350000100019E250001A26FE86AF3BEEF
:101CD800E868000100019F210001A36F040E0001C4
:101CE800A225D96E000E0001A321DA6EFF0EDE6E6A
:101CF8000F0EDD6E00010001A62B010E0001000190
:101D0800A66501D001D0A8D718D217D29EC060F01E
:101D18009FC061F0BDEC26F00001A26F000E00012B
:101D28000001A76F0001A251010E00010001A76583
:101D380001D001D002D001D200D200010001A75188
:101D4800010D0001EE0EF324D96EDA6A0001000ECF
:101D5800DA22000EDF6E00010001A751060DF350D4
:101D6800000100019E25D96E000E000100019F218F
:101D7800DA6EFF0EDE6E0F0EDD6E00010001A7C0E9
:101D880060F000010001616B0E0E00010001636F3D
:101D9800100E0001626FB0EC2BF000010001A7519A
:101DA800060DF350000100019E250001A26FE86AAC
:101DB800F3BEE868000100019F210001A36F020E35
:101DC8000001A225D96E000E0001A321DA6E0001E0
:101DD80060C0DEFF000161C0DDFF00010001A72B2C
:101DE800010E00010001A76501D001D0A6D7A5D139
:101DF800A4D10001A26F000E00010001A96F00012B
:101E0800A251010E00010001A96501D001D002D044
:101E1800D8D0D7D000010001A951060DF350000118
:101E280000019E25D96E000E000100019F21DA6E87
:101E380000010001A951060D0001B20EF324E16E64
:101E4800E26A0001000EE222DECFE6FFDDCFE5FF09
:101E580000010001A951060DF350000100019E2563
:101E6800D96E000E000100019F21DA6E000EDE6EB1
:101E7800000EDD6E00010001A951060DF3500001AE
:101E880000019E250001A26FE86AF3BEE868000120
:101E980000019F210001A36F020E0001A225D96E47
:101EA800000E0001A321DA6E00010001A951060D00
:101EB800F3CFA4F0020E0001A4270001B20E000126
:101EC800A425E16EE26A0001000EE222DECFE6FF01
:101ED800DDCFE5FF00010001A951060DF350000117
:101EE80000019E250001A26FE86AF3BEE8680001C0
:101EF80000019F210001A36F020E0001A225D96EE7
:101F0800000E0001A321DA6E000EDE6E000EDD6EFB
:101F180000010001A951060DF350000100019E25A2
:101F28000001A26FE86AF3BEE868000100019F2182
:101F38000001A36F040E0001A225D96E000E000156
:101F4800A321DA6E00010001A951060DF3CFA4F018
:101F5800040E0001A4270001B20E0001A425E16EC1
:101F6800E26A0001000EE222DECFE6FFDDCFE5FFE8
:101F780000010001A951060DF350000100019E2542
:101F88000001A26FE86AF3BEE868000100019F2122
:101F98000001A36F040E0001A225D96E000E0001F6
:101FA800A321DA6E000EDE6E000EDD6E0001000168
:101FB800A92B010E00010001A96501D001D02AD783
:101FC80000D09EC06DF09FC06EF076EC16F0B5D0D4
:101FD8000001A26F000E00010001A86F0001A251CC
:101FE800010E00010001A86501D001D002D08AD0FD
:101FF80089D000010001A851060D0001B20EF3249A
:10200800D96EDA6A0001000EDA2200010001A85137
:10201800060DF350000100019E25E16E000E00013F
:1020280000019F21E26EDECFE6FFDDCFE5FF000174
:102038000001A851060DF3CFA2F0020E0001A2275D
:102048000001B20E0001A225D96EDA6A0001000E65
:10205800DA2200010001A851060DF3500001000129
:102068009E250001A36FE86AF3BEE868000100013D
:102078009F210001A46F020E0001A325E16E000E4E
:102088000001A421E26EDECFE6FFDDCFE5FF00010F
:102098000001A851060DF3CFA2F0040E0001A227FB
:1020A8000001B20E0001A225D96EDA6A0001000E05
:1020B800DA2200010001A851060DF35000010001C9
:1020C8009E250001A36FE86AF3BEE86800010001DD
:1020D8009F210001A46F040E0001A325E16E000EEC
:1020E8000001A421E26EDECFE6FFDDCFE5FF0001AF
:1020F8000001A82B010E00010001A86501D001D044
:1021080078D700D09EC06DF09FC06EF076EC16F0C8
:1021180014D013D000010001A051000AD8B469D628
:10212800010AD8B445D5030AD8B4F0D5060AD8B4FC
:102138004FD7010AD8B47FD500D0120000010001A2
:102148006305D8A401D001D012D00001000162516A
:10215800060DF350000100016025D96E000E000144
:1021680000016121DA6EDE2A000EDD2200D00001B6
:1021780000016351020AD8A401D001D012D0000195
:1021880000016251060DF350000100016025D96E6F
:10219800000E000100016121DA6EDE06000EDD5A34
:1021A80000D0000100016405D8A401D001D01ED0E0
:1021B800000100016251060DF35000010001602585
:1021C8000001686FE86AF3BEE86800010001612158
:1021D8000001696F020E00016825D96E000E00012A
:1021E8006921DA6EDE2A000EDD2200D0000100012E
:1021F8006451020AD8A401D001D01ED00001000108
:102208006251060DF3500001000160250001686F5E
:10221800E86AF3BEE8680001000161210001696F06
:10222800020E00016825D96E000E00016921DA6EE0
:10223800DE06000EDD5A00D0000100016505D8A4B5
:1022480001D001D01ED0000100016251060DF350EB
:102258000001000160250001686FE86AF3BEE868C4
:102268000001000161210001696F040E0001682569
:10227800D96E000E00016921DA6EDE2A000EDD2219
:1022880000D0000100016551020AD8A401D001D094
:102298001DD0000100016251060DF350000100013C
:1022A80060250001686FE86AF3BEE8680001000174
:1022B80061210001696F040E00016825D96E000EC6
:1022C80000016921DA6EDE06000EDD5A0001000108
:1022D8006251060DF350000100016025D96E000E11
:1022E800000100016121DA6EDE52DD50800A700FB4
:1022F800000ED8B4DF5CD8A001D001D018D00001FE
:1023080000016251060DF350000100016025D96EED
:10231800000E000100016121DA6EFF0EDE6E0F0E65
:10232800DD6E66C0D9FF67C0DAFFDF2A00D0000182
:1023380000016251060DF350000100016025D96EBD
:10234800000E000100016121DA6EDECF68F0DDCFFA
:1023580069F0000169AF01D001D018D00001000177
:102368006251060DF350000100016025D96E000E80
:10237800000100016121DA6E000EDE6E000EDD6ED6
:1023880066C0D9FF67C0DAFFDF2A00D0000100016C
:102398006251060DF3500001000160250001686FCD
:1023A800E86AF3BEE8680001000161210001696F75
:1023B800020E00016825D96E000E00016921DA6E4F
:1023C800DE52DD50800A700F000ED8B4DF5CD8A052
:1023D80001D001D024D0000100016251060DF35054
:1023E8000001000160250001686FE86AF3BEE86833
:1023F8000001000161210001696F020E00016825DA
:10240800D96E000E00016921DA6EFF0EDE6E0F0E26
:10241800DD6E66C0D9FF67C0DAFFDF2A00D0000191
:1024280000016251060DF350000100016025000112
:10243800686FE86AF3BEE8680001000161210001E5
:10244800696F020E00016825D96E000E000169212E
:10245800DA6EDECF6AF0DDCF6BF000016BAF01D032
:1024680001D024D0000100016251060DF350000193
:10247800000160250001686FE86AF3BEE8680001A2
:10248800000161210001696F020E00016825D96E03
:10249800000E00016921DA6E000EDE6E000EDD6EA0
:1024A80066C0D9FF67C0DAFFDF2A00D0000100014B
:1024B8006251060DF3500001000160250001686FAC
:1024C800E86AF3BEE8680001000161210001696F54
:1024D800040E00016825D96E000E00016921DA6E2C
:1024E800DE52DD50800A700F000ED8B4DF5CD8A031
:1024F80001D001D024D0000100016251060DF35033
:102508000001000160250001686FE86AF3BEE86811
:102518000001000161210001696F040E00016825B6
:10252800D96E000E00016921DA6EFF0EDE6E0F0E05
:10253800DD6E66C0D9FF67C0DAFFDF2A00D0000170
:1025480000016251060DF3500001000160250001F1
:10255800686FE86AF3BEE8680001000161210001C4
:10256800696F040E00016825D96E000E000169210B
:10257800DA6EDECF6AF0DDCF6BF000016BAF01D011
:1025880001D024D0000100016251060DF350000172
:10259800000160250001686FE86AF3BEE868000181
:1025A800000161210001696F040E00016825D96EE0
:1025B800000E00016921DA6E000EDE6E000EDD6E7F
:1025C80066C0D9FF67C0DAFFDF2A00D066C0D9FF2E
:1025D80067C0DAFF050EDF6401D001D007D066C0FE
:1025E800D9FF67C0DAFF000EDF6E00D0120041C0CD
:1025F800CDF0E1D13FC001F040C002F074EC2AF008
:10260800436E000E466E4350010E466401D001D061
:1026180002D0E2D1E1D14650010D0001EE0EF324C3
:10262800D96EDA6A0001000EDA22000EDF6E46501B
:10263800060DF3503F24D96E000E4020DA6EFF0ECF
:10264800DE6E0F0EDD6E462A010E466401D001D003
:10265800E2D7C2D1C1D1436E000E476E4350010E7E
:10266800476401D001D002D0B7D1B6D14750060D8A
:10267800F3503F24D96E000E4020DA6EFF0EDE6E56
:102688000F0EDD6E4750060DF3503F24436EE86A87
:10269800F3BEE8684020446E020E4324D96E000E53
:1026A8004420DA6EFF0EDE6E0F0EDD6E4750060D0B
:1026B800F3503F24436EE86AF3BEE8684020446E56
:1026C800040E4324D96E000E4420DA6EFF0EDE6E2F
:1026D8000F0EDD6E472A010E476401D001D0C6D720
:1026E8007BD17AD13FC001F040C002F074EC2AF0EF
:1026F800436E000E486E4350010E486401D001D06D
:1027080002D06AD169D14850010D0001EE0EF324C0
:10271800D96EDA6A0001000EDA22000EDF6E485028
:10272800060DF3503F24D96E000E4020DA6EFF0EDE
:10273800DE6E0F0EDD6E48C001F0026A0E0E046EEA
:10274800100E036E6CEC2DF04850060DF3503F242C
:10275800436EE86AF3BEE8684020446E020E4324E4
:10276800D96E000E4420DA6E01C0DEFF02C0DDFF24
:10277800482A010E486401D001D0C5D72DD12CD1EB
:10278800436E000E4A6E4350010E4A6401D001D0D8
:1027980002D096D095D04A50060DF3503F24D96EFA
:1027A800000E4020DA6E4A50060D0001B20EF324E6
:1027B800E16EE26A0001000EE222DECFE6FFDDCF25
:1027C800E5FF4A50060DF3503F24D96E000E402015
:1027D800DA6E000EDE6E000EDD6E4A50060DF35006
:1027E8003F24436EE86AF3BEE8684020446E020E58
:1027F8004324D96E000E4420DA6E4A50060DF3CFFA
:1028080045F0020E45260001B20E4524E16EE26A4B
:102818000001000EE222DECFE6FFDDCFE5FF4A50E1
:10282800060DF3503F24436EE86AF3BEE868402083
:10283800446E020E4324D96E000E4420DA6E000E58
:10284800DE6E000EDD6E4A50060DF3503F24436ED7
:10285800E86AF3BEE8684020446E040E4324D96E4B
:10286800000E4420DA6E4A50060DF3CF45F0040EF0
:1028780045260001B20E4524E16EE26A0001000E11
:10288800E222DECFE6FFDDCFE5FF4A50060DF3502A
:102898003F24436EE86AF3BEE8684020446E040EA5
:1028A8004324D96E000E4420DA6E000EDE6E000E50
:1028B800DD6E4A2A010E4A6401D001D06CD700D0DF
:1028C8003FC00EF040C00FF012EC1DF085D0436EF3
:1028D800000E496E4350010E496401D001D002D068
:1028E80062D061D04950060D0001B20EF324D96EB2
:1028F800DA6A0001000EDA224950060DF3503F242F
:10290800E16E000E4020E26EDECFE6FFDDCFE5FF90
:102918004950060DF3CF43F0020E43260001B20ED4
:102928004324D96EDA6A0001000EDA224950060DF6
:10293800F3503F24446EE86AF3BEE8684020456ED1
:10294800020E4424E16E000E4520E26EDECFE6FF63
:10295800DDCFE5FF4950060DF3CF43F0040E4326C3
:102968000001B20E4324D96EDA6A0001000EDA22A1
:102978004950060DF3503F24446EE86AF3BEE868F8
:102988004020456E040E4424E16E000E4520E26EA0
:10299800DECFE6FFDDCFE5FF492A010E496401D00D
:1029A80001D0A0D700D03FC00EF040C00FF012EC0D
:1029B8001DF012D011D04150000AD8B4E1D6010A56
:1029C800D8B418D6030AD8B48DD6060AD8B47FD797
:1029D800010AD8B440D600D012000001A06F000E42
:1029E80000010001A36F0001A051010E00010001C8
:1029F800A36501D001D002D04DD04CD09EC060F06C
:102A08009FC061F0A3C062F000010001A351010D55
:102A18000001E80EF324D96EDA6A0001000EDA220A
:102A2800DF5000010001636F00010001A351010D97
:102A38000001EA0EF324D96EDA6A0001000EDA22E8
:102A4800DF5000010001646F00010001A351010D76
:102A58000001EC0EF324D96EDA6A0001000EDA22C6
:102A6800DF5000010001656F0001000E0001000148
:102A7800676F0001E80E0001666FA2EC10F000011C
:102A88000001A32B010E00010001A36501D001D0B4
:102A9800B5D700D09EC06DF09FC06EF076EC16F0F2
:102AA80031D0280E00010001606F000E0001616F37
:102AB800000E0001626F000E0001636F60EC28F0E9
:102AC8002BD0460E00010001606F000E0001616FFF
:102AD800000E0001626F000E0001636F60EC28F0C9
:102AE8001BD0640E00010001606F000E0001616FD1
:102AF800000E0001626F000E0001636F60EC28F0A9
:102B08000BD00AD000010001FA51000AD8B4C9D785
:102B1800010AD8B4D6D7E5D700010001C74BC82BA6
:102B2800D10E00010001C75D070E0001C859D8A0E9
:102B380001D001D0D6D0000E00010001C86F000EF0
:102B48000001C76FD65000010001E827030E0001FD
:102B58000001E817D638E8461F0B030B00010001F7
:102B6800EA27030E00010001EA17D644E846030BE2
:102B7800030B00010001EC27030E00010001EC1714
:102B8800D640E8423F0B030B00010001E927030E82
:102B980000010001E917D6380F0B030B00010001F3
:102BA800EB27030E00010001EB17D638E842070BAC
:102BB800030B00010001ED27030E00010001ED17D2
:102BC8000001A06F000E00010001A16F0001A051DB
:102BD800020E00010001A16501D001D002D02CD065
:102BE8002BD000010001A151020D0001E80EF324D1
:102BF800D96EDA6A0001000EDA22020EDF6401D013
:102C080001D00FD000010001A151020D0001E80E12
:102C1800F324D96EDA6A0001000EDA22020EDF6EA2
:102C280000D000010001A12B020E00010001A165E6
:102C380001D001D0D6D700D00001A06F000E00014E
:102C48000001A26F0001A051020E00010001A2655F
:102C580001D001D002D045D044D000010001A251DA
:102C6800020DF3CFA0F0010E0001A0270001E80E2D
:102C78000001A025D96EDA6A0001000EDA22020EE0
:102C8800DF6401D001D021D000010001A251020D62
:102C98000001E80EF324D96EDA6A0001000EDA2288
:102CA80000010001A251020DF3CFA0F0010E0001B6
:102CB800A0270001E80E0001A025E16EE26A0001EC
:102CC800000EE222DFCFE7FF00D000010001A22BB7
:102CD800020E00010001A26501D001D0BED701D0CB
:102CE80000D0120000016F6F360E00010001996FCD
:102CF80000016F510001000199C060F0000100015E
:102D0800616B000E00010001636F020E0001626F2B
:102D180015EC23F0000100016051000100019D6FD6
:102D28000001000E00010001616F0001750E000135
:102D3800606F000E00010001636FFF0E0001626FFB
:102D4800000E00010001656F240E0001646F2DEC78
:102D58002DF00001000199A101D001D009D0000196
:102D68006F6F000E000100019C6F00016F5108D0C9
:102D780000016F6F010E000100019C6F00016F518F
:102D880000016F6F000E000100019B6F00016F5181
:102D980000016F6F000E000100019A6F00016F5172
:102DA800010E000100019A6501D001D002D005D1C1
:102DB80004D1000100019A51060DF35000010001F1
:102DC8006D25D96E000E000100016E21DA6EDECF8E
:102DD8006FF0DDCF70F0FF0E00016F150001716F0D
:102DE8000F0E000170150001726F0001711D0001C6
:102DF8000001606F00010001721D616F0001000E8B
:102E080000010001636F0001750E0001626F00018F
:102E1800000E00010001656F00019D0E0001646F46
:102E28000001000E00010001676F00019C0E000107
:102E3800666F0001000E00010001696F00019B0E22
:102E48000001686FE7EC24F0000100019A51060DBB
:102E5800F350000100016D2500016F6FE86AF3BEB1
:102E6800E868000100016E210001706F020E000188
:102E78006F25D96E000E00017021DA6EDECF71F079
:102E8800DDCF72F0FF0E000171150001736F0F0E98
:102E9800000172150001746F0001731D000100012B
:102EA800606F00010001741D616F0001000E0001D8
:102EB8000001636F0001750E0001626F0001000ED2
:102EC80000010001656F00019D0E0001646F0001A3
:102ED800000E00010001676F00019C0E0001666F83
:102EE8000001000E00010001696F00019B0E000146
:102EF800686FE7EC24F0000100019A51060DF350C9
:102F0800000100016D2500016F6FE86AF3BEE868F3
:102F1800000100016E210001706F040E00016F2591
:102F2800D96E000E00017021DA6EDECF71F0DDCFB0
:102F380072F0FF0E000171150001736F0F0E000192
:102F480072150001746F0001731D00010001606FAC
:102F580000010001741D616F0001000E00010001F5
:102F6800636F0001750E0001626F0001000E000121
:102F78000001656F00019D0E0001646F0001000EE5
:102F880000010001676F00019C0E0001666F0001DF
:102F9800000E00010001696F00019B0E0001686FBF
:102FA800E7EC24F0000100019A2B010E000100015A
:102FB8009A6501D001D0FDD600D00001000E0001B5
:102FC8000001616F0001750E0001606F00016F6FF5
:102FD800240E00010001626F00016F51AAEC2DF070
:102FE8008B808B8C8B9C8B9012000001716F000E74
:102FF80000010001CB6F0001715160AE01D001D01A
:103008001ED0A49074AE01D001D008D06FC0D9FFF3
:1030180070C0DAFF000EDB86749E00D060A004D07A
:1030280000010001CB8103D000010001CB910F0EFC
:1030380000010001766F600E0001756F36D00F0138
:103048000F0150AF01D001D02CD0A49274AC01D0A4
:1030580001D008D06FC0D9FF70C0DAFF000EDB8640
:10306800749C00D00F010F015051070B00010001A3
:10307800CB6F020E00010001CB6101D001D007D057
:103088006FC0D9FF70C0DAFF000EDB8E00D00F01D1
:103098000F0E00010001766F0F01500E0001756FD1
:1030A80004D0000EBAD0B9D000D075C072F076C086
:1030B80073F06FC0D9FF70C0DAFF000EDF6E000139
:1030C80020EE05F000017551D92600017651DA226B
:1030D800DF5000010001776F0001000177510F0BED
:1030E8006DC0D9FF6EC0DAFFDF6E0001000177AD59
:1030F80001D001D006D06FC0D9FF70C0DAFF000E32
:10310800DB8C000120EE02F000017551D926000188
:103118007651DA22DF5000010001776F00010001CB
:1031280077A701D001D00FD06FC0D9FF70C0DAFFE8
:10313800000EDB8A0001716F010E00010001776F3C
:103148000001715109D00001716F000E00010001EA
:10315800776F0001715100D0010E00010001752543
:1031680000010001606F000E0001000176210001DE
:10317800616F69C062F06AC063F077C064F021ECE7
:103188001BF0060E000100017527000E00017623D2
:103198006DC0D9FF6EC0DAFFDF5000010001776F04
:1031A8000001716F000E00010001746F0001715180
:1031B80016D075C0D9FF76C0DAFF6BC0E1FF6CC0CE
:1031C800E2FFDFCFE7FF00010001754B762B00011E
:1031D80000016B4B6C2B00010001742B00D0000127
:1031E8000001775100010001745DD8A001D001D021
:1031F800E0D7A4AE01D001D008D06FC0D9FF70C00D
:10320800DAFF000EDB88A49E00D072C0D9FF73C01D
:10321800DAFF7F0EDF16010E00D01200020E000149
:103228000001A06101D001D004D10001A16F000EFE
:1032380000010001A36F0001A151010E000100016E
:10324800A36501D001D002D02DD02CD000010001FF
:10325800A351020D0001BE0EF324D96EDA6A0001F3
:10326800000EDA22FF0EDF6201D001D010D000017B
:103278000001A351020D0001BE0EF324D96EDA6AD3
:103288000001000EDA220001A0C0DFFF0BD0000110
:103298000001A32B010E00010001A36501D001D09C
:1032A800D5D700D00001A16F000E00010001A46F66
:1032B8000001A151010E00010001A46501D001D057
:1032C80002D0B7D0B6D000010001A451020D000110
:1032D800BE0EF324D96EDA6A0001000EDA2200016C
:1032E8000001A051DF6201D001D097D00001000198
:1032F800A451020DF3CFA1F0010E0001A127000196
:10330800BE0E0001A125D96EDA6A0001000EDA228C
:10331800DF50D8B401D001D003D08BD08AD07DD073
:1033280000010001A451020DF3CFA1F0010E00012C
:10333800A1270001BE0E0001A125D96EDA6A00019D
:10334800000EDA22DF2A00010001CD51060AD8B4A6
:1033580001D001D00BD0CDC0FBF00001A16F060E4B
:1033680000010001CD6F0001A15100D00001000152
:10337800A051060DF350000100019E25D96E000EE4
:10338800000100019F21DA6EFF0EDE6E0F0EDD6E6A
:1033980000010001A051060DF350000100019E2517
:1033A8000001A16FE86AF3BEE868000100019F21EF
:1033B8000001A26F020E0001A125D96E000E0001C6
:1033C800A221DA6EFF0EDE6E0F0EDD6E0001000127
:1033D800A051060DF350000100019E250001A16FC8
:1033E800E86AF3BEE868000100019F210001A26FAE
:1033F800040E0001A125D96E000E0001A221DA6E8B
:10340800FF0EDE6E0F0EDD6E9EC06DF09FC06EF07B
:1034180076EC16F00ED00DD000D000010001A42BE0
:10342800010E00010001A46501D001D04CD701D0E4
:1034380000D012000F010F0E00010001756F0F017F
:10344800400E0001746F0F010F0E00010001776F2D
:103458000F01300E0001766F0F010F0E0001000101
:10346800796F0F01200E0001786F0001736F000E55
:10347800000100018A6F00017351010E0001000173
:103488008A6501D001D002D0D5D0D4D00001000186
:103498008A51020D0001740EF324D96EDA6A000114
:1034A800000EDA220001DECF8BF00001DDCF8CF0B8
:1034B8008BC087F08CC088F08BC0D9FF8CC0DAFF36
:1034C800DF500001736F000173B701D001D0A7D09E
:1034D8008BC0D9FF8CC0DAFFFC0EDF1672C073F008
:1034E800030E000173178BC0D9FF8CC0DAFF0001EF
:1034F8007351DF120001000172AD01D001D008D074
:10350800000100017151400900010001896F03D0D9
:1035180071C089F000D0000120EE05F000018B5148
:10352800D92600018C51DA22000189C0DFFF000191
:10353800000172AB01D001D009D00001736F010EF8
:1035480000010001896F0001735109D00001736FF8
:10355800000E00010001896F0001735100D0010EB7
:10356800000100018B2500010001606F000E0001C1
:1035780000018C210001616F6BC062F06CC063F0C8
:103588006DC064F06EC065F089C066F020EC1CF078
:10359800060E000100018B27000E00018C2300019C
:1035A800736F000E00010001866F0001735116D081
:1035B8006FC0D9FF70C0DAFF8BC0E1FF8CC0E2FF9B
:1035C800DFCFE7FF000100016F4B702B0001000106
:1035D8008B4B8C2B00010001862B00D000010001D1
:1035E800715100010001865DD8A001D001D0E0D75B
:1035F80000D087C0D9FF88C0DAFFDF500001736FA1
:10360800000173B501D001D007D087C0D9FF88C0A9
:10361800DAFF000EDB8600D0010E0ED00DD00001BF
:1036280000018A2B010E000100018A6501D001D03A
:103638002DD700D0000E00D0120062C067F063C022
:1036480068F000010001646701D001D063D060C058
:10365800D9FF61C0DAFFDF500001656F0001D89023
:1036680065370001D89065370001D890653567C087
:10367800D9FF68C0DAFFDF6E000120EE01F000011B
:103688006751D92600016851DA2260C0E1FF61C0A4
:10369800E2FFE7500001656F050E0001666F00014B
:1036A800D89065330001662FFAD700016551DF6EA7
:1036B80000010001604B612B60C0D9FF61C0DAFFD7
:1036C800DF500001656F050E0001666F0001D8909C
:1036D80065330001662FFAD767C0D9FF68C0DAFFE3
:1036E80000016551DF12000120EE02F00001675170
:1036F800D92600016851DA22000EDF6E000120EEA3
:1037080003F000016751D92600016851DA22000E42
:10371800DF6E91D0000120EE02F000016751D9263A
:1037280000016851DA2260C0E1FF61C0E2FFE750A2
:103738000001656F050E0001666F0001D8906537BE
:103748000001662FFAD700016551DF6E000120EEF7
:1037580003F000016751D92600016851DA2260C0E0
:10376800E1FF61C0E2FFE7500001656F0001D890FA
:1037780065330001D89065330001D8906531DF6E5C
:1037880000010001604B612B60C0D9FF61C0DAFF06
:10379800DF500001656F030E00016517000120EE80
:1037A80002F000016751D92600016851DA220001B0
:1037B8006551DF1260C0D9FF61C0DAFFDF50000138
:1037C800656F0001D89065330001D890653300011A
:1037D800D89065331C0E00016517000120EE02F039
:1037E80000016751D92600016851DA2200016551AC
:1037F800DF1200010001604B612B60C0D9FF61C07E
:10380800DAFF000110EE01F000016751E126000126
:103818006851E222DFCFE7FF00010001604B612B16
:1038280060C0D9FF61C0DAFF67C0E1FF68C0E2FF8E
:10383800DFCFE7FF00D012000001000E00010001F9
:103848006A6F0001620E0001696F0001000166677E
:1038580001D001D04DD069C0D9FF6AC0DAFFDF506E
:103868000001676F0001D89067330001D890673373
:103878000001D890673160C0D9FF61C0DAFFDF6E00
:10388800000120EE01F000016951D92600016A51BA
:10389800DA22DF500001676F050E0001686F000132
:1038A800D89067370001682FFAD760C0D9FF61C088
:1038B800DAFF00016751DF1200010001604B612B44
:1038C80069C0D9FF6AC0DAFFDF500001676F050ED3
:1038D8000001686F0001D89067370001682FFAD798
:1038E8000001675160C0D9FF61C0DAFFDF6E95D073
:1038F800000120EE02F000016951D92600016A5149
:10390800DA22DF500001676F050E0001686F0001C1
:10391800D89067330001682FFAD70001675160C05B
:10392800D9FF61C0DAFFDF6E000120EE03F000016D
:103938006951D92600016A51DA22DF500001676F08
:103948000001D89067370001D89067370001D890F8
:10395800673760C0D9FF61C0DAFF00016751DF1225
:1039680000010001604B612B000120EE02F0000114
:103978006951D92600016A51DA22DF500001676FC8
:103988000001D89067370001D89067370001D890B8
:103998006735E00B60C0D9FF61C0DAFFDF6E60C039
:1039A800D9FF61C0DAFF000EDB86000120EE02F0CD
:1039B80000016951D92600016A51DA22DF5000015D
:1039C800676F030E0001671760C0D9FF61C0DAFF97
:1039D80000016751DF1200010001604B612B0001FB
:1039E80020EE01F000016951D92600016A51DA225E
:1039F80060C0E1FF61C0E2FFDFCFE7FF0001000127
:103A0800604B612B69C0D9FF6AC0DAFF60C0E1FF73
:103A180061C0E2FFDFCFE7FF00D01200106E360E64
:103A28003A6E10503AC001F0026A000E046E020E9F
:103A3800036E1EEC29F001503B6E000E026E160E4E
:103A4800016E000E046EFF0E036E000E066E240E4D
:103A5800056EC7EC2DF03AA001D001D005D0106E4C
:103A6800000E3D6E105004D0106E010E3D6E1050C9
:103A7800106E000E3C6E1050106E000E3E6E105010
:103A8800010E3E6401D001D002D090D08FD03E50BC
:103A9800060DF3500E24D96E000E0F20DA6EDECF1D
:103AA80010F0DDCF11F0FF0E1014126E0F0E11146E
:103AB800136E121C016E131C026E000E046E160E9D
:103AC800036E000E066E3B0E056E000E086E3D0E70
:103AD800076E000E0A6E3C0E096E93EC27F03E50FE
:103AE800060DF3500E24106EE86AF3BEE8680F2046
:103AF800116E020E1024D96E000E1120DA6EDECF80
:103B080012F0DDCF13F0FF0E1214146E0F0E131403
:103B1800156E141C016E151C026E000E046E160E36
:103B2800036E000E066E3B0E056E000E086E3D0E0F
:103B3800076E000E0A6E3C0E096E93EC27F03E509D
:103B4800060DF3500E24106EE86AF3BEE8680F20E5
:103B5800116E040E1024D96E000E1120DA6EDECF1D
:103B680012F0DDCF13F0FF0E1214146E0F0E1314A3
:103B7800156E141C016E151C026E000E046E160ED6
:103B8800036E000E066E3B0E056E000E086E3D0EAF
:103B9800076E000E0A6E3C0E096E93EC27F03E2A63
:103BA800010E3E6401D001D072D700D0000E026E23
:103BB800160E016E106E240E036E1050FBEC2DF0E5
:103BC8008B808B8C8B9C8B901200000E0001000167
:103BD800696F000E0001686F050E00010001685D45
:103BE800000E00016959D8A001D001D002D0B5D08B
:103BF800B4D00001D890000168350001626F00015F
:103C0800F00E00016225D96EDA6A0001000EDA2290
:103C1800000100016851070DF35000010001602503
:103C2800E16E000E000100016121E26EDECFE6FFC9
:103C3800DDCFE5FF0101A40E000100016825D96E62
:103C4800DA6A0101010EDA22000100016851070D4C
:103C5800F3500001000160250001626FE86AF3BEBD
:103C6800E8680001000161210001636F020E000194
:103C78006225E16E000E00016321E26EDFCFE7FFEF
:103C8800000E00010001676F000E0001666F28D06A
:103C9800000100016851070D66C062F0030E0001C3
:103CA8006227000162510001000160250001636F75
:103CB800E86A000162BFE8680001000161210001B3
:103CC800646FF35000016325D96E000E0001642172
:103CD800DA6E000EDF6E00010001664B672B00D024
:103CE800000100016851070DF35000010001602533
:103CF8000001626FE86AF3BEE86800010001612113
:103D08000001636F020E00016225D96E000E0001EA
:103D18006321DA6EDF500001646F656B0001645146
:103D280000010001665D000165510001000167594D
:103D3800D8A001D001D0ACD700D000010001684B59
:103D4800692B050E00010001685D000E000169592C
:103D5800D8A001D001D04DD700D01200000E00012C
:103D680000016C6F000E00016B6F050E0001000171
:103D78006B5D000E00016C59D8A001D001D002D0B3
:103D8800B3D0B2D0000100016B51070DF350000110
:103D980000016225D96E000E000100016321DA6E70
:103DA8000001DE5200016151DD18000160C0E8FF2A
:103DB800D8B4DF18D8A401D001D086D00001000102
:103DC8006B51070DF3500001000162250001646F7B
:103DD800E86AF3BEE8680001000163210001656F2D
:103DE800020E00016425D96E000E00016521DA6E0D
:103DF800DF5000010001686F000E000100016A6FCA
:103E0800000E0001696F2ED0000100016B51070DF3
:103E180069C064F0030E00016427000164510001C9
:103E2800000162250001656FE86A000164BFE86867
:103E38000001000163210001666FF3500001652550
:103E4800D96E000E00016621DA6EDF50D8B401D0B9
:103E580001D003D000010001680700010001694B8F
:103E68006A2B00D0000100016B51070DF3500001CF
:103E7800000162250001646FE86AF3BEE86800018A
:103E8800000163210001656F020E00016425D96EEF
:103E9800000E00016521DA6EDF500001666F676B66
:103EA8000001665100010001695D000167510001D0
:103EB80000016A59D8A001D001D0A6D700D00001CE
:103EC8000001685113D012D0000100016B4B6C2B1C
:103ED800050E000100016B5D000E00016C59D8A0B1
:103EE80001D001D04FD700D0000E00D01200000141
:103EF800A06F000E00010001A16F0001A051010E8A
:103F080000010001A16501D001D002D072D071D0AA
:103F18009EC060F09FC061F0A1C062F00001000186
:103F2800A151010D0001EE0EF324D96EDA6A0001E9
:103F3800000EDA22DF50010D0101920EF324D96E32
:103F4800DA6A0101010EDA22DF5000010001636F15
:103F580000010001A151010D0001EE0EF324D96EFC
:103F6800DA6A0001000EDA22DF50010D0101980E15
:103F7800F324D96EDA6A0101010EDA22DF5000015A
:103F88000001646F00010001A151010D0001EE0E56
:103F9800F324D96EDA6A0001000EDA22DF50010D2F
:103FA80001019E0EF324D96EDA6A0101010EDA22AC
:103FB800DF5000010001656F00010001A151010DF2
:103FC8000001EE0EF32400010001666F0001676B2B
:103FD8000001000E00016723A2EC10F000010001AF
:103FE800A12B010E00010001A16501D001D090D7DD
:103FF80000D09EC06DF09FC06EF076EC16F031D008
:104008000A0E00010001606F000E0001616F000ED2
:104018000001626F000E0001636F60EC28F02BD086
:104028001E0E00010001606F000E0001616F000E9E
:104038000001626F000E0001636F60EC28F01BD076
:10404800320E00010001606F000E0001616F000E6A
:104058000001626F000E0001636F60EC28F00BD066
:104068000AD000010001FA51000AD8B4C9D7010AE0
:10407800D8B4D6D7E5D712000600EACF54F0E1CF7E
:1040880055F0E2CF56F0D9CF57F0DACF58F0F3CF4A
:1040980059F0F4CF5AF0F6CF5BF0F7CF5CF0F8CFD9
:1040A8005DF0F5CF5EF0F2A401D001D084D000011C
:1040B8000001CF05D8A401D001D019D0000100011A
:1040C800C54BC62B00010001C5510C0AC611D8A466
:1040D80001D001D00CD0000E00010001C66F000E07
:1040E8000001C56F00010001CC2B01D000D0506E3B
:1040F800000E5F6E5050010E5F6401D001D002D0F7
:1041080058D057D05F50020DF3CF50F0010E502613
:104118000001BE0E5024D96EDA6A0001000EDA22C0
:10412800DF50D8B401D001D03ED05F50020DF3CF9C
:1041380050F0010E50260001BE0E5024D96EDA6AE6
:104148000001000EDA22DF2A5F50020DF3CF50F093
:10415800010E50260001BE0E5024D96EDA6A000105
:10416800000EDA22640EDF6401D001D01CD05F504B
:10417800020DF3CF50F0010E50260001BE0E502460
:10418800D96EDA6A0001000EDA22000EDF6E000135
:10419800000E4C6E0001DC0E4B6E5FC04DF0D0EC93
:1041A80029F001D000D05F2A010E5F6401D001D050
:1041B800A9D7F29400D05EC0F5FF5DC0F8FF5CC0DF
:1041C800F7FF5BC0F6FF5AC0F4FF59C0F3FF58C0B1
:1041D800DAFF57C0D9FF56C0E2FF55C0E1FF54C00F
:1041E800EAFF53C0E9FF52C0FBFF51C0FAFF1100BC
:1041F8000001A06F000E00010001A16F0001A05195
:10420800010E00010001A16501D001D002D023D028
:1042180022D09EC060F09FC061F0A1C062F0C2C011
:1042280063F0C3C064F0C4C065F00001000E000173
:104238000001676F0001A30E0001666FA2EC10F089
:1042480000010001A12B010E00010001A16501D0B0
:1042580001D0DFD700D09EC06DF09FC06EF076EC25
:1042680016F0280E00010001606F000E0001616F5A
:10427800000E0001626F000E0001636F60EC28F011
:1042880000010001C94BCA2BD10E00010001C95D14
:10429800070E0001CA59D8A001D001D062D0000E83
:1042A80000010001CA6F000E0001C96FD65000015D
:1042B8000001C227030E00010001C217D638E846E4
:1042C8001F0B030B00010001C327030E00010001AF
:1042D800C317D644E846030B030B00010001C427AB
:1042E800030E00010001C4170001A06F000E0001B9
:1042F8000001A26F0001A051020E00010001A26599
:1043080001D001D002D02DD02CD000010001A25143
:10431800010D0001C20EF324D96EDA6A0001000E05
:10432800DA22020EDF6401D001D00FD000010001B3
:10433800A251010D0001C20EF324D96EDA6A000100
:10434800000EDA22020EDF6E00D000010001A22B5F
:10435800020E00010001A26501D001D0D6D701D01C
:1043680000D01200000E000100016C6F000E000169
:104378006B6F050E000100016B5D000E00016C59AA
:10438800D8A001D001D002D09BD09AD00001000162
:104398006B51070DF350000100016225D96E000E24
:1043A800000100016321DA6E0001DE520001615153
:1043B800DD18000160C0E8FFD8B4DF18D8A401D028
:1043C80001D06FD0000E000100016A6F000E0001DD
:1043D800696F35D0000100016B51070D69C065F0A8
:1043E800030E0001652700016551000100016225E7
:1043F8000001666FE86A000165BFE8680001000116
:1044080063210001676FF35000016625D96E000E25
:1044180000016721DA6E000100016451DF6201D0FA
:1044280001D008D00001000169C060F0000100015E
:10443800616B4BD000010001694B6A2B00D0000171
:1044480000016B51070DF3500001000162250001C6
:10445800656FE86AF3BEE8680001000163210001A6
:10446800666F020E00016525D96E000E00016621F7
:10447800DA6EDF500001676F686B00016751000159
:104488000001695D00016851000100016A59D8A066
:1044980001D001D09FD70001000160690001616966
:1044A80014D0000100016B4B6C2B050E00010001BC
:1044B8006B5D000E00016C59D8A001D001D066D701
:1044C800000100016069000161691200000E00012D
:1044D80000016C6F000E00016B6F050E00010001FA
:1044E8006B5D000E00016C59D8A001D001D002D03C
:1044F80095D094D0000100016B51070DF3500001D5
:1045080000016225D96E000E000100016321DA6EF8
:104518000001DE5200016151DD18000160C0E8FFB2
:10452800D8B4DF18D8A401D001D068D0000E00019B
:1045380000016A6F000E0001696F30D000010001B0
:104548006B51070D69C065F0030E00016527000176
:1045580065510001000162250001666FE86A0001EB
:1045680065BFE8680001000163210001676FF3502F
:1045780000016625D96E000E00016721DA6E000180
:1045880000016451DF6201D001D003D0010E48D090
:1045980047D000010001694B6A2B00D000010001DF
:1045A8006B51070DF3500001000162250001656F92
:1045B800E86AF3BEE8680001000163210001666F44
:1045C800020E00016525D96E000E00016621DA6E23
:1045D800DF500001676F686B00016751000100013F
:1045E800695D00016851000100016A59D8A001D035
:1045F80001D0A4D700D0000E13D012D000010001C2
:104608006B4B6C2B050E000100016B5D000E000169
:104618006C59D8A001D001D06DD700D0000E00D0C1
:1046280012000001646F000E00010001666F0001B6
:1046380064510001000163AF01D001D010D0000126
:104648000001626D0001631FD8B0632B0001646F25
:10465800010E00010001666F0001645100D00001E5
:10466800000161AF01D001D00CD000010001606DE4
:104678000001611FD8B0612B010E00010001661B0B
:1046880000D0000E00010001686F000E0001676F86
:104698000001000163516211D8B401D001D04DD09E
:1046A8000001646F010E00010001656F0001645193
:1046B8000AD0000100010001D89062376337000179
:1046C8000001652B00D00001000163AF01D001D0CB
:1046D800F0D701D000D0000100010001D890673761
:1046E800683700010001625100010001605D0001AE
:1046F80000016351000100016159D8A001D001D027
:1047080010D000010001625100010001605F00014A
:104718000001635100010001615B00010001678134
:1047280000D0000100010001D8906333623300011A
:104738000001652FD0D701D000D0000100016651DB
:10474800D8B401D001D008D000010001676D000184
:10475800681FD8B0682B00D067C060F068C061F0EF
:1047680000D01200000E000100016B6F000E000166
:104778006A6F050E000100016A5D000E00016B59A9
:10478800D8A001D001D002D08BD08AD0000100017E
:104798006A51070DF350000100016025D96E000E23
:1047A800000100016121DA6E0001DE52000163514F
:1047B800DD18000162C0E8FFD8B4DF18D8A401D022
:1047C80001D05ED0000E00010001696F000E0001EB
:1047D800686F28D0000100016A51070D68C064F0B5
:1047E800030E0001642700016451000100016025E7
:1047F8000001656FE86A000164BFE8680001000114
:1048080061210001666FF35000016525D96E000E25
:1048180000016621DA6E000EDF6E00010001684BB0
:10482800692B00D0000100016A51070DF350000107
:10483800000160250001646FE86AF3BEE8680001C2
:10484800000161210001656F020E00016425D96E27
:10485800000E00016521DA6EDF500001666F676B9C
:104868000001665100010001685D00016751000107
:1048780000016959D8A001D001D0ACD711D010D00F
:10488800000100016A4B6B2B050E000100016A5DF7
:10489800000E00016B59D8A001D001D077D700D005
:1048A80012008DC0D9FF8EC0DAFFDF500001000171
:1048B800936F000120EE01F000018D51D92600010F
:1048C8008E51DA22DF5000010001946F000E0001C2
:1048D80000019C6F000E00019B6F060E0001000195
:1048E8009B5D000E00019C59D8A001D001D002D0D8
:1048F8003AD039D09BC08FF0020E00018F270001FB
:104908008F51000100018D250001906FE86A0001B8
:104918008FBFE868000100018E210001916F90C0EF
:10492800D9FF91C0DAFF9BC092F0020E00019227D6
:104938000001930E00019225E16EE26A0001000E6B
:10494800E222DFCFE7FF000100019B4B9C2B060E04
:10495800000100019B5D000E00019C59D8A001D008
:1049680001D0C8D700D0C80E000100016B6F000E3F
:1049780000016C6F000E00016D6F000E00016E6F7C
:104988000001000E00010001706F0001930E00018C
:104998006F6F000120EE08F000018D51D92600014B
:1049A8008E51DA22DF50020F00010001716F000101
:1049B8008F6F000E00010001726F00018F511EEC15
:1049C8001AF000D0120066C0D9FF67C0DAFFDF50C6
:1049D800D8B401D001D035D064C0D9FF65C0DAFFA2
:1049E800DF50DF2A010DF350000100016225D96E66
:1049F800000E000100016321DA6E000160C06AF058
:104A0800000161C06BF0040E00016C6F00016B3592
:104A18006B336A3300016C2FF9D700016A51DF6EDE
:104A2800000100016039F00BF00B68C0D9FF69C0C4
:104A3800DAFFDF6E66C0D9FF67C0DAFF000EDF6EEF
:104A480043D0000161C06AF000016B6B6ABF6B69FB
:104A58000F0E00016A1768C0D9FF69C0DAFF0001AC
:104A68006A51DF1268C0D9FF69C0DAFF64C0E1FF8C
:104A780065C0E2FFE750E72A010DF350000100018D
:104A88006225E16E000E000100016321E26EDFCFB6
:104A9800E7FF64C0D9FF65C0DAFFDF50DF2A010DE8
:104AA800F350000100016225D96E000E00010001DB
:104AB8006321DA6E000160C0DFFF66C0D9FF67C0FE
:104AC800DAFF010EDF6E00D012000001626F800E67
:104AD80000010001606F0001625153EC2EF00001EB
:104AE800626F000E00010001636F0001625140D047
:104AF8000001626F000E00010001636F0001625146
:104B080050D00001626F010E00010001636F0001C7
:104B1800625147D00001626F030E00010001636F0C
:104B2800000162513ED00001626F070E00010001D2
:104B3800636F0001625135D00001626F0F0E0001F2
:104B48000001636F000162512CD00001626F1F0EDB
:104B580000010001636F0001625123D00001626F00
:104B68003F0E00010001636F000162511AD019D095
:104B7800000100016151010AD8B4BAD7030AD8B4B8
:104B8800C0D7010AD8B4C6D7070AD8B4CCD7010A07
:104B9800D8B4D2D7030AD8B4D8D7010AD8B4DED744
:104BA80000D0C00E701600010001635170120001A0
:104BB800626F000E00010001606F0001625153EC4A
:104BC8002EF01200000120EE08F000016051D926F5
:104BD80000016151DA22050EDF6401D001D05BD0FB
:104BE800000120EE02F000016051D9260001615158
:104BF800DA22DF5062C0D9FF63C0DAFFDF6201D07A
:104C080001D049D0000120EE01F000016251D926FF
:104C180000016351DA22000110EE03F00001605137
:104C2800E12600016151E222E750DF6201D001D0A4
:104C380032D0000120EE02F000016251D9260001B5
:104C48006351DA22000110EE04F000016051E12600
:104C580000016151E222E750DF6201D001D01BD090
:104C6800000120EE03F000016251D92600016351D2
:104C7800DA22000110EE05F000016051E126000182
:104C88006151E222E750DF6201D001D004D0010E69
:104C980004D003D000D0000E00D012000001616FD4
:104CA800800E00010001606F0001615153EC2EF08D
:104CB800430E706EBF0E716E870E726E200E736E8D
:104CC800779E779C200E606E200E0F010F01506FAB
:104CD800000E0F010F01006F000E0F010F01016F91
:104CE800000E0F010F01046F000E0F010F01056F79
:104CF800000E0F010F01086F000E0F010F01096F61
:104D0800000E0F010F010C6F000E0F010F010D6F48
:104D1800000E0F010F01106F000E0F010F01116F30
:104D2800000E0F010F01146F000E0F010F01156F18
:104D3800000E0F010F01186F000E0F010F01196F00
:104D48000F010F011997000E0F010F011C6F000EC4
:104D58000F010F011D6F0F010F011D970001616FFA
:104D6800000E00010001606F0001615153EC2EF04C
:104D780012000001626F000E00010001646F000163
:104D88006251010E00010001646501D001D002D01A
:104D98005AD059D0000100016451060DF3500001AA
:104DA80000016025D96E000E000100016121DA6E54
:104DB800000EDE6E000EDD6E000100016451060D6E
:104DC800F3500001000160250001626FE86AF3BE3C
:104DD800E8680001000161210001636F020E000113
:104DE8006225D96E000E00016321DA6E000EDE6EB8
:104DF800000EDD6E000100016451060DF350000144
:104E0800000160250001626FE86AF3BEE8680001EE
:104E1800000161210001636F040E00016225D96E53
:104E2800000E00016321DA6E000EDE6E000EDD6EEC
:104E380000010001642B010E00010001646501D02E
:104E480001D0A8D700D01200000E000100016A6F3F
:104E5800000E0001696F050E00010001695D000E7A
:104E680000016A59D8A001D001D002D057D056D03D
:104E7800000100016951070DF3500001000162258E
:104E8800D96E000E000100016321DA6E0001DE52C6
:104E980000016151DD18000160C0E8FFD8B4DF18D7
:104EA800D8A401D001D02AD0000100016551010D1C
:104EB800F3CF66F0030E000166270001665100017A
:104EC800000162250001676FE86A000166BFE868B3
:104ED8000001000163210001686F000100016951B0
:104EE800070DF35000016725D96E000E00016821F7
:104EF800DA6E000164C0DFFF11D010D0000100019C
:104F0800694B6A2B050E00010001695D000E000166
:104F18006A59D8A001D001D0ABD700D0120007C081
:104F2800D9FF08C0DAFFDF50D8B401D001D029D0AA
:104F380005C0D9FF06C0DAFFDF50DF2A010DF350A4
:104F48000324D96E000E0420DA6E01C00BF002C0F3
:104F58000CF0040E0D6E0C340C320B320D2EFBD7F8
:104F68000B50DF6E0138F00BF00B09C0D9FF0AC0F7
:104F7800DAFFDF6E07C0D9FF08C0DAFF000EDF6E68
:104F880036D002C00BF00C6A0BBE0C680F0E0B1665
:104F980009C0D9FF0AC0DAFF0B50DF1209C0D9FFD8
:104FA8000AC0DAFF05C0E1FF06C0E2FFE750E72AC2
:104FB800010DF3500324E16E000E0420E26EDFCFF2
:104FC800E7FF05C0D9FF06C0DAFFDF50DF2A010D71
:104FD800F3500324D96E000E0420DA6E01C0DFFFFF
:104FE80007C0D9FF08C0DAFF010EDF6E00D012003B
:104FF80000010001CD51040AD8A401D001D05BD032
:1050080000010001A651060DF350000100019E2584
:10501800D96E000E000100019F21DA6E0001A0C0C8
:10502800DEFF0001A1C0DDFF00010001A651060D51
:10503800F350000100019E250001A76FE86AF3BE46
:10504800E868000100019F210001A86F020E00011D
:10505800A725D96E000E0001A821DA6E0001A2C0B2
:10506800DEFF0001A3C0DDFF00010001A651060D0F
:10507800F350000100019E250001A76FE86AF3BE06
:10508800E868000100019F210001A86F040E0001DB
:10509800A725D96E000E0001A821DA6E0001A4C070
:1050A800DEFF0001A5C0DDFF9EC06DF09FC06EF061
:1050B80076EC16F000D01200000E00010001646FBB
:1050C800000E0001656F000E0001666F000E000102
:1050D800676F33D0000E00010001696F000E0001F8
:1050E800686F000100016951800A800F0A0ED8B468
:1050F800685DD8A001D001D002D012D011D0000133
:105108000001684B692B000100016951800A800F7A
:105118000A0ED8B4685DD8A001D001D0F0D700D06D
:10512800010E000100016427000E00016523000E36
:1051380000016623000E0001672300010001605191
:1051480000010001645D00010001615100010001DE
:105158006559000100016251000100016659000112
:1051680000016351000100016759D8A001D001D0A6
:10517800B1D700D01200000E00010001646F000ECC
:105188000001656F000E0001666F000E0001676F79
:1051980033D0000E00010001696F000E0001686F36
:1051A800000100016951800A7E0F6C0ED8B4685D59
:1051B800D8A001D001D002D012D011D00001000136
:1051C800684B692B000100016951800A7E0F6C0E43
:1051D800D8B4685DD8A001D001D0F0D700D0010EB6
:1051E800000100016427000E00016523000E000184
:1051F8006623000E000167230001000160510001D1
:105208000001645D00010001615100010001655960
:10521800000100016251000100016659000100010E
:105228006351000100016759D8A001D001D0B1D75E
:1052380000D01200056E000E076E055004AE01D0B6
:1052480001D009D0036C041ED8B0042A056E010EE3
:10525800076E055000D002AE01D001D007D0016C16
:10526800021ED8B0022A010E071A00D0000E096EDD
:10527800000E086E04500310D8B401D001D028D015
:10528800056E010E066E055005D0D890033604361B
:10529800062A00D004AE01D001D0F7D701D000D043
:1052A800D890083609360350015C04500258D8A03B
:1052B80001D001D006D00350015E0450025A088084
:1052C80000D0D89004320332062EEAD701D000D09D
:1052D8000750D8B401D001D005D0086C091ED8B049
:1052E800092A00D008C001F009C002F000D012005D
:1052F800000120EE08F000016151D9260001625139
:10530800DA22DF500001646F060E0001645DD8B038
:1053180001D001D040D0000120EE08F00001615119
:10532800D92600016251DA22DF50010DF3CF64F073
:10533800020E00016427000164510001000161258B
:105348000001656FE86A000164BFE86800010001B8
:1053580062210001666F65C0D9FF66C0DAFF0001EF
:1053680063C0DFFF000120EE08F000016151D9267B
:1053780000016251DA22000110EE08F000016151CB
:10538800E12600016251E222E7500001646F00014A
:105398006429DF6E00D012004D50060DF3504B24E7
:1053A800D96E000E4C20DA6E000EDE6E000EDD6E39
:1053B8004D50060DF3504B244E6EE86AF3BEE86874
:1053C8004C204F6E020E4E24D96E000E4F20DA6E1E
:1053D800000EDE6E000EDD6E4D50060DF3504B24B0
:1053E8004E6EE86AF3BEE8684C204F6E040E4E24F9
:1053F800D96E000E4F20DA6E000EDE6E000EDD6EE6
:105408004BC00EF04CC00FF012EC1DF00001000173
:10541800CD51060AD8A401D001D006D0FBC0CDF0EA
:1054280000010001FB6900D04BC03FF04CC040F0C8
:10543800CDC041F04DC042F0FBEC12F01200000E5E
:1054480000010001616F000E0001606F66EC2EF034
:10545800000E00010001616F000E0001606F66EC34
:105468002EF062C0D9FF63C0DAFFDF6E000120EEC4
:1054780001F000016251D92600016351DA22000EC1
:1054880000010001616F010E0001606F66EC2EF0F3
:10549800DF6E000120EE02F000016251D926000102
:1054A8006351DA22000E00010001616F020E000153
:1054B800606F66EC2EF0DF6E000120EE03F0000155
:1054C8006251D92600016351DA22000E0001000161
:1054D800616F030E0001606F66EC2EF0DF6E120044
:1054E800036E000E056E0350010E056401D001D055
:1054F80002D03CD03BD00550060DF3500124D96EA4
:10550800000E0220DA6E000EDE6E000EDD6E055013
:10551800060DF3500124036EE86AF3BEE868022022
:10552800046E020E0324D96E000E0420DA6E000EFB
:10553800DE6E000EDD6E0550060DF3500124036E7D
:10554800E86AF3BEE8680220046E040E0324D96EEC
:10555800000E0420DA6E000EDE6E000EDD6E052AE7
:10556800010E056401D001D0C6D700D01200000199
:10557800606F000E00010001616F00016051010EB3
:1055880000010001616501D001D002D02ED02DD0DC
:10559800000100016151020D0001BE0EF324D96E15
:1055A800DA6A0001000EDA22FF0EDF6E0001000148
:1055B8006151020DF3CF60F0010E00016027000178
:1055C800BE0E00016025D96EDA6A0001000EDA22EB
:1055D800000EDF6E00010001612B010E00010001C9
:1055E800616501D001D0D4D700D012000F010F0E91
:1055F80000010001666F0F01000E0001656F0001D8
:1056080000016051040DF350000100016527000EF0
:10561800000100016623000161C063F0000162C05F
:1056280064F00001D890643363330001D890643388
:1056380063330001D890643363330001635165C05C
:10564800D9FF66C0DAFFDF6E000100016139E84664
:10565800E00BE00B00010001654B662B65C0D9FF2C
:1056680066C0DAFFDF6E12000F010F0E00010001A5
:10567800666F0F01180E0001656F0001000160518F
:10568800040DF350000100016527000E0001000120
:105698006623000161C063F0000162C064F000018C
:1056A800D890643363330001D890643363330001C6
:1056B800D890643363330001635165C0D9FF66C075
:1056C800DAFFDF6E000100016139E846E00BE00B0C
:1056D80000010001654B662B65C0D9FF66C0DAFF83
:1056E800DF6E12003F0EC716000EC66E00010001E5
:1056F8006051C612000100016251C71209D0C78C5F
:105708001DD0C78CC6881AD0C68818D017D016D016
:10571800000100016151000AD8B4F1D7020AD8B4D7
:10572800F0D7010AD8B4F0D709D008D09486928A65
:105738000FD094860DD094960BD00AD000010001AA
:105748006051040AD8B4F2D7010AD8B4F2D7F3D713
:105758009488949AC68A1200000E00010001656FB1
:10576800000E0001646F00D00001000160A101D0AB
:1057780001D00DD000010001625100010001642731
:1057880000010001635100010001652300D0000100
:1057980000010001D8906237633700010001000161
:1057A800D890613360330001000161516011D8A4C1
:1057B80001D001D0D9D764C060F065C061F0120093
:1057C80000010001CD51040AD8A401D001D027D08E
:1057D80000010001A251060DF350000100019E25B1
:1057E8000001A36FE86AF3BEE868000100019F2189
:1057F8000001A46F020E0001A325D96E000E00015E
:10580800A421DA6E0001A0C0DEFF0001A1C0DDFF07
:105818009EC06DF09FC06EF076EC16F000D01200BE
:1058280000010001CD51040AD8A401D001D027D02D
:1058380000010001A251060DF350000100019E2550
:105848000001A36FE86AF3BEE868000100019F2128
:105858000001A46F040E0001A325D96E000E0001FB
:10586800A421DA6E0001A0C0DEFF0001A1C0DDFFA7
:105878009EC06DF09FC06EF076EC16F000D012005E
:105888000001000E00010001616F0001A10E00017E
:10589800606F9DC062F09EC063F00001A06F010EB2
:1058A80000010001646F0001A0518BEC2DF0000194
:1058B800000E00010001626F0001A10E0001616F7E
:1058C8009FC063F07CEC29F00001000E000100018C
:1058D8008E6F0001A10E00018D6F55EC24F01200AF
:1058E80000EEB2F03E0EEE6AE806FDE17C0EF66EC2
:1058F8005C0EF76E000EF86E01EE80F010EE29F0E7
:105908000900F5CFEEFFE550E150FAE13E0EF66EE4
:105918005D0EF76E000EF86E00EEF0F010EE0CF073
:105928000900F5CFEEFFE550E150FAE100010EEF76
:1059380004F016D000D0A4C09EF0A5C09FF07BEC68
:105948001FF01ED0A4C09EF0A5C09FF0F1EC14F08B
:10595800A4C09EF0A5C09FF0FCEC20F011D010D0A0
:1059680000010001CD51010AD8B4E5D7030AD8B423
:10597800E2D7010AD8B4E6D7060AD8B4E9D700D0E6
:10598800120000010001CD51040AD8A401D001D0B1
:105998001BD000010001A251060DF35000010001C7
:1059A8009E25D96E000E000100019F21DA6E0001CC
:1059B800A0C0DEFF0001A1C0DDFF9EC06DF09FC04A
:1059C8006EF076EC16F000D0120000010001625172
:1059D800060DF3500001000160250001636FE86ABD
:1059E800F3BEE8680001000161210001646F040E44
:1059F80000016325D96E000E00016421DA6E0001F2
:105A0800DECF60F00001DDCF61F000D012000001B0
:105A180000016251060DF3500001000160250001EC
:105A2800636FE86AF3BEE8680001000161210001C4
:105A3800646F020E00016325D96E000E0001642117
:105A4800DA6E0001DECF60F00001DDCF61F000D03A
:105A5800120060C066F061C067F00CD066C0D9FF64
:105A680067C0DAFF000162C0DFFF00010001664B7A
:105A7800672B00D0000100016407D8A0650700016A
:105A88006429D8B46529D8A401D001D0E7D700D0BB
:105A98001200000120EE08F000016051D926000133
:105AA8006151DA22010EDF6401D001D00DD000016E
:105AB80020EE01F000016051D92600016151DA227F
:105AC800DF5005D004D003D0000E01D000D0120062
:105AD800000E066E000E056E00D001A001D001D0A8
:105AE80005D0035005260450062200D0D89003366E
:105AF8000436D8900232013202500110D8A401D0E5
:105B080001D0EBD705C001F006C002F01200000179
:105B180020EE01F000016051D92600016151DA221E
:105B2800000164C0DFFF60C0D9FF61C0DAFF000177
:105B380062C0DFFF000120EE08F000016051D926A5
:105B480000016151DA22000EDF6E120014D060C02D
:105B5800D9FF61C0DAFFDF50C96E00010001604B58
:105B6800612B00D0C7A001D001D0FCD700D0000124
:105B78000001620700D000010001626701D001D076
:105B8800E6D700D0120001C007F002C008F009D023
:105B980007C0D9FF08C0DAFF03C0DFFF074A082A99
:105BA80000D00506D8A006060528D8B40628D8A42B
:105BB80001D001D0EDD700D01200000120EE08F08E
:105BC80000016051D92600016151DA22DF50D8B4B2
:105BD80001D001D008D060C0D9FF61C0DAFFDF5022
:105BE80005D004D003D0000E01D000D0120010D090
:105BF80001C0D9FF02C0DAFFDF50C96E014A022A8C
:105C080000D0C7A001D001D0FCD700D0030600D037
:105C1800036601D001D0ECD700D0120000010001CA
:105C28006251060DF350000100016025D96E000E87
:105C3800000100016121DA6E0001DECF60F0000191
:105C4800DDCF61F000D01200000100016151AA6EA1
:105C580060C0A9FF62C0A8FF040EA66E550EA76E0D
:105C6800AA0EA76EA68200D0A6B201D001D0FCD79A
:105C780000D0120000020000010001000002000034
:105C88000000010000020002000001000100000203
:105C980000000000010000020200000000001F0ECA
:105CA8006F160001000160516F1201D000D06F50D3
:105CB800E00B000100016019D8A401D001D0F7D78A
:105CC80000D0120000D0A6B201D001D0FCD700D07D
:105CD800000100016151AA6E60C0A9FF010EA66E05
:105CE800A85000D0120062C060F063C061F0E1EC1F
:105CF8002DF0C80AD8B401D002D0010E01D0000E90
:105D080000D01200000E00010001CF6F000E00014C
:105D18000001CC6F1200010E00010001CF6F000ED0
:105D280000010001CC6F1200BE0E94168B808B9C74
:105D3800B2EC2EF01200020000000000000000008B
:105D480002FF00010001FA5100D012000001000119
:0E5D5800CD5100D0120060C0FAF0120012000F
:020000040030CA
:0600010006001E008090C5
:00000001FF
