:040800000CEF04F005
:10080800D9CF02F0DACF03F0F3CF04F09DED0BF06F
:04081800F5EF0FF0F9
:100D00000D0A43414E20726563656976655B206913
:100D1000643A200020666C6167733A2000206461A9
:100D200074613A200054005D0000700ED3129B8C59
:100D3000F29CF28ED59CD59AD58698EC11F09BEC5E
:100D400011F00001B30E38EC0EF0CC6BCD6BD0EC93
:100D50000FF047EC11F0030E01EC0FF00001740EE0
:100D600041EC0CF0086A0768000E2DEC0FF0E1C0B2
:100D700007F0E2C008F0010E2DEC0FF0E3C007F021
:100D8000E4C008F0020E2DEC0FF0E5C007F0E6C05D
:100D900008F0030E2DEC0FF0E7C007F0E8C008F0F4
:100DA000040E2DEC0FF0E9C007F0EAC008F0050EC4
:100DB0002DEC0FF0030E086E0768000E57EC0FF0D5
:100DC000030E086E0768010E57EC0FF001EC11F0EE
:100DD000F28A0001650E0E6EA00E0F6EA50E106E4B
:100DE000A60E6CEC09F0000901E1ECD180EC11F0E9
:100DF0009E6B9F6B0CD09E51650FD96EDA6A9E5127
:100E0000D50FE16EE26ADFCFE7FF9E4B9F2BA0C0BC
:100E10004EF04F6A9F51800A506E4E509E5D4F506B
:100E2000800A5058E8E3A5C0E0F0A6C0DEF0A7C0F5
:100E3000DFF0A0C0DDF0A629A711A811A91103E1D8
:100E4000D50E77EC11F0D50E77EC11F0000901E129
:100E500096D1A26BA36BA251020DF350E10FD96E94
:100E6000DA6A10EEDEF0E652DE52DD50E518DFCF32
:100E7000E8FFD8B4E7180AE1A251EB0FD96EDA6A9D
:100E8000DF5004E0DEC0CCF0DFC0CDF0A24BA32BDE
:100E9000050EA25D000EA35901E371D1DCD7B30E9C
:100EA000076ED50EFEEC0DF0000901E1A6D1FF0E94
:100EB00008680768096837EC11F0FF009ED1CCC0C4
:100EC00007F0CDC008F0740E87EC0DF096D1CCC0C1
:100ED00007F0CDC008F0740E096EFAEC0BF06D6FE0
:100EE00000016D5101E189D1000E086EB70E076E49
:100EF000CCC009F0CDC00AF0040E0B6EA9EC10F0C6
:100F0000000E096EB70E086EB3C00AF09FEC0EF02B
:100F1000000E096EB70E086EB4C00AF09FEC0EF01A
:100F2000000E096EB70E086EB5C00AF09FEC0EF009
:100F3000000E096EB70E086EB6C00AF09FEC0EF0F8
:100F4000000E096EB70E086E6DC00AF09FEC0EF031
:100F5000000E336EB70E326E87EC0CF094EC11F08D
:100F6000576A4BD1B30E076ED50EFEEC0DF000099B
:100F7000D8A498EC11F0DD51030A01E03ED1740EC3
:100F8000076ED7C008F0C00ED1EC0EF036D1B30E0C
:100F9000076ED50EFEEC0DF0000901E12ED1CCC09C
:100FA00007F0CDC008F0740E096EDBC00AF0DCC09B
:100FB0000BF0AAEC0FF0CCC042F0CDC043F0DBC088
:100FC00044F081EC0FF019D1CCC007F0CDC008F08F
:100FD000740E096ED7C00AF0C3EC0DF0000901E1F0
:100FE0000CD1CC05CD1113E1CCC007F0CDC008F079
:100FF000740E096ED7C00AF0CBEC0CF007C06EF08F
:1010000008C06FF06FBF03D06E510CEC0DF0CCC078
:1010100042F0CDC043F0D7C044F081EC0FF0EDD0EA
:10102000CC05CD112DE1CCC007F0CDC008F0740E79
:10103000096ED7C00AF0CBEC0CF007C070F008C006
:1010400071F071BFDAD0000E086EAA0E076ECCC028
:1010500009F0CDC00AF0660E0B6EA9EC10F0000E80
:10106000096EAA0E086E705176EC10F00A6E9FECB5
:101070000EF0000E336EAA0E326E87EC0CF0BDD06F
:10108000CC05CD111DE1CCC007F0CDC008F0740E29
:10109000096ED7C00AF0CBEC0CF007C09CF008C07A
:1010A0009DF09D51800A800F020ED8B49C5DD8A09F
:1010B0009DBFA3D0D8C007F09C5118EC10F09DD074
:1010C000CC51640ACD1117E1000E086EAA0E076E0E
:1010D000CCC009F0CDC00AF0650E0B6EA9EC10F083
:1010E000000E096EAA0E086ED75162EC11F00A6E5E
:1010F0009FEC0EF0BED7CC51640ACD1104E1C00EB6
:1011000058EC10F07AD0CC51640ACD1176E1A16B85
:10111000726BC00E6CEC0EF0740E076EA10E086EB2
:10112000720E096EC00E4AEC0DF0A15166E0000E81
:10113000086EC30E076ECCC009F0CDC00AF0070ED2
:101140000B6EA9EC10F0000E096EC30E086EA1C064
:101150000AF09FEC0EF0B9D89FEC0EF0000E096E6D
:10116000C30E086E72C00AF09FEC0EF0000E336ED4
:10117000C30E326E87EC0CF090EC11F03ED0D50E21
:1011800015EC11F0010A01E1EDD6030A01E197D651
:10119000010A01E1FCD6070A01E199D6010A01E141
:1011A00013D7030AA8E0010AAEE00F0A01E177D6DF
:1011B0006D0A01E165D7000A01E162D7030A01E186
:1011C0002FD71BD091EC10F0000917E1000E62EC54
:1011D00011F000090AE0010E076E000E18EC10F085
:1011E000010E076E18EC10F008D0000E076A18EC1C
:1011F00010F0076A010E18EC10F0040E566426D0A9
:10120000580410E1572A050E576403D098EC11F0EA
:1012100009D00001000E336EB70E326E87EC0CF071
:1012200094EC11F0590412E10001C12B20EEC1F041
:10123000050EDF6403D09BEC11F008D0000E336E76
:10124000C30E326E87EC0CF090EC11F0590401E003
:10125000C0D50001A46B736B740E076EA40E086EEC
:10126000730E096EC00E4AEC0DF0A46703D09BEC20
:1012700011F0AFD5C551A41901E1ABD5000E086E30
:10128000C30E076E0A6A640E096E070E0B6EA9EC98
:1012900010F0000E096EC30E086EA4C00AF09FEC99
:1012A0000EF013D89FEC0EF0000E096EC30E086E00
:1012B00073C00AF09FEC0EF0000E336EC30E326E58
:1012C00087EC0CF090EC11F084D5000E096EC30E83
:1012D000086E650E0A6E650CE8CF13F0556A60AEB5
:1012E00012D0A49074AE06D01050D96EDA6A000EF7
:1012F000DB86749E60A002D0558001D055900F0E01
:10130000166E600E1AD00F0150AF000CA49274AC90
:1013100006D01050D96EDA6A000EDB86749C5051EC
:10132000070B556E020E556005D01050D96EDA6A63
:10133000000EDB8E0F0E166E500E156E15C011F0DE
:1013400016C012F01050D96EDA6ADF6A20EE05F08E
:1013500050D80F50D96EDA6A17500F0BDF6E17ACEA
:1013600005D01050D96EDA6A000EDB8C20EE02F048
:1013700040D817A608D01050D96EDA6A000EDB8A62
:10138000010E176E01D0176A1528076E000E162081
:10139000086E13C009F017C00AF000EC0AF0060E40
:1013A0001526000E16220F50D96EDA6ADF50176E1E
:1013B000146A0DD015C0D9FF16C0DAFF0E50E16EC9
:1013C000E26ADFCFE7FF154A162A0E2A142A1750C1
:1013D000145CF0E3A4AE06D01050D96EDA6A000EA9
:1013E000DB88A49E11C0D9FF12C0DAFF7F0EDF1682
:1013F000010C1550D9261650DA22DF50176E120054
:1014000009C00DF00A662BD00D50D96E6CD80B3682
:10141000D8900B36D8900B34DF6E0D50D96EDA6A47
:10142000D92ADA6A73D8D8900B320C2EFCD70B501D
:1014300063D8050E0C6ED8900B320C2EFCD70D50D5
:10144000D96EDA6A0B50DF123DD8DF6A0D50D96EC3
:10145000DA6A030ED926DA6A000EDF6E000C32D883
:1014600055D8D8900B360C2EFCD70B50DF6E0D5094
:10147000D96EDA6A030ED92636D80B32D8900B32E1
:10148000D8900B3039D8030E0B161CD80B50DF1236
:1014900007C0D9FF08C0DAFFDF500B6ED8900B32BF
:1014A000D8900B32D8900B321C0E0B160BD80B5069
:1014B000DF120FD8E12AE26ADFCFE7FF0AD8DFCFD9
:1014C000E7FF12000D50D96EDA6A020ED926DA6AE9
:1014D0001200074A082A07C0D9FF08C0DAFF0D50DA
:1014E000E16EE26A1200DA6A07C0E1FF08C0E2FFBB
:1014F000E7500B6ED8901200DF6E074A082A07C02B
:10150000D9FF08C0DAFFDF500B6E120007C0E1FF01
:1015100008C0E2FFE7500B6E050E0C6E050C090EBD
:10152000106E0D6622D01050D96EDA6ADF500E6E42
:10153000D8900E32D8900E32D8900E3058D8D92A82
:10154000DA6A71D8D8900E360F2EFCD707C0D9FFB3
:1015500044D869D8D8900E360F2EFCD70E5007C04D
:10156000D9FF08C0DAFFDF6E120054D8050E0F6EE7
:10157000D8900E320F2EFCD70E5039D8030E40D81B
:101580000E3607C0D9FF29D8020E3AD80E34E00B28
:1015900007C0D9FF08C0DAFFDF6E07C0D9FF08C057
:1015A000DAFF000EDB8636D8030E0E1607C0D9FF11
:1015B00014D8D92ADA6A07C0E1FF08C0E2FFDFCFFA
:1015C000E7FF074A082A1050D96EDA6A07C0E1FF20
:1015D00008C0E2FFDFCFE7FF120008C0DAFF0E50BD
:1015E000DF12074A082A1050D96EDA6A120007C0C3
:1015F000D9FF08C0DAFFDF6E1050D96EDA6A120028
:10160000D926DA6ADF500E6ED8900E36D8900E3694
:10161000D89012001050D96EDA6A020ED926DA6A12
:10162000DF500E6E1200DF500E6E050E0F6E050CB1
:101630000F010F0E1A6E400E196E0F0E1C6E300E3B
:101640001B6E0F0E1E6E200E1D6E2F6A2F50020D88
:10165000F350190FD96EDA6ADECF30F0DDCF31F0FA
:1016600030C02CF031C02DF030C0D9FF31C0DAFFCE
:10167000DF50186E18B65CD030C0D9FF31C0DAFF29
:10168000FC0EDF1617C018F0030E181630C0D9FF75
:1016900031C0DAFF1850DF1217AC04D016504009E1
:1016A0002E6E02D016C02EF020EE05F03050D92656
:1016B0003150DA222EC0DFFF17AA03D0010E2E6EA2
:1016C00001D02E6A3028076E000E3120086E11C03E
:1016D00009F012C00AF013C00BF014C00CF02EC0B9
:1016E0000DF08FEC0AF0060E3026000E31222B6A28
:1016F0000DD01550D96EDA6A30C0E1FF31C0E2FF7B
:10170000DFCFE7FF152A304A312A2B2A16502B5CEF
:10171000F0E32CC0D9FF2DC0DAFFDF50186E18B4EB
:10172000010C2CC0D9FF2DC0DAFF000EDB86010CA6
:101730002F2A010E2F648AD7000C0600F4CF05F083
:10174000F2A401D001D04DD05804D8B401D001D0BA
:1017500005D05904D8A401D001D00DD00001D34B3D
:10176000D42BD3510C0AD411D8A401D001D003D06A
:10177000D36BD46B562A066A0650020DF350520FF3
:10178000D96EDA6ADF50D8B401D001D023D0065028
:10179000020DF350520FD96EDA6ADF2A0650020D9D
:1017A000F350520FD96EDA6A640EDF6401D001D0B3
:1017B00011D00650020DF350520FD96EDA6A000EA6
:1017C000DF6E0650020DF350510FD96EDA6ADF500A
:1017D000C0EC10F0062A010E066401D001D0CCD76F
:1017E000F29405C0F4FF04C0F3FF03C0DAFF02C0A7
:1017F000D9FF1100106A116A1050080D0950F32426
:10180000D96EDA6ADE520850DD1807C0E8FFD8B496
:10181000DF1828E11050080D09502CD8DF500D6E4C
:101820000E6A0F6A0FD01050080D0950F3240E24D1
:10183000D96EDA6A030ED926DA6ADF50D8A40D060B
:101840000E4A0F2A1050080D095014D8DF500A6EA6
:101850000AC00BF00C6A0B500E5C0C500F58E3E3FF
:101860000D501200104A112A050E105C000E11587E
:10187000C3E3000CF324D96EDA6A020ED926DA6AC1
:101880001200E8CF0CF00D6A0E6A0D50020DF350F5
:10189000E10F34D8DECFE6FFDDCFE5FF0D50EB0FD3
:1018A0002DD8020EE126E26ADFCFE7FF0A6A0B6A53
:1018B0000DD00D50080D0C50F3240A24D96EDA6AAD
:1018C000030ED926DA6ADF6A0A4A0B2A0D50080D80
:1018D0000C503AEC0CF0DF50076E07C008F0096AB4
:1018E00008500A5C09500B58E4E30D4A0E2A050E15
:1018F0000D5C000E0E58D8B01200C7D7D96EDA6A48
:101900000D50080D0C50F324E16EE26A120032C053
:10191000D9FF33C0DAFFDF50386E20EE01F03250CD
:10192000D9263350DA22DF50396E406A416A40C00E
:1019300034F0020E342634503224356EE86A34BE58
:10194000E8683320366E35C0D9FF36C0DAFF40C0B4
:1019500037F0020E37263750380FE16EE26ADFCFDC
:10196000E7FF404A412A060E405C000E4158DFE383
:10197000C80E116E126A136A146A380E156E20EEC4
:1019800008F03250D9263350DA22DF50020F166E9B
:10199000176A18EF0BF0106A116A1050080D095001
:1019A000F324D96EDA6ADE520850DD1807C0E8FF6A
:1019B000D8B4DF1829E10E6A0F6A14D01050080D50
:1019C0000950F3240E24D96EDA6A030ED926DA6A96
:1019D0000A50DF6205D00EC007F00FC008F01200F9
:1019E0000E4A0F2A1050080D09503AEC0CF0DF5047
:1019F0000B6E0BC00CF00D6A0C500E5C0D500F58A6
:101A0000DDE3076808681200104A112A050E105C11
:101A1000000E1158F6E2C1D7E8CF08F0020E0860B8
:101A2000020C096A0950020DF350510FD96EDA6A9F
:101A3000FF0EDF6209D00950020DF350510FD96E2D
:101A4000DA6A08C0DFFF04D0092A010E0964EAD768
:101A50000A6A0A50020DF350510FD96EDA6A085023
:101A6000DF6213D00A50020DF350520FD96EDA6ABA
:101A7000DF50D8A412000A50020DF350520FD96E55
:101A8000DA6ADF2A0850D6EF10F00A2A010E0A643B
:101A9000E0D7010CE8CF0AF00D6A0D50030D0A5093
:101AA000F324D96EDA6ADF502DE10B6A0C6A0B5011
:101AB000080D0750F324D96EDA6ADE50640ADD108F
:101AC0001AE10B50080D0750F3240D24D96EDA6A81
:101AD000030ED926DA6A0850E16EE26ADFCFE7FF2B
:101AE0000D50030D0A503AEC0CF00950E16EE26A19
:101AF000DFCFE7FF12000B4A0C2A050E0B5C000E2D
:101B00000C58D5E30D2A0D50D8A41200C6D7E8CF43
:101B10000EF00F6A106A0F50080D0E50F324D96EA4
:101B2000DA6ADE520850DD1807C0E8FFD8B4DF18C3
:101B300021E10C6A0D6A0DD00F50080D0E50F324F0
:101B40000C24D96EDA6A030ED926DA6ADF6A0C4AE7
:101B50000D2A0F50080D0E503AEC0CF0DF50096EB4
:101B600009C00AF00B6A0A500C5C0B500D58D8B033
:101B70001200E2D70F4A102A050E0F5C000E105813
:101B8000D8B01200C8D7106A116A1050080D095059
:101B9000F324D96EDA6ADE520850DD1807C0E8FF78
:101BA000D8B4DF1823E10E6A0F6A10D01050080D68
:101BB0000950F3240E24D96EDA6A030ED926DA6AA4
:101BC0000A50DF6201D0010C0E4A0F2A1050080D96
:101BD00009503AEC0CF0DF500B6E0BC00CF00D6AA4
:101BE0000C500E5C0D500F58E1E3000C104A112A06
:101BF000050E105C000E1158F8E2C7D7E8CF08F0C8
:101C00000850D96EDA6A080ED926DA6A050EDF6442
:101C1000000C0850D96EDA6A020ED926DA6A07502B
:101C2000E16E1ED8030ED926DA6A0750E16EE26A29
:101C3000E12A16D8040ED926DA6A0750E16EE26A64
:101C4000020EE1260DD8050ED926DA6A0750E16E9C
:101C5000E26A030EE126E26AE750DF62000C010C43
:101C6000E26AE750DF62000C0850D96EDA6A1200AF
:101C7000E8CF09F0000E086A076A6DEC11F0095010
:101C8000D96EDA6A000E086A076A6DEC11F0DF6E31
:101C90000950D96EDA6AD92ADA6A086A010E076E23
:101CA0006DEC11F0DF6E0950D96EDA6A020ED9269A
:101CB000DA6A086A020E076E6DEC11F0DF6E0950E9
:101CC000D96EDA6A030ED926DA6A086A030E076E3D
:101CD0006DEC11F0DF6E1200E8CF09F00A6A28D827
:101CE000DF5021E00A5062EC11F0086E0A50030D3B
:101CF00009503AEC0CF0DF5008180EE00A50030DC2
:101D000009503AEC0CF008C0DFFF12D8DF6A10D897
:101D1000D92ADA6A000E06D00BD8D92ADA6ADF6A25
:101D200007D8010EDF6E0A2A0A50D8A41200D7D7AE
:101D30000A50030D0950F324D96EDA6A120020EE1E
:101D400008F028D8060E0B5CD8B0120020EE08F080
:101D500021D8020E0B260B5008240C6EE86A0BBE2D
:101D6000E86809200D6E0CC0D9FF0DC0DAFF0AC06B
:101D7000DFFF20EE08F00850D9260950DA2210EED5
:101D800008F00850E1260950E222E7500B6E0B28BC
:101D9000DF6E12000850D9260950DA22DF500B6E90
:101DA0001200E8CF09F00A6A0B6A0A50080D0750C2
:101DB000F324D96EDA6ADE50640ADD1019E10C6A88
:101DC0000A50080D0750F3240C24D96EDA6A030E6A
:101DD000D926DA6A0850DF6208D00C50030D09508A
:101DE000F324D96EDA6A010EDF6E0C2A0C50E8E09B
:101DF0000A4A0B2A050E0A5C000E0B58D8B01200D6
:101E0000D4D7E8CF08F0800E56EC11F0096A0FD055
:101E1000096A1CD0010E09D0030E07D0070E05D0A9
:101E20000F0E03D01F0E01D03F0E096E0FD00850C9
:101E3000010AEEE0030AEEE0010AEEE0070AEEE036
:101E4000010AEEE0030AEEE0010AEEE0C00E7016B1
:101E500009507012000E56EF11F0E8CF0BF00F0191
:101E60000F0E0D6E0C6A0B50040DF3500C26000E75
:101E70000D2207C009F008C00AF0D8900A320932D2
:101E8000D8900A320932D8900A32093209500CC06F
:101E9000D9FF0DC0DAFFDF6E0738E846E00B0C4AC9
:101EA0000D2A0CC0D9FF0DC0DAFFDF6E1200E8CF9B
:101EB0000BF00F0E0D6E180E0C6E0B50040DF35040
:101EC0000C26000E0D2207C009F008C00AF0D890B9
:101ED0000A320932D8900A320932D8900A320932CD
:101EE00009500CC0D9FF0DC0DAFFDF6E0738E84695
:101EF000E00B0C4A0D2A0CC0D9FF0DC0DAFFDF6ED3
:101F00001200450E076E000E086E0F0E086E5F0E73
:101F10000764086A42C009F043C00AF0010E0B6E64
:101F2000A9EC10F0450E086E000E096E0F0E096E3A
:101F30005F0E0864096A44C00AF09FEC0EF0450E7B
:101F4000326E000E336E0F0E336E5F0E3264336AE4
:101F500087EF0CF00C6A0D6A0C50080D0950F32441
:101F6000D96EDA6ADE520850DD1807C0E8FFD8B42F
:101F7000DF180DE10C50080D0950F3240B24D96E25
:101F8000DA6A030ED926DA6A0AC0DFFF12000C4AA9
:101F90000D2A050E0C5C000E0D58D8B01200DCD7CF
:101FA000800E56EC11F0430E706EBF0E716E870EF0
:101FB000726E200E736E779E779C606E0F01506F6D
:101FC000006B016B046B056B086B096B0C6B0D6B85
:101FD000106B116B146B156B186B196B19971C6BCD
:101FE0001D6B1D97000E56EF11F000EECEF0130E94
:101FF000EE6AE806FDE100EE51F0090EEE6AE80631
:10200000FDE1100EF66E230EF76E000EF86E00EE78
:10201000E1F010EE0FF00900F5CFEEFFE550E150D2
:10202000FAE1000EF86E0D0EF76E000195EF06F066
:10203000E8CF08F0020E0860020C075007E112D04A
:10204000898012008988898A8A8C12000850F8E0F9
:10205000010AD8A41200F6D7899012008998899AAB
:102060008A9C12000850F8E0010AD8A41200F6D7A2
:102070000B6A0C6A0D6A0E6A10D00F6A106A0F4A5A
:10208000102A1050800A7E0F6C0ED8B40F5CF7E354
:102090000B2A000E0C220D220E2207500B5C08505A
:1020A0000C5809500D580A500E58D8B01200E5D7F8
:1020B000E8CF08F0096A0950030D08503AEC0CF01B
:1020C000095062EC11F0DF6E0AD8D92ADA6ADF6AA9
:1020D00006D8DF6A092A0950D8A41200ECD70950A3
:1020E000030D0850F324D96EDA6A1200E8CF07F026
:1020F000020E0760000C0CD080B0010C000C80B800
:10210000010C000C80BA010C000C81BC010C000C0D
:102110000750F2E0010AF3E0030AF4E0010AF5E0F7
:10212000000C0001CF4BD02B650ECF5D000ED059B7
:1021300004E3CF6BD06BD14BD22BE90ED15D030EF4
:10214000D25905E3CE6BD16BD26BCF6BD06BCE5136
:10215000120020EE01F00750D9260850DA220BC0F9
:10216000DFFF07C0D9FF08C0DAFF09C0DFFF20EE9C
:1021700008F00750D9260850DA22000EDF6E000C56
:10218000E8CF01F0020E0160020C0AD0010E891A9C
:10219000010C100E891A200E891A400E8A1A400C62
:1021A0000150F4E0010AD8A41200F3D7E8CF07F0F9
:1021B000020E0760020C0AD0010E891A010C100EE3
:1021C000891A200E891A400E8A1A400C0750F4E032
:1021D000010AD8A41200F3D789800DD838EC10F08A
:1021E00089908988898A8A8C06D838EC10F0899879
:1021F000899A8A9C1200C80E076E086A096A0A6AE0
:10220000000C076A0750020DF350510FD96EDA6ABD
:10221000DF680750020DF350520FD96EDA6ADF6A99
:10222000072A010E0764EED7010CE8CF07F007502C
:10223000D96EDA6A080ED926DA6A010EDF64000C5C
:102240000750D96EDA6AD92ADA6ADF501200E8CF6D
:1022500007F00750D96EDA6A080ED926DA6ADF501D
:1022600005E00750D96EDA6ADF501200000C085002
:10227000AA6E07C0A9FF09C0A8FF040EA66E550EDE
:10228000A76EAA0EA76EA682A6A21200FDD70F0EF9
:10229000C112CE0E9216939C8C0E9212CE0E8916FF
:1022A0008A9C8016819C938EECEF10F0E8CF07F0AB
:1022B0001F0E6F1607506F126F50E00B0718D8B43F
:1022C0001200FAD7E8CF07F00766000C03D080B4FD
:1022D000010C000C0750FBE0000CA6B2FED7085022
:1022E000AA6E07C0A9FF010EA66EA8501200E8CF83
:1022F00008F0085027EC11F0C80A01E1010C000CAD
:10230000010E0001CE6FD16BD26BCF6BD06B120080
:102310000100640000000000000002010000000055
:10232000010E596E566A1200010E586E566A12005E
:0C233000586A566A1200596A566A120078
:020000040030CA
:0600010006001E008090C5
:00000001FF
