:040800000CEF04F005
:10080800D9CF02F0DACF03F0F3CF04F0A9ED0BF063
:0408180027EF10F0C6
:100D00000D0A43414E20726563656976655B206913
:100D1000643A200020666C6167733A2000206461A9
:100D200074613A200054005D0000700ED3129B8C59
:100D3000F29CF28ED59CD59AD586D9EC11F0DCECDC
:100D400011F00001AF0E04EC0FF0C86BC96B02ECA0
:100D500010F096EC11F0030E33EC0FF00001720E60
:100D60004CEC0CF0086A0768000E5FEC0FF0DBC07B
:100D700007F0DCC008F0010E5FEC0FF0DDC007F0FB
:100D8000DEC008F0020E5FEC0FF0DFC007F0E0C03D
:100D900008F0030E5FEC0FF0E1C007F0E2C008F0CE
:100DA000040E5FEC0FF0E3C007F0E4C008F0050E9E
:100DB0005FEC0FF0030E086E0768000E89EC0FF071
:100DC000030E086E0768010E89EC0FF050EC11F06D
:100DD000F28A0001650E0E6E9C0E0F6EA10E106E53
:100DE000A20E78EC09F0000901E1C8D1B9EC11F0CC
:100DF0009A6B9B6B0CD09A51650FD96EDA6A9A5137
:100E0000CF0FE16EE26ADFCFE7FF9A4B9B2B9CC0CE
:100E10004EF04F6A9B51800A506E4E509A5D4F5073
:100E2000800A5058E8E3A1C0DAF0A2C0D8F0A3C00D
:100E3000D9F09CC0D7F0A229A311A411A51103E1F8
:100E4000CF0EB0EC11F0CF0EB0EC11F0000901E1C3
:100E500072D19E6B9F6B9E51020DF350DB0FD96ECA
:100E6000DA6A10EED8F0E652DE52DD50E518DFCF38
:100E7000E8FFD8B4E7180AE19E51E50FD96EDA6AA7
:100E8000DF5004E0D8C0C8F0D9C0C9F09E4B9F2BFA
:100E9000050E9E5D000E9F5901E34DD1DCD7FF0E7C
:100EA00008680768096876EC11F0FF00A9D1C8C08E
:100EB00007F0C9C008F0720E8BEC0DF0A1D1C8C0CC
:100EC00007F0C9C008F0720E096E05EC0CF06E6FE9
:100ED00000016E5101E194D1000E086EB30E076E51
:100EE000C8C009F0C9C00AF0040E0B6E39EC11F04D
:100EF000000E096EB30E086EAFC00AF0A2EC0EF041
:100F0000000E096EB30E086EB0C00AF0A2EC0EF02F
:100F1000000E096EB30E086EB1C00AF0A2EC0EF01E
:100F2000000E096EB30E086EB2C00AF0A2EC0EF00D
:100F3000000E096EB30E086E6EC00AF0A2EC0EF041
:100F4000000E336EB30E326E92EC0CF0D5EC11F055
:100F5000576A56D1AF0E076ECF0E02EC0EF00009A5
:100F6000D8A4D9EC11F0D751030A01E049D1720E8F
:100F7000076ED1C008F0BC0ED4EC0EF041D1AF0E1C
:100F8000076ECF0E02EC0EF0000901E139D1C8C0A6
:100F900007F0C9C008F0720E096ED5C00AF0D6C0BD
:100FA0000BF0DCEC0FF0C8C042F0C9C043F0D5C074
:100FB00044F0B3EC0FF024D1C8C007F0C9C008F06A
:100FC000720E096ED1C00AF0C7EC0DF0000901E104
:100FD00017D1C805C9110CE1C8C007F0C9C008F095
:100FE000720E096ED1C00AF04FEC0DF013EC0DF04B
:100FF000C8C042F0C9C043F0D1C044F0B3EC0FF018
:10100000FFD0C805C91121E1C8C007F0C9C008F068
:10101000720E096ED1C00AF04FEC0DF06D6F58D909
:10102000660E0B6E39EC11F0000E096EA60E086EFE
:101030006D51CAEC10F00A6EA2EC0EF0000E336E89
:10104000A60E326E92EC0CF0DBD0C805C91113E18C
:10105000C8C007F0C9C008F0720E096ED1C00AF00E
:101060004FEC0DF06F6F6F67CBD0D2C007F06F51B0
:101070006FEC0EF0C5D0C851640AC91116E128D929
:10108000650E0B6E39EC11F0000E096EA60E086E9F
:10109000D15107EC11F00A6EA2EC0EF0000E336E87
:1010A000A60E326E92EC0CF0ABD0C851640AC91196
:1010B00004E1BC0EE9EC10F0A3D0C851640AC911D8
:1010C00001E09ED09D6B706BBC0E3CEC0EF0720E7E
:1010D000076E9D0E086E700E096EBC0ED6EC0CF0FD
:1010E0009D5101E18DD0000E086EBF0E076EC8C085
:1010F00009F0C9C00AF0070E0B6E39EC11F0000EB2
:10110000096EBF0E086E9DC00AF0A2EC0EF0E9D881
:10111000A2EC0EF0000E096EBF0E086E70C00AF051
:10112000A2EC0EF0000E336EBF0E326E92EC0CF09D
:10113000D1EC11F065D0CF0E64EC11F0010A01E1A1
:1011400009D7030A01E1B3D6010A01E118D7070A5A
:1011500001E1B5D6010A01E12FD7030AA6E0010A91
:10116000ACE00F0A01E19BD66D0A01E16ED7000ADF
:1011700001E16BD7030A01E144D742D021EC11F021
:1011800000093EE1000E07EC11F000090BE0010E32
:10119000076E000E6FEC0EF0010E076E020E6FEC84
:1011A0000EF008D0000E076A6FEC0EF0076A020E10
:1011B0006FEC0EF0010E07EC11F000090AE0010ED1
:1011C000076E6FEC0EF0010E076E030E6FEC0EF063
:1011D00008D0076A010E6FEC0EF0076A030E6FEC81
:1011E0000EF0020E07EC11F0000906E0010E076E8A
:1011F000040E6FEC0EF004D0076A040E6FEC0EF0D4
:10120000040E566426D0580410E1572A050E576480
:1012100003D0D9EC11F009D00001000E336EB30EEB
:10122000326E92EC0CF0D5EC11F0590412E1000191
:10123000BD2B20EEBDF0050EDF6403D0DCEC11F019
:1012400008D0000E336EBF0E326E92EC0CF0D1EC73
:1012500011F0590401E0BDD50001A06B716B720E55
:10126000076EA00E086E710E096EBC0ED6EC0CF067
:10127000A06703D0DCEC11F0ACD5C151A01901E19D
:10128000A8D5000E086EBF0E076E0A6A640E096EBE
:10129000070E0B6E39EC11F0000E096EBF0E086ED2
:1012A000A0C00AF0A2EC0EF01CD8A2EC0EF0000ECA
:1012B000096EBF0E086E71C00AF0A2EC0EF0000EAF
:1012C000336EBF0E326E92EC0CF0D1EC11F081D582
:1012D000000E086EA60E076EC8C009F0C9C00AF05D
:1012E0001200000E096EBF0E086E650E0A6E650CC8
:1012F000E8CF13F0556A60AE12D0A49074AE06D059
:101300001050D96EDA6A000EDB86749E60A002D09F
:10131000558001D055900F0E166E600E1AD00F0139
:1013200050AF000CA49274AC06D01050D96EDA6A9B
:10133000000EDB86749C5051070B556E020E5560F3
:1013400005D01050D96EDA6A000EDB8E0F0E166EC5
:10135000500E156E15C011F016C012F01050D96E57
:10136000DA6ADF6A20EE05F050D80F50D96EDA6ADB
:1013700017500F0BDF6E17AC05D01050D96EDA6A1C
:10138000000EDB8C20EE02F040D817A608D01050DB
:10139000D96EDA6A000EDB8A010E176E01D0176A69
:1013A0001528076E000E1620086E13C009F017C02E
:1013B0000AF00CEC0AF0060E1526000E16220F504D
:1013C000D96EDA6ADF50176E146A0DD015C0D9FFD6
:1013D00016C0DAFF0E50E16EE26ADFCFE7FF154A72
:1013E000162A0E2A142A1750145CF0E3A4AE06D075
:1013F0001050D96EDA6A000EDB88A49E11C0D9FFA6
:1014000012C0DAFF7F0EDF16010C1550D9261650D8
:10141000DA22DF50176E120009C00DF00A662BD0D9
:101420000D50D96E6CD80B36D8900B36D8900B3443
:10143000DF6E0D50D96EDA6AD92ADA6A73D8D8907D
:101440000B320C2EFCD70B5063D8050E0C6ED890C7
:101450000B320C2EFCD70D50D96EDA6A0B50DF120E
:101460003DD8DF6A0D50D96EDA6A030ED926DA6AE2
:10147000000EDF6E000C32D855D8D8900B360C2EEB
:10148000FCD70B50DF6E0D50D96EDA6A030ED926E9
:1014900036D80B32D8900B32D8900B3039D8030E97
:1014A0000B161CD80B50DF1207C0D9FF08C0DAFF9B
:1014B000DF500B6ED8900B32D8900B32D8900B3295
:1014C0001C0E0B160BD80B50DF120FD8E12AE26A64
:1014D000DFCFE7FF0AD8DFCFE7FF12000D50D96E4C
:1014E000DA6A020ED926DA6A1200074A082A07C009
:1014F000D9FF08C0DAFF0D50E16EE26A1200DA6A25
:1015000007C0E1FF08C0E2FFE7500B6ED890120061
:10151000DF6E074A082A07C0D9FF08C0DAFFDF508C
:101520000B6E120007C0E1FF08C0E2FFE7500B6E30
:10153000050E0C6E050C090E106E0D6622D01050B3
:10154000D96EDA6ADF500E6ED8900E32D8900E3215
:10155000D8900E3058D8D92ADA6A71D8D8900E3679
:101560000F2EFCD707C0D9FF44D869D8D8900E36C3
:101570000F2EFCD70E5007C0D9FF08C0DAFFDF6E70
:10158000120054D8050E0F6ED8900E320F2EFCD7D5
:101590000E5039D8030E40D80E3607C0D9FF29D8CF
:1015A000020E3AD80E34E00B07C0D9FF08C0DAFFAC
:1015B000DF6E07C0D9FF08C0DAFF000EDB8636D821
:1015C000030E0E1607C0D9FF14D8D92ADA6A07C04D
:1015D000E1FF08C0E2FFDFCFE7FF074A082A10500B
:1015E000D96EDA6A07C0E1FF08C0E2FFDFCFE7FF8C
:1015F000120008C0DAFF0E50DF12074A082A105006
:10160000D96EDA6A120007C0D9FF08C0DAFFDF6EB0
:101610001050D96EDA6A1200D926DA6ADF500E6EDF
:10162000D8900E36D8900E36D89012001050D96E41
:10163000DA6A020ED926DA6ADF500E6E1200DF5027
:101640000E6E050E0F6E050C0F010F0E1A6E400E7A
:10165000196E0F0E1C6E300E1B6E0F0E1E6E200EBE
:101660001D6E2F6A2F50020DF350190FD96EDA6AD2
:10167000DECF30F0DDCF31F030C02CF031C02DF0B6
:1016800030C0D9FF31C0DAFFDF50186E18B65CD019
:1016900030C0D9FF31C0DAFFFC0EDF1617C018F0DA
:1016A000030E181630C0D9FF31C0DAFF1850DF1210
:1016B00017AC04D0165040092E6E02D016C02EF082
:1016C00020EE05F03050D9263150DA222EC0DFFF4F
:1016D00017AA03D0010E2E6E01D02E6A3028076E95
:1016E000000E3120086E11C009F012C00AF013C0BC
:1016F0000BF014C00CF02EC00DF09BEC0AF0060E9F
:101700003026000E31222B6A0DD01550D96EDA6AC0
:1017100030C0E1FF31C0E2FFDFCFE7FF152A304ADA
:10172000312A2B2A16502B5CF0E32CC0D9FF2DC098
:10173000DAFFDF50186E18B4010C2CC0D9FF2DC091
:10174000DAFF000EDB86010C2F2A010E2F648AD7E8
:10175000000C0600F4CF05F0F2A401D001D04CD06B
:101760005804D8B401D001D005D05904D8A401D070
:1017700001D00CD0514A522A51500C0A5210D8A410
:1017800001D001D003D0516A526A562A066A065027
:10179000020DF350540FD96EDA6ADF50D8B401D07D
:1017A00001D023D00650020DF350540FD96EDA6ADF
:1017B000DF2A0650020DF350540FD96EDA6A640E18
:1017C000DF6401D001D011D00650020DF350540F48
:1017D000D96EDA6A000EDF6E0650020DF350530F19
:1017E000D96EDA6ADF508AEC10F0062A0650D8B4B7
:1017F00001D001D0CCD7F29405C0F4FF04C0F3FFB0
:1018000003C0DAFF02C0D9FF1100106A116A10503C
:10181000080D0950F324D96EDA6ADE520850DD183B
:1018200007C0E8FFD8B4DF1828E11050080D0950B0
:101830002CD8DF500D6E0E6A0F6A0FD01050080DB5
:101840000950F3240E24D96EDA6A030ED926DA6A17
:10185000DF50D8A40D060E4A0F2A1050080D09506B
:1018600014D8DF500A6E0AC00BF00C6A0B500E5CE5
:101870000C500F58E3E30D501200104A112A050EC8
:10188000105C000E1158C3E3000CF324D96EDA6A21
:10189000020ED926DA6A1200E8CF0CF00D6A0E6A41
:1018A0000D50020DF350DB0F34D8DECFE6FFDDCF55
:1018B000E5FF0D50E50F2DD8020EE126E26ADFCFDD
:1018C000E7FF0A6A0B6A0DD00D50080D0C50F32487
:1018D0000A24D96EDA6A030ED926DA6ADF6A0A4A5E
:1018E0000B2A0D50080D0C5045EC0CF0DF50076E24
:1018F00007C008F0096A08500A5C09500B58E4E375
:101900000D4A0E2A050E0D5C000E0E58D8B01200BE
:10191000C7D7D96EDA6A0D50080D0C50F324E16E6A
:10192000E26A120032C0D9FF33C0DAFFDF50386EEE
:1019300020EE01F03250D9263350DA22DF50396ED2
:10194000406A416A40C034F0020E342634503224DA
:10195000356EE86A34BEE8683320366E35C0D9FF8C
:1019600036C0DAFF40C037F0020E37263750380F46
:10197000E16EE26ADFCFE7FF404A412A060E405C93
:10198000000E4158DFE3C80E116E126A136A146A22
:10199000380E156E20EE08F03250D9263350DA2278
:1019A000DF50020F166E176A24EF0BF0E8CF0AF033
:1019B0000D6A0D50030D0A50F324D96EDA6ADF5018
:1019C0002DE10B6A0C6A0B50080D0750F324D96EF9
:1019D000DA6ADE50640ADD101AE10B50080D075078
:1019E000F3240D24D96EDA6A030ED926DA6A085078
:1019F000E16EE26ADFCFE7FF0D50030D0A5045ECC0
:101A00000CF00950E16EE26ADFCFE7FF12000B4AEB
:101A10000C2A050E0B5C000E0C58D5E30D2A0D5058
:101A2000D8A41200C6D7E8CF08F008661200096AE9
:101A30000950020DF350530FD96EDA6AFF0EDF62C0
:101A400009D00950020DF350530FD96EDA6A08C05D
:101A5000DFFF03D0092A0950EBE00A6A0A50020DA1
:101A6000F350530FD96EDA6A0850DF6213D00A5070
:101A7000020DF350540FD96EDA6ADF50D8A4120069
:101A80000A50020DF350540FD96EDA6ADF2A08505B
:101A9000AAEF10F00A2A0A50D8A41200DFD7106A61
:101AA000116A1050080D0950F324D96EDA6ADE521B
:101AB0000850DD1807C0E8FFD8B4DF1824E10E6A2B
:101AC0000F6A11D01050080D0950F3240E24D96E5E
:101AD000DA6A030ED926DA6A0A50DF6202D00E50A3
:101AE00012000E4A0F2A1050080D095045EC0CF058
:101AF000DF500B6E0BC00CF00D6A0C500E5C0D50DD
:101B00000F58E0E3FF0C104A112A050E105C000E7E
:101B10001158F8E2C6D7E8CF0EF00F6A106A0F50DE
:101B2000080D0E50F324D96EDA6ADE520850DD1823
:101B300007C0E8FFD8B4DF1821E10C6A0D6A0DD0A8
:101B40000F50080D0E50F3240C24D96EDA6A030EE0
:101B5000D926DA6ADF6A0C4A0D2A0F50080D0E509A
:101B600045EC0CF0DF50096E09C00AF00B6A0A5010
:101B70000C5C0B500D58D8B01200E2D70F4A102A57
:101B8000050E0F5C000E1058D8B01200C8D7106AAE
:101B9000116A1050080D0950F324D96EDA6ADE522A
:101BA0000850DD1807C0E8FFD8B4DF1823E10E6A3B
:101BB0000F6A10D01050080D0950F3240E24D96E6E
:101BC000DA6A030ED926DA6A0A50DF6201D0010C04
:101BD0000E4A0F2A1050080D095045EC0CF0DF504A
:101BE0000B6E0BC00CF00D6A0C500E5C0D500F58B4
:101BF000E1E3000C104A112A050E105C000E11588A
:101C0000F8E2C7D7E8CF08F00850D96EDA6A080EB4
:101C1000D926DA6A050EDF64000C0850D96EDA6A3C
:101C2000020ED926DA6A0750E16E1ED8030ED926B5
:101C3000DA6A0750E16EE26AE12A16D8040ED92664
:101C4000DA6A0750E16EE26A020EE1260DD8050E4F
:101C5000D926DA6A0750E16EE26A030EE126E26AEB
:101C6000E750DF62000C010CE26AE750DF62000C13
:101C70000850D96EDA6A1200E8CF09F00A6A28D84B
:101C8000DF5021E00A5007EC11F0086E0A50030DF6
:101C9000095045EC0CF0DF5008180EE00A50030D17
:101CA000095045EC0CF008C0DFFF12D8DF6A10D8ED
:101CB000D92ADA6A000E06D00BD8D92ADA6ADF6A86
:101CC00007D8010EDF6E0A2A0A50D8A41200D7D70F
:101CD0000A50030D0950F324D96EDA6A1200E8CFD6
:101CE00008F00866120007500BE120D0898012002E
:101CF0008982120089881200898A12008A8C120057
:101D00000850F4E0010AF4E0030AF4E0010AF4E008
:101D1000070AD8A41200F2D7899012008992120003
:101D200089981200899A12008A9C12000850F4E0E7
:101D3000010AF4E0030AF4E0010AF4E0070AD8A477
:101D40001200F2D720EE08F028D8060E0B5CD8B0AF
:101D5000120020EE08F021D8020E0B260B500824AA
:101D60000C6EE86A0BBEE86809200D6E0CC0D9FF46
:101D70000DC0DAFF0AC0DFFF20EE08F00850D926B8
:101D80000950DA2210EE08F00850E1260950E2224C
:101D9000E7500B6E0B28DF6E12000850D926095051
:101DA000DA22DF500B6E1200E8CF09F00A6A0B6AE4
:101DB0000A50080D0750F324D96EDA6ADE50640A1F
:101DC000DD1019E10C6A0A50080D0750F3240C24A9
:101DD000D96EDA6A030ED926DA6A0850DF6208D0B3
:101DE0000C50030D0950F324D96EDA6A010EDF6E30
:101DF0000C2A0C50E8E00A4A0B2A050E0A5C000E79
:101E00000B58D8B01200D4D7E8CF09F00950D96EDA
:101E1000DA6A000E086A076AC1EC11F0DF6E095039
:101E2000D96EDA6AD92ADA6A086A010E076EC1EC3D
:101E300011F0DF6E0950D96EDA6A020ED926DA6A1D
:101E4000086A020E076EC1EC11F0DF6E0950D96E00
:101E5000DA6A030ED926DA6A086A030E076EC1EC45
:101E600011F0DF6E1200E8CF08F0800EA4EC11F044
:101E7000096A0FD0096A1CD0010E09D0030E07D0E1
:101E8000070E05D00F0E03D01F0E01D03F0E096EB6
:101E90000FD00850010AEEE0030AEEE0010AEEE07E
:101EA000070AEEE0010AEEE0030AEEE0010AEEE0C6
:101EB000C00E701609507012000EA4EF11F0E8CF9A
:101EC0000BF00F010F0E0D6E0C6A0B50040DF3504A
:101ED0000C26000E0D2207C009F008C00AF0D890A9
:101EE0000A320932D8900A320932D8900A320932BD
:101EF00009500CC0D9FF0DC0DAFFDF6E0738E84685
:101F0000E00B0C4A0D2A0CC0D9FF0DC0DAFFDF6EC2
:101F10001200E8CF0BF00F0E0D6E180E0C6E0B506A
:101F2000040DF3500C26000E0D2207C009F008C066
:101F30000AF0D8900A320932D8900A320932D89081
:101F40000A32093209500CC0D9FF0DC0DAFFDF6E2A
:101F50000738E846E00B0C4A0D2A0CC0D9FF0DC02B
:101F6000DAFFDF6E1200450E076E000E086E0F0ED0
:101F7000086E5F0E0764086A42C009F043C00AF0A9
:101F8000010E0B6E39EC11F0450E086E000E096E55
:101F90000F0E096E5F0E0864096A44C00AF0A2ECD5
:101FA0000EF0450E326E000E336E0F0E336E5F0E66
:101FB0003264336A92EF0CF00C6A0D6A0C50080D13
:101FC0000950F324D96EDA6ADE520850DD1807C0D2
:101FD000E8FFD8B4DF180DE10C50080D0950F324C8
:101FE0000B24D96EDA6A030ED926DA6A0AC0DFFF3B
:101FF00012000C4A0D2A050E0C5C000E0D58D8B0CC
:102000001200DCD7800EA4EC11F0430E706EBF0EF0
:10201000716E870E726E200E736E779E779C606E67
:102020000F01506F006B016B046B056B086B096B44
:102030000C6B0D6B106B116B146B156B186B196BB4
:1020400019971C6B1D6B1D97000EA4EF11F000EE8D
:10205000CAF0110EEE6AE806FDE100EE51F0090E3D
:10206000EE6AE806FDE1920EF66E230EF76E000EA4
:10207000F86E00EEDBF010EE0FF00900F5CFEEFF8A
:10208000E550E150FAE1000EF86E0D0EF76E00011A
:1020900095EF06F0898018D86AEC10F08990898253
:1020A00013D86AEC10F0899289880ED86AEC10F087
:1020B0008998898A09D86AEC10F0899A8A8C04D8A0
:1020C0006AEC10F08A9C1200C80E076E086A096A52
:1020D0000A6A000C0B6A0C6A0D6A0E6A10D00F6A4D
:1020E000106A0F4A102A1050800A7E0F6C0ED8B466
:1020F0000F5CF7E30B2A000E0C220D220E22075074
:102100000B5C08500C5809500D580A500E58D8B0A6
:102110001200E5D7E8CF01F0016612000FD0010EE2
:10212000891A010C020E891A020C100E891A100C61
:10213000200E891A200C400E8A1A400C0150EFE044
:10214000010AF0E0030AF1E0010AF2E0070AD8A46C
:102150001200F1D7E8CF07F0076612000FD0010E8A
:10216000891A010C020E891A020C100E891A100C21
:10217000200E891A200C400E8A1A400C0750EFE0FE
:10218000010AF0E0030AF1E0010AF2E0070AD8A42C
:102190001200F1D7E8CF07F00766000C0FD080B02F
:1021A000010C000C80B2010C000C80B8010C000C7A
:1021B00080BA010C000C81BC010C000C0750EFE050
:1021C000010AF0E0030AF1E0010AF2E0070AF3E095
:1021D000000CE8CF08F0096A0950030D085045ECDF
:1021E0000CF0095007EC11F0DF6E0AD8D92ADA6A30
:1021F000DF6A06D8DF6A092A0950D8A41200ECD792
:102200000950030D0850F324D96EDA6A1200E8CFA2
:1022100007F00766000C0CD080B4010C000C80B6EF
:10222000010C000C81BE010C000C80BE010C000CE6
:102230000750F2E0010AF3E0030AF4E0010AF5E0D6
:10224000000C0001CB4BCC2B650ECB5D000ECC59A6
:1022500004E3CB6BCC6BCD4BCE2BE90ECD5D030EE7
:10226000CE5905E3CA6BCD6BCE6BCB6BCC6BCA5131
:10227000120020EE01F00750D9260850DA220BC0D8
:10228000DFFF07C0D9FF08C0DAFF09C0DFFF20EE7B
:1022900008F00750D9260850DA22000EDF6E000C35
:1022A000076A0750020DF350530FD96EDA6ADF68E0
:1022B0000750020DF350540FD96EDA6ADF6A072A0D
:1022C0000750D8A41200EDD7E8CF07F00750D96E19
:1022D000DA6A080ED926DA6A010EDF64000C0750AC
:1022E000D96EDA6AD92ADA6ADF5012000850AA6E6B
:1022F00007C0A9FF09C0A8FF040EA66E550EA76E61
:10230000AA0EA76EA682A6A21200FDD7E8CF07F0FC
:102310000750D96EDA6A080ED926DA6ADF5005E06E
:102320000750D96EDA6ADF501200000C0F0EC1128E
:10233000CC0E92168C0E9212CC0E89168016939C9F
:10234000938E8A9C4AEF10F0E8CF07F01F0E6F16AD
:1023500007506F126F50E00B0718D8B41200FAD76D
:10236000E8CF08F0085086EC11F0C80A01E1010C32
:10237000000C010E0001CA6FCD6BCE6BCB6BCC6B2A
:1023800012000850AA6E07C0A9FF010EA66EA85041
:1023900012000100640000000000000001010000C4
:1023A0000000010E596E566A1200010E586E566AF0
:0E23B0001200586A566A1200596A566A1200E4
:020000040030CA
:0600010006001E008090C5
:00000001FF
