:040800000CEF04F005
:10080800FACF03F0FBCF04F0E9CF05F0E4ED0CF0EC
:040818003EEF15F0AA
:100D00000D0A43414E20726563656976655B206913
:100D1000643A200020666C6167733A2000206461A9
:100D200074613A200054005D00000001806F000EE5
:100D3000000100018F6F00018051000E00010001D1
:100D40008B6F000E00018C6F000E00018D6F000E86
:100D500000018E6FD388D38AD38C9B8CF29CF28E49
:100D6000D59CD59AD5863BEC17F04CEC17F00001DA
:100D7000000E156E0001CE0E146E0BEC15F0000E79
:100D800000010001DC6F000E0001DB6F0001806FCD
:100D9000000E00010001916F0001805129EC12F05A
:100DA000ECEC16F00001806F030E136E0001805111
:100DB0003DEC13F00001000E136E0001920E126E56
:100DC0004BEC0EF00001806F000E126E000180519E
:100DD000000E146EFF0E136E70EC15F00001806FA4
:100DE000010E126E00018051DDC013F0DEC014F060
:100DF00070EC15F00001806F020E126E0001805140
:100E0000DFC013F0E0C014F070EC15F00001806F4B
:100E1000030E126E00018051E1C013F0E2C014F025
:100E200070EC15F00001806F040E126E000180510D
:100E3000E3C013F0E4C014F070EC15F00001806F13
:100E4000050E126E00018051E5C013F0E6C014F0EB
:100E500070EC15F00001806F000E126E00018051E1
:100E6000030E146EFF0E136E9BEC15F00001806FE5
:100E7000010E126E00018051030E146EFF0E136EF0
:100E80009BEC15F0C6EC15F0F28A00D00001000EC4
:100E90001C6E0001CA0E1B6E0001000E1E6E0001CA
:100EA000830E1D6E0001000E206E0001BD0E1F6E30
:100EB0000001000E226E0001C00E216E9AEC0AF0B5
:100EC0000009D8B401D001D049D21CEC17F0000EB3
:100ED00000010001BC6F000E0001BB6F1BD00001C0
:100EE000830E00010001BB25D96EDA6A0001000EF5
:100EF000DA220001EF0E00010001BB25E16EE26A7B
:100F00000001000EE222DFCFE7FF00010001BB4B32
:100F1000BC2B00D000010001BD510001806F816B2E
:100F200000010001BC51800A0001826F8051000164
:100F30000001BB5D00018151800A00018259D8A0E7
:100F400001D001D0CCD7C0C0FAF0CAC0F8F0CBC0F5
:100F5000F9F0BDC0F7F000010001CA29CB11CC1196
:100F6000CD11D8A401D001D009D00001000E156E1A
:100F70000001EF0E146E0DEC17F000D00001000E12
:100F8000156E0001EF0E146E0DEC17F00009D8B4C9
:100F900001D001D0C1D1000E00010001BF6F000ED1
:100FA0000001BE6F050E00010001BE5D000E0001D4
:100FB000BF59D8A001D001D002D0AED1ADD100012F
:100FC000D8900001BE350001806F0001DD0E0001E8
:100FD0008025D96EDA6A0001000EDA22000110EED7
:100FE000F8F0E652DE52DD50E518DFCFE8FFD8B466
:100FF000E718D8A401D001D014D00001E70E0001F9
:101000000001BE25D96EDA6A0001000EDA22DF5037
:10101000D8B401D001D005D0F8C0DBF0F9C0DCF0C5
:1010200000D000010001BE4BBF2B050E00010001E6
:10103000BE5D000E0001BF59D8A001D001D0BFD7BE
:101040006BD16AD169D1FF0E136EFF0E126E0001D3
:10105000806FFF0E146E00018051D8EC16F0FF0077
:101060003DD20001000E136E0001920E126EDBC025
:1010700014F0DCC015F0B2EC10F030D2DBC012F08E
:10108000DCC013F00001000E156E0001920E146E0C
:10109000F2EC0EF000010001916F00019151D8B403
:1010A00001D001D01BD20001000E136E0001D20E40
:1010B000126EDBC014F0DCC015F00001806F040E6E
:1010C000166E00018051AAEC16F00001000E146E9D
:1010D0000001D20E136ECEC015F098EC14F0000192
:1010E000000E146E0001D20E136ECFC015F098ECF6
:1010F00014F00001000E146E0001D20E136ED0C069
:1011000015F098EC14F00001000E146E0001D20EE0
:10111000136ED1C015F098EC14F00001000E146E9F
:101120000001D20E136E91C015F098EC14F000017E
:10113000000E406E0001D20E3F6E36EC11F032EC24
:1011400017F0000E00010001ED6FC8D1C7D10001FA
:10115000000E136E0001EF0E126E0001000E156EF0
:101160000001CE0E146EE9EC12F00009D8B401D0E3
:1011700001D0B4D13BEC17F0B1D1B0D10001000ED9
:10118000136E0001EF0E126E0001000E156E0001CD
:10119000CE0E146EE9EC12F00009D8B401D001D0E3
:1011A0009DD1DBC012F0DCC013F00001000E156E03
:1011B0000001920E146EF5C016F0F6C017F08CEC1C
:1011C00012F0DBC06EF0DCC06FF0F5C070F06CECBC
:1011D00016F084D183D1DBC012F0DCC013F0000123
:1011E000000E156E0001920E146EF1C016F024EC84
:1011F00010F00009D8B401D001D070D10001000175
:10120000DB05DC11D8A401D001D012D0DBC012F074
:10121000DCC013F00001000E156E0001920E146E7A
:10122000F1C016F096EC0FF0206EB2EC11F000D089
:10123000DBC06EF0DCC06FF0F1C070F06CEC16F04B
:101240004DD14CD100010001DB05DC11D8A401D047
:1012500001D020D0DBC012F0DCC013F00001000E82
:10126000156E0001920E146EF1C016F096EC0FF0A0
:1012700000010001BA6F00010001BA6701D001D07E
:101280002DD1BAC012F0F2C013F0D7EC13F026D172
:1012900025D100D000010001DB05DC11D8A401D06C
:1012A00001D01CD1DBC012F0DCC013F00001000E35
:1012B000156E0001920E146EF1C016F096EC0FF050
:1012C00000010001906F0001000E136E0001C10EBD
:1012D000126EDBC014F0DCC015F00001806F660EEA
:1012E000166E00018051AAEC16F00001000E146E7B
:1012F0000001C10E136E90C012F08EEC13F0156E4B
:1013000098EC14F00001000E406E0001C10E3F6E1B
:1013100036EC11F0E3D0E2D00001000E136E0001B4
:10132000EF0E126E91EC16F0010AD8B410D7030A32
:10133000D8B497D6010AD8B421D7070AD8B49ED614
:10134000010AD8B448D70D0AD8B47DD66D0AD8B4EE
:1013500079D7030AD8B49ED7C1D0C0D043EC16F0D9
:101360000009D8A401D001D0B9D00001806F000ECF
:10137000126E00018051D2EC14F00009D8B401D0F3
:1013800001D01DD00001806F000E126E000180514F
:101390000001816F010E136E00018151D7EC13F033
:1013A0000001806F020E126E000180510001816FFA
:1013B000010E136E00018151D7EC13F01CD0000117
:1013C000806F000E126E000180510001816F000ECF
:1013D000136E00018151D7EC13F00001806F020EF3
:1013E000126E000180510001816F000E136E00012A
:1013F0008151D7EC13F00001806F010E126E0001D5
:101400008051D2EC14F00009D8B401D001D01DD025
:101410000001806F010E126E000180510001816F8A
:10142000010E136E00018151D7EC13F00001806FA3
:10143000030E126E000180510001816F010E136EC8
:1014400000018151D7EC13F01CD00001806F010E18
:10145000126E000180510001816F000E136E0001B9
:101460008151D7EC13F00001806F030E126E000162
:1014700080510001816F000E136E00018151D7EC85
:1014800013F00001806F020E126E00018051D2EC49
:1014900014F00009D8B401D001D00FD00001806F42
:1014A000040E126E000180510001816F010E136E57
:1014B00000018151D7EC13F011D00001806F040EB0
:1014C000126E000180510001816F000E136E000149
:1014D0008151D7EC13F002D001D000D0040E0001EE
:1014E0000001EC6501D001D0D1D400010001EE056E
:1014F000D8A401D001D0CAD400010001ED2B050E03
:1015000000010001ED6501D001D003D03BEC17F0E4
:10151000BDD40001000E406E0001D20E3F6E36ECCD
:1015200011F032EC17F0B2D4B1D4B0D4AFD4AED401
:101530000CEF04F0236E000E4C6E235060AE01D011
:1015400001D017D0A49074AE01D001D008D021C032
:10155000D9FF22C0DAFF000EDB86749E00D060A0A7
:1015600002D04C8001D04C900F0E286E600E276E7A
:101570002FD00F010F0150AF01D001D025D0A49280
:1015800074AC01D001D008D021C0D9FF22C0DAFF4D
:10159000000EDB86749C00D00F010F015051070B29
:1015A0004C6E020E4C6001D001D007D021C0D9FF93
:1015B00022C0DAFF000EDB8E00D00F010F0E286E66
:1015C0000F01500E276E04D0000E88D087D000D0B7
:1015D00027C024F028C025F021C0D9FF22C0DAFF9F
:1015E000000EDF6E20EE05F02750D9262850DA22B3
:1015F000DF50296E29500F0B1FC0D9FF20C0DAFF22
:10160000DF6E29AC01D001D006D021C0D9FF22C0A5
:10161000DAFF000EDB8C20EE02F02750D92628508E
:10162000DA22DF50296E29A601D001D00BD021C0CB
:10163000D9FF22C0DAFF000EDB8A236E010E296E6D
:10164000235005D0236E000E296E235000D0010ECA
:101650002724126E000E2820136E1BC014F01CC02D
:1016600015F029C016F06FEC0BF0060E2726000EC1
:1016700028221FC0D9FF20C0DAFFDF50296E236E59
:10168000000E266E235010D027C0D9FF28C0DAFFE5
:101690001DC0E1FF1EC0E2FFDFCFE7FF274A282A77
:1016A0001D4A1E2A262A00D02950265CD8A001D027
:1016B00001D0EAD7A4AE01D001D008D021C0D9FF13
:1016C00022C0DAFF000EDB88A49E00D024C0D9FF20
:1016D00025C0DAFF7F0EDF16010E00D0120014C005
:1016E00019F015C01AF0166601D001D04AD012C008
:1016F000D9FF13C0DAFFDF50176ED8901736D89095
:101700001736D890173419C0D9FF1AC0DAFFDF6E28
:1017100020EE01F01950D9261A50DA2212C0E1FF4A
:1017200013C0E2FFE750176E050E186ED8901732FF
:10173000182EFCD71750DF6E124A132A12C0D9FF99
:1017400013C0DAFFDF50176E050E186ED8901732EF
:10175000182EFCD719C0D9FF1AC0DAFF1750DF12B4
:1017600020EE02F01950D9261A50DA22000EDF6E50
:1017700020EE03F01950D9261A50DA22000EDF6E3F
:101780006AD020EE02F01950D9261A50DA2212C07F
:10179000E1FF13C0E2FFE750176E050E186ED890F8
:1017A0001736182EFCD71750DF6E20EE03F01950B5
:1017B000D9261A50DA2212C0E1FF13C0E2FFE75027
:1017C000176ED8901732D8901732D8901730DF6E36
:1017D000124A132A12C0D9FF13C0DAFFDF50176E66
:1017E000030E171620EE02F01950D9261A50DA22ED
:1017F0001750DF1212C0D9FF13C0DAFFDF50176E87
:10180000D8901732D8901732D89017321C0E17166E
:1018100020EE02F01950D9261A50DA221750DF12A2
:10182000124A132A12C0D9FF13C0DAFF10EE01F0DA
:101830001950E1261A50E222DFCFE7FF124A132A9D
:1018400012C0D9FF13C0DAFF19C0E1FF1AC0E2FFCE
:10185000DFCFE7FF00D012000F010F0E276E0F0140
:10186000400E266E0F010F0E296E0F01300E286EEE
:101870000F010F0E2B6E0F01200E2A6E256E000E2B
:101880003C6E2550010E3C6401D001D002D099D0AD
:1018900098D03C50020D260EF324D96EDA6A000E61
:1018A000DA22DECF3DF0DDCF3EF03DC039F03EC064
:1018B0003AF03DC0D9FF3EC0DAFFDF50256E25B6B5
:1018C00001D001D077D03DC0D9FF3EC0DAFFFC0E79
:1018D000DF1624C025F0030E25163DC0D9FF3EC0FB
:1018E000DAFF2550DF1224AC01D001D004D0235000
:1018F00040093B6E03D023C03BF000D020EE05F042
:101900003D50D9263E50DA223BC0DFFF24AA01D049
:1019100001D005D0256E010E3B6E255005D0256EF9
:10192000000E3B6E255000D0010E3D24126E000EBD
:101930003E20136E1DC014F01EC015F01FC016F01F
:1019400020C017F03BC018F099EC0DF0060E3D26B4
:10195000000E3E22256E000E386E255010D021C09C
:10196000D9FF22C0DAFF3DC0E1FF3EC0E2FFDFCF7A
:10197000E7FF214A222A3D4A3E2A382A00D0235036
:10198000385CD8A001D001D0EAD700D039C0D9FF47
:101990003AC0DAFFDF50256E25B401D001D007D060
:1019A00039C0D9FF3AC0DAFF000EDB8600D0010E45
:1019B0000AD009D03C2A010E3C6401D001D069D77D
:1019C00000D0000E00D012000600EACF06F0E1CFF2
:1019D00007F0E2CF08F0D9CF09F0DACF0AF0F3CF61
:1019E0000BF0F4CF0CF0F6CF0DF0F7CF0EF0F8CFF0
:1019F0000FF0F5CF10F0F2A401D001D07DD000019E
:101A00000001EE05D8B401D001D006D04D04D8A411
:101A100001D001D013D000D0464A472A46500C0AC4
:101A20004710D8A401D001D009D0000E476E000E97
:101A3000466E00010001EC2B01D000D0026E000EBA
:101A4000116E02501150D8B401D001D002D052D042
:101A500051D01150020DF3CF02F0010E0226480EB4
:101A60000224D96EDA6A000EDA22DF50D8B401D02F
:101A700001D03AD01150020DF3CF02F0010E022630
:101A8000480E0224D96EDA6A000EDA22DF2A1150DB
:101A9000020DF3CF02F0010E0226480E0224D96E89
:101AA000DA6A000EDA22640EDF6401D001D01CD0A5
:101AB0001150020DF3CF02F0010E0226480E02244F
:101AC000D96EDA6A000EDA22000EDF6E1150020DB6
:101AD000480EF324D96EDA6A000EDA22DF50016E66
:101AE0001AEC16F001D000D0112A1150D8B401D050
:101AF00001D0AFD7F29400D010C0F5FF0FC0F8FFAF
:101B00000EC0F7FF0DC0F6FF0CC0F4FF0BC0F3FFD3
:101B10000AC0DAFF09C0D9FF08C0E2FF07C0E1FF31
:101B200006C0EAFF05C0E9FF04C0FBFF03C0FAFFDF
:101B30001100000E1C6E140E1B6E186601D001D031
:101B40003AD01BC0D9FF1CC0DAFFDF50196ED89005
:101B50001932D8901932D890193012C0D9FF13C059
:101B6000DAFFDF6E20EE01F01B50D9261C50DA227E
:101B7000DF50196E050E1A6ED89019361A2EFCD742
:101B800012C0D9FF13C0DAFF1950DF12124A132A0C
:101B90001BC0D9FF1CC0DAFFDF50196E050E1A6E8C
:101BA000D89019361A2EFCD7195012C0D9FF13C07D
:101BB000DAFFDF6E6FD020EE02F01B50D9261C50EA
:101BC000DA22DF50196E050E1A6ED89019321A2ECD
:101BD000FCD7195012C0D9FF13C0DAFFDF6E20EE18
:101BE00003F01B50D9261C50DA22DF50196ED89012
:101BF0001936D8901936D890193612C0D9FF13C0AB
:101C0000DAFF1950DF12124A132A20EE02F01B509D
:101C1000D9261C50DA22DF50196ED8901936D89088
:101C20001936D8901934E00B12C0D9FF13C0DAFF6F
:101C3000DF6E12C0D9FF13C0DAFF000EDB8620EE84
:101C400002F01B50D9261C50DA22DF50196E030E09
:101C5000191612C0D9FF13C0DAFF1950DF12124A49
:101C6000132A20EE01F01B50D9261C50DA2212C094
:101C7000E1FF13C0E2FFDFCFE7FF124A132A1BC0C8
:101C8000D9FF1CC0DAFF12C0E1FF13C0E2FFDFCFB3
:101C9000E7FF00D01200000E1C6E000E1B6E050E3A
:101CA0001B5C000E1C58D8A001D001D002D099D0E6
:101CB00098D0D8901B34146E0001DD0E1424D96E18
:101CC000DA6A0001000EDA221BC015F0D890153632
:101CD000D8901536D890153615501224166EE86A2D
:101CE00015BEE8681320176E16C0E1FF17C0E2FFAB
:101CF000DECFE6FFDDCFE5FF0001E70E1B24D96E46
:101D0000DA6A0001000EDA221BC014F0D8901436F3
:101D1000D8901436D890143614501224156EE86AF0
:101D200014BEE8681320166E020E1524E16E000E34
:101D30001620E26EDFCFE7FF000E1A6E000E196E5E
:101D400023D01BC014F0D8901436D8901436D890F5
:101D5000143619C015F0030E152615501224166EF0
:101D6000E86A15BEE8681320176E14501626E86A54
:101D700014BEE868172216C0D9FF17C0DAFF000E9C
:101D8000DF6E194A1A2A00D01BC014F0D8901436FE
:101D9000D8901436D890143614501224156EE86A70
:101DA00014BEE8681320166E020E1524D96E000EBC
:101DB0001620DA6EDF50176E186A1750195C18502B
:101DC0001A58D8A001D001D0BCD700D01B4A1C2A79
:101DD000050E1B5C000E1C58D8A001D001D069D79D
:101DE00000D01200000E1F6E000E1E6E050E1E5C4F
:101DF000000E1F58D8A001D001D002D094D093D0AB
:101E00001EC016F0D8901636D8901636D8901636D2
:101E100016501424176EE86A16BEE8681520186E6E
:101E200017C0D9FF18C0DAFFDE521350DD1812C0F8
:101E3000E8FFD8B4DF18D8A401D001D069D01EC003
:101E400016F0D8901636D8901636D890163616500A
:101E50001424176EE86A16BEE8681520186E020E84
:101E60001724D96E000E1820DA6EDF501B6E000E9C
:101E70001D6E000E1C6E27D01EC016F0D8901636B0
:101E8000D8901636D89016361CC017F0030E1726B9
:101E900017501424186EE86A17BEE8681520196EEA
:101EA00016501826E86A16BEE868192218C0D9FF2D
:101EB00019C0DAFFDF50D8B401D001D001D01B0621
:101EC0001C4A1D2A00D01EC016F0D8901636D89095
:101ED0001636D890163616501424176EE86A16BEB9
:101EE000E8681520186E020E1724D96E000E18200F
:101EF000DA6EDF50196E1A6A19501C5C1A501D58A0
:101F0000D8A001D001D0B8D700D01B500ED00DD032
:101F10001E4A1F2A050E1E5C000E1F58D8A001D0B5
:101F200001D06ED700D0000E00D01200000E1F6E40
:101F3000000E1E6E050E1E5C000E1F58D8A001D0AC
:101F400001D002D07ED07DD01EC017F0D8901736B9
:101F5000D8901736D890173617501424186EE86AA0
:101F600017BEE8681520196E18C0D9FF19C0DAFF2E
:101F7000DE521350DD1812C0E8FFD8B4DF18D8A421
:101F800001D001D053D0000E1D6E000E1C6E29D062
:101F90001EC017F0D8901736D8901736D89017363D
:101FA0001CC018F0030E182618501424196EE86A85
:101FB00018BEE86815201A6E17501926E86A17BE71
:101FC000E8681A2219C0D9FF1AC0DAFF1650DF627A
:101FD00001D001D003D01C5036D035D01C4A1D2A68
:101FE00000D01EC017F0D8901736D8901736D8906A
:101FF000173617501424186EE86A17BEE8681520C3
:10200000196E020E1824D96E000E1920DA6EDF50F8
:102010001A6E1B6A1A501C5C1B501D58D8A001D0A8
:1020200001D0B6D700D0FF0E0ED00DD01E4A1F2A09
:10203000050E1E5C000E1F58D8A001D001D084D719
:1020400000D0FF0E00D01200000E1F6E000E1E6E9C
:10205000050E1E5C000E1F58D8A001D001D002D082
:102060007ED07DD01EC017F0D8901736D890173686
:10207000D890173617501424186EE86A17BEE8680F
:102080001520196E18C0D9FF19C0DAFFDE5213509F
:10209000DD1812C0E8FFD8B4DF18D8A401D001D0F1
:1020A00053D0000E1D6E000E1C6E29D01EC017F0FE
:1020B000D8901736D8901736D89017361CC018F01D
:1020C000030E182618501424196EE86A18BEE86822
:1020D00015201A6E17501926E86A17BEE8681A22EA
:1020E00019C0D9FF1AC0DAFF1650DF6201D001D043
:1020F00003D0010E36D035D01C4A1D2A00D01EC098
:1021000017F0D8901736D8901736D8901736175042
:102110001424186EE86A17BEE8681520196E020EBE
:102120001824D96E000E1920DA6EDF501A6E1B6A61
:102130001A501C5C1B501D58D8A001D001D0B6D736
:1021400000D0000E0ED00DD01E4A1F2A050E1E5CB8
:10215000000E1F58D8A001D001D084D700D0000EA7
:1021600000D01200000E1E6E000E1D6E050E1D5CCE
:10217000000E1E58D8A001D001D002D076D075D064
:102180001DC016F0D8901636D8901636D890163650
:1021900016501224176EE86A16BEE8681320186EEF
:1021A00017C0D9FF18C0DAFFDE521550DD1814C071
:1021B000E8FFD8B4DF18D8A401D001D04BD0000E6E
:1021C0001C6E000E1B6E23D01DC016F0D890163664
:1021D000D8901636D89016361BC017F0030E172667
:1021E00017501224186EE86A17BEE8681320196E9B
:1021F00016501826E86A16BEE868192218C0D9FFDA
:1022000019C0DAFF000EDF6E1B4A1C2A00D01DC069
:1022100016F0D8901636D8901636D8901636165036
:102220001224176EE86A16BEE8681320186E020EB4
:102230001724D96E000E1820DA6EDF50196E1A6A54
:1022400019501B5C1A501C58D8A001D001D0BCD723
:102250000CD00BD01D4A1E2A050E1D5C000E1E5808
:10226000D8A001D001D08CD700D012003FC0D9FF38
:1022700040C0DAFFDF5000010001646F20EE01F082
:102280003F50D9264050DA22DF5000010001656F2F
:10229000000E000100016D6F000E00016C6F060E54
:1022A000000100016C5D000E00016D59D8A001D045
:1022B00001D002D036D035D06CC060F0020E0001E3
:1022C0006027000160513F240001616FE86A00014E
:1022D00060BFE86840200001626F61C0D9FF62C042
:1022E000DAFF6CC063F0020E000163270001640E88
:1022F00000016325E16EE26A0001000EE222DFCFF9
:10230000E7FF000100016C4B6D2B060E0001000180
:102310006C5D000E00016D59D8A001D001D0CCD762
:1023200000D0C80E1D6E000E1E6E000E1F6E000E39
:10233000206E0001000E226E0001640E216E20EE60
:1023400008F03F50D9264050DA22DF50020F236EAA
:102350000001606F000E246E000160512CEC0CF047
:1023600000D01200206601D001D072D0216E000E84
:10237000226E21502250D8B401D001D002D020D0FA
:102380001FD02250020D480EF324D96EDA6A000ED7
:10239000DA22FF0EDF6201D001D00BD02250020DF5
:1023A000480EF324D96EDA6A000EDA2220C0DFFF6D
:1023B00007D0222A2250D8B401D001D0E2D700D0D1
:1023C000216E000E236E21502350D8B401D001D0CD
:1023D00002D03ED03DD02350020D480EF324D96EDA
:1023E000DA6A000EDA222050DF6201D001D028D054
:1023F0002350020DF3CF21F0010E2126480E212497
:10240000D96EDA6A000EDA22DF50D8B401D001D0DA
:1024100003D01ED01DD014D02350020DF3CF21F0D5
:10242000010E2126480E2124D96EDA6A000EDA2226
:10243000DF2A20C012F0F1EC15F00AD009D000D04C
:10244000232A2350D8B401D001D0C5D701D000D061
:102450001200136E800E126E1350FEEC16F0430E37
:10246000706EBF0E716E870E726E200E736E779E49
:10247000779C200E606E200E0F010F01506F000E32
:102480000F010F01006F000E0F010F01016F000E11
:102490000F010F01046F000E0F010F01056F000EF9
:1024A0000F010F01086F000E0F010F01096F000EE1
:1024B0000F010F010C6F000E0F010F010D6F000EC9
:1024C0000F010F01106F000E0F010F01116F000EB1
:1024D0000F010F01146F000E0F010F01156F000E99
:1024E0000F010F01186F000E0F010F01196F0F017F
:1024F0000F011997000E0F010F011C6F000E0F0145
:102500000F011D6F0F010F011D97136E000E126E4C
:102510001350FEEC16F01200000E1D6E000E1C6E25
:10252000050E1C5C000E1D58D8A001D001D002D0B1
:102530004FD04ED01CC018F0D8901836D89018360E
:10254000D890183618501424196EE86A18BEE86836
:1025500015201A6E19C0D9FF1AC0DAFFDE521350C7
:10256000DD1812C0E8FFD8B4DF18D8A401D001D01C
:1025700024D01CC018F0D8901836D8901836D890AF
:1025800018361750010DF3CF19F0030E1926195004
:1025900014241A6EE86A19BEE86815201B6E1850DC
:1025A0001A26E86A18BEE8681B221AC0D9FF1BC0A9
:1025B000DAFF16C0DFFF0CD00BD01C4A1D2A050E17
:1025C0001C5C000E1D58D8A001D001D0B3D700D09C
:1025D000120020EE08F01250D9261350DA22050E10
:1025E000DF6401D001D046D020EE02F01250D9268F
:1025F0001350DA22DF5014C0D9FF15C0DAFFDF62B2
:1026000001D001D037D020EE01F01450D92615505A
:10261000DA2210EE03F01250E1261350E222E750C6
:10262000DF6201D001D026D020EE02F01450D9266E
:102630001550DA2210EE04F01250E1261350E22277
:10264000E750DF6201D001D015D020EE03F0145026
:10265000D9261550DA2210EE05F01250E12613505B
:10266000E222E750DF6201D001D004D0010E04D095
:1026700003D000D0000E00D01200146E800E126E37
:102680001450FEEC16F0146E000E156E145024D08B
:10269000146E000E156E145036D0146E010E156EA9
:1026A000145031D0146E030E156E14502CD0146ECD
:1026B000070E156E145027D0146E0F0E156E1450A1
:1026C00022D0146E1F0E156E14501DD0146E3F0EC6
:1026D000156E145018D017D01350010AD8B4D8D79B
:1026E000030AD8B4DAD7010AD8B4DCD7070AD8B4B9
:1026F000DED7010AD8B4E0D7030AD8B4E2D7010A7A
:10270000D8B4E4D700D0C00E701615507012146EF5
:10271000000E126E1450FEEC16F01200126601D07C
:1027200001D042D02FD02ED080B001D002D0010EE7
:1027300001D0000E3BD03AD037D080B201D002D0C9
:10274000010E01D0000E32D031D02ED080B801D091
:1027500002D0010E01D0000E29D028D025D080BA99
:1027600001D002D0010E01D0000E20D01FD01CD00D
:1027700081BC01D002D0010E01D0000E17D016D0BE
:1027800013D012D01250000AD8B4CED7010AD8B450
:10279000D4D7030AD8B4DAD7010AD8B4E0D7070AE5
:1027A000D8B4E6D701D000D0000E00D012001266D7
:1027B00001D001D043D01350D8B401D001D02BD0D8
:1027C0000CD00BD089803AD0898238D0898836D015
:1027D000898A34D08A8C32D031D01250000AD8B4D1
:1027E000F1D7010AD8B4F0D7030AD8B4EFD7010A59
:1027F000D8B4EED7070AD8B4EDD720D01FD00BD06D
:1028000089901CD089921AD0899818D0899A16D0AC
:102810008A9C14D013D01250000AD8B4F1D7010A00
:10282000D8B4F0D7030AD8B4EFD7010AD8B4EED79A
:10283000070AD8B4EDD702D001D000D012008980A9
:10284000C80E126E000E136E000E146E000E156E82
:102850005CEC14F089908982C80E126E000E136E23
:10286000000E146E000E156E5CEC14F089928988CF
:10287000C80E126E000E136E000E146E000E156E52
:102880005CEC14F08998898AC80E126E000E136EE3
:10289000000E146E000E156E5CEC14F0899A8A8C92
:1028A000C80E126E000E136E000E146E000E156E22
:1028B0005CEC14F08A9C1200000E166E000E176E6F
:1028C000000E186E000E196E25D0000E1B6E000E45
:1028D0001A6E1B50800A7E0F6C0ED8B41A5CD8A0FA
:1028E00001D001D002D00ED00DD01A4A1B2A1B50A5
:1028F000800A7E0F6C0ED8B41A5CD8A001D001D02B
:10290000F4D700D0010E1626000E1722000E182252
:10291000000E19221250165C1350175814501858F4
:1029200015501958D8A001D001D0CFD700D012002F
:1029300020EE08F01350D9261450DA22DF50166E1C
:10294000060E165CD8B001D001D02BD020EE08F0D6
:102950001350D9261450DA22DF50010DF3CF16F0B0
:10296000020E162616501324176EE86A16BEE86883
:102970001420186E17C0D9FF18C0DAFF15C0DFFF8A
:1029800020EE08F01350D9261450DA2210EE08F089
:102990001350E1261450E222E750166E1628DF6E1F
:1029A00000D0120035D025D080B401D002D0010E65
:1029B00001D0000E2FD02ED02BD080B601D002D067
:1029C000010E01D0000E26D025D022D081BE01D02C
:1029D00002D0010E01D0000E1DD01CD019D080BE37
:1029E00001D002D0010E01D0000E14D013D010D0AF
:1029F0000FD01250000AD8B4D7D7010AD8B4DDD707
:102A0000030AD8B4E3D7010AD8B4E9D701D000D07B
:102A1000000E00D01200000E136E000E126E29EC94
:102A200017F014C0D9FF15C0DAFFDF6E20EE01F0F9
:102A30001450D9261550DA22000E136E010E126EB4
:102A400029EC17F0DF6E20EE02F01450D926155055
:102A5000DA22000E136E020E126E29EC17F0DF6EF2
:102A600020EE03F01450D9261550DA22000E136E12
:102A7000030E126E29EC17F0DF6E120001EE00F06B
:102A8000180EEE6AE806FDE100EEECF00F0EEE6ABD
:102A9000E806FDE100EE41F00D0EEE6AE806FDE10C
:102AA000880EF66E2E0EF76E000EF86E00EEDDF05C
:102AB00010EE0FF00900F5CFEEFFE550E150FAE11E
:102AC000A60EF66E2E0EF76E000EF86E0900F5CF0C
:102AD0004EF0000EF86E0D0EF76E000195EF06F049
:102AE0000F010F0E186E0F01000E176E1250040D1D
:102AF000F3501726000E182213C015F014C016F05C
:102B0000D89016321532D89016321532D890163227
:102B10001532155017C0D9FF18C0DAFFDF6E133811
:102B2000E846E00BE00B174A182A17C0D9FF18C077
:102B3000DAFFDF6E12000F010F0E186E0F01180E74
:102B4000176E1250040DF3501726000E182213C0F2
:102B500015F014C016F0D89016321532D8901632EF
:102B60001532D89016321532155017C0D9FF18C03B
:102B7000DAFFDF6E1338E846E00BE00B174A182A3D
:102B800017C0D9FF18C0DAFFDF6E1200126E000EF8
:102B9000136E12501350D8B401D001D002D020D0FF
:102BA0001FD01350020D480EF324D96EDA6A000EBE
:102BB000DA22FF0EDF6E1350020DF3CF12F0010E7A
:102BC0001226480E1224D96EDA6A000EDA22000E9E
:102BD000DF6E132A1350D8B401D001D0E2D700D051
:102BE0001200126601D001D024D011D010D0010EF5
:102BF000891A1FD0020E891A1CD0100E891A19D0FA
:102C0000200E891A16D0400E8A1A13D012D01250F4
:102C1000000AD8B4ECD7010AD8B4ECD7030AD8B468
:102C2000ECD7010AD8B4ECD7070AD8B4ECD701D056
:102C300000D01200016601D001D024D011D010D0F4
:102C4000010E891A1FD0020E891A1CD0100E891A83
:102C500019D0200E891A16D0400E8A1A13D012D01D
:102C60000150000AD8B4ECD7010AD8B4ECD7030A53
:102C7000D8B4ECD7010AD8B4ECD7070AD8B4ECD74B
:102C800001D000D01200424A432A470E425C000E97
:102C90004358D8A001D001D007D0000E436E000EDB
:102CA000426E444A452A00D0E90E445C030E455862
:102CB000D8A001D001D00DD0126E000E416E12507E
:102CC000000E456E000E446E44C042F045C043F015
:102CD00000D0415000D012000001000E136E000120
:102CE000720E126E6EC014F06FC015F00001716F9D
:102CF000010E166E00017151AAEC16F00001000ED3
:102D0000146E0001720E136E70C015F098EC14F082
:102D10000001000E406E0001720E3F6E36EC11F0A5
:102D2000120020EE08F01250D9261350DA22010EBC
:102D3000DF6401D001D00AD020EE01F01250D92674
:102D40001350DA22DF5005D004D003D0000E01D09A
:102D500000D0120020EE01F01250D9261350DA22D2
:102D600016C0DFFF12C0D9FF13C0DAFF14C0DFFFA7
:102D700020EE08F01250D9261350DA22000EDF6E32
:102D8000120020EE08F01250D9261350DA22DF503C
:102D9000D8B401D001D008D012C0D9FF13C0DAFFD7
:102DA000DF5005D004D003D0000E01D000D01200B7
:102DB0001350AA6E12C0A9FF14C0A8FF040EA66E7D
:102DC000550EA76EAA0EA76EA68200D0A6B201D09D
:102DD00001D0FCD700D01200C180C182C184C1865D
:102DE000CC0E92168C0E9212CC0E8916CC0E80163A
:102DF000939C938E8A9C1FEC14F012001F0E6F168A
:102E000012506F1201D000D06F50E00B1218D8A4EE
:102E100001D001D0F9D700D0120014C012F015C0B3
:102E200013F0C1EC16F0C80AD8B401D002D0010EDC
:102E300001D0000E00D01200126E010E416E125031
:102E4000000E456E000E446E44C042F045C043F093
:102E500012001350AA6E12C0A9FF010EA66EA85050
:102E600000D01200010E00010001EE6F000E000103
:102E70000001EC6F1200000E00010001EE6F000E69
:102E800000010001EC6F12000100000000000000D2
:102E90000000010000000000000E4D6E000E000159
:082EA0000001EC6F12000100BB
:020000040030CA
:0600010006001E00800055
:00000001FF
