:040000000CEF00F011
:10000800FACF03F0FBCF04F0E9CF05F05BED08F081
:1000180095EF12F000017F6F000E000100018E6F56
:1000280000017F51000E00010001826F000E0001E7
:10003800836F000E0001846F000E0001856FD38866
:10004800D38AD38C9B8C000E206EC20E216E010EBB
:10005800226E000E236E39EC11F0FF0E226EF60EA2
:10006800216EDFEC12F0F29CF28ED59CD59AD586E3
:10007800A3EC13F0BCEC13F00001000E156E0001A8
:10008800D70E146E06EC11F0000E00010001DC6FB3
:10009800000E0001DB6F00017F6F000E0001000100
:1000A8008F6F00017F51A0EC0DF054EC13F00001AC
:1000B8007F6F030E136E00017F51B4EC0EF0000148
:1000C800000E136E0001900E126EC2EC09F00001D2
:1000D8007F6F000E126E00017F51000E146EFF0E2E
:1000E800136EC4EC11F000017F6F010E126E000157
:1000F8007F51DDC013F0DEC014F0C4EC11F0000134
:100108007F6F020E126E00017F51DFC013F0E0C056
:1001180014F0C4EC11F000017F6F030E126E0001A1
:100128007F51E1C013F0E2C014F0C4EC11F00001FB
:100138007F6F040E126E00017F51E3C013F0E4C01C
:1001480014F0C4EC11F000017F6F050E126E00016F
:100158007F51E5C013F0E6C014F0C4EC11F00001C3
:100168007F6F000E126E00017F51030E146EFF0E9A
:10017800136E99EC11F000017F6F010E126E0001F1
:100188007F51030E146EFF0E136E99EC11F0EFEC15
:1001980011F0F28A00D00001000E1C6E0001CA0E98
:1001A8001B6E0001000E1E6E0001860E1D6E000102
:1001B800000E206E0001BF0E1F6E0001000E226EA1
:1001C8000001C00E216E11EC06F00009D8B401D070
:1001D80001D022D384EC13F0000E00010001BC6FA3
:1001E800000E0001BB6F1BD00001860E000100014C
:1001F800BB25D96EDA6A0001000EDA220001F00E82
:1002080000010001BB25E16EE26A0001000EE22256
:10021800DFCFE7FF00010001BB4BBC2B00D0000182
:100228000001BF5100017F6F806B00010001BC51CC
:10023800800A0001816F7F5100010001BB5D000150
:100248008051800A00018159D8A001D001D0CCD7B3
:10025800C0C0FBF0CAC0F9F0CBC0FAF0BFC0F8F0DC
:10026800FF0E226E850E216EDFEC12F0CAC021F05F
:10027800CBC022F0ECC023F004EC05F0FF0E226E98
:10028800EE0E216EDFEC12F000017F6F000E000110
:100298000001BA6F00017F511BD000010001BA5163
:1002A800010D0001860EF324D96EDA6A0001000EF2
:1002B800DA22DF5000017F6F00017F51216E226A30
:1002C800ECC023F004EC05F000010001BA2B00D0CB
:1002D80000010001BF5100010001BA5DD8A001D0A2
:1002E80001D0DBD700D0FF0E226EE50E216EDFECC9
:1002F80012F00001C0C021F0226AECC023F004EC27
:1003080005F0FF0E226EFC0E216EDFEC12F00001EC
:100318000001CA29CB11CC11CD11D8A401D001D02C
:1003280009D00001000E156E0001F00E146E75EC78
:1003380013F000D00001000E156E0001F00E146ECF
:1003480075EC13F00009D8B401D001D043D2000EE7
:1003580000010001BE6F000E0001BD6F050E000117
:100368000001BD5D000E0001BE59D8A001D001D02A
:1003780002D030D22FD20001D8900001BD35000143
:100388007F6F0001DD0E00017F25D96EDA6A00015A
:10039800000EDA22000110EEF9F0E652DE52DD50CE
:1003A800E518DFCFE8FFD8B4E718D8A401D001D00A
:1003B80014D00001E70E00010001BD25D96EDA6AEC
:1003C8000001000EDA22DF50D8B401D001D005D0E8
:1003D800F9C0DBF0FAC0DCF000D000010001BD4B31
:1003E800BE2B050E00010001BD5D000E0001BE59C7
:1003F800D8A001D001D0BFD7EDD1ECD1EBD1FF0E01
:10040800136EFF0E126E00017F6FFF0E146E000157
:100418007F5140EC13F0FF00BFD20001000E136EB5
:100428000001900E126EDBC014F0DCC015F029EC50
:100438000CF0FF0E226E3E0E216EDFEC12F0DBC0D8
:1004480021F0DCC022F000017F6F000E236E000156
:100458007F5104EC05F0A0D2FF0E226EC50E216E6E
:10046800DFEC12F0DBC012F0DCC013F00001000E6C
:10047800156E0001900E146E69EC0AF0000100017F
:100488008F6F00018F51D8B401D001D085D20001FF
:10049800000E136E0001CE0E126EDBC014F0DCC02D
:1004A80015F000017F6F040E166E00017F5129ECD4
:1004B80013F00001000E146E0001CE0E136ED7C0AB
:1004C80015F05DEC10F00001000E146E0001CE0E68
:1004D800136ED8C015F05DEC10F00001000E146E1C
:1004E8000001CE0E136ED9C015F05DEC10F00001BE
:1004F800000E146E0001CE0E136EDAC015F05DEC1E
:1005080010F00001000E146E0001CE0E136E8FC0A5
:1005180015F05DEC10F00001000E406E0001CE0EEB
:100528003F6EADEC0CF0FF0E226E200E216EDFEC5C
:1005380012F00001D7C021F0226AECC023F004ECCD
:1005480005F00001D8C021F0226AECC023F004ECC9
:1005580005F00001D9C021F0226AECC023F004ECB8
:1005680005F00001DAC021F0226AECC023F004ECA7
:1005780005F09AEC13F0000E00010001EE6F0CD2AA
:100588000BD2FF0E226E990E216EDFEC12F00001E5
:10059800000E136E0001F00E126E0001000E156EB3
:1005A8000001D70E146E60EC0EF00009D8B401D02B
:1005B80001D0F2D1FF0E226E6E0E216EDFEC12F02A
:1005C800A3EC13F0E9D1E8D1FF0E226EAB0E216E39
:1005D800DFEC12F00001000E136E0001F00E126E37
:1005E8000001000E156E0001D70E146E60EC0EF0BF
:1005F8000009D8B401D001D0CFD1FE0E226EFE0E74
:10060800216EDFEC12F00001F6C021F0226AECC086
:1006180023F004EC05F0DBC012F0DCC013F000019D
:10062800000E156E0001900E146EF6C016F0F7C09D
:1006380017F003EC0EF0DBC06EF0DCC06FF0F6C014
:1006480070F0BCEC12F0A8D1A7D1FF0E226ED00E2C
:10065800216EDFEC12F0DBC012F0DCC013F00001F9
:10066800000E156E0001900E146EF2C016F09BEC91
:100678000BF00009D8B401D001D08ED100010001DF
:10068800DB05DC11D8A401D001D012D0DBC012F0F8
:10069800DCC013F00001000E156E0001900E146E00
:1006A800F2C016F00DEC0BF0206E29EC0DF000D026
:1006B800DBC06EF0DCC06FF0F2C070F0BCEC12F082
:1006C800FF0E226EB90E216EDFEC12F065D164D1F7
:1006D80000010001DB05DC11D8A401D001D026D02F
:1006E800FF0E226EDB0E216EDFEC12F0DBC012F083
:1006F800DCC013F00001000E156E0001900E146EA0
:10070800F2C016F00DEC0BF000010001B86F00010B
:100718000001B86701D001D03FD1B8C012F0F3C0D2
:1007280013F09CEC0FF038D137D100D00001000154
:10073800DB05DC11D8A401D001D02ED1FF0E226E2A
:10074800570E216EDFEC12F0DBC012F0DCC013F0A4
:100758000001000E156E0001900E146EF2C016F026
:100768000DEC0BF000010001B96F0001B9C021F0D8
:10077800226A00017F6F000E236E00017F5104EC96
:1007880005F00001000E136E0001C10E126EDBC0F1
:1007980014F0DCC015F000017F6F660E166E0001C4
:1007A8007F5129EC13F00001000E146E0001C10EF8
:1007B800136EB9C012F053EC0FF0156E5DEC10F02B
:1007C8000001000E406E0001C10E3F6EADEC0CF052
:1007D800E3D0E2D00001000E136E0001F00E126E9D
:1007E800F9EC12F0010AD8B4CCD6030AD8B415D65D
:1007F800010AD8B4E9D6070AD8B42ED6010AD8B463
:1008080024D70D0AD8B4FBD56D0AD8B461D7030A2A
:10081800D8B48CD7C1D0C0D043EC12F00009D8A40A
:1008280001D001D0B9D000017F6F000E126E000117
:100838007F5197EC10F00009D8B401D001D01DD039
:1008480000017F6F000E126E00017F510001806F62
:10085800010E136E000180519CEC0FF000017F6FB8
:10086800020E126E00017F510001806F010E136E9F
:10087800000180519CEC0FF01CD000017F6F000E2E
:10088800126E00017F510001806F000E136E00018F
:1008980080519CEC0FF000017F6F020E126E000178
:1008A8007F510001806F000E136E000180519CEC97
:1008B8000FF000017F6F010E126E00017F5197EC5F
:1008C80010F00009D8B401D001D01DD000017F6F0D
:1008D800010E126E00017F510001806F010E136E30
:1008E800000180519CEC0FF000017F6F030E126E27
:1008F80000017F510001806F010E136E00018051CD
:100908009CEC0FF01CD000017F6F010E126E0001ED
:100918007F510001806F000E136E000180519CEC26
:100928000FF000017F6F030E126E00017F5100016E
:10093800806F000E136E000180519CEC0FF00001D7
:100948007F6F020E126E00017F5197EC10F00009C4
:10095800D8B401D001D00FD000017F6F040E126E01
:1009680000017F510001806F010E136E000180515C
:100978009CEC0FF011D000017F6F040E126E000185
:100988007F510001806F000E136E000180519CECB6
:100998000FF002D001D000D0040E00010001ED6577
:1009A80001D002D0CFEF00F000010001EF05D8A47C
:1009B80001D002D0CFEF00F000010001EE2B050EB0
:1009C80000010001EE6501D001D004D0A3EC13F0C2
:1009D800CFEF00F00001000E406E0001CE0E3F6E1A
:1009E800ADEC0CF09AEC13F0CFEF00F0CFEF00F085
:1009F800CFEF00F0CFEF00F0CFEF00F00CEF00F0FA
:100A08002350D8B401D001D0A0D0000E215C010E33
:100A18002258D8A001D001D024D022C024F024C06C
:100A280025F0266A0A0E255C000E2658D8B001D09B
:100A380001D009D022C024F0300E2424276E286A61
:100A4800000E282209D022C024F0370E2424276E55
:100A5800286A000E282200D027C020F0ACEC13F042
:100A680000D021C024F022C025F0040E266ED890B4
:100A780025322432262EFBD70F0E2416000E2516FB
:100A88000A0E245C000E2558D8B001D001D016D02B
:100A980021C024F022C025F0040E266ED8902532FD
:100AA8002432262EFBD70F0E2416000E2516300EE4
:100AB8002424296E000E25202A6E16D021C024F089
:100AC80022C025F0040E266ED89025322432262E18
:100AD800FBD70F0E2416000E2516370E2424296E78
:100AE800000E25202A6E00D029C020F0ACEC13F0AF
:100AF8000F0E2114246E000E2214256E0A0E245C9B
:100B0800000E2558D8B001D001D00DD00F0E2114F9
:100B1800246E000E2214256E300E24242B6E000E37
:100B280025202C6E0DD00F0E2114246E000E2214D9
:100B3800256E370E24242B6E000E25202C6E00D037
:100B48002BC020F0ACEC13F061D021C012F022C011
:100B580013F0030E156EE80E146ED0EC10F013505F
:100B68001210D8B401D001D00FD021C012F022C089
:100B780013F0030E156EE80E146ED0EC10F0125040
:100B8800300F206EACEC13F0000E156E640E146E70
:100B980021C012F022C013F0D0EC10F012C01AF0ED
:100BA80013C01BF0000E1D6E0A0E1C6E6BEC11F0CC
:100BB8001A50300F206EACEC13F0000E156E0A0EB2
:100BC800146E21C012F022C013F0D0EC10F012C045
:100BD8001AF013C01BF0000E1D6E0A0E1C6E6BEC93
:100BE80011F01A50300F206EACEC13F021C01AF03F
:100BF80022C01BF0000E1D6E0A0E1C6E6BEC11F06D
:100C08001A50300F206EACEC13F000D0246E200E7A
:100C1800206E2450ACEC13F01200236E000E4D6EC3
:100C2800235060AE01D001D017D0A49074AE01D08B
:100C380001D008D021C0D9FF22C0DAFF000EDB8620
:100C4800749E00D060A002D04D8001D04D900F0E50
:100C5800286E600E276E2FD00F010F0150AF01D004
:100C680001D025D0A49274AC01D001D008D021C005
:100C7800D9FF22C0DAFF000EDB86749C00D00F017A
:100C88000F015051070B4D6E020E4D6001D001D07F
:100C980007D021C0D9FF22C0DAFF000EDB8E00D0BA
:100CA8000F010F0E286E0F01500E276E04D0000E94
:100CB80088D087D000D027C024F028C025F021C0D4
:100CC800D9FF22C0DAFF000EDF6E20EE05F02750B4
:100CD800D9262850DA22DF50296E29500F0B1FC061
:100CE800D9FF20C0DAFFDF6E29AC01D001D006D0D1
:100CF80021C0D9FF22C0DAFF000EDB8C20EE02F003
:100D08002750D9262850DA22DF50296E29A601D08B
:100D180001D00BD021C0D9FF22C0DAFF000EDB8A38
:100D2800236E010E296E235005D0236E000E296E06
:100D3800235000D0010E2724126E000E2820136EB7
:100D48001BC014F01CC015F029C016F0E6EC06F024
:100D5800060E2726000E28221FC0D9FF20C0DAFF62
:100D6800DF50296E236E000E266E235010D027C048
:100D7800D9FF28C0DAFF1DC0E1FF1EC0E2FFDFCFA8
:100D8800E7FF274A282A1D4A1E2A262A00D029506A
:100D9800265CD8A001D001D0EAD7A4AE01D001D0FA
:100DA80008D021C0D9FF22C0DAFF000EDB88A49E3C
:100DB80000D024C0D9FF25C0DAFF7F0EDF16010E50
:100DC80000D0120014C019F015C01AF0166601D030
:100DD80001D04AD012C0D9FF13C0DAFFDF50176E16
:100DE800D8901736D8901736D890173419C0D9FF2D
:100DF8001AC0DAFFDF6E20EE01F01950D9261A501A
:100E0800DA2212C0E1FF13C0E2FFE750176E050EA9
:100E1800186ED8901732182EFCD71750DF6E124A6A
:100E2800132A12C0D9FF13C0DAFFDF50176E050E60
:100E3800186ED8901732182EFCD719C0D9FF1AC0CF
:100E4800DAFF1750DF1220EE02F01950D9261A5097
:100E5800DA22000EDF6E20EE03F01950D9261A5060
:100E6800DA22000EDF6E6AD020EE02F01950D92681
:100E78001A50DA2212C0E1FF13C0E2FFE750176EE2
:100E8800050E186ED8901736182EFCD71750DF6E3F
:100E980020EE03F01950D9261A50DA2212C0E1FFC9
:100EA80013C0E2FFE750176ED8901732D890173268
:100EB800D8901730DF6E124A132A12C0D9FF13C018
:100EC800DAFFDF50176E030E171620EE02F01950E6
:100ED800D9261A50DA221750DF1212C0D9FF13C0D0
:100EE800DAFFDF50176ED8901732D8901732D890A3
:100EF80017321C0E171620EE02F01950D9261A5078
:100F0800DA221750DF12124A132A12C0D9FF13C06F
:100F1800DAFF10EE01F01950E1261A50E222DFCF75
:100F2800E7FF124A132A12C0D9FF13C0DAFF19C00B
:100F3800E1FF1AC0E2FFDFCFE7FF00D012000F0188
:100F48000F0E276E0F01400E266E0F010F0E296E31
:100F58000F01300E286E0F010F0E2B6E0F01200EA1
:100F68002A6E256E000E3C6E2550010E3C6401D0A1
:100F780001D002D099D098D03C50020D260EF3240F
:100F8800D96EDA6A000EDA22DECF3DF0DDCF3EF010
:100F98003DC039F03EC03AF03DC0D9FF3EC0DAFF4F
:100FA800DF50256E25B601D001D077D03DC0D9FFDE
:100FB8003EC0DAFFFC0EDF1624C025F0030E25160E
:100FC8003DC0D9FF3EC0DAFF2550DF1224AC01D066
:100FD80001D004D0235040093B6E03D023C03BF01E
:100FE80000D020EE05F03D50D9263E50DA223BC015
:100FF800DFFF24AA01D001D005D0256E010E3B6E7B
:10100800255005D0256E000E3B6E255000D0010EF0
:101018003D24126E000E3E20136E1DC014F01EC03B
:1010280015F01FC016F020C017F03BC018F010ECE8
:1010380009F0060E3D26000E3E22256E000E386E83
:10104800255010D021C0D9FF22C0DAFF3DC0E1FFF2
:101058003EC0E2FFDFCFE7FF214A222A3D4A3E2A6F
:10106800382A00D02350385CD8A001D001D0EAD764
:1010780000D039C0D9FF3AC0DAFFDF50256E25B459
:1010880001D001D007D039C0D9FF3AC0DAFF000E2D
:10109800DB8600D0010E0AD009D03C2A010E3C6440
:1010A80001D001D069D700D0000E00D01200060090
:1010B800EACF06F0E1CF07F0E2CF08F0D9CF09F088
:1010C800DACF0AF0F3CF0BF0F4CF0CF0F6CF0DF037
:1010D800F7CF0EF0F8CF0FF0F5CF10F0F2A401D053
:1010E80001D07DD000010001EF05D8B401D001D0B6
:1010F80006D04E04D8A401D001D013D000D0474A5E
:10110800482A47500C0A4810D8A401D001D009D069
:10111800000E486E000E476E00010001ED2B01D055
:1011280000D0026E000E116E02501150D8B401D0DA
:1011380001D002D052D051D01150020DF3CF02F09D
:10114800010E0226490E0224D96EDA6A000EDA224E
:10115800DF50D8B401D001D03AD01150020DF3CFEE
:1011680002F0010E0226490E0224D96EDA6A000E38
:10117800DA22DF2A1150020DF3CF02F0010E022607
:10118800490E0224D96EDA6A000EDA22640EDF6490
:1011980001D001D01CD01150020DF3CF02F0010E86
:1011A8000226490E0224D96EDA6A000EDA22000EEF
:1011B800DF6E1150020D490EF324D96EDA6A000E63
:1011C800DA22DF50016E6CEC12F001D000D0112A47
:1011D8001150D8B401D001D0AFD7F29400D010C0CC
:1011E800F5FF0FC0F8FF0EC0F7FF0DC0F6FF0CC0EB
:1011F800F4FF0BC0F3FF0AC0DAFF09C0D9FF08C02B
:10120800E2FF07C0E1FF06C0EAFF05C0E9FF04C02E
:10121800FBFF03C0FAFF1100000E1C6E140E1B6EBC
:10122800186601D001D03AD01BC0D9FF1CC0DAFF24
:10123800DF50196ED8901932D8901932D8901930D9
:1012480012C0D9FF13C0DAFFDF6E20EE01F01B5089
:10125800D9261C50DA22DF50196E050E1A6ED89066
:1012680019361A2EFCD712C0D9FF13C0DAFF19504D
:10127800DF12124A132A1BC0D9FF1CC0DAFFDF5045
:10128800196E050E1A6ED89019361A2EFCD71950F9
:1012980012C0D9FF13C0DAFFDF6E6FD020EE02F064
:1012A8001B50D9261C50DA22DF50196E050E1A6E13
:1012B800D89019321A2EFCD7195012C0D9FF13C072
:1012C800DAFFDF6E20EE03F01B50D9261C50DA221D
:1012D800DF50196ED8901936D8901936D89019362B
:1012E80012C0D9FF13C0DAFF1950DF12124A132AAD
:1012F80020EE02F01B50D9261C50DA22DF50196E5E
:10130800D8901936D8901936D8901934E00B12C0F5
:10131800D9FF13C0DAFFDF6E12C0D9FF13C0DAFF9E
:10132800000EDB8620EE02F01B50D9261C50DA2274
:10133800DF50196E030E191612C0D9FF13C0DAFF59
:101348001950DF12124A132A20EE01F01B50D92639
:101358001C50DA2212C0E1FF13C0E2FFDFCFE7FF23
:10136800124A132A1BC0D9FF1CC0DAFF12C0E1FFC2
:1013780013C0E2FFDFCFE7FF00D01200000E1C6EA3
:10138800000E1B6E050E1B5C000E1C58D8A001D069
:1013980001D002D099D098D0D8901B34146E000197
:1013A800DD0E1424D96EDA6A0001000EDA221BC0A1
:1013B80015F0D8901536D8901536D89015361550A2
:1013C8001224166EE86A15BEE8681320176E16C058
:1013D800E1FF17C0E2FFDECFE6FFDDCFE5FF00014A
:1013E800E70E1B24D96EDA6A0001000EDA221BC050
:1013F80014F0D8901436D8901436D8901436145067
:101408001224156EE86A14BEE8681320166E020EE0
:101418001524E16E000E1620E26EDFCFE7FF000E06
:101428001A6E000E196E23D01BC014F0D890143613
:10143800D8901436D890143619C015F0030E152616
:1014480015501224166EE86A15BEE8681320176E48
:1014580014501626E86A14BEE868172216C0D9FF89
:1014680017C0DAFF000EDF6E194A1A2A00D01BC017
:1014780014F0D8901436D8901436D89014361450E6
:101488001224156EE86A14BEE8681320166E020E60
:101498001524D96E000E1620DA6EDF50176E186A02
:1014A8001750195C18501A58D8A001D001D0BCD7D1
:1014B80000D01B4A1C2A050E1B5C000E1C58D8A025
:1014C80001D001D069D700D01200000E1F6E000EA7
:1014D8001E6E050E1E5C000E1F58D8A001D001D04C
:1014E80002D094D093D01EC016F0D8901636D8905B
:1014F8001636D890163616501424176EE86A16BE9B
:10150800E8681520186E17C0D9FF18C0DAFFDE5238
:101518001350DD1812C0E8FFD8B4DF18D8A401D0E2
:1015280001D069D01EC016F0D8901636D89016365D
:10153800D890163616501424176EE86A16BEE86856
:101548001520186E020E1724D96E000E1820DA6EB8
:10155800DF501B6E000E1D6E000E1C6E27D01EC0C5
:1015680016F0D8901636D8901636D89016361CC075
:1015780017F0030E172617501424186EE86A17BEC2
:10158800E8681520196E16501826E86A16BEE8682D
:10159800192218C0D9FF19C0DAFFDF50D8B401D01A
:1015A80001D001D01B061C4A1D2A00D01EC016F00F
:1015B800D8901636D8901636D89016361650142469
:1015C800176EE86A16BEE8681520186E020E172412
:1015D800D96E000E1820DA6EDF50196E1A6A19508B
:1015E8001C5C1A501D58D8A001D001D0B8D700D023
:1015F8001B500ED00DD01E4A1F2A050E1E5C000E71
:101608001F58D8A001D001D06ED700D0000E00D04E
:101618001200000E1F6E000E1E6E050E1E5C000EE0
:101628001F58D8A001D001D002D07ED07DD01EC0D6
:1016380017F0D8901736D8901736D8901736175015
:101648001424186EE86A17BEE8681520196E18C0C9
:10165800D9FF19C0DAFFDE521350DD1812C0E8FFB7
:10166800D8B4DF18D8A401D001D053D0000E1D6E15
:10167800000E1C6E29D01EC017F0D8901736D890CF
:101688001736D89017361CC018F0030E18261850B5
:101698001424196EE86A18BEE86815201A6E1750E7
:1016A8001926E86A17BEE8681A2219C0D9FF1AC0B5
:1016B800DAFF1650DF6201D001D003D01C5036D0BB
:1016C80035D01C4A1D2A00D01EC017F0D8901736F6
:1016D800D8901736D890173617501424186EE86A21
:1016E80017BEE8681520196E020E1824D96E000E70
:1016F8001920DA6EDF501A6E1B6A1A501C5C1B50D8
:101708001D58D8A001D001D0B6D700D0FF0E0ED0FA
:101718000DD01E4A1F2A050E1E5C000E1F58D8A0A9
:1017280001D001D084D700D0FF0E00D01200000EE7
:101738001F6E000E1E6E050E1E5C000E1F58D8A0F0
:1017480001D001D002D07ED07DD01EC017F0D89035
:101758001736D8901736D890173617501424186EA5
:10176800E86A17BEE8681520196E18C0D9FF19C0B5
:10177800DAFFDE521350DD1812C0E8FFD8B4DF18C4
:10178800D8A401D001D053D0000E1D6E000E1C6EDF
:1017980029D01EC017F0D8901736D8901736D89091
:1017A80017361CC018F0030E182618501424196E8A
:1017B800E86A18BEE86815201A6E17501926E86AF4
:1017C80017BEE8681A2219C0D9FF1AC0DAFF1650E6
:1017D800DF6201D001D003D0010E36D035D01C4ACB
:1017E8001D2A00D01EC017F0D8901736D89017368B
:1017F800D890173617501424186EE86A17BEE86890
:101808001520196E020E1824D96E000E1920DA6EF2
:10181800DF501A6E1B6A1A501C5C1B501D58D8A04A
:1018280001D001D0B6D700D0000E0ED00DD01E4A80
:101838001F2A050E1E5C000E1F58D8A001D001D02B
:1018480084D700D0000E00D01200000E1E6E000ECD
:101858001D6E050E1D5C000E1E58D8A001D001D0CB
:1018680002D076D075D01DC016F0D8901636D89014
:101878001636D890163616501224176EE86A16BE19
:10188800E8681320186E17C0D9FF18C0DAFFDE52B7
:101898001550DD1814C0E8FFD8B4DF18D8A401D05B
:1018A80001D04BD0000E1C6E000E1B6E23D01DC045
:1018B80016F0D8901636D8901636D89016361BC023
:1018C80017F0030E172617501224186EE86A17BE71
:1018D800E8681320196E16501826E86A16BEE868DC
:1018E800192218C0D9FF19C0DAFF000EDF6E1B4A93
:1018F8001C2A00D01DC016F0D8901636D89016367F
:10190800D890163616501224176EE86A16BEE86884
:101918001320186E020E1724D96E000E1820DA6EE6
:10192800DF50196E1A6A19501B5C1A501C58D8A03F
:1019380001D001D0BCD70CD00BD01D4A1E2A050EF1
:101948001D5C000E1E58D8A001D001D08CD700D045
:1019580012003FC0D9FF40C0DAFFDF50000100018C
:10196800646F20EE01F03F50D9264050DA22DF5054
:1019780000010001656F000E000100016D6F000E8F
:1019880000016C6F060E000100016C5D000E000185
:101998006D59D8A001D001D002D036D035D06CC056
:1019A80060F0020E00016027000160513F24000131
:1019B800616FE86A000160BFE86840200001626F5B
:1019C80061C0D9FF62C0DAFF6CC063F0020E00018B
:1019D80063270001640E00016325E16EE26A0001DD
:1019E800000EE222DFCFE7FF000100016C4B6D2BF8
:1019F800060E000100016C5D000E00016D59D8A0B3
:101A080001D001D0CCD700D0C80E1D6E000E1E6EBE
:101A1800000E1F6E000E206E0001000E226E0001E7
:101A2800640E216E20EE08F03F50D9264050DA228D
:101A3800DF50020F236E0001606F000E246E00015C
:101A48006051A3EC07F000D01200206601D001D04D
:101A580072D0216E000E226E21502250D8B401D0CF
:101A680001D002D020D01FD02250020D490EF324FD
:101A7800D96EDA6A000EDA22FF0EDF6201D001D0D9
:101A88000BD02250020D490EF324D96EDA6A000EEB
:101A9800DA2220C0DFFF07D0222A2250D8B401D092
:101AA80001D0E2D700D0216E000E236E21502350C2
:101AB800D8B401D001D002D03ED03DD02350020D81
:101AC800490EF324D96EDA6A000EDA222050DF625A
:101AD80001D001D028D02350020DF3CF21F0010E00
:101AE8002126490E2124D96EDA6A000EDA22DF5047
:101AF800D8B401D001D003D01ED01DD014D02350AB
:101B0800020DF3CF21F0010E2126490E2124D96EB2
:101B1800DA6A000EDA22DF2A20C012F01AEC12F07C
:101B28000AD009D000D0232A2350D8B401D001D03C
:101B3800C5D701D000D01200136E800E126E13505C
:101B480066EC13F0430E706EBF0E716E870E726EE8
:101B5800200E736E779E779C200E606E200E0F010C
:101B68000F01506F000E0F010F01006F000E0F01E3
:101B78000F01016F000E0F010F01046F000E0F011E
:101B88000F01056F000E0F010F01086F000E0F0106
:101B98000F01096F000E0F010F010C6F000E0F01EE
:101BA8000F010D6F000E0F010F01106F000E0F01D6
:101BB8000F01116F000E0F010F01146F000E0F01BE
:101BC8000F01156F000E0F010F01186F000E0F01A6
:101BD8000F01196F0F010F011997000E0F010F0167
:101BE8001C6F000E0F010F011D6F0F010F011D97D4
:101BF800136E000E126E135066EC13F01200000EF6
:101C08001D6E000E1C6E050E1C5C000E1D58D8A023
:101C180001D001D002D04FD04ED01CC018F0D890BF
:101C28001836D8901836D890183618501424196ECB
:101C3800E86A18BEE86815201A6E19C0D9FF1AC0DC
:101C4800DAFFDE521350DD1812C0E8FFD8B4DF18EF
:101C5800D8A401D001D024D01CC018F0D8901836D0
:101C6800D8901836D89018361750010DF3CF19F0C0
:101C7800030E1926195014241A6EE86A19BEE8686A
:101C880015201B6E18501A26E86A18BEE8681B2231
:101C98001AC0D9FF1BC0DAFF16C0DFFF0CD00BD06B
:101CA8001C4A1D2A050E1C5C000E1D58D8A001D028
:101CB80001D0B3D700D0120020EE08F01250D92678
:101CC8001350DA22050EDF6401D001D046D020EE91
:101CD80002F01250D9261350DA22DF5014C0D9FF6F
:101CE80015C0DAFFDF6201D001D037D020EE01F055
:101CF8001450D9261550DA2210EE03F01250E126BE
:101D08001350E222E750DF6201D001D026D020EE46
:101D180002F01450D9261550DA2210EE04F01250B1
:101D2800E1261350E222E750DF6201D001D015D03E
:101D380020EE03F01450D9261550DA2210EE05F0E3
:101D48001250E1261350E222E750DF6201D001D0A1
:101D580004D0010E04D003D000D0000E00D0120031
:101D6800146E800E126E145066EC13F0146E000E92
:101D7800156E145024D0146E000E156E145036D003
:101D8800146E010E156E145031D0146E030E156EBC
:101D980014502CD0146E070E156E145027D0146EE4
:101DA8000F0E156E145022D0146E1F0E156E14509F
:101DB8001DD0146E3F0E156E145018D017D0135046
:101DC800010AD8B4D8D7030AD8B4DAD7010AD8B4E4
:101DD800DCD7070AD8B4DED7010AD8B4E0D7030A9B
:101DE800D8B4E2D7010AD8B4E4D700D0C00E701630
:101DF80015507012146E000E126E145066EC13F02B
:101E08001200000E1B6E000E1C6E000E1D6E000EE2
:101E18001E6E1950161017101810D8B401D001D022
:101E280035D01A6E010E1F6E1A5007D0D89016368C
:101E38001736183619361F2A00D019AE01D001D02E
:101E4800F5D701D000D0D8901B361C361D361E366B
:101E58001650125C1750135818501458195015582A
:101E6800D8A001D001D00AD01650125E1750135ACC
:101E78001850145A1950155A1B8000D0D89019328E
:101E88001832173216321F2EDED700D01BC012F0C0
:101E98001CC013F01DC014F01EC015F0120012660D
:101EA80001D001D042D02FD02ED080B001D002D0A6
:101EB800010E01D0000E3BD03AD037D080B201D00D
:101EC80002D0010E01D0000E32D031D02ED080B811
:101ED80001D002D0010E01D0000E29D028D025D083
:101EE80080BA01D002D0010E01D0000E20D01FD040
:101EF8001CD081BC01D002D0010E01D0000E17D039
:101F080016D013D012D01250000AD8B4CED7010A76
:101F1800D8B4D4D7030AD8B4DAD7010AD8B4E0D7EA
:101F2800070AD8B4E6D701D000D0000E00D01200BE
:101F3800126601D001D043D01350D8B401D001D0DB
:101F48002BD00CD00BD089803AD0898238D08988A0
:101F580036D0898A34D08A8C32D031D01250000AD7
:101F6800D8B4F1D7010AD8B4F0D7030AD8B4EFD758
:101F7800010AD8B4EED7070AD8B4EDD720D01FD0BD
:101F88000BD089901CD089921AD0899818D0899A38
:101F980016D08A9C14D013D01250000AD8B4F1D7A6
:101FA800010AD8B4F0D7030AD8B4EFD7010AD8B4D5
:101FB800EED7070AD8B4EDD702D001D000D012006E
:101FC8008980C80E126E000E136E000E146E000E7D
:101FD800156E21EC10F089908982C80E126E000EE1
:101FE800136E000E146E000E156E21EC10F089921F
:101FF8008988C80E126E000E136E000E146E000E45
:10200800156E21EC10F08998898AC80E126E000EA0
:10201800136E000E146E000E156E21EC10F0899AE6
:102028008A8CC80E126E000E136E000E146E000E0F
:10203800156E21EC10F08A9C1200000E166E000E30
:10204800176E000E186E000E196E25D0000E1B6E4E
:10205800000E1A6E1B50800A7E0F6C0ED8B41A5CE4
:10206800D8A001D001D002D00ED00DD01A4A1B2A18
:102078001B50800A7E0F6C0ED8B41A5CD8A001D011
:1020880001D0F4D700D0010E1626000E1722000E3C
:102098001822000E19221250165C135017581450AB
:1020A800185815501958D8A001D001D0CFD700D052
:1020B800120020EE08F01350D9261450DA22DF500F
:1020C800166E060E165CD8B001D001D02BD020EECB
:1020D80008F01350D9261450DA22DF50010DF3CF3F
:1020E80016F0020E162616501324176EE86A16BE4E
:1020F800E8681420186E17C0D9FF18C0DAFF15C099
:10210800DFFF20EE08F01350D9261450DA2210EE23
:1021180008F01350E1261450E222E750166E1628F4
:10212800DF6E00D0120035D025D080B401D002D0A7
:10213800010E01D0000E2FD02ED02BD080B601D0AA
:1021480002D0010E01D0000E26D025D022D081BEAB
:1021580001D002D0010E01D0000E1DD01CD019D024
:1021680080BE01D002D0010E01D0000E14D013D0D1
:1021780010D00FD01250000AD8B4D7D7010AD8B45B
:10218800DDD7030AD8B4E3D7010AD8B4E9D701D018
:1021980000D0000E00D01200000E186E000E176E50
:1021A80015501410D8B401D001D027D0166E010EE6
:1021B800196E165005D0D89014361536192A00D045
:1021C80015AE01D001D0F7D701D000D0D89017367E
:1021D80018361450125C15501358D8A001D001D0ED
:1021E80006D01450125E1550135A178000D0D8909C
:1021F80015321432192EEAD700D017C012F018C0C1
:1022080013F01200000E136E000E126E91EC13F014
:1022180014C0D9FF15C0DAFFDF6E20EE01F01450AC
:10222800D9261550DA22000E136E010E126E91ECAB
:1022380013F0DF6E20EE02F01450D9261550DA2282
:10224800000E136E020E126E91EC13F0DF6E20EE8C
:1022580003F01450D9261550DA22000E136E030E1F
:10226800126E91EC13F0DF6E1200AC84B886000E8B
:10227800126E480E136EE80E146E010E156E20C015
:1022880016F021C017F022C018F023C019F005EC91
:102298000FF0030E05D0D8901532143213321232D3
:1022A800E82EF9D7FF0E1224246EFF0E1320256E98
:1022B80024C0AFFF2550B06EAC98AB8E949C948E22
:1022C800AC8AAB889E9A9D8AF28EF28C12001D50C1
:1022D8001C10D8B401D001D023D01E6E010E1F6E81
:1022E8001E5005D0D8901C361D361F2A00D01DAEB2
:1022F80001D001D0F7D701D000D01C501A5C1D5076
:102308001B58D8A001D001D005D01C501A5E1D5012
:102318001B5A00D0D8901D321C321F2EEED700D089
:102328001AC01AF01BC01BF012000F010F0E186E16
:102338000F01180E176E1250040DF3501726000ED9
:10234800182213C015F014C016F0D89016321532A2
:10235800D89016321532D89016321532155017C04B
:10236800D9FF18C0DAFFDF6E1338E846E00BE00B40
:10237800174A182A17C0D9FF18C0DAFFDF6E1200F3
:102388000F010F0E186E0F01000E176E1250040D7C
:10239800F3501726000E182213C015F014C016F0BB
:1023A800D89016321532D89016321532D890163287
:1023B8001532155017C0D9FF18C0DAFFDF6E133871
:1023C800E846E00BE00B174A182A17C0D9FF18C0D7
:1023D800DAFFDF6E1200126E000E136E12501350E9
:1023E800D8B401D001D002D020D01FD01350020D94
:1023F800490EF324D96EDA6A000EDA22FF0EDF6E78
:102408001350020DF3CF12F0010E1226490E1224BA
:10241800D96EDA6A000EDA22000EDF6E132A135024
:10242800D8B401D001D0E2D700D01200126601D092
:1024380001D024D011D010D0010E891A1FD0020E5D
:10244800891A1CD0100E891A19D0200E891A16D094
:10245800400E8A1A13D012D01250000AD8B4ECD702
:10246800010AD8B4ECD7030AD8B4ECD7010AD8B417
:10247800ECD7070AD8B4ECD701D000D01200434AF1
:10248800442A470E435C000E4458D8A001D001D01E
:1024980007D0000E446E000E436E454A462A00D00F
:1024A800E90E455C030E4658D8A001D001D00DD0E6
:1024B800126E000E426E1250000E466E000E456EF1
:1024C80045C043F046C044F000D0425000D012004E
:1024D800016601D001D024D011D010D0010E891A84
:1024E8001FD0020E891A1CD0100E891A19D0200E7E
:1024F800891A16D0400E8A1A13D012D00150000A39
:10250800D8B4ECD7010AD8B4ECD7030AD8B4ECD7BE
:10251800010AD8B4ECD7070AD8B4ECD701D000D058
:10252800120001EE00F0180EEE6AE806FDE100EE7A
:10253800EDF00F0EEE6AE806FDE100EE42F00D0E3A
:10254800EE6AE806FDE1680EF66E270EF76E000EDD
:10255800F86E00EEDDF010EE10F00900F5CFEEFF9A
:10256800E550E150FAE1000EF86E00010EEF00F0C0
:102578000001000E136E0001710E126E6EC014F091
:102588006FC015F0416E010E166E415029EC13F024
:102598000001000E146E0001710E136E70C015F06C
:1025A8005DEC10F00001000E406E0001710E3F6EF0
:1025B800ADEC0CF012000CD021C0F6FF22C0F7FFE2
:1025C8000800F5CF20F0ACEC13F0214A222A00D005
:1025D80021C0F6FF22C0F7FF0800F5500009D8A473
:1025E80001D001D0E9D700D0120020EE08F0125037
:1025F800D9261350DA22010EDF6401D001D00AD0A7
:1026080020EE01F01250D9261350DA22DF5005D0FF
:1026180004D003D0000E01D000D0120020EE08F044
:102628001250D9261350DA22DF50D8B401D001D085
:1026380008D012C0D9FF13C0DAFFDF5005D004D08C
:1026480003D0000E01D000D0120020EE01F012508D
:10265800D9261350DA2216C0DFFF12C0D9FF13C0E3
:10266800DAFF14C0DFFF20EE08F01250D92613500D
:10267800DA22000EDF6E12001350AA6E12C0A9FFF4
:1026880014C0A8FF040EA66E550EA76EAA0EA76E5C
:10269800A68200D0A6B201D001D0FCD700D012008B
:1026A800C180C182C184C186CC0E92168C0E921252
:1026B800CC0E8916CC0E8016939C938E8A9CE4ECE3
:1026C8000FF012001F0E6F1612506F1201D000D0BB
:1026D8006F50E00B1218D8A401D001D0F9D700D060
:1026E800120014C012F015C013F012EC13F0C80A4F
:1026F800D8B401D002D0010E01D0000E00D01200D3
:10270800126E010E426E1250000E466E000E456E9D
:1027180045C043F046C044F012001350AA6E12C0E0
:10272800A9FF010EA66EA85000D01200010E0001EC
:102738000001EF6F000E00010001ED6F1200000EA6
:1027480000010001EF6F000E00010001ED6F1200A3
:1027580000D0ACA201D001D0FCD720C0ADFF120040
:1027680001006400000000000000010000000001FA
:0E277800000E4E6E000E00010001ED6F12000B
:10FEFE000D0A7265636569766564207569642063B1
:10FF0E006F72726563742C20676574206164723A37
:10FF1E0020000D0A726573706F6E736520746F200A
:10FF2E00504F4C4C5F5549442C207569643A200063
:10FF3E000D0A72657365742061646472657373650E
:10FF4E0073206F662049443A000D0A524541442001
:10FF5E004143544F522050494E206E723A0A0D00C2
:10FF6E000D0A726563656976656420756964206340
:10FF7E006F7272656374000D0A43414E20726563A1
:10FF8E00656976655B2069643A20000D0A41434B32
:10FF9E002066726F6D204D4153544552000D0A7309
:10FFAE0065742061646472657373000D0A73656E07
:10FFBE00642050494E47000D0A706F6C6C205549F5
:10FFCE0044000D0A6765742050494E47000D0A73B0
:10FFDE0065742050494E0020666C6167733A2000AC
:10FFEE0020646174613A20005354415254005D0004
:02FFFE00000001
:020000040030CA
:0600010006001E00800055
:00000001FF
