:040800000CEF04F005
:102ED8006F50E00B1218D8A401D001D0F9D700D058
:102EE800120014C012F015C013F012EC17F0C80A43
:102EF800D8B401D002D0010E01D0000E00D01200CB
:102F0800126E010E426E1250000E466E000E456E95
:102F180045C043F046C044F012001350AA6E12C0D8
:102F2800A9FF010EA66EA85000D01200010E0001E4
:102F38000001EF6F000E00010001ED6F1200000E9E
:102F480000010001EF6F000E00010001ED6F12009B
:102F580000D0ACA201D001D0FCD720C0ADFF120038
:102F680001006400000000000000010000000001F2
:0E2F7800000E4E6E000E00010001ED6F120003
:10FEFE000D0A7265636569766564207569642063B1
:10FF0E006F72726563742C20676574206164723A37
:10FF1E0020000D0A726573706F6E736520746F200A
:10FF2E00504F4C4C5F5549442C207569643A200063
:10FF3E000D0A72657365742061646472657373650E
:10FF4E0073206F662049443A000D0A524541442001
:10FF5E004143544F522050494E206E723A0A0D00C2
:10FF6E000D0A726563656976656420756964206340
:10FF7E006F7272656374000D0A43414E20726563A1
:10FF8E00656976655B2069643A20000D0A41434B32
:10FF9E002066726F6D204D4153544552000D0A7309
:10FFAE0065742061646472657373000D0A73656E07
:10FFBE00642050494E47000D0A706F6C6C205549F5
:10FFCE0044000D0A6765742050494E47000D0A73B0
:10FFDE0065742050494E0020666C6167733A2000AC
:10FFEE0020646174613A20005354415254005D0004
:02FFFE00000001
:020000040030CA
:0600010006001E00800055
:0200000400F00A
:100000000011223344050607010802030405060710
:100010000208020304050607030802030405060795
:00000001FF
